:020000040800F2
:10000000782C0020450100087D1B0008B10D000878
:10001000791B0008DF040008A92A0008000000007E
:100020000000000000000000000000005D1D00084E
:10003000B50A000800000000051C00088D1E00081D
:100040005F0100085F0100085F0100085F01000810
:100050005F0100085F010008B90A00080D0B0008E5
:100060005F0100085F010008610B00085F010008E4
:100070005F0100085F0100085F0100085F010008E0
:100080005F0100085F0100085F0100085F010008D0
:10009000892A00085F0100085F0100085F0100086D
:1000A0005F0100085F0100085F0100085F010008B0
:1000B0005F0100085F0100085F0100085F010008A0
:1000C0005F0100085F0100085F0100085F01000890
:1000D0005F01000841240008E9260008CD27000838
:1000E0005F0100085F0100085F0100085F01000870
:1000F0005F0100085F0100085F0100085F01000860
:100100005F0100085F0100085F0100085F0100084F
:10011000FD2000086D2300085F0100085F01000852
:100120005F0100085F0100085F0100085F0100082F
:10013000DFF80CD000F0A2F900480047F13C0008BD
:10014000782C00200648804706480047FEE7FEE777
:10015000FEE7FEE7FEE7FEE7FEE7FEE7FEE7FEE777
:10016000511F00083101000840EA01039B0703D03A
:1001700009E008C9121F08C0042AFAD203E011F8E6
:10018000013B00F8013B521EF9D27047D2B201E0A8
:1001900000F8012B491EFBD270470022F6E710B58C
:1001A00013460A4604461946FFF7F0FF204610BDE5
:1001B00010B5002200E0521C835C8C5CA34201D18C
:1001C000002BF8D1D8B2E1B2401A10BDF0B480EAE9
:1001D0000102D40F4200B2EB410F02D202460846A0
:1001E00011464A0042D0C30DDDB2C1F3C752AD1A69
:1001F000202D35DAC1F3160141F4000204B1524258
:10020000C5F1200602FA06F12A411044B3EBD05F93
:1002100023D0C4B1012DA0EBC35009DCF0BC4FF0DA
:10022000004202EAC352DBB200F5000000F0F7B86A
:10023000400000F1807000EBC350A0F1807040EAF4
:10024000D170490009E0490841EAC071A0EBC350F0
:1002500000F50000400800EBC350F0BC00F0D6B839
:100260006142012202EB4101001BF6E7F0BC70473E
:1002700081F00041AAE780F00040A7E780EA010290
:1002800010B502F00043400022D04A001FD0010EFA
:1002900001EB1261C0F35600C2F3560240F40000B5
:1002A00042F40002A0FB022000047F39140400D0B5
:1002B000401C50EA124001D44000491EC2B20C0654
:1002C00004EBD010401C4008802A02D003E000203C
:1002D00010BD20F00100002900DA0020184310BDF5
:1002E00030B480EA010202F0004530F0004221F013
:1002F000004013D090B1C30DD40DC2F31601C0F36A
:100300001600E41A41F4000140F400027D349142E9
:1003100001D3641C00E04900002C02DA30BC00204C
:1003200070474FF400000023914201D3891A034320
:1003300040084FEA4101F7D151B1914202D14FF04B
:10034000004105E002D24FF0010101E06FF0010130
:1003500003EBC450284430BC00F058B8C10F80EA09
:10036000E0700844CA079623002100F058B896238D
:100370000022114600F053B800F0004220F0004087
:10038000C10DC0F3160040F400007F2901DA0020FF
:100390007047962903DCC1F19601C84001E0963907
:1003A0008840002AF4D0404270472DE9F05F0546AE
:1003B000002092469B4688460646814640241BE024
:1003C000284641464746224600F079F853465A46A9
:1003D000C01A914110D311461846224600F060F829
:1003E0002D1A67EB01084F4622460120002100F03C
:1003F00057F817EB00094E41201EA4F10104DFDC81
:10040000484631462A464346BDE8F09F0029A8BF2A
:100410007047401C490008BF20F00100704710B42D
:10042000B0FA80FC00FA0CF050EA010404BF10BCE2
:10043000704749B1CCF1200421FA04F411FA0CF10F
:1004400018BF012121430843A3EB0C01CB1D4FEA48
:1004500000614FEA102042BF002010BC704700EB43
:10046000C35010440029A4BF10BC7047401C490071
:1004700008BF20F0010010BC70470000064C074D7B
:1004800006E0E06840F0010394E807009847103464
:10049000AC42F6D3FFF750FE4C9400086C94000871
:1004A000202A04DB203A00FA02F100207047914034
:1004B000C2F1200320FA03F3194390407047202A29
:1004C00004DB203A21FA02F00021704721FA02F3FE
:1004D000D040C2F12002914008431946704700BF46
:1004E000FEE7000000B589B00121480601F08CFB51
:1004F0000121042001F0A8FB4FF48050ADF820004A
:1005000018208DF8230003208DF8220008A9334815
:1005100000F0BAFB4FF40060ADF8200048208DF8E1
:10052000230003208DF8220008A92C4800F0ACFB22
:1005300001208DF81B008DF81C0000208DF816009E
:1005400001208DF81D008DF81E0000208DF81A0086
:100550008DF81F000520ADF8140001208DF817005C
:1005600004208DF8180002208DF8190005A91C48F8
:1005700000F00BF901208DF811000020ADF80C00FF
:100580008DF80E0001208DF8100000208DF80F006E
:10059000ADF8040049F2A410ADF806000020ADF853
:1005A0000800ADF80A0001A800F062F8012202215B
:1005B0000B4800F0E1F814208DF8000001208DF8C0
:1005C00001008DF802008DF80300684601F0D8FAAA
:1005D00004A002F025FF09B000BD000000080140A2
:1005E0000064004043414E20CDA8D0C5C5E4D6C329
:1005F00020202020202020202020C5E4D6C3CDEAC2
:10060000B3C90D0A0000000070B504460D46002174
:10061000154880F82110042180F82010002012498C
:1006200088610846C561082180F82210217880F889
:100630002310617880F82410A17880F82510E178E3
:1006400080F82610217980F82710617980F8281029
:10065000A17980F82910E17980F82A1000F11801B9
:10066000024800F094F970BD482800200064004062
:1006700010B50021837A012202FA03F13D4A126883
:1006800042F001023B4B1A603A4A1C3212688A431C
:10069000384B1C331A60027BCAB9364A0C321268D6
:1006A0008A43344B0C331A604288C38842EA0343BE
:1006B000304A4032847A42F834300288838842EAF1
:1006C00003432C4A4032847A02EBC4025360027B1B
:1006D000012A19D1274A0C3212680A43254B0C33E0
:1006E0001A604288038842EA0343224A4032847AED
:1006F00042F83430C288838842EA03431D4A4032BC
:10070000847A02EBC4025360C27A3AB9194A121DC4
:1007100012688A43174B1B1D1A6006E0154A121D0A
:1007200012680A43134B1B1D1A60028932B9114A21
:10073000143212688A430F4B14331A600289012A5B
:1007400006D10C4A143212680A430A4B14331A6059
:10075000427B012A06D1074A1C3212680A43054B24
:100760001C331A60034A126822F00102014B1A601E
:1007700010BD0000006600401AB143690B4343619D
:1007800002E043698B434361704730B50246002065
:100790000023146824F002041460146844F0010477
:1007A000146000E05B1C546804F001041CB94FF6AF
:1007B000FF74A342F6D1546804F001040CB9002080
:1007C0006CE08C79012C04D1146844F0800414602E
:1007D00003E0146824F080041460CC79012C04D167
:1007E000146844F04004146003E0146824F04004EA
:1007F00014600C7A012C04D1146844F020041460B5
:1008000003E0146824F0200414604C7A012C04D115
:10081000146844F01004146003E0146824F0100419
:1008200014608C7A012C04D1146844F0080414601C
:1008300003E0146824F008041460CC7A012C04D17D
:10084000146844F00404146003E0146824F0040401
:1008500014608C78A407CD7844EA05640D7944EAE5
:1008600005444D7944EA05540D886D1E2C43D4612E
:10087000146824F001041460002300E05B1C546839
:1008800004F001041CB14FF6FF74A342F6D1546882
:1008900004F001040CB1002000E0012030BD10B5CF
:1008A00000F5D87303EB01131B6803F00403137204
:1008B000137A53B900F5D87303EB01131B6840F2A8
:1008C000FF7404EA5353136009E000F5D87303EB97
:1008D00001131B686FF0604404EAD303536000F512
:1008E000D87303EB01131B6803F00203537200F586
:1008F000D87303EB01135B6803F00F03937200F5E9
:10090000D87303EB01135B681B0AD37400F5D8732B
:1009100003EB01139B68D37200F5D87303EB01134B
:100920009B681C0A147300F5D87303EB01139B68D2
:100930001C0C547300F5D87303EB01139B681B0E5A
:10094000937300F5D87303EB0113DB68D37300F5E1
:10095000D87303EB0113DB681C0A147400F5D87319
:1009600003EB0113DB681C0C547400F5D87303EB24
:100970000113DB681B0E937421B9C36843F0200395
:10098000C36003E0036943F02003036110BD10B5A9
:1009900002460020936803F08063B3F1806F00D1BA
:1009A00010E0936803F00063B3F1006F01D1012000
:1009B00008E0936803F08053B3F1805F01D1022017
:1009C00000E00420042874D002F5C07303EB001388
:1009D0001B6803F0010402F5C07303EB00131C60F5
:1009E0000B7A7BB94B7A0C8843EA445302F5C07406
:1009F00004EB00142468234302F5C07404EB0014D4
:100A0000236010E00B7A4C6843EAC4034C7A23431A
:100A100002F5C07404EB00142468234302F5C0748B
:100A200004EB001423608B7A03F00F038B7202F542
:100A3000C07303EB00135B6823F00F0402F5C0736F
:100A400003EB00135C6002F5C07303EB00135B68FB
:100A50008C7A234302F5C07404EB001463608B7B33
:100A60001C064B7B44EA03440B7B44EA0323CC7A09
:100A7000234302F5C07404EB0014A3608B7C1C06B6
:100A80004B7C44EA03440B7C44EA0323CC7B2343A2
:100A900002F5C07404EB0014E36002F5C07303EBCD
:100AA00000131B6843F0010402F5C07303EB00134D
:100AB0001C6010BD7047000010B50A48006800F0C7
:100AC000010070B10748006840F001000549086066
:100AD00005A002F0A5FC0C48006880F004000A495B
:100AE000086010BD14040140B5DA203120B8F6B01A
:100AF000B4BCFCB1BBB0B4CFC22C20C0B6B5C6B735
:100B0000B4D7AA0D000000000C0C014010B50A4833
:100B1000006800F0020070B10748006840F0020071
:100B20000549086005A002F07BFC0C48006880F0D5
:100B300004000A49086010BD14040140B5DA2032EF
:100B400020B8F6B0B4BCFCB1BBB0B4CFC22C20C04E
:100B5000B6B5C6B7B4D7AA0D000000000C0C014012
:100B600010B50A48006800F0100070B1074800682E
:100B700040F010000549086005A002F051FC0C4847
:100B8000006880F004000A49086010BD14040140A8
:100B9000B5DA203320B8F6B0B4BCFCB1BBB0B4CFEA
:100BA000C22C20C0B6B5C6B7B4D7AA0D000000004D
:100BB0000C0C0140002123498279002A3AD00A46D0
:100BC000126803689A430B461A600A1D126803688C
:100BD0009A430B1D1A60027911440A6803681A438C
:100BE0000A60184A0832126803689A43154B0833A2
:100BF0001A601A1D126803689A43124B0C331A606C
:100C00004279102A0ED11A1F126803681A430D4B3D
:100C100008331A601A1D126803681A43094B0C3313
:100C20001A600DE00749427911440A6803681A43C3
:100C30000A6005E0027911440A6803689A430A6071
:100C4000704700000004014030B500228B071C0FE4
:100C50000F2303FA04F20B4B8C1053F82430934308
:100C6000084C8D1044F8253023468C1053F824305E
:100C70008C07240F00FA04F42343024C8D1044F82F
:100C8000253030BD080001402DE9F0410246002525
:100C90000026002000230024002791F803C00CF058
:100CA0000F0591F803C00CF0100CBCF1000F03D03D
:100CB00091F802C04CEA050591F800C0BCF1000FA4
:100CC00031D0146800202BE04FF0010C0CFA00F337
:100CD000B1F800C00CEA03069E4220D183004FF019
:100CE0000F0C0CFA03F7BC4305FA03FC4CEA0404AE
:100CF00091F803C0BCF1280F06D14FF0010C0CFA9B
:100D000000FCC2F814C00AE091F803C0BCF1480F1F
:100D100005D14FF0010C0CFA00FCC2F810C0401CC9
:100D20000828D1D31460B1F800C0BCF1FF0F34DD46
:100D3000546800202EE000F1080C4FF0010808FA7A
:100D40000CF3B1F800C00CEA03069E4221D18300E7
:100D50004FF00F0C0CFA03F7BC4305FA03FC4CEA06
:100D6000040491F803C0BCF1280F05D100F1080C70
:100D700008FA0CF8C2F8148091F803C0BCF1480FCF
:100D800007D100F1080C4FF0010808FA0CF8C2F87E
:100D90001080401C0828CED35460BDE8F081024684
:100DA000002093680B400BB1012000E00020704749
:100DB00000BFFEE710B54FF4E13001F0AFFB01F0EA
:100DC0004BF901F05FF901F071F81A4801681AA0B7
:100DD00002F026FB20A002F023FB2548018825A075
:100DE00002F01EFB00F086FE2548006840F48020DB
:100DF000234908602348006940F400102149086134
:100E000001F054FE00F0F6FB1F4B9A799988588840
:100E100001F0CCFF012001F0BDFF00F07DF9FFF7EC
:100E200061FB4FF4E13001F0DBF900F02FF8002016
:100E300010BD000064000020CFB5CDB3D4CBD0D01E
:100E4000CAB1D6D3202020202020202020202564B5
:100E500020487A0D00000000D0BEC6ACC4DAB2BF94
:100E6000464C4153482020202020202020200000F4
:100E7000E0F7FF1F2564204B62797465730A000058
:100E8000100C014000100140182000201FB5012166
:100E9000084600F0D9FE4A48806940F0DC00484925
:100EA00088610120ADF80C0028208DF80F0001208A
:100EB0008DF80E0003A94348FFF7E6FE06208DF8E3
:100EC000080001208DF8090000208DF80A0001209B
:100ED0008DF80B0002A800F053FE00210846FFF732
:100EE000B3FE0120009000208DF8040008208DF84A
:100EF000050001208DF806006846FFF75BFE022022
:100F0000ADF80C0048208DF80F0001208DF80E0080
:100F100003A92C48FFF7B8FE07208DF80800012030
:100F20008DF8090000208DF80A0001208DF80B00D3
:100F300002A800F025FE01210020FFF785FE022017
:100F4000009000208DF804000C208DF80500012091
:100F50008DF806006846FFF72DFE1020ADF80C0056
:100F600048208DF80F0001208DF80E0003A91548C8
:100F7000FFF78AFE0A208DF8080001208DF809008D
:100F800000208DF80A0001208DF80B0002A800F067
:100F9000F7FD04210020FFF757FE102000900020ED
:100FA0008DF804000C208DF8050001208DF8060056
:100FB0006846FFF7FFFD04A002F032FA1FBD0000F3
:100FC0000010024000080140B0B4BCFC20B3F5CAD8
:100FD000BCBBAF2020202020202020202020C5E4E2
:100FE000D6C3CDEAB3C90D002DE9F84104460D463C
:100FF00017469846384607EBD071C1F34F061FFAE3
:1010000088F0A1198AB2A11B009088B22B4629460C
:1010100000F0CEFC1FFA88F00090A81983B2A81B3C
:1010200081B22246204600F0C3FCBDE8F8810000F2
:1010300010B5034600240BB1032B07D1002014493F
:101040008871F02048804FF4A0708880052B01D073
:10105000062B07D101200E4988714FF4A0704880FB
:10106000F020888003B900BF032B01D144F0C004F5
:10107000052B01D144F06004062B01D144F0A004FB
:10108000362003F0C5F844F0080003F0AFF810BDB7
:101090001820002070B504460D461646681C83B221
:1010A000601C82B22946204603F0C4F8304603F0A3
:1010B0009DF870BD2DE9F04304460D4616461F46C7
:1010C000DDF81C80701C001B791C491B00FB01F91A
:1010D0003B4632462946204603F0ACF84FF4807078
:1010E0000B4908614000486106E00A48C0F80080EA
:1010F0008020074948610861B9F10000A9F10109A0
:10110000F3D14FF4007002490861BDE8F08300009C
:10111000001001400C0C014030B58BB00020009055
:10112000F1488388428800210846FFF7C3FF4FF249
:10113000DE7040F24913002231210090104600F089
:1011400037FC4FF2DE7040F24913772246210090BF
:10115000104600F02DFC4FF2DE7040F24913EF22F2
:1011600031210090104600F023FC4FF6FF7040F252
:101170004913EF2240F21F1100900020FFF79AFF61
:10118000002040F22F13EF221946009000F010FCCF
:10119000002040F24913772240F21F1100901046C0
:1011A00000F006FC4FF6FF704623EF22312100903D
:1011B0000020FFF77FFF0020462377223121009097
:1011C000104600F0F5FB4FF6FF70BC23EF22A8217C
:1011D00000907720FFF76EFF00204FF6FF71182375
:1011E000C2A2CDE900100146082000F037FC002023
:1011F0004FF2DE711023C2A2CDE900101C2148205D
:1012000000F02CFC4FF6FF7000211023C0A2CDE9A6
:1012100000103421062000F021FC4FF6FF70002161
:101220001023BEA2CDE9001034217D2000F016FC71
:101230004FF6FF7000211023BCA2CDE90010AB21B6
:101240007D2000F00BFC4FF6FF7000210C23B9A2AB
:10125000CDE900104FF49171062000F0FFFB4FF62E
:10126000FF7000210C23B6A2CDE900104FF4997154
:10127000062000F0F3FB4FF6FF7000210C23B3A211
:10128000CDE900104FF491717D2000F0E7FB4FF69F
:10129000FF7000210C23B0A2CDE900104FF499712A
:1012A0007D2000F0DBFBAF48C28AAFA103A802F0AB
:1012B000C7F84FF6FF701F210C2303AACDE90010D9
:1012C0004FF49971442000F0C9FB4A2400204FF6E6
:1012D000E0710C23A6A2CDE900102146062000F003
:1012E000BDFBA648007801280BD100204FF4FC611B
:1012F0000C23A3A2CDE9001021465A2000F0AEFB3A
:101300000AE000204FF478410C239FA2CDE90010A1
:1013100021465A2000F0A2FB04F10F0084B2002005
:101320004FF6E0710C239AA2CDE900102146062069
:1013300000F094FB994800689949B0FBF1F52A4602
:1013400098A103A802F07CF800204FF4FC610C2364
:1013500003AACDE900102146542000F07FFB0020B5
:101360004FF4FC610C2390A2CDE9001021466020CF
:1013700000F074FB04F10F0084B200204FF6E0711E
:101380000C238AA2CDE900102146062000F066FB5E
:1013900000204FF4FC610C2379A2CDE90010214616
:1013A0005A2000F05BFB04F10F0084B200204FF6DE
:1013B000E0710C2380A2CDE900102146062000F048
:1013C0004DFB00204FF4FC610C236DA2CDE9001011
:1013D00021465A2000F042FB04F10F0084B20020A5
:1013E0004FF6E0710C2377A2CDE9001021460620CC
:1013F00000F034FB5B48007801280CD100204FF44A
:10140000FC610C23574A521CCDE9001021464720AD
:1014100000F024FB0AE000204FF478410C235AA28C
:10142000CDE9001021465A2000F018FB04F10F000E
:1014300084B200204FF6E0710C2365A2CDE90010C4
:101440002146062000F00AFB4648007E01280BD109
:1014500000204FF4FC610C2360A2CDE9001021466E
:101460005A2000F0FBFA0AE000204FF478410C23E8
:1014700045A2CDE9001021465A2000F0EFFA04F110
:101480000F0084B200204FF6E0710C2355A2CDE985
:1014900000102146062000F0E1FA1348028954A109
:1014A00003A801F0CDFF1048007801280BD10020DF
:1014B0004FF4FC610C2303AACDE9001021465A2009
:1014C00000F0CCFA0AE000204FF478410C232EA261
:1014D000CDE9001021465A2000F0C0FA04F10F00B7
:1014E00084B20BB030BD00001820002053544D339F
:1014F000324631303352435436BFAAB7A2B0E5006A
:10150000C9E8B1B8BCECB2E2BCE0BFD80000000052
:10151000B0E5D4D8C9E8B1B8000000005769466901
:10152000CEDECFDFCDA8D0C50000000043414ECDB8
:10153000A8D0C500C4DAB2BFCEC2B6C80000000051
:10154000C6F4B6AFB4CECAFD00000000B4A5C3FE19
:10155000D7F8B1EA00000000D4CBD0D0CAB1B3A410
:1015600000000000FE0F0020B5DA2564B4CE0000B4
:101570005541525431C5E4D6C3000000EA000020B2
:10158000CDEAB3C900000000CAA7B0DC000000002B
:10159000CFB5CDB3CAB1D6D300000000640000209F
:1015A00040420F00256400004D487A004C4544D667
:1015B000B8CABEB5C6000000B0B4BCFCD6D0B6CF29
:1015C00000000000464C415348B4E6B4A2000000BD
:1015D000BABAD7D6D7D6BFE200000000D5FDB3A374
:1015E00000000000CFD4CABEC6C1D0BEC6AC000049
:1015F000255800001CB510208DF8070001208DF83B
:1016000006000121042000F01FFB0121042000F04E
:101610001BFB0121042000F017FB0121042000F036
:1016200013FB0121042000F00FFB4FF40040ADF844
:10163000040001A9D148FFF727FB4020ADF80400C2
:1016400001A9CF48FFF720FB8020ADF8040001A9D5
:10165000CB48FFF719FB4FF48070ADF8040001A9E7
:10166000C748FFF711FB4FF40070ADF8040001A963
:10167000C348FFF709FBC348806940F00100C14936
:101680008861C148406820F0E060BF494860084672
:10169000406840F000704860BA48806940F0080037
:1016A000B84988614FF6FF70ADF8040010208DF83E
:1016B000070001208DF8060001A9B448FFF7E4FAFD
:1016C0004FF6FF70B14910310860642002F0CAF98A
:1016D000D32002F09DFD02F0B3FB02F0B1FB02F05B
:1016E000AFFBAB490881084600894FF6FF7101EA5C
:1016F0000020A749088102F0A3FBA54909890843F6
:10170000A349088108460189A2A001F089FEA048EA
:10171000008949F24131884200D01CBDCF2002F03F
:1017200077FD002002F062FDC12002F05FFD302055
:1017300002F05CFDED2002F06BFD642002F056FD2E
:10174000032002F053FD122002F050FD812002F030
:101750004DFDE82002F05CFD852002F047FD1020E1
:1017600002F044FD7A2002F041FDCB2002F050FD52
:10177000392002F03BFD2C2002F038FD002002F061
:1017800035FD342002F032FD022002F02FFDF7205B
:1017900002F03EFD202002F029FDEA2002F038FD93
:1017A000002002F023FD002002F020FDC02002F006
:1017B0002FFD1B2002F01AFDC12002F029FD01209F
:1017C00002F014FDC52002F023FD302002F00EFDD2
:1017D000302002F00BFDC72002F01AFDB72002F006
:1017E00005FD362002F014FD482002F0FFFC3A20EF
:1017F00002F00EFD552002F0F9FCB12002F008FDC8
:10180000002002F0F3FC1A2002F0F0FCB62002F0F7
:10181000FFFC0A2002F0EAFCA22002F0E7FCF22022
:1018200002F0F6FC002002F0E1FC262002F0F0FCC1
:10183000012002F0DBFCE02002F0EAFC0F2002F0C5
:10184000D5FC2A2002F0D2FC282002F0CFFC082090
:1018500002F0CCFC0E2002F0C9FC082002F0C6FC0D
:10186000542002F0C3FCA92002F0C0FC432002F087
:10187000BDFC0A2002F0BAFC0F2002F0B7FC0020E9
:1018800002F0B4FC002002F0B1FC002002F0AEFC3B
:10189000002002F0ABFCE12002F0BAFC002002F0D4
:1018A000A5FC152002F0A2FC172002F09FFC0720E7
:1018B00002F09CFC112002F099FC062002F096FC3C
:1018C0002B2002F093FC562002F090FC3C2002F00A
:1018D0008DFC052002F08AFC102002F087FC0F200E
:1018E00002F084FC3F2002F081FC3F2002F07EFCED
:1018F0000F2002F07BFC2B2002F08AFC002002F07B
:1019000075FC002002F072FC012002F06FFC3F2009
:1019100002F06CFC2A2002F07BFC002002F066FC46
:10192000002002F063FC002002F060FCEF2002F0D7
:101930005DFC112002F06CFC782002F093F8292065
:1019400002F066FC0020FFF773FB002000901048B7
:101950008088401E83B20E484088401E82B200211B
:101960000846FFF7A7FB4FF4004004491031086018
:1019700001200749087000BFCFE6000000080140C1
:10198000001001400010024000000140000C014026
:1019900018200020CFD4CABEC6C120BCECB2E22EB3
:1019A0002E2E202020202020202025780D0A000027
:1019B0002DE9FF4F84B081468A460020029083467D
:1019C0000698A0EB09050798A0EB0A06CDF804904D
:1019D000CDF800A0002D01DD012705E00DB900279D
:1019E00002E04FF0FF376D42002E02DD4FF001089C
:1019F00006E016B94FF0000802E04FF0FF387642DB
:101A0000B54201DD2C4600E03446002003901EE084
:101A1000009A91B2019A90B2119AFFF73BFB02989B
:101A200028440290B3440298A04205DD0298001BAE
:101A30000290019838440190A34504DDABEB040B00
:101A40000098404400900398401C80B20390611CB1
:101A500003988842DCDD08B0BDE8F08F2DE9FC4733
:101A600006460F4615461C46DDE90A8920480078DF
:101A700008B9BDE8FC87B2460C2C06D0102C04D067
:101A8000182C02D0202C00D018242BE018484088B5
:101A9000001BB04202DA5646381987B214488088D3
:101AA000001BB84200DAE4E728787F280FDACDE996
:101AB00000892A7823463946304601F0F9FF6D1C2B
:101AC000204604EBD07106EB61018EB20AE023469A
:101AD0002A4639463046CDE9008902F079F8AD1C36
:101AE000301986B228780028D0D100BFC1E70000A5
:101AF0001820002008B50121102000F0A5F80121D0
:101B0000082000F0A1F82020ADF8000010208DF88A
:101B1000030003208DF8020069460D48FFF7B4F872
:101B20000420ADF8000010208DF8030003208DF88C
:101B3000020069460748FFF7A7F82020044908611A
:101B4000042004491031086003A001F069FC08BDBD
:101B500000100140000C01404C454420D6B8CABEDC
:101B6000B5C6202020202020202020202020C5E4D1
:101B7000D6C3CDEAB3C90D0000BFFEE77047000031
:101B800070B5002100230F22C47804B3154C2468DB
:101B900004F4E064C4F5E064210AC1F10403CA401E
:101BA000447804FA03F184781440214309010E4C6F
:101BB0000678A155047804F01F050124AC4005788F
:101BC0006D11AD0005F1E025C5F8004109E004788C
:101BD00004F01F050124AC40044D0678761145F849
:101BE000264070BD0CED00E000E400E080E100E084
:101BF00002490143024A1160704700000000FA05E3
:101C00000CED00E07047000029B1064AD26902439A
:101C1000044BDA6104E0034AD2698243014BDA6182
:101C2000704700000010024029B1064A12690243C1
:101C3000044B1A6104E0034A12698243014B1A61A2
:101C4000704700000010024029B1064A9269024321
:101C5000044B9A6104E0034A92698243014B9A6102
:101C6000704700000010024029B1064AD2680243C2
:101C7000044BDA6004E0034AD2688243014BDA6025
:101C8000704700000010024030B5002100220024FF
:101C900000232D4D6D6805F00C0121B1042905D0FC
:101CA000082923D105E0294D056022E0274D056074
:101CB0001FE0254D6D6805F47012234D6D6805F425
:101CC0008034022505EB92421CB9214D5543056035
:101CD0000BE01D4D6D6805F400351DB11C4D5543DD
:101CE000056002E0194D5543056002E0174D05609F
:101CF00000BF00BF144D6D6805F0F0010909154DD6
:101D00006B5C0568DD4045600F4D6D6805F4E06172
:101D1000090A104D6B5C4568DD4085600A4D6D68B1
:101D200005F46051C90A0B4D6B5C4568DD40C56028
:101D3000054D6D6805F44041890B074D6B5CC56826
:101D4000B5FBF3F5056130BD0010024000127A00CA
:101D500000093D0068000020780000207047000066
:101D600010B525480088012804DB0020224908809E
:101D700002F005FC21480088022804DB00201F49EE
:101D8000088002F000FC1E480088052804DB0020C3
:101D90001B49088002F003FC1A4800880A2804DB6B
:101DA00000201849088002F0E9FB17480088322813
:101DB00004DB00201449088002F0F0FB134800887F
:101DC000642804DB00201149088002F0DDFA104885
:101DD0000088B0F5FA7F04DB00200D49088002F08E
:101DE000D3FB0C480088B0F57A7F04DB002009495A
:101DF000088002F0C7FA10BD000000200200002099
:101E00000400002006000020080000200A00002036
:101E10000C0000200E00002014480088401C1349CC
:101E2000088013480088401C114908801148008828
:101E3000401C1049088010480088401C0E4908804A
:101E40000E480088401C0D4908800D480088401C41
:101E50000B4908800B480088401C0A4908800A4842
:101E60000088401C084908807047000000000020DE
:101E700002000020040000200600002008000020CE
:101E80000A0000200C0000200E00002010B50648BB
:101E9000D0E900305A1C40F100000349C1E900209C
:101EA000FFF7BAFF10BD00001000002010B50021A0
:101EB00000200022214B5B6803F00C0121B10429B2
:101EC00006D0082928D107E01D4B1E4C236027E0CF
:101ED0001B4B1C4C236023E0184B5B6803F4701011
:101EE000164B5B6803F48032022303EB904022B967
:101EF000154B4343134C23600DE0104B5B6803F418
:101F0000003323B1104B43430E4C236003E00C4BD2
:101F100043430C4C236003E0094B0A4C236000BF91
:101F200000BF064B5B68C3F30313084CE15C054B31
:101F30001B68CB40034C236010BD00000010024022
:101F400000127A006400002000093D0054000020C7
:101F50000CB53D48006840F001003B490860084668
:101F600040683A490840384948600846406820F4CB
:101F7000FE0048604FF41F00886000200190009030
:101F80000846006840F48030086000BF2E480068B2
:101F900000F4003000900198401C0190009818B99E
:101FA0000198B0F5A06FF1D12748006800F4003027
:101FB000002843D02648006840F0100024490860FB
:101FC0000846006820F0030008600846006840F0FA
:101FD000020008601C4840681B4948600846406889
:101FE00048600846406840F48060486008464068A1
:101FF00020F47C1048600846406840F4E8104860CF
:102000000846006840F08070086000BF0E48006815
:1020100000F000700028F9D00B48406820F0030061
:10202000094948600846406840F00200486000BF27
:102030000548406800F00C000828F9D14FF0006016
:10204000044908600CBD0000001002400000FFF8C9
:102050000020024008ED00E00848806940F00100DF
:10206000064988610648406820F0E06004494860FD
:102070000846406840F00070486070470010024019
:102080000000014010B5124812490860FFF70EFF2A
:10209000104800684FF47A71B0FBF1F4601E4FF005
:1020A000E02148610020886108610846006940F02D
:1020B000040008610846006940F002000861084613
:1020C000006940F00100086103A001F0A9F910BD0A
:1020D000A25D4F00640000205379735469636BCA9A
:1020E000B1D6D3C5E4D6C320202020202020316DD6
:1020F00073D6D0B6CF31B4CE0D00000010B5304845
:10210000008800F0200098B12E480088FF2803DDE9
:102110002B48001D008810BD2948001D0088C1B251
:10212000284802880088401C264B18802648815485
:102130002348008800F01000D8B100202349A1F8FE
:102140000E034FF4807220492148FEF70DF81D4818
:1021500000881E49A1F80E0300201A4908804FF498
:1021600080711948FEF719F8154800881448001DB9
:1021700000881348008800F08000F0B110480C304F
:10218000008800F08000C0B1124801780078401C3F
:10219000104A10701048405C0949091D088010461B
:1021A00000780E490978884207D105480C3000882C
:1021B00020F0800002490C31088000BFABE700002E
:1021C000004C004044000020FE0D0020EA000020EA
:1021D000FA03002032000020FE0800203300002017
:1021E00010B586B004463548C06940F40020334934
:1021F000C8610846806940F0100088610815ADF894
:10220000140003208DF8160018208DF8170005A97A
:102210002B48FEF739FD4FF40060ADF8140048205C
:102220008DF8170005A92648FEF72EFD34208DF8FD
:10223000100002208DF811008DF8120001208DF899
:10224000130004A8FFF79CFC1E4800F03DFB00941F
:102250000020ADF80400ADF80600ADF80800ADF8B8
:102260000C000C20ADF80A006946164800F0A0FBEF
:10227000002240F22771134800F074FB012240F263
:102280002551104800F06EFB012240F224410D4818
:1022900000F068FB01210B4800F00AFB4FF60F70BD
:1022A000084908800120084981F80C030020A1F8A2
:1022B0000E0306A001F0B4F806B010BD00100240F5
:1022C00000100140004C0040EA0000200D55415232
:1022D000543420B3F5CABCBBAFC5E4D6C32020201C
:1022E000202020BDD3CAD5D6D0B6CFA1A2BFD5CF8E
:1022F000D0D6D0B6CF2C20B7A2CBCDD6D0B6CF0D6E
:102300000000000070B5024600200AE0145C0C4B8F
:102310001D781B785B1C0A4E33700A4B5C55431CBE
:10232000D8B28842F2DB0848008800F0800028B963
:102330000548008840F08000034B188070BD000005
:1023400033000020FE0800200C4C004070B504460D
:102350000025264601E0681C85B216F8011B0029FD
:10236000F9D1E9B22046FFF7CDFF70BD10B52C487A
:10237000008800F0200088B12A480088FF2802DD8C
:102380002748808810BD26488088C1B22548028829
:102390000088401C234B1880234881542048008823
:1023A00000F01000D0B100202049A1F812044FF431
:1023B00080721D491E48FDF7D7FE1A4800881B4948
:1023C000A1F812040020174908804FF480711648C4
:1023D000FDF7E3FE12480088114880881048008805
:1023E00000F08000D0B10E48808900F08000A8B1D4
:1023F000104801780078401C0E4A10700E48405C6E
:1024000007498880104600780C490978884205D130
:102410000348808920F080000149888100BFB1E72E
:102420000050004046000020FE0E0020EA00002080
:10243000FE04002034000020FE09002035000020AA
:1024400010B52F48008800F0200098B12D48008872
:10245000FF2803DD2A48001D008810BD2848001D04
:102460000088C1B2274802880088401C254B18808C
:10247000254881542248008800F01000D0B1002087
:10248000224948804FF480721F492048001DFDF703
:102490006BFE1C4800881D494880002019490880AF
:1024A0004FF480711848FDF778FE154800881448ED
:1024B000001D00881248008800F08000F0B110482C
:1024C0000C30008800F08000C0B11148017800781D
:1024D000401C0F4A10700F48405C0949091D0880D4
:1024E000104600780C490978884207D104480C301E
:1024F000008820F0800002490C31088000BFACE762
:10250000003801403C000020FE0A0020EA000020C4
:102510002C000020FE0500202D00002010B586B004
:1025200004463648806940F4804034498861084652
:10253000806940F0040088614815ADF8140003205C
:102540008DF8160018208DF8170005A92C48FEF705
:102550009BFB4FF48060ADF8140048208DF8170005
:1025600005A92748FEF790FB25208DF810000220D2
:102570008DF811008DF8120001208DF8130004A8C9
:10258000FFF7FEFA1F4800F09FF900940020ADF815
:102590000400ADF80600ADF80800ADF80C000C2002
:1025A000ADF80A006946174800F002FA002240F22E
:1025B0002771144800F0D6F9012240F22551114844
:1025C00000F0D0F9012240F224410E4800F0CAF98F
:1025D00001210C4800F06CF94FF60F700949088092
:1025E0000120094908700020488008A000F018FF69
:1025F00016A000F015FF06B010BD0000001002404C
:102600000008014000380140EA0000200D0D0D3D9A
:102610003D3D3D3D3D3D3D3D3D3D20C4A7C5AEBF9B
:10262000AAB7A2B0E52053544D333246313033209F
:10263000CDE2C9E8B3F5CABCB1A8B8E6203D3D3D3E
:102640003D3D3D3D3D3D3D3D0D000000555341525A
:102650005431B3F5CABCBBAFC5E4D6C3202020209B
:102660002020BDD3CAD5D6D0B6CFA1A2BFD5CFD05A
:10267000D6D0B6CF2C20B7A2CBCDD6D0B6CF0D00BA
:1026800070B5024600200AE0145C0C4B1D781B78E4
:102690005B1C0A4E33700A4B5C55431CD8B288420F
:1026A000F2DB0848008800F0800028B9054800885F
:1026B00040F08000034B188070BD00002D0000200A
:1026C000FE0500200C38014070B504460025264662
:1026D00001E0681C85B216F8011B0029F9D1E9B2A6
:1026E0002046FFF7CDFF70BD10B53048008800F0E0
:1026F000200098B12E480088FF2803DD2B48001DDC
:10270000008810BD2948001D0088C1B228480288F1
:102710000088401C264B1880264881542348008896
:1027200000F01000D8B100202349A1F806014FF4B1
:10273000807220492148FDF717FD1D4800881E4979
:10274000A1F8060100201A4908804FF48071194849
:10275000FDF723FD154800881448001D0088134824
:10276000008800F08000F0B110480C30008800F0C4
:102770008000C0B1124801780078401C104A1070E7
:102780001048405C0949091D0880104600780E4930
:102790000978884207D105480C30008820F0800075
:1027A00002490C31088000BFABE700000044004044
:1027B00040000020FE0B0020EA000020F201002073
:1027C0002E000020FE0600202F00002010B530480B
:1027D000008800F0200098B12E480088FF2803DD13
:1027E0002B48001D008810BD2948001D0088C1B27B
:1027F000284802880088401C264B188026488154AF
:102800002348008800F01000D8B100202349A1F827
:102810000A024FF4807220492148FDF7A5FC1D48AB
:1028200000881E49A1F80A0200201A4908804FF4C6
:1028300080711948FDF7B1FC154800881448001D47
:1028400000881348008800F08000F0B110480C3078
:10285000008800F08000C0B1124801780078401C68
:10286000104A10701048405C0949091D0880104644
:1028700000780E490978884207D105480C30008855
:1028800020F0800002490C31088000BFABE7000057
:102890000048004042000020FE0C0020EA0000201A
:1028A000F602002030000020FE070020310000204A
:1028B00021B1828942F40052828104E082894DF67E
:1028C000FF731A408281704710B504462048844245
:1028D00009D101218803FFF7C7F900214FF4804097
:1028E000FFF7C2F932E01B48844209D101214804B4
:1028F000FFF79AF900214FF40030FFF795F925E032
:102900001548844209D101218804FFF78DF900217F
:102910004FF48020FFF788F918E01048844209D16D
:102920000121C804FFF780F900214FF40020FFF7D0
:102930007BF90BE00A48844208D101210805FFF722
:1029400073F900214FF48010FFF76EF910BD0000FD
:10295000003801400044004000480040004C004066
:1029600000500040F0B5034600240026002500205A
:1029700040F66A17B94200D100BF1846C1F34214AD
:1029800001F01F06012707FA06F5012C01D10C30D2
:1029900004E0022C01D1103000E014301AB10768B5
:1029A0002F43076002E00768AF430760F0BD0000F7
:1029B0002DE9F04786B005460E460024A24600BF2A
:1029C000A1460027B08900B100BF2F462C8A4CF6E3
:1029D000FF700440F08804432C82AC894EF6F3105B
:1029E0000440B08831890843718908430443AC81AD
:1029F000AC8A4FF6FF400440B0890443AC8201A882
:102A0000FFF742F91F48874202D1DDF810A001E02C
:102A1000DDF80CA0A88900F4004040B10AEBCA0020
:102A200000EB0A1031684900B0FBF1F807E00AEB4F
:102A3000CA0000EB0A1031688900B0FBF1F864208D
:102A4000B8FBF0F004012009642101FB1089A8897A
:102A500000F4004040B1322000EBC900B0FBF1F0BF
:102A600000F00700044308E0322000EB0910642165
:102A7000B0FBF1F000F00F0004432C8106B0BDE87C
:102A8000F08700000038014010B5054A00210548D4
:102A9000FDF705FF01200249091F087010BD000065
:102AA0004C2800200064004000BFFEE708B500206D
:102AB0001A490870012008761948806940F480504E
:102AC0001749886101211020FFF7BEF80121042079
:102AD000FFF7BAF84FF40050ADF8000010208DF861
:102AE000030003208DF8020069460E48FEF7CCF87B
:102AF0004FF400500B490861E020ADF800001820A9
:102B00008DF8030069460848FEF7BEF801F0B8FBEF
:102B100001F0C0F900F054FF08BD0000FE0F0020D6
:102B20000010024000100140000801402DE9F04172
:102B300004460E4617461448007808B9BDE8F081EF
:102B400001F09EFB4FF4005010494861032001F052
:102B500003FBC4F3074001F0FFFAC4F3072001F0C0
:102B6000FBFAE0B201F0F8FA002504E0FF2001F0E2
:102B7000F3FA70556D1CBD42F8D34FF40050034971
:102B8000086100BFDAE70000FE0F002000100140DE
:102B90002DE9F04782460C4690462046E21704EBAA
:102BA0005272D2102146E31704EB5373DB10A4EBEF
:102BB000C3030BB1012300E000231A44624302F077
:102BC000FF099AF800600AF1010082460578812E1B
:102BD00005DB402D03DBFF2D01D0FF2E0AD10020A5
:102BE00004E0002108F8011B411CC8B24845F8DB8D
:102BF000BDE8F0877F2D03DAA5F14000C5B202E001
:102C0000A5F14100C5B2A6F18100C6B2BE2000FB0D
:102C1000065000FB09F70C2C06D0102C0BD0182CFA
:102C200012D0202C22D118E04A46414607F5200058
:102C3000FFF77CFF1AE04A46414607F520000D4B9E
:102C40001844FFF773FF11E04A46414607F520009C
:102C5000094B1844FFF76AFF08E04A46414607F56A
:102C60002000064B1844FFF761FF00BF00BF00BF04
:102C7000BEE7000060C40800E074140000C22E002B
:102C80002DE9F0470746884614462748007808B9DA
:102C9000BDE8F0873819B0F5200F07D92248007E2B
:102CA000012803D121A000F0BBFBF1E73E0BC7F3E5
:102CB0000B09C9F58055DFF8A8A001F0E1FAAC4294
:102CC00000DC25462BE030034FF480525146FFF7DD
:102CD0002DFF304600F0D4FF002007E018F8001068
:102CE00009EB00020AF80210411C88B2A842F5DB89
:102CF00030034FF48052514601F032FDA54200D11D
:102D00000EE0A844761C4FF00009601B84B2B4F5B5
:102D1000805F02DD4FF4805000E020460546D2E798
:102D200000BF00BFB4E70000FE0F0020D2AAD0B45D
:102D3000C8EBB5C4CAFDBEDDD4DAD7D6BFE2CAFD42
:102D4000BEDDB4E6B4A2C7F8C4DAA3ACD2D1CCF8E5
:102D5000B9FDB1BEB4CEB2D9D7F721210D00000024
:102D60001810002010B54FF40050094948610520A3
:102D700001F0F2F900BFFF2001F0EEF900F00100D0
:102D80000028F8D14FF400500149086110BD00003F
:102D90000010014018B10121034A117002E0002126
:102DA000014A11707047000024200020F0B58FB058
:102DB00004460D461646342101A8FDF7EEF93648C3
:102DC0000788781E4FF0006101EB802033490862CC
:102DD00008464481858106773148806940F0FC00CF
:102DE0002F4988611020ADF8380001208DF83A0095
:102DF00010208DF83B000EA92A48FDF745FF102052
:102E0000284908610120ADF838000EA92548FDF7D2
:102E10003BFF0820ADF838000EA92248FDF734FF2B
:102E20000420ADF8380048208DF83B000EA91D485D
:102E3000FDF72AFF0220ADF8380048208DF83B004E
:102E40000EA91848FDF720FF012016494861082007
:102E500048611020486111491422086A01A901F053
:102E60002FF99DF804004F2811D19DF805004B283B
:102E70000DD1DDF8060009490861BDF80A00088394
:102E8000DDF80E004861BDF81200488301E000F053
:102E90000BF80FB0F0BD0000E0F7FF1F242000206A
:102EA00000100240001001402DE9F04F99B01E249F
:102EB0000020149013901290119000258346FE4834
:102EC00040890890FC4880890790FCA000F0A8FA8F
:102ED000002000900146DDE90732FEF7EBF8002004
:102EE0004FF6FF711023FBA2CDE900106E212D20BB
:102EF000FEF7B4FD00204FF6FF711023FAA2CDE9D2
:102F0000001082213420FEF7A9FD2546A3460020AB
:102F1000E949C88008810120FFF73CFF4FF6E073C4
:102F2000142259462846FEF75FF800BF00F012FF52
:102F30000028FBD0E048C0880028F7D00020FFF729
:102F400029FFDD48C788B0F80890002314225946AD
:102F50002846FEF749F83A46E8A109A800F070FAB9
:102F600000204FF6E071ABF11002CDE9001091B2F4
:102F7000A5F10C0290B20C2309AAFEF76FFD4A4698
:102F8000E0A109A800F05CFA00204FF6E071CDE95D
:102F90000010A5F10C0188B20C2309AA5946FEF7CE
:102FA0005DFDDA4800F067FD0898001B85B2A34676
:102FB0000020C149C88008810120FFF7EBFE4FF6D1
:102FC000E073142259462846FEF70EF800BF00F0C1
:102FD000C1FE0028FBD0B848C0880028F7D00020E8
:102FE000FFF7D8FEB448B0F80680B0F808A0002378
:102FF000142259462846FDF7F7FF4246BFA109A80B
:1030000000F01EFA00204FF6E071ABF11002CDE99E
:10301000001091B2A5F10C0290B20C2309AAFEF7A0
:103020001DFD5246B7A109A800F00AFA00204FF68C
:10303000E071CDE90010A5F10C0188B20C2309AABA
:103040005946FEF70BFDB14800F015FD25460798DF
:10305000001B1FFA80FB00209749C88008810120CF
:10306000FFF798FE4FF6E073142259462846FDF705
:10307000BBFF00BF00F06EFE0028FBD08E48C0886A
:103080000028F7D00020FFF785FE8B48C0881890F5
:103090008948008916900023142259462846FDF7D6
:1030A000A3FF96A109A8189A00F0CAF900204FF6CC
:1030B000E071ABF11002CDE9001091B2A5F10C0264
:1030C00090B20C2309AAFEF7C9FC8EA109A8169A92
:1030D00000F0B6F900204FF6E071CDE90010A5F13F
:1030E0000C0188B20C2309AA5946FEF7B7FC8748A1
:1030F00000F0C1FC0898001B85B20798001B1FFA5E
:1031000080FB00206C49C88008810120FFF742FE47
:103110004FF6E073142259462846FDF765FF00BFBD
:1031200000F018FE0028FBD06348C0880028F7D0C4
:103130000020FFF72FFE6048C18817910189159183
:103140000023142259462846FDF74EFF6BA109A81B
:10315000179A00F075F900204FF6E071ABF11002FC
:10316000CDE9001091B2A5F10C0290B20C2309AA8E
:10317000FEF774FC63A109A8159A00F061F900201C
:103180004FF6E071CDE90010A5F10C0188B20C23D7
:1031900009AA5946FEF762FC5C4800F06CFC1899DD
:1031A000781800EBD071C1F34F07179908EB0100B5
:1031B00000EBD071C1F34F0809EB0A0000EBD071AE
:1031C000C1F34F09DDE91512501800EBD071C1F3BE
:1031D0004F0AA7EB0800FDF7C1F805900899091BF5
:1031E000601AFDF7BBF804900599FDF779F8149083
:1031F000A9EB0A00FDF7B2F805900799091B601AC0
:10320000FDF7ACF804900599FDF76AF8139007EB09
:103210000800FDF7A3F801901499FDF72FF803902B
:103220000898FDF7A4F802900399FDF721F84FF0F4
:1032300080410490FDF754F80590FDF79DF800B229
:10324000129009EB0A00FDF789F801901399FDF738
:1032500015F803900798FDF78AF802900399FDF797
:1032600007F84FF080410490FDF73AF80590FDF71C
:1032700083F800B21190002644F64F3006900E49B4
:103280000222086A06A901F0ADF906430A49096A53
:10329000881C042214A901F0A5F906430649096A0D
:1032A000881D042212A901F09DF906430249096A0A
:1032B00001F10A0004222BE0242000200D0AB4A50D
:1032C000C3FEC6C1D0A3D7BCD6D02E2E2E2E0D0A3B
:1032D00000000000526543616C6962726174696F3D
:1032E0006E2E2E2E2E2E2E00436C69636B2074687A
:1032F000652043726F73732121000000583A2564E2
:1033000000000000593A256400000000801A060001
:1033100013A901F067F906431349096A01F10E0088
:10332000042211A901F05EF90643002E06DD0FA06C
:1033300000F076F8304619B0BDE8F08F0A491498CD
:103340000861BDF94800088313984861BDF944003D
:1033500048830846016A0EA000F062F81B481C4929
:1033600008600020E7E70000242000203E3E3ED019
:10337000A3D7BCCDEAB3C92C20B5ABB1A3B4E6B298
:10338000CECAFDCAB1CAA7B0DC210D0A00000000F8
:103390003E3E3ED0A3D7BCCDEAB3C92120B1C8C0C0
:1033A000FDCFB5CAFDA1A2C6ABD2C6D6B5D2D1B4A7
:1033B000E6C8EBC4DAB2BF464C4153482C20B5D81E
:1033C000D6B73A307825580D0A0000000400FA05F7
:1033D0000CED00E010B5044A918850884FF6E07279
:1033E000FDF758FE10BD00002420002010B50A484B
:1033F000007801280BD100F06FFF40B900F0AAFC63
:1034000000B910BD00F076FAFFF7E4FF01E000F02C
:1034100005F800BFF5E700002420002070470000F9
:103420000FB4054B10B503A9044A029800F02CF81C
:1034300010BC5DF814FB0000D53C000838000020EB
:103440000FB4084B10B504A902AA039800F01CF8A9
:10345000044602A9002000F048FA204610BC5DF89E
:1034600014FB0000EB38000802E008C8121F08C176
:10347000002AFAD170477047002001E001C1121FF5
:10348000002AFBD1704700002DE9FF4F8DB00F4699
:103490000546002606E025280BD0DDE90F129047EF
:1034A0006D1C761C28780028F5D111B03046BDE897
:1034B000F08F0024A246A1460122EC4900E004431B
:1034C00015F8013F203B02FA03F00842F7D12878B3
:1034D0002A2810D06FF02F022878A0F13001092996
:1034E00014D80AEB8A0102EB410144F0020400EB1C
:1034F000010A6D1CF0E701CF5FEA000A03D544F42E
:103500000054CAF1000A44F002046D1C28782E28E9
:1035100017D115F8010F44F004042A280ED06FF0DB
:103520002F022878A0F1300109290AD809EB890176
:1035300002EB410100EB01096D1CF2E757F8049B17
:103540006D1C28786C280FD006DC4C2817D0682812
:103550000DD06A2814D104E0742810D07A280FD135
:103560000DE044F400140AE044F4801401E044F453
:1035700040146978814202D104F580146D1C6D1CE1
:103580002A786E2A1FD00CDC632A31D004DC002A92
:103590008BD0582A11D1A3E0642A68D0692A0CD1B3
:1035A00065E0732A2ED004DC6F2A73D0702A04D110
:1035B0009BE0752A6FD0782A6ED01046DDE90F1295
:1035C0009047761C50E1C4F30250022806D003282D
:1035D00009D0042801CF09D0066045E101CFF117D9
:1035E000C0E9006140E101CF06803DE106703BE1AA
:1035F00017F8040B8DF8000000208DF80100EB4651
:10360000012003E057F804BB4FF0FF3061074FF093
:10361000000102D40DE008F10101884649450FDAA6
:103620008045F8DB1BF808100029F4D108E008F108
:10363000010188468142FADB1BF808100029F6D107
:10364000DDE90F23AAEB08008146214600F036F998
:10365000304400EB080604E0DDE90F121BF8010B13
:103660009047B8F10108F7D221464846F7E00A2111
:10367000C4F302534FF0000B0891022B04D001CF8A
:10368000C117032B09D00AE0FF1D27F00707F7E851
:10369000020108E032E01FE020E000B2C117042B75
:1036A00001D140B2C117031E71F1000307DA4FF0D8
:1036B000000CD0EB0C006CEB01012D2302E0230584
:1036C00004D52B238DF82430012303E0E30701D038
:1036D0002023F7E7984658E00A2110E010210EE079
:1036E00010204FF0000B08900CE010214FF0000B61
:1036F00044F004044FF00809089103E008214FF05A
:10370000000B0891C4F30253022B04D001CF002117
:10371000032B06D006E0FF1D27F00707F7E802019C
:1037200003E080B2042B00D1C0B24FF000082307A1
:103730002BD5702A07D0DDF820C08CF0100C5CEA85
:103740000B0C05D00EE040238DF82430012308E057
:1037500050EA010306D030238DF824308DF825205F
:1037600002239846DDF820C08CF0080C5CEA0B0CB4
:103770000BD150EA010301D1630706D530238DF840
:1037800024304FF00108A9F10109582A04D038A2C9
:103790000B9208AA0A920BE03AA2F9E75B46089A54
:1037A000FCF703FE0B9B9B5C0A9A521E0A92137055
:1037B00050EA0102F2D10A98ADEB000000F1200BB3
:1037C000600702D524F4803401E04FF00109D945A7
:1037D00002DDA9EB0B0000E0002000EB0B014144EF
:1037E0000890AAEB010AE00306D4DDE90F23214685
:1037F000504600F063F806444FF0000908E009A9BC
:1038000011F80900DDE90F12904709F10109761C52
:10381000C145F4DBE0030CD5DDE90F23214650461A
:1038200000F04CF8064404E0DDE90F123020904728
:10383000761C0899481E08900029F5DC08E00A98D3
:103840000A990078491C0A91DDE90F129047761C0D
:10385000BBF10001ABF1010BF1DC21465046DDE983
:103860000F2300F019F806446D1C1BE6092801001F
:1038700030313233343536373839616263646566E6
:1038800000000000303132333435363738394142A8
:1038900043444546000000002DE9F0410446002560
:1038A0001E461746880404D405E039462020B04758
:1038B0006D1C641EF9D52846BDE8F0812DE9F04164
:1038C000044600251E469046C80301D5302700E077
:1038D0002027880404D505E041463846B0476D1CD2
:1038E000641EF9D52846BDE8F0810A68531C0B60B8
:1038F000107070472DE9F0412E49B1F91800FCF71E
:103900002DFD06462B49C888FCF731FD074629489E
:1039100001693846FCF7B2FC05463146FCF756FC17
:103920000446FCF729FD00B2234908802149B1F97A
:103930001A00FCF713FD06461E490889FCF717FD1F
:1039400007461C4841693846FCF798FC0546314655
:10395000FCF73CFC0446FCF70FFD00B21749088059
:10396000144840891449B1F90010884204DA11481A
:10397000408900B2104908801048B0F900000028C2
:1039800002DA00200D4908800A4880890B49B1F904
:103990000010884204DA0748808900B2074908808D
:1039A0000548008803494880044800888880BDE8AD
:1039B000F081000024200020480000204A00002060
:1039C00038B51748007800B938BD16A0FFF728FDB4
:1039D00000240020009000250BE005F520000122C6
:1039E0006946FFF7A3F89DF800002044C4B21348CD
:1039F000054413488542F0D3922C01D1012000E008
:103A00000020074908760846007E012803D10DA052
:103A1000FFF706FD02E00EA0FFF702FD00BFD3E7AF
:103A2000FE0F002047424BD7D6BFE220B2E2CAD4F5
:103A30002E2E2E20202020202020000040420F008B
:103A400000845D00D7D6BFE2BFC9D3C30D0000001C
:103A500020B4EDCEF3A3ACD7D6BFE2B2BBBFC9D37F
:103A6000C3210D0041F664114843002100E0491CC8
:103A70008142FCD3704701B5002007E00C2100BF54
:103A80000A1EA1F10103D9B2FAD1401C0099884263
:103A9000F4D308BD01B50098C0EBC000009000E071
:103AA00000BF0098401E00900028F9D108BD00001A
:103AB0002DE9F84F80460F4615461C46BA4620466B
:103AC000E31704EB5373DB102146E61704EB56763D
:103AD000F610A4EBC6060EB1012600E00026334422
:103AE000224604EBD2767610734303F0FF0BA5F168
:103AF0002000C5B200265CE00C2C07D105EB450088
:103B00002E4901EB800010F806901BE0102C05D127
:103B10002B4800EB051010F8069013E0182C07D185
:103B200005EBC500274901EB800010F8069009E07D
:103B3000202C05D1244800EB851010F8069001E0F8
:103B4000BDE8F88F002000902DE009F0800030B132
:103B50000A9882B239464046FDF79CFA05E00B9878
:103B600082B239464046FDF795FA4FEA49604FEA7E
:103B70001069781C87B215488088B84200DCDFE7FE
:103B8000A7EB0A00A0420AD1574608F101001FFA2C
:103B900080F80E484088404500DCD1E706E00098F8
:103BA000401CC0B2009000980828CEDB00BF701CFB
:103BB000C6B25E45A0DB00BFC2E70000AA4800080D
:103BC0001E4D00080E5300086A60000818200020EF
:103BD0002DE9F04FA1B007460D4690461C46A94678
:103BE0002046E21704EB5272D2102146E31704EB91
:103BF0005373DB10A4EBC3030BB1012300E00023DC
:103C00001A44624302F0FF0A6A4621464046FEF724
:103C1000BFFF00262EE01DF8060020904FF0000B9D
:103C200022E0209800F0800030B12A9882B2294624
:103C30003846FDF72FFA05E02B9882B22946384620
:103C4000FDF728FA20984006000E2090681C85B2E7
:103C5000A5EB0900A04203D14D46781C87B206E0CF
:103C60000BF1010000F0FF0BBBF1080FD9DB00BF27
:103C7000701CC6B25645CEDB21B0BDE8F08F000007
:103C800010B504461148007800B910BD240300F0B7
:103C900099FCFFF767F84FF400500D494861202068
:103CA00000F05AFAC4F3074000F056FAC4F30720B4
:103CB00000F052FAE0B200F04FFA4FF4005004491D
:103CC0000861FFF74FF800BFDFE70000FE0F00209C
:103CD0000010014000BF054A128802F04002002A8D
:103CE000F9D0C2B2014B1B1D1A8070470038014049
:103CF0004FF4A060FDF77CFFFDF75CF801E0FEF7F4
:103D00002FF8FCE710B50848007F10B9D02000F06C
:103D100049FA0548007F012802D1902000F042FABC
:103D200000F0EEF900B210BD2420002010B50848C4
:103D3000007F10B9902000F035FA0548007F012877
:103D400002D1D02000F02EFA00F0DAF900B210BD56
:103D5000242000202DE9F04F8BB00025AA46AB4669
:103D6000282101A8FCF719FA0BE0FFF7CBFF01A906
:103D700021F81500FFF7DAFF06A921F81500681CE5
:103D8000C5B202212C48FDF70AF808B90A2DECDB70
:103D90000A2D4FD1BDF904603746BDF91880C146E0
:103DA000012421E001A830F91400B04202DA01A890
:103DB00030F9146001A830F91400B84202DD01A8FE
:103DC00030F9147006A830F91400404502DA06A84C
:103DD00030F9148006A830F91400484502DD06A821
:103DE00030F91490601CC4B20A2CDBDB00240DE017
:103DF00001A830F8140050441FFA80FA06A830F8E1
:103E0000140058441FFA80FB601CC4B20A2CEFDB7C
:103E1000AAEB0600C01BC0F3CF000849C880ABEB7B
:103E20000800A0EB0900C0F3CF00088101200BB00F
:103E3000BDE8F08F0020FAE70010014024200020A8
:103E40004FF08831114A1160121D116000210F4A94
:103E50000C32116091150E4A1161490051614021E7
:103E600051610A490831096888B240211161C900CD
:103E700011614FF03331054A1160121D11604FF688
:103E8000FF71024A0C32116070470000000C0140C3
:103E900000100140F8B500254FF400505249486128
:103EA000902000F059F9002000F056F9002000F0B1
:103EB00053F9002000F050F9FF2000F04DF9050201
:103EC000FF2000F049F905434FF4005046490861CE
:103ED000012046490870A5F56F401438052827D2FF
:103EE000DFE800F0030A11181F0041A242A13F4879
:103EF000401CFFF7A5FA29E040A23FA13B48401C27
:103F0000FFF79EFA22E03FA23BA13848401CFFF792
:103F100097FA1BE03DA238A13448401CFFF790FA05
:103F200014E03CA234A13148401CFFF789FA0DE0AF
:103F30003AA231A12D48401CFFF782FA00202B49FC
:103F4000087029463AA0FFF76BFA00BF00BF274868
:103F50000078012840D1002600200090002700248E
:103F6000042269463046FEF7E1FD9DF801009DF808
:103F7000001040EA01279DF803009DF8021040EA76
:103F80000124B7F56E4F07D0012400208DF8020000
:103F900001208DF803000CE0601C84B220128DF823
:103FA0000200E0B28DF8030000208DF802008DF8C9
:103FB0000300EE208DF8000000208DF8010004229F
:103FC00069463046FEF75CFE0848C4822246411C22
:103FD0001EA0FFF725FA05E027A0FFF721FA33A07E
:103FE000FFF71EFAF8BD000000100140FE0F002090
:103FF00057323551313600002573000057323551A4
:1040000033320000573235513634000057323551C3
:10401000313238005732355132353600466C6173D3
:1040200068C9E8B1B8CAA7B0DC202121210000008E
:10403000B6C1C8A1B5BDB5C4B4EDCEF3D0CDBAC537
:10404000CAFDBEDDA3BA25640D0A0000466C61738B
:1040500068B4E6B4A220BCECB2E22E2E2E202020C2
:104060002020D0CDBAC53A2573202CB5DA2564B40A
:10407000CECAB9D3C30D0000CAFDBEDDB4E6B4A2FA
:10408000BCECB2E2A3BA2020202020202020D0CDFA
:10409000BAC5B6C1C8A1B4EDCEF3A3ACC9E8B1B8F6
:1040A000B2BBBFC9D3C3210D00000000B3A2CAD464
:1040B000B8B4CEBBD0BEC6AC2E2E2E2E2E2E0D00EA
:1040C00030B503460D480488B3F1006F01D20120DA
:1040D00030BD4FF0006000EB8420984201D20220F6
:1040E000F6E703E018780870491C5B1C101EA2F16B
:1040F0000105AAB2F6D100BFEAE70000E0F7FF1F12
:1041000070B500240120134908610520FFF7B3FCB6
:104110000120104948610520FFF7ADFC002514E09F
:104120004FF6FF7000EA440401200A490861FFF7D6
:10413000A2FC08488068C0F38000044301200549C0
:104140004861FFF798FC681CC5B20C2DE8DB2046DF
:1041500070BD0000001001400246002105E0481C2F
:10416000C1B2FA2901DD002070470D48008900F036
:1041700002000028F3D00A488281002105E0481C93
:10418000C1B2FA2901DD0020EEE70548008900F000
:1041900001000028F3D002488089C0B2E4E70000A3
:1041A0000030014070B5054600241AE0C4F1070054
:1041B00045FA00F000F0010018B108200A49086132
:1041C00002E00820084948610120FFF754FC012063
:1041D00005490861FFF74FFC012003494861601C55
:1041E000C4B2082CE2DB70BD001001404FF48071B6
:1041F000054A1161490051610449086080215161FB
:104200001161890011617047001001400C0C0140E0
:104210004FF48071054A51614900516104490860B9
:1042200080215161116189001161704700100140C6
:104230000C0C014070B504460D4616462A20FFF7C7
:10424000E7FF2012FFF7D2FFE0B2FFF7CFFF3012F7
:10425000FFF7CCFFF0B2FFF7C9FF2B20FFF7D8FF25
:104260002812FFF7C3FFE8B2FFF7C0FF1812FFF7ED
:10427000BDFFD8B2FFF7BAFF2C20FFF7C9FF70BD12
:1042800010B50120134908800846008840F002005C
:1042900008800846008840F004000880084600882E
:1042A00008800846008808800846008840F40070AE
:1042B00008800846008840F480700880084600881E
:1042C00008800846008840F0400008800A20FFF778
:1042D000E1FB10BD0030014010B52748007820B147
:1042E00001280FD0022839D12BE002212348FCF706
:1042F00056FD18B901202049087002E000201E492F
:1043000008702FE002211D48FCF749FD90B91C48B8
:104310000068401C1A49086008460068022805D950
:104320000120086002201449087009E001201249A8
:10433000087005E001201249086000200E4908704D
:1043400010E002210D48FCF72AFD18B902200A49A5
:10435000087002E000200849087003E000200649C8
:10436000087000BF00BF04480078022801D0012077
:1043700010BD0020FCE700004C00002000100140B0
:10438000500000207047000010B5464840880028C3
:1043900038DD4448428844A14948FFF751F848486D
:1043A000FEF792F93F4A121D46A14548FFF748F82B
:1043B0004348FEF789F941F234213A48001DFCF7E1
:1043C00023F9384A121D45A13D48FFF739F83C480A
:1043D000FEF77AF93348001DFDF7B8FF314A121D88
:1043E00044A13748FFF72CF83548FEF76DF946A190
:1043F0002C48001DFBF7DCFE08B9FEF755FD002038
:104400002849488042480078012826D14148006860
:1044100080F004003F4908603FA0FFF701F800204A
:1044200006E03B490F31095C414A1154411CC8B2B6
:104430000828F6DB00203E49087226A0FEF7F0FFB0
:104440000020334908703BA13948FBF7B1FE20B981
:1044500041F234213AA0FCF7D7F81248B0F80E0325
:1044600000281DDD0F48B0F80E2337A11448FEF7D1
:10447000E7FF1348FEF728F9394A12A11048FEF762
:10448000DFFF0F48FEF720F900200649A1F80E03D0
:1044900034A13348FBF78CFE10B935A0FDF756FF69
:1044A00010BD0000EA0000200D555341525431CA9E
:1044B000D5B5BD2564D7D6BDDACAFDBEDD00000086
:1044C0007C0000200DCAD5B5BDB5C4CAFDBEDD3C1B
:1044D0003C3CA3BA25730D0A0000000043414ED7AF
:1044E000DCCFDFB7A2CBCD3E3E3EA3BA25730D0A8B
:1044F00000000000554152543420B7A2CBCD3E3EBF
:104500003EA3BA25730D0A00585054323034360099
:10451000482800200C0C01400D0A43414EBDD3CA6F
:10452000D5B5BDCAFDBEDD3A3C3C3C2000000000D4
:10453000E000002043414E5F5465737400000000AA
:1045400043414E5F4F4B00000D5541525434CAD584
:10455000B5BD20256420B8F6D7D6BDDA000000002E
:10456000FA03002052533438355F546573740000E9
:1045700052533438355F4F4B00000000704710B580
:10458000FEF734FF10BD70470348C06880F020007C
:104590000149C86070470000001001407047704733
:1045A000014600BF0648C06800F0010018B1081EAF
:1045B000A1F10101F6D109B9012070470020FCE703
:1045C0000020024010B54FF4005005494861062014
:1045D000FFF7C2FD4FF400500149086110BD000013
:1045E000001001402DE9F84F80468946164656488E
:1045F000B0F800A0A8F1006B4FEADB25CBF30A006E
:1046000000900098C0F50067B8F1006F02D2012059
:10461000BDE8F88F4FF0006000EB8A20404501D2E2
:104620000120F5E749484A4948604A484860BE4287
:1046300000DC37467DE04848FFF7B2FF08B10220B2
:10464000E6E74FF0006101EBC5200A144349FFF78C
:1046500037FD4148FFF7A4FF08B10220D8E73C48E6
:10466000006940F002003A4908614FF0006000EB39
:10467000C52048610846006940F04000086136489E
:10468000FFF78EFF08B10220C2E73148006941F60A
:10469000FD7108402E490861002007E019F800204C
:1046A000009901442D4B5A54411C88B2B842F5DBA5
:1046B00000242AE02848FFF773FF08B10220A7E78B
:1046C0002348006940F0010021490861234810F89F
:1046D0001400012101EB4401204A515C40EA012011
:1046E0004FF0006101EBC52121F814001A48FFF7D3
:1046F00057FF08B102208BE71548006941F6FE71AB
:10470000084013490861601C84B2B4F5806FD1DBA6
:10471000B74200D10EE0B9446D1C00200090F01BA0
:1047200086B2B6F5006F02DD4FF4006000E030465F
:10473000074680E700BF0648006940F08000044952
:104740000861002064E70000E0F7FF1F23016745D0
:1047500000200240AB89EFCD8888880048200020E7
:104760002DE9F04704460E4691461D48007808B9E9
:10477000BDE8F0874FF480754FF000082AE0FFF79E
:1047800021FFFEF7EFFA4FF400501649486102206E
:10479000FFF7E2FCC4F30740FFF7DEFCC4F3072099
:1047A000FFF7DAFCE0B2FFF7D7FC002704E0F05D8A
:1047B000FFF7D2FC781C87B2AF42F8DB4FF4005011
:1047C00008490861FEF7CEFA2E442C4408F1010096
:1047D00000F0FF08B8F1100FD1DB00BFC8E7000000
:1047E000FE0F002000100140800080008000FC1FB0
:1047F00040004000FF7F20001000F00F0008000480
:104800006002800100020004000104020800E83F89
:104810000102020202020802C83F04020702040267
:1048200004020402F47F00000000F80F08080808E2
:10483000F80F08080808F80F200222222422281264
:10484000280A2002FF7F00000000FC1F000000007B
:1048500000000000FF7F800080008808881084200E
:1048600082408140A0004000400080008000FF7F27
:10487000200020002000E00F200820082008100859
:1048800010080808040502028000FE3F02202000F4
:10489000FF7F10047802C0033C1C8000FF7FA00251
:1048A00090048C188360800000000000000000006D
:1048B000000000000000000000003F400000000079
:1048C00000000000300040003000400000000900FF
:1048D0000BC03D000BC03D00090018C024407FE024
:1048E000224031800000180024C01B000D8032409F
:1048F000018003801C4027401C80074000401000BE
:104900006000000000000000000000000000000047
:104910001F80204040200000402020401F800000D9
:104920000000090006001F800600090000000400C6
:1049300004003F800400040000000010006000003C
:104940000000000000000400040004000400040053
:1049500000000000004000000000000000000020F7
:1049600001C006003800400000001F8020402040A9
:1049700020401F800000000010403FC000400000A9
:10498000000018C021402240244018400000108040
:104990002040244024401B80000002000D00110034
:1049A0003FC0014000003C8024402440244023803C
:1049B00000001F8024402440344003800000300069
:1049C000200027C03800200000001B802440244025
:1049D00024401B8000001C0022C0224022401F8077
:1049E000000000000000084000000000000000007F
:1049F00000000460000000000000000004000A0045
:104A00001100208040400900090009000900090048
:104A1000000000004040208011000A00040018003F
:104A2000200023402400180000001F802040274061
:104A300029401F400000004007C039000F0001C09E
:104A4000004020403FC0244024401B8000001F80C5
:104A50002040204020403080000020403FC02040C7
:104A600020401F80000020403FC024402E4030C026
:104A7000000020403FC024402E00300000000F0006
:104A80001080204022403380020020403FC00400BC
:104A900004003FC02040204020403FC02040204034
:104AA00000000060202020203FC020002000204087
:104AB0003FC024400B0030C0204020403FC0204079
:104AC0000040004000C03FC03C0003C03C003FC06D
:104AD000000020403FC00C4023003FC020001F804A
:104AE0002040204020401F80000020403FC0244044
:104AF0002400180000001F802140214020E01FA05A
:104B0000000020403FC02440260019C0004018C0CB
:104B100024402440224031800000300020403FC02B
:104B200020403000000020003F80004000403F80D7
:104B3000200020003E0001C007003800200038009F
:104B400007C03C0007C038000000204039C0060004
:104B500039C0204000002000384007C03840200005
:104B60000000304021C02640384020C00000000036
:104B700000007FE0402040200000000070000C009A
:104B80000380004000000000402040207FE0000043
:104B90000000000020004000200000000000001085
:104BA0000010001000100010001000000000400075
:104BB000000000000000000002800540054003C026
:104BC000004020003FC0044004400380000000007B
:104BD00003800440044006400000000003800440BD
:104BE00024403FC0004000000380054005400340D2
:104BF0000000000004401FC02440244020000000AA
:104C000002E0055005500650042020403FC00440FB
:104C1000040003C000400000044027C00040000022
:104C2000000000100010041027E0000000002040E9
:104C30003FC00140070004C00440204020403FC066
:104C400000400040000007C0040007C0040003C08B
:104C50000000044007C00440040003C000400000FE
:104C600003800440044003800000041007F0045057
:104C7000044003800000000003800440045007F05B
:104C80000010044007C002400400040000000000BF
:104C900006400540054004C00000000004001F80DD
:104CA000044000400000040007800040044007C0AA
:104CB00000400400070004C0018006000400060054
:104CC00001C0070001C006000000044006C001004A
:104CD00006C0044000000410071004E00180060034
:104CE00004000000044005C006400440000000002D
:104CF000000004007BE040200000000000000000F5
:104D0000FFF000000000000040207BE004000000F5
:104D10000000400080004000200020004000000013
:104D20000000000000000000000000000000000083
:104D3000000000001FCC000C00000000000000007C
:104D40000800300060000800300060000000022011
:104D500003FC1E20022003FC1E2002200000000095
:104D60000E1811043FFF10840C78000000000F00A3
:104D700010840F3800C0077818840078000000788D
:104D80000F8410C411240E9800E400840008080069
:104D9000680070000000000000000000000000003B
:104DA0000000000007E01818200440020000000086
:104DB00040022004181807E0000000000000024034
:104DC000024001800FF0018002400240000000809C
:104DD000008000800FF8008000800080000000014B
:104DE000000D000E000000000000000000000000A8
:104DF0000080008000800080008000800080000033
:104E0000000C000C0000000000000000000000008A
:104E10000006001800600180060018002000000055
:104E200007F0080810041004080807F0000000004C
:104E3000080408041FFC0004000400000000000037
:104E40000E0C10141024104411840E0C00000000ED
:104E50000C1810041104110412880C7000000000DA
:104E600000E00320042408241FFC002400000000AC
:104E70001F981084110411041088107000000000A5
:104E800007F0088811041104188800700000000061
:104E90001C00100010FC13001C001000000000009B
:104EA0000E3811441084108411440E3800000000A4
:104EB0000700088C10441044088807F00000000028
:104EC00000000000030C030C0000000000000000C4
:104ED00000000001010600000000000000000000CA
:104EE0000080014002200410080810040000022085
:104EF00002200220022002200220022000000000E6
:104F00001004080804100220014000800000000086
:104F10000E001200100C106C10800F00000003E057
:104F20000C1813E4142417C4082807D00000000448
:104F3000003C03C41C40074000E4001C00041004B3
:104F40001FFC1104110411040E880070000003E01E
:104F50000C1810041004100410081C100000100499
:104F60001FFC100410041004080807F000001004CF
:104F70001FFC1104110417C41004081800001004C9
:104F80001FFC1104110017C010000800000003E00E
:104F90000C181004100410441C7800400000100489
:104FA0001FFC10840080008010841FFC100400008F
:104FB000100410041FFC1004100400000000000383
:104FC0000001100110011FFE10001000000010046D
:104FD0001FFC110403801464181C1004000010044A
:104FE0001FFC1004000400040004000C0000100466
:104FF0001FFC1F0000FC1F001FFC10040000100419
:105000001FFC0C04030000E010181FFC100007F048
:105010000808100410041004080807F00000100429
:105020001FFC10841080108010800F00000007F01B
:10503000081810241024101C080A07F2000010049D
:105040001FFC1104110011C011300E0C00040000EF
:105050000E1C11041084108410441C380000180029
:10506000100010041FFC10041000180000001000B5
:105070001FF810040004000410041FF810001000B2
:105080001E0011E0001C007013801C0010001FC0E7
:10509000103C00E01F0000E0103C1FC000001004A6
:1050A000180C163401C001C01634180C100410007E
:1050B0001C00130400FC13041C0010000000080472
:1050C000101C1064108413041C041018000000004D
:1050D000000000007FFE400240024002000000008D
:1050E00030000C0003800060001C00030000000082
:1050F0004002400240027FFE00000000000000006D
:10510000000020004000400040002000000000019E
:105110000001000100010001000100010001000088
:1051200040004000200000000000000000000000DF
:105130000098012401440144014400FC00041000D3
:105140001FFC0088010401040088007000000000BA
:1051500000700088010401040104008800000000C0
:10516000007000880104010411081FFC0004000005
:1051700000F8014401440144014400C8000000005B
:10518000010401040FFC11041104110018000000B7
:1051900000D601290129012901C9010600001004D6
:1051A0001FFC008401000100010400FC0004000059
:1051B0000104190419FC00040004000000000000B0
:1051C000000300010101190119FE00000000100494
:1051D0001FFC0024004001B4010C01040000000089
:1051E000100410041FFC000400040000000001046F
:1051F00001FC0104010001FC0104010000FC0104A8
:1052000001FC008401000100010400FC0004000016
:1052100000F8010401040104010400F80000010188
:1052200001FF0085010401040088007000000000F7
:105230000070008801040104010501FF0001010460
:10524000010401FC00840104010001800000000051
:1052500000CC012401240124012401980000000055
:105260000100010007F80104010400000000010032
:1052700001F8000400040004010801FC000401001E
:1052800001800170000C001001600180010001F03C
:10529000010C003001C00030010C01F001000000E1
:1052A0000104018C00740170018C010400000101F3
:1052B00001810171000E00180160018001000000F1
:1052C0000184010C013401440184010C0000000040
:1052D00000000000000001003EFC4002400200000F
:1052E000000000000000FFFF0000000000000000C0
:1052F000400240023EFC01000000000000000000EF
:10530000600080008000400040002000200000007D
:10531000000000000000000000000000000000008D
:10532000000000000000000000000000000000007D
:10533000000000000000000000000000000000006D
:10534000000F80380FFE380F80380000000000008A
:105350000000000000000000000000000100000646
:1053600000000C00003800003100000600000C00B6
:1053700000380000300000000000000000006180E4
:105380000067F807F980006180006180006180009B
:1053900061800067F807F98000618000000000006C
:1053A0000000000001C0E003E0F006300804180827
:1053B0001FFFFE040E080787F00381E000000000D5
:1053C000000001F000060C00040408060C7001F94E
:1053D000C0000E00003BE000EC18070808040C18A1
:1053E0000003E00000000001E00007F003F81804EB
:1053F0001C0804170807E1D003C0E00023B0003CFC
:10540000080020080000100000000000000100005B
:105410003100003200001C0000000000000000000D
:10542000000000000000000000000000000000007C
:1054300000000000000000000000000000007F00ED
:1054400001FFC00780F00C001810000420000200CB
:1054500000000000002000021000040C001807806B
:10546000F001FFC0007F000000000000000000000D
:105470000000000000000000000042000066000084
:105480006600003C0000180003FFC0001800003C4C
:1054900000006600006600004200000000000800F6
:1054A00000080000080000080000080001FFC0001C
:1054B00008000008000008000008000008000000C4
:1054C0000000000100003100003200001C0000005C
:1054D00000000000000000000000000000000000CC
:1054E000000000000000080000080000080000089C
:1054F0000000080000080000080000080000080084
:10550000000800000000000000000000000038005B
:10551000003800003800000000000000000000001B
:105520000000000000000000000000000000000675
:1055300000001C000070000180000E000038000018
:10554000C0000700001C0000300000000000000048
:1055500000007F8001FFE00380700600180400084F
:1055600004000806001803807001FFE0007F80003F
:105570000000000000000000010008010008010018
:105580000803FFF807FFF800000800000800000803
:1055900000000000000000000001C03802C05804F4
:1055A0000098040118040218040418061C1803F8D3
:1055B0001801E0F800000000000000000001C0E059
:1055C00003C0F004000804080804080806180803CB
:1055D000F41801E7F00001E0000000000000000006
:1055E00000000300000D00001100006100008108B0
:1055F00003010807FFF80FFFF80001080001080089
:1056000000000000000000E007FCD00608080610BB
:1056100008061008061008061838060FF00607C01E
:10562000000000000000000000003F8001FFE003D8
:105630008430020818041008041008041008071821
:1056400010030FF00007C000000000000000000081
:1056500003C0000700000600000600F80607F80671
:10566000180006E00007000006000000000000002F
:105670000001E1E003F7F0063410041808041808EC
:10568000040C08040C0806161803F3F001C1E0002E
:10569000000000000000F80003FC3003063804029C
:1056A000080402080402080404100308F001FFC003
:1056B000007F00000000000000000000000000006B
:1056C00000000000000070380070380070380000E2
:1056D00000000000000000000000000000000000CA
:1056E00000000000000000000000301A00301C0024
:1056F00000000000000000000000000000000000AA
:10570000000000000008000014000022000041001A
:105710000080800100400200200400100800080002
:1057200000000000000021000021000021000021F5
:1057300000002100002100002100002100002100C4
:105740000021000000000000000000000800080424
:105750000010020020010040008080004100002273
:105760000000140000080000000000000003C0005A
:1057700004C000040000080038080F380808380882
:1057800010000C300007E00003C000000000000023
:1057900000003F8000FFE0038070020F1006708859
:1057A00004C088048308047F8802C090030120009D
:1057B000FE400000080000180001F8003E0801C289
:1057C0000007020007E20000FE00001FC80001F809
:1057D00000003800000804000807FFF807FFF8047D
:1057E000080804080804080804080806180803F450
:1057F0001801E7F00001E0000000000000003F8019
:1058000001FFE0038070020018040008040008048F
:1058100000080400100600200780C00000000400FB
:105820000807FFF807FFF804000804000804000850
:1058300004001802001003807001FFE0007F800068
:10584000000004000807FFF807FFF8040808040830
:1058500008040808040808043E08040008060018A4
:1058600001006000000004000807FFF807FFF804CB
:105870000808040800040800040800043E000600AC
:1058800000060000018000000000000000003F80D2
:1058900001FFE003807006001804000804020804F9
:1058A00002080203F00783F0000200000200040077
:1058B0000807FFF807FFF8040808000800000800C0
:1058C00000080000080004080807FFF807FFF804B4
:1058D00000080000000000000400080400080400A4
:1058E0000807FFF807FFF804000804000804000890
:1058F000000000000000000000000006000007009B
:10590000000104000104000104000307FFFE07FF7B
:10591000FC04000004000004000004000807FFF875
:1059200007FFF8040C08001800003E0004C78005BB
:1059300003C80600F804003804001800000804003A
:105940000807FFF807FFF804000800000800000837
:1059500000000800000800000800001800006000B7
:10596000000004000807FFF807800807FC00007F1C
:10597000C00003F80007C000780007800807FFF8A0
:1059800007FFF804000804000807FFF807000803F1
:10599000C00000E000003800001E00000700000109
:1059A000C00400F007FFF8040000000000007F8042
:1059B00001FFE003807006001804000804000806D8
:1059C000001803003001FFE0007F800000000400A9
:1059D0000807FFF807FFF8040408040400040400A3
:1059E000040400040400060C0003F80001F00000A9
:1059F0000000000000007F8001FFE00380700600CF
:105A0000880400880400C806003C03003E01FFE64D
:105A1000007F8400000004000807FFF807FFF80477
:105A20000808040800040C00040F00040BC0061052
:105A3000F003F03801E00800000800000001E0F881
:105A400003F030063010041808041808040C080489
:105A50000C080206180207F00781E0000000018030
:105A60000006000004000004000004000807FFF81E
:105A700007FFF8040008040000040000060000010D
:105A8000800004000007FFE007FFF004001800009A
:105A900008000008000008000008000008040010CA
:105AA00007FFE004000004000006000007E0000714
:105AB000FE00041FE00001F80000380001E0043E91
:105AC0000007C00006000004000004000007E0001A
:105AD00007FFC0041FF80007C007F80007FF800495
