:020000040800F2
:10000000900C0020590B0008A5010008A70100086A
:10001000AB010008AF010008B301000800000000B8
:10002000000000000000000000000000B701000810
:10003000B901000800000000BB010008110400081D
:10004000730B0008730B0008730B0008730B000898
:10005000730B0008730B0008490300086D030008C8
:10006000730B0008730B000891030008730B000862
:10007000730B0008730B0008730B0008730B000868
:10008000730B0008730B0008730B0008730B000858
:10009000730B0008730B0008730B0008730B000848
:1000A000730B0008730B0008730B0008730B000838
:1000B000730B0008730B0008730B0008730B000828
:1000C000730B0008730B0008730B0008730B000818
:1000D000730B0008730B0008730B0008730B000808
:1000E000730B0008730B0008730B0008730B0008F8
:1000F000730B0008730B0008730B0008730B0008E8
:10010000730B0008730B0008730B0008730B0008D7
:10011000730B0008730B0008730B0008730B0008C7
:10012000730B0008730B0008730B0008730B0008B7
:10013000DFF810D001F060FB004800475B010008C9
:10014000AFF30080900C002041F664114843002179
:1001500000E0491C8142FCD370474FF4A06000F0DE
:10016000DFFD00F02BF80D48006840F480200B49BB
:1001700008600B48006940F400100949086100F06C
:100180004DF809E04FF4FA70FFF7DEFF0448C0684D
:1001900080F020000249C860F4E70000100C014024
:1001A00000100140704700BFFEE700BFFEE700BF40
:1001B000FEE700BFFEE770477047704708B50121B2
:1001C000102001F0C5F90121082001F0C1F920201B
:1001D000ADF8000010208DF8030003208DF8020018
:1001E00069460C4800F0F8FE0420ADF8000010202D
:1001F0008DF8030003208DF802006946064800F0E0
:10020000EBFE2020034908610420034910310860F7
:1002100008BD000000100140000C01401FB5012185
:10022000084601F095F96348806940F0DC006149B7
:1002300088610120ADF80C0028208DF80F00012006
:100240008DF80E0003A95C4800F0C6FE06208DF86C
:10025000080001208DF8090000208DF80A00012017
:100260008DF80B0002A800F060FD0021084600F0A8
:10027000C9FF0120009000208DF8040008208DF8AF
:10028000050001208DF80600684600F0C5FD02203B
:10029000ADF80C0048208DF80F0001208DF80E00FD
:1002A00003A9454800F098FE07208DF808000120BA
:1002B0008DF8090000208DF80A0001208DF80B0050
:1002C00002A800F032FD0121002000F09BFF022077
:1002D000009000208DF804000C208DF8050001200E
:1002E0008DF80600684600F097FD1020ADF80C0070
:1002F00048208DF80F0001208DF80E0003A92E482C
:1003000000F06AFE0A208DF8080001208DF809002F
:1003100000208DF80A0001208DF80B0002A800F0E3
:1003200004FD0421002000F06DFF1020009000204B
:100330008DF804000C208DF8050001208DF80600D2
:10034000684600F069FD1FBD1C48006800F0010010
:1003500058B11A48006840F0010018490860184870
:10036000006880F004001649086070471348006870
:1003700000F0020058B11148006840F002000F4937
:1003800008600F48006880F004000D49086070475D
:100390000A48006800F0100058B10848006840F0B2
:1003A0001000064908600648006880F0040004490F
:1003B000086070470010024000080140140401402A
:1003C0000C0C014010B5FE48FE49086000F051FCDD
:1003D000FC4800684FF47A71B0FBF1F4601E4FF0F6
:1003E000E02148610020886108610846006940F00A
:1003F000040008610846006940F0020008610846F0
:10040000006940F001000861EFA001F007FA10BD9B
:10041000F648D0E900305A1C40F10000F349C1E928
:1004200000207047F14903C970472DE9F04700BF2C
:10043000FFF7F8FF04464FF0E02040694FF0E0215D
:100440008969401A4FF47A7148434FF0E0214969B5
:10045000B0FBF1F9484601F069F90746204601F082
:1004600065F98146E24901F02FF98046394601F0ED
:10047000D3F8064601F05FF90546FFF7D3FF604069
:100480000843D5D12846BDE8F08730B50246FFF7CE
:10049000C9FFD84B03C300BFFFF7C4FFD54BD3E957
:1004A0000053044608461946631B60EB01009B1A83
:1004B00070F10000F0D330BD70B50446FFF7B5FF12
:1004C0000026054600BFFFF7B0FF0021421B61EB8D
:1004D0000601121B71F10001F5D370BD10B5C648BD
:1004E0000068C6490860FFF7A0FFC3490860C34819
:1004F000006828B108460068C0490968401A10BD64
:100500000020FCE710B5FFF7E9FF044654B9BCA092
:1005100001F084F9C1480078401CC0490870FFF719
:10052000DDFF10BDBD4801780078401CBB4B187042
:100530002246BBA001F072F9FFF7D0FF00BFF0E741
:100540002DE9F041144600250026BD4A904205D110
:10055000BC4A926942F00402BA4FBA61BA4A904268
:1005600005D1B84A926942F00802B64FBA61B74A5B
:10057000904205D1B34A926942F01002B14FBA617C
:10058000B34A904205D1AF4A926942F02002AD4F82
:10059000BA61B04A904205D1AA4A926942F040023B
:1005A000A84FBA6103F0030303B90323182C1FD02B
:1005B00007DC6CB1042C0DD0102C14D0142C1AD1E3
:1005C0000EE01C2C11D0282C06D0482C13D105E0AD
:1005D000002512E0042510E008250EE008250CE0B7
:1005E00043F0040509E01D4607E043F00C0504E074
:1005F00043F0080501E0002500BF00BF002218E01D
:10060000012707FA02F601EA06078FB107684FEAE9
:1006100082084FF00F0C0CFA08FC27EA0C07076061
:1006200007684FEA820C05FA0CFC47EA0C070760E2
:10063000521C082AE4D300221BE002F108074FF005
:10064000010C0CFA07F601EA06078FB147684FEA7A
:1006500082084FF00F0C0CFA08FC27EA0C074760E1
:1006600047684FEA820C05FA0CFC47EA0C07476022
:10067000521C082AE1D3482C02D102690A430261C4
:10068000282C03D1026942EA01420261BDE8F081EF
:1006900070B50B467049097829B97049704A1160E4
:1006A00001216D4A11706F49095C21F0F0026D491A
:1006B0000A5419070A0E6B490A54C41700EBD46494
:1006C0006411A40004F1E024D4F800410246C517E7
:1006D00000EBD5656D11A0EB45160125B5402C4307
:1006E0000146C51700EBD5656D11AD0005F1E0259C
:1006F000C5F8004170BD2DE9F041034614460026BF
:1007000000204F4A934200D100BF4F4A934200D18C
:1007100001264E4A934200D102264D4A934200D10F
:1007200003264C4A934200D104264F4A934200D1FB
:1007300005264E4A934200D10626002207E00127F3
:1007400097408F4201D1104603E0571CFAB2102A9D
:10075000F5DB00BF0246C71700EB9777BF10A0EB91
:100760008707BF063D0E374A926942F00102354FB6
:10077000BA61C71700EB97774FEAA70C3C4F57F8C1
:100780002C704FF00F0C0CFA05FC27EA0C07024600
:100790004FEAE07C00EB9C7C4FEAAC08DFF8D0C06D
:1007A0004CF82870C71700EB97774FEAA70C304F2B
:1007B00057F82C7006FA05FC47EA0C075AE00000CF
:1007C000A25D4F002C0000205379735469636BCAFB
:1007D000B1D6D3C5E4D6C320202020202020316DFF
:1007E00073D6D0B6CF31B4CE0D000000000000208B
:1007F00000007A44080000201400002010000020AF
:10080000A1BED4CBD0D0CAB1B3A42DB2E2CAD4D445
:10081000ADB5E3B7C5D6C3A1BF0D000018000020D9
:10082000A1BED4CBD0D0CAB1B3A42DBCE0B2ECB53C
:10083000E32D25643A253975207573A1BF0D00009D
:100840000008014000100240000C0140001001406F
:100850000014014000180140190000200003FA05AF
:100860000CED00E000E400E0001C0140002001402D
:10087000080001404FEAE07C00EB9C7C4FEAAC08AA
:10088000DFF8A0C24CF82870A74A12680A43A64FA6
:100890003A6004F0010232B1A34A0C3212680A43F2
:1008A000A14F0C373A6004F0020232B19E4A08327E
:1008B00012680A439C4F08373A60BDE8F0819B48B4
:1008C000806940F00100994988619648083840687D
:1008D00020F0E0609349083948600846406840F0DD
:1008E00000704860704710B500F0C3F99048006888
:1008F00010BD904890490860704730BF704772B68D
:10090000704762B6704700B58B48001D006840F024
:1009100004008949091D08608448C06940F080507E
:100920008249C8618548406840F4807083494860C6
:100930000846006840F0040008600846006840F07F
:1009400002000860FFF7D9FF00BD7849496821F02F
:100950007061764A51601146496800F00F0241EA21
:100960000261724A51607047014600BF7448C06816
:1009700000F0010018B1081EA1F10101F6D109B97A
:10098000012070470020FCE730B503466D4804881D
:10099000B3F1006F01D2012030BD4FF0006000EBD9
:1009A0008420984201D20220F6E703E0187808700C
:1009B000491C5B1C101EA2F10105AAB2F6D100BFB2
:1009C000EAE72DE9F84F8046894616465D48B0F8BB
:1009D00000A0A8F1006B4FEADB25CBF30A000090E2
:1009E0000098C0F50067B8F1006F02D20120BDE8A1
:1009F000F88F4FF0006000EB8A20404501D20120C3
:100A0000F5E751484E49486050484860BE4200DC16
:100A100037467DE04E48FFF7A7FF08B10220E6E722
:100A20004FF0006101EBC5200A144A49FFF7ACFF03
:100A30004748FFF799FF08B10220D8E7404800690E
:100A400040F002003E4908614FF0006000EBC52015
:100A500048610846006940F0400008613C48FFF7E3
:100A600083FF08B10220C2E73548006941F6FD71F5
:100A7000084033490861002007E019F80020009978
:100A80000144344B5A54411C88B2B842F5DB00246F
:100A90002AE02F48FFF768FF08B10220A7E728489F
:100AA000006940F00100264908612A4810F8140046
:100AB000012101EB4401274A515C40EA01204FF03B
:100AC000006101EBC52121F814002148FFF74CFF1C
:100AD00008B102208BE71A48006941F6FE71084010
:100AE00017490861601C84B2B4F5806FD1DBB7424E
:100AF00000D10EE0B9446D1C00200090F01B86B2BE
:100B0000B6F5006F02DD4FF4006000E030460746A6
:100B100080E700BF0A48006940F08000084908618A
:100B2000002064E70800014000040140001002407A
:100B30002C0000200400FA050CED00E000700040DD
:100B400000200240E0F7FF1F23016745AB89EFCD8E
:100B5000888888008A0000200648804706480047A9
:100B6000FEE7FEE7FEE7FEE7FEE7FEE7FEE7FEE75D
:100B7000FEE7FEE77D0B0008310100080CB5604878
:100B8000006840F001005E490860084640685D4921
:100B900008405B4948600846406820F4FE00486011
:100BA0004FF41F0088600020019000900846006804
:100BB00040F48030086000BF5148006800F4003005
:100BC00000900198401C0190009818B90198B0F568
:100BD000A06FF1D14A48006800F40030002843D0EB
:100BE0004948006840F0100047490860084600681E
:100BF00020F0030008600846006840F0020008602A
:100C00003F4840683E49486008464068486008469A
:100C1000406840F4806048600846406820F47C10DA
:100C200048600846406840F4E8104860084600689C
:100C300040F08070086000BF3148006800F000702C
:100C40000028F9D02E48406820F003002C49486065
:100C50000846406840F00200486000BF28484068ED
:100C600000F00C000828F9D14FF000602749086017
:100C70000CBD10B5002100200022214B5B6803F061
:100C80000C0121B1042906D0082928D107E0204B06
:100C9000204C236027E01E4B1E4C236023E0184BA2
:100CA0005B6803F47010164B5B6803F48032022318
:100CB00003EB904022B9184B4343164C23600DE0E0
:100CC0000F4B5B6803F4003323B1134B4343114CC8
:100CD000236003E00E4B43430E4C236003E00C4BB8
:100CE0000C4C236000BF00BF054B5B68C3F30313CC
:100CF0000A4CE15C074B1B68CB40064C236010BDDF
:100D0000001002400000FFF80020024008ED00E063
:100D100000127A002C00002000093D001C00002079
:100D200031490143314A1160704770B500210023F9
:100D30000F22C47804B32D4C246804F4E064C4F595
:100D4000E064210AC1F10403CA40447804FA03F1C3
:100D50008478144021430901254C0678A155047874
:100D600004F01F050124AC4005786D11AD0005F1BC
:100D7000E025C5F8004109E0047804F01F050124CE
:100D8000AC401C4D0678761145F8264070BD1A4AD5
:100D90000A400243154B1B1F1A60704739B1134AB2
:100DA000121D12680243114B1B1D1A6006E00F4A08
:100DB000121D126882430D4B1B1D1A6070470428D8
:100DC00008D14FF0E021096941F004014FF0E02221
:100DD000116107E04FF0E021096921F004014FF0B3
:100DE000E0221161704700000000FA050CED00E000
:100DF00000E400E080E100E080FFFF1F00204449A4
:100E00000860091D0860091D0860091D0860414847
:100E10003F4914310860704700213D498279002A1A
:100E20003AD00A46126803689A430B461A600A1DB4
:100E3000126803689A430B1D1A60027911440A680C
:100E400003681A430A60324A0832126803689A43F8
:100E50002F4B08331A601A1D126803689A432C4BF3
:100E60000C331A604279102A0ED11A1F12680368D7
:100E70001A43274B08331A601A1D126803681A4375
:100E8000234B0C331A600DE02149427911440A6862
:100E900003681A430A6005E0027911440A6803688E
:100EA0009A430A6070470021016001710C21417171
:100EB0000021817170471649103109680143144AB5
:100EC00010321160704701460020114A1432126836
:100ED0000A400AB1012000E0002070470C4914319B
:100EE00008607047014600200022094B1B6803EA96
:100EF0000102074B14331B680B4013B10AB10120E8
:100F000000E000207047024914310860704700007B
:100F100000040140FFFF0F0010B50446CC48844296
:100F200008D10121042000F02DFB0021042000F055
:100F300029FB46E0C748844208D10121082000F07F
:100F400021FB0021082000F01DFB3AE0C24884424A
:100F500008D10121102000F015FB0021102000F025
:100F600011FB2EE0BD48844208D10121202000F071
:100F700009FB0021202000F005FB22E0B848844254
:100F800008D10121402000F0FDFA0021402000F0AE
:100F9000F9FA16E0B348844208D10121802000F01C
:100FA000F1FA0021802000F0EDFA0AE0AE48844218
:100FB00007D10121801500F0E5FA0021A01500F00D
:100FC000E1FA10BD10B50121084600F0DBFA00215E
:100FD000012000F0D7FA10BD2DE9F04102460025AE
:100FE0000026002000230024002791F803C00CF005
:100FF0000F0591F803C00CF0100CBCF1000F03D0EA
:1010000091F802C04CEA050591F800C0BCF1000F50
:1010100031D0146800202BE04FF0010C0CFA00F3E3
:10102000B1F800C00CEA03069E4220D183004FF0C5
:101030000F0C0CFA03F7BC4305FA03FC4CEA04045A
:1010400091F803C0BCF1280F06D14FF0010C0CFA47
:1010500000FCC2F814C00AE091F803C0BCF1480FCC
:1010600005D14FF0010C0CFA00FCC2F810C0401C76
:101070000828D1D31460B1F800C0BCF1FF0F34DDF3
:10108000546800202EE000F1080C4FF0010808FA27
:101090000CF3B1F800C00CEA03069E4221D1830094
:1010A0004FF00F0C0CFA03F7BC4305FA03FC4CEAB3
:1010B000040491F803C0BCF1280F05D100F1080C1D
:1010C00008FA0CF8C2F8148091F803C0BCF1480F7C
:1010D00007D100F1080C4FF0010808FA0CF8C2F82B
:1010E0001080401C0828CED35460BDE8F0814FF634
:1010F000FF710180022181700421C1707047024696
:10110000002093680B400BB1012000E000207047E5
:101110000146886880B2704702460020D3680B40C1
:101120000BB1012000E0002070470146C86880B282
:10113000704701617047416170470AB1016100E089
:1011400041617047C16070474FF480320A43826149
:101150008161826182698269704702460020434B47
:1011600018684FF68073184040EA021008433F4B5E
:10117000186070473E49C8617047F0B50A460023C1
:1011800000240021002500F00046B6F1004F02D1F6
:10119000364EF16901E0354E7168C0F3034583B204
:1011A00000F44016B6F5401F08D121F070612F4EB3
:1011B000766826F070662D4F7E6012E000F480168F
:1011C000B6F5801F06D1032606FA05F4A14341F0C7
:1011D000706106E0460D360103FA06F6B14341F0B0
:1011E000706122B1460D360103FA06F6314300F074
:1011F0000046B6F1004F02D11C4EF16101E01B4EDA
:101200007160F0BD30B500228B071C0F0F2303FA6D
:1012100004F2164B08338C1053F824309343134CCC
:1012200008348D1044F8253023468C1053F82430B0
:101230008C07240F00FA04F423430C4C08348D105F
:1012400044F8253030BD0A49DC31086070470000A1
:1012500000080140000C0140001001400014014052
:1012600000180140001C0140002001400000014026
:1012700000002042DF48006840F00100DD490860BE
:1012800008464068DC490840DA494860084600687A
:10129000DA490840D74908600846006820F48020F1
:1012A00008600846406820F4FE0048604FF41F00C4
:1012B00088607047CF49096821F48031CD4A1160B8
:1012C0001146096821F480211160B0F5803F03D0F8
:1012D000B0F5802F0ED106E0C649096841F480318F
:1012E000C44A116007E0C349096841F4A021C14A1A
:1012F000116000E000BF00BF704710B5014600223A
:10130000002300204A11012A02D1BA4C236806E0CA
:10131000022A02D1B74C236A01E0B64C636A01F09D
:101320001F02012494401C400CB1012000E0002069
:1013300010BD38B5002000900024002500BF3120EA
:10134000FFF7DBFF05460098401C00900098B0F5C1
:10135000A06F01D0002DF2D03120FFF7CEFF08B1F1
:10136000012400E00024204638BD01460020A14AA7
:10137000106820F0F80040EAC10010607047A049F2
:1013800008607047024600209A4B586820F47C1091
:1013900042EA01031843974B586070479849086622
:1013A000704701460020934A506820F0030008432C
:1013B000506070478F48406800F00C00704701464D
:1013C00000208C4A506820F0F000084350607047BD
:1013D00001460020874A506820F4E06008435060CE
:1013E000704701460020834A506820F4605040EA6C
:1013F000C1005060704729B17E4A527A02437D4B4A
:101400005A7204E07B4A527A82437A4B5A7270478E
:101410007B49D8310860704701460020754A506802
:1014200020F440400843506070470021714A203248
:101430001170704A82F82010012802D004280AD1C5
:1014400004E001216B4A2032117005E00521694A50
:101450002032117000E000BF00BF7047694908608A
:1014600070476449096A0143624A116270476549DD
:1014700044390860704730B5002100220024002361
:101480005C4D6D6805F00C0121B1042905D00829D7
:1014900023D105E05C4D056022E05B4D05601FE057
:1014A000544D6D6805F47012524D6D6805F480342A
:1014B000022505EB92421CB9544D554305600BE0E3
:1014C0004C4D6D6805F400351DB1504D5543056018
:1014D00002E04D4D5543056002E04B4D056000BFF5
:1014E00000BF444D6D6805F0F0010909484D6B5C83
:1014F0000568DD4045603F4D6D6805F4E061090A0F
:10150000434D6B5C4568DD4085603A4D6D6805F480
:101510006051C90A3E4D6B5C4568DD40C560354D84
:101520006D6805F44041890B3A4D6B5CC568B5FBAD
:10153000F3F5056130BD29B12E4A526902432D4BA6
:101540005A6104E02B4A526982432A4B5A61704720
:1015500029B1284A92690243264B9A6104E0254A40
:1015600092698243234B9A61704729B1214AD2691B
:101570000243204BDA6104E01E4AD26982431D4BCC
:10158000DA61704729B11B4AD2680243194BDA600D
:1015900004E0184AD2688243164BDA60704729B1DA
:1015A000144A12690243134B1A6104E0114A12698A
:1015B0008243104B1A6170471249403908607047E6
:1015C0000F49C86470470B49C87170470948406AA1
:1015D00040F0807007494862704701460020054A84
:1015E00092680A400AB1012000E0002070470149DA
:1015F00088727047001002400000FFF8FFFFF6FEFF
:10160000000042428004424200127A0000093D007C
:101610003000002040000020F0B480EA0102D40F26
:101620004200B2EB410F02D20246084611464A0080
:1016300042D0C30DDDB2C1F3C752AD1A202D35DA49
:10164000C1F3160141F4000204B15242C5F1200673
:1016500002FA06F12A411044B3EBD05F23D0C4B1A3
:10166000012DA0EBC35009DCF0BC4FF0004202EAB0
:10167000C352DBB200F5000000F090B8400000F16A
:10168000807000EBC350A0F1807040EAD170490037
:1016900009E0490841EAC071A0EBC35000F5000021
:1016A000400800EBC350F0BC00F06FB8614201226B
:1016B00002EB4101001BF6E7F0BC704781F00041EE
:1016C000AAE780F00040A7E780EA010210B502F027
:1016D0000043400022D04A001FD0010E01EB1261EE
:1016E000C0F35600C2F3560240F4000042F4000278
:1016F000A0FB022000047F39140400D0401C50EAF3
:10170000124001D44000491EC2B20C0604EBD010B6
:10171000401C4008802A02D003E0002010BD20F0C9
:101720000100002900DA0020184310BD9623002292
:10173000114600F033B820F00040C10DC0F3160090
:1017400040F400007F2901DA00207047962903DC6D
:10175000C1F19601C840704796398840704730B54E
:101760000B46014600202022012409E021FA02F55F
:101770009D4205D303FA02F5491B04FA02F52844F9
:10178000151EA2F10102F1DC30BD0029A8BF70478F
:10179000401C490008BF20F00100704710B4B0FAA7
:1017A00080FC00FA0CF050EA010404BF10BC704742
:1017B00049B1CCF1200421FA04F411FA0CF118BF5C
:1017C000012121430843A3EB0C01CB1D4FEA00612B
:1017D0004FEA102042BF002010BC704700EBC350FE
:1017E00010440029A4BF10BC7047401C490008BF2A
:1017F00020F0010010BC7047064C074D06E0E06881
:1018000040F0010394E8070098471034AC42F6D347
:10181000FEF792FCB01B0008D01B00080FB4054B6C
:1018200010B503A9044A029800F018F810BC5DF83E
:1018300014FB00009F1B00084400002002E008C8C1
:10184000121F08C1002AFAD170477047002001E03A
:1018500001C1121F002AFBD1704700002DE9FF4F84
:101860008BB088460546002606E025280BD0DDE92A
:101870000D1290476D1C761C28780028F5D10FB00A
:101880003046BDE8F08F0024A146A2460122AE49B1
:1018900000E0044315F8013F203B02FA03F0084240
:1018A000F7D128782A2810D06FF02F022878A0F1DD
:1018B0003001092915D809EB890102EB410144F0F7
:1018C000020400EB01096D1CF0E758F8041B5FEA05
:1018D000010903D544F40054C9F1000944F002049D
:1018E0006D1C28782E2817D115F8010F44F0040438
:1018F0002A280ED06FF02F022878A0F13001092994
:101900000AD80AEB8A0102EB410100EB010A6D1CC7
:10191000F2E758F804AB6D1C28786C280FD006DC71
:101920004C2817D068280DD06A2814D104E07428F8
:1019300010D07A280FD10DE044F400140AE044F4EA
:10194000801401E044F440146978814202D104F526
:1019500080146D1C6D1C2878692865D006DC002871
:101960008DD0632827D0642806D15DE06E2808D08A
:1019700073282AD0752877D0DDE90D129047761CA0
:10198000E0E0C4F30250022809D003280DD0D8F8B3
:10199000001004280DD00E6008F10408D2E0D8F839
:1019A0000010F217C1E90062F6E7D8F800100E80C7
:1019B000F2E70E70F0E718F8041B8DF80010002015
:1019C0008DF80100EB46012003E058F804BB4FF00E
:1019D000FF3061074FF0000701D40AE07F1C574534
:1019E0000DDA8742FADB1BF807100029F6D106E072
:1019F0007F1C8742FCDB1BF807100029F8D1DDE9CA
:101A00000D23A9EB07008146214600F0B1F83044D0
:101A1000C61904E0DDE90D121BF8010B90477F1E8B
:101A2000F8D22146484688E058F8040BC4F3025126
:101A30004FF00A0B032900D100B2042900D140B2B3
:101A4000002802DA40422D2102E0210505D52B2194
:101A50008DF82410012104E006E0E10710D02021D8
:101A6000F6E708AF089113E058F8040BC4F30251ED
:101A70004FF00A0B032900D180B2042900D1C0B273
:101A80000021EEE75946FFF76AFE303107F8011DE5
:101A90000028F7D1ADEB070000F1200B600702D55D
:101AA00024F4803401E04FF0010ADA4502DDAAEBAC
:101AB0000B0000E00020824600EB0B010898014477
:101AC000A9EB01000A90E00306D4DDE90D232146CD
:101AD0000A9800F04DF806444FF0000908E009A903
:101AE00011F80900DDE90D12904709F10109761C92
:101AF00008998945F3DBE0030CD5DDE90D23214688
:101B00000A9800F035F8064404E0DDE90D123020B3
:101B10009047761CBAF10001AAF1010AF5DC05E054
:101B2000DDE90D1217F8010B9047761CBBF100019F
:101B3000ABF1010BF4DC0A982146DDE90D2300F03E
:101B400005F806446D1C97E6092801002DE9F041CF
:101B5000044600251E461746880404D405E039468D
:101B60002020B0476D1C641EF9D52846BDE8F081E1
:101B70002DE9F041044600251E469046C80301D5D4
:101B8000302700E02027880404D505E04146384688
:101B9000B0476D1C641EF9D52846BDE8F08138B504
:101BA00004468DF8000069460320ABBE204638BDD0
:101BB000D01B000800000020480000003C1800086E
:101BC000181C000848000020480C00004C180008B1
:101BD0000000000000000000000000000000000005
:101BE00000000000000000000000000000000000F5
:101BF000000000000102030406070809A25D4F006F
:101C000000000000010203040102030406070809A2
:081C10000204060800000000B8
:0400000508000131BD
:00000001FF
