:020000040800F2
:10000000D03D0020C51D0008C5020008C702000839
:10001000CB020008CF020008D30200080000000055
:10002000000000000000000000000000D7020008EF
:10003000D902000800000000DB0200087D1600085D
:10004000DF1D0008DF1D0008DF1D0008DF1D0008A0
:10005000DF1D0008DF1D000893040008BF0400082E
:10006000DF1D0008DF1D0008EB040008DF1D00088D
:10007000DF1D0008DF1D0008DF1D0008DF1D000870
:10008000DF1D0008DF1D0008DF1D0008DF1D000860
:10009000DF1D0008DF1D0008DF1D0008DF1D000850
:1000A000DF1D0008DF1D0008DF1D0008DF1D000840
:1000B000DF1D0008DF1D0008DF1D0008DF1D000830
:1000C000DF1D0008DF1D0008DF1D0008DF1D000820
:1000D000DF1D00088706000857090008770C000894
:1000E000DF1D0008DF1D0008DF1D0008DF1D000800
:1000F000DF1D0008DF1D0008DF1D0008DF1D0008F0
:10010000DF1D0008DF1D0008DF1D0008DF1D0008DF
:10011000350F000867110008DF1D0008DF1D00080B
:10012000DF1D0008DF1D0008DF1D0008DF1D0008BF
:10013000DFF80CD002F0D0FE00480047570100085D
:10014000D03D002041F664114843002100E0491CE5
:100150008142FCD370474FF4A06001F017FF01F01B
:10016000E4FC4FF4E13000F01FFA00F0B7F8334838
:10017000006840F48020314908603148006940F44B
:1001800000102F49086100F0EBF84FF4E1312D48E1
:1001900001F008FA51E0C820FFF7D4FF2A48408850
:1001A00058B12948001D01F06FF92749091D27A002
:1001B00002F0A4FE00202449488001F0E8F800285D
:1001C0003BD02748418827A002F098FE2449091D0A
:1001D0002AA002F093FE2EA12148001D02F07AFD14
:1001E00028B11748006940F40010154908612BA197
:1001F0001B48001D02F06EFD28B11148006940F057
:1002000020000F49086128A11548001D02F062FD79
:1002100028B10A48006840F480200849086025A1F8
:100220000F48001D02F056FD28B10448006840F058
:1002300004000249086001F057F9ACE7100C0140D6
:1002400000100140004C0040640000200D0AB7A2DD
:10025000CBCDCAFDBEDD3E3E3EA3BA2573000000F5
:100260007C2D00200D0ACAD5B5BDD7D6BDDACAFD92
:10027000203A202564427974657300000D0ABDD3CD
:10028000CAD5CAFDBEDD3C3C3CA3BA2573000000C4
:100290004C45445F5245445F4F4E00004C45445F1F
:1002A0005245445F4F4646004C45445F424C5545DD
:1002B0005F4F4E004C45445F424C55455F4F4646AC
:1002C00000000000704700BFFEE700BFFEE700BF70
:1002D000FEE700BFFEE770477047704708B5012191
:1002E000102002F06BFA0121082002F067FA2020AA
:1002F000ADF8000010208DF8030003208DF80200F7
:1003000069460D4801F09EFF0420ADF80000102062
:100310008DF8030003208DF802006946074801F0BC
:1003200091FF20200449086104200449103108602D
:1003300003A002F0E3FD08BD00100140000C0140E5
:100340004C454420D6B8CABEB5C620202020202067
:10035000202020202020C5E4D6C3CDEAB3C90D005B
:100360001FB50121084602F029FA6B48806940F068
:10037000DC00694988610120ADF80C0028208DF867
:100380000F0001208DF80E0003A9644801F05AFF08
:1003900006208DF8080001208DF8090000208DF856
:1003A0000A0001208DF80B0002A801F0F4FD0021E5
:1003B000084602F05DF80120009000208DF804004E
:1003C00008208DF8050001208DF80600684601F030
:1003D00059FE0220ADF80C0048208DF80F000120D6
:1003E0008DF80E0003A94D4801F02CFF07208DF871
:1003F000080001208DF8090000208DF80A00012076
:100400008DF80B0002A801F0C6FD0121002002F0CA
:100410002FF80220009000208DF804000C208DF8A9
:10042000050001208DF80600684601F02BFE102023
:10043000ADF80C0048208DF80F0001208DF80E005B
:1004400003A9364801F0FEFE0A208DF808000120BD
:100450008DF8090000208DF80A0001208DF80B00AE
:1004600002A801F098FD0421002002F001F81020FC
:10047000009000208DF804000C208DF8050001206C
:100480008DF80600684601F0FDFD25A002F036FD5E
:100490001FBD10B52A48006800F0010070B128485F
:1004A000006840F001002649086026A002F026FD01
:1004B0002C48006880F004002A49086010BD10B57F
:1004C0001F48006800F0020070B11D48006840F04D
:1004D00002001B49086024A002F010FD21480068BA
:1004E00080F004001F49086010BD10B51448006872
:1004F00000F0100070B11248006840F01000104980
:10050000086021A002F0FAFC1648006880F00400A0
:100510001449086010BD00000010024000080140AE
:10052000B0B4BCFC20B3F5CABCBBAF202020202057
:10053000202020202020C5E4D6C3CDEAB3C90D0079
:1005400014040140B5DA203120B8F6B0B4BCFCB1D7
:10055000BBB0B4CFC22C20C0B6B5C6B7B4D7AA0DB5
:10056000000000000C0C0140B5DA203220B8F6B0D3
:10057000B4BCFCB1BBB0B4CFC22C20C0B6B5C6B7BA
:10058000B4D7AA0D00000000B5DA203320B8F6B0C9
:10059000B4BCFCB1BBB0B4CFC22C20C0B6B5C6B79A
:1005A000B4D7AA0D0000000010B586B00446FE487E
:1005B000806940F48040FC4988610846806940F0C9
:1005C000040088614815ADF8140003208DF816006A
:1005D00018208DF8170005A9F44801F033FE4FF4F8
:1005E0008060ADF8140048208DF8170005A9EF4889
:1005F00001F028FE25208DF8100002208DF8110052
:100600008DF8120001208DF8130004A801F0C3FC3E
:10061000E74802F037F900940020ADF80400ADF887
:100620000600ADF80800ADF80C000C20ADF80A008B
:100630006946DF4802F069F9002240F22771DC4880
:1006400002F0FBF9012240F22551D94802F0F5F9F8
:10065000012240F22441D64802F0EFF90121D448AA
:1006600002F0DFF94FF60F70D14908800120D1491F
:10067000087000204880D0A002F040FCDEA002F00C
:100680003DFC06B010BD10B5C948008800F0200040
:10069000A0B1E6480088B0F5806F03DBC448001DB8
:1006A000008810BDC248001D0088C1B2DF48028822
:1006B0000088401CDD4B1880DD488154BC48008810
:1006C00000F01000D0B10020BA4948804FF4806299
:1006D000D749B848001D02F0D9FAD4480088B54976
:1006E00048800020D14908804FF48061D04802F052
:1006F000E6FAAF480088AE48001D0088AC48008884
:1007000000F08000F0B1AA480C30008800F08000B2
:10071000C0B1C84801780078401CC64A1070C6486D
:10072000405CA349091D088010460078C349097838
:10073000884207D19E480C30008820F080009C49F8
:100740000C31088000BFACE770B505460C469948EF
:10075000408800280DDD97484288011D284602F098
:1007600095FA94488078207000209249488020783B
:1007700070BD0020FCE770B5024600200AE0145C62
:10078000AE4B1D781B785B1CAC4E3370AA4B5C558E
:10079000431CD8B28842F2DB85480C30008800F058
:1007A000800038B982480C30008840F08000804BCF
:1007B0000C33188070BD70B504460025264601E054
:1007C000681C85B216F8011B0029F9D1E9B2204650
:1007D000FFF7D1FF70BD10B50021024600E0491CB3
:1007E00012F8014B002CFAD100BF954B9B6C002BEB
:1007F000FBD1944B1B78002B35D10123914C2370F6
:100800006B4B14331B8843F08003694C14342380F2
:10081000654B5B6943F00103634C63610023884CC3
:100820006364234699641865614B1B1DE36423468A
:100830005B6C43F01003636423465B6C6364234684
:100840005B6C636423465B6C43F080036364234604
:100850005B6C636423465B6C636423465B6C63641C
:1008600023465B6C6364764B5B6C23F00103744C32
:1008700063642346996418655B6C43F00103636409
:1008800010BD10B586B004464748C06940F400303A
:100890004549C8610846806940F004008861042029
:1008A000ADF8140003208DF8160018208DF81700FD
:1008B00005A93E4801F0C6FC0820ADF81400482008
:1008C0008DF8170005A9394801F0BCFC26208DF8E9
:1008D000100002208DF811008DF8120001208DF813
:1008E000130004A801F057FB00940020ADF80400A9
:1008F000ADF80600ADF80800ADF80C000C20ADF81E
:100900000A006946504802F000F8002240F22771C0
:100910004D4802F092F8012240F225514A4802F077
:100920008CF8012240F22441474802F086F8012168
:10093000454802F076F84FF60F70434908800120D1
:100940001C4981F804040020A1F806043FA002F02D
:10095000D5FA06B010BD10B53B48008800F0200065
:10096000A0B148480088B0F5806F03DB3648001D11
:10097000008810BD3448001D0088C1B2414802887B
:100980000088401C3F4B18803F4881542E48008807
:1009900000F0100030B100200649A1F806044FF421
:1009A000806273E088E0000000100240000801400F
:1009B00000380140640000200D0D0D3D3D3D3D3DE2
:1009C0003D3D3D3D3D3D20C4A7C5AEBFAAB7A2B049
:1009D000E52053544D33324631303320CDE2C9E85F
:1009E000B3F5CABCB1A8B8E6203D3D3D3D3D3D3D17
:1009F0003D3D3D3D0D000000555341525431B3F58E
:100A0000CABCBBAFC5E4D6C3202020202020BDD364
:100A1000CAD5D6D0B6CFA1A2BFD5CFD0D6D0B6CF6B
:100A20002C20B7A2CBCDD6D0B6CF0D001000002021
:100A30007A190020000000207A1400200100002014
:100A40000000024012000020004400400D555341B8
:100A5000525432B3F5CABCBBAFC5E4D6C320202084
:100A6000202020BDD3CAD5D6D0B6CFA1A2BFD5CF26
:100A7000D0D6D0B6CF2C20B7A2CBCDD6D0B6CF0D06
:100A800000000000140000207A1D0020FD49FE48EF
:100A900002F0FCF8FD480088FD49A1F8060400209A
:100AA000FA4908804FF48061F64802F008F9F948E5
:100AB0000088F848001D0088F648008800F0800093
:100AC000F0B1F4480C30008800F08000C0B1F2486A
:100AD00001780078401CF04A1070F048405CED4905
:100AE000091D088010460078ED490978884207D131
:100AF000E8480C30008820F08000E6490C3108807E
:100B000000BF36E770B505460C46E148B0F806046C
:100B1000002810DDDE48B0F80624DB49284602F044
:100B2000B5F8DB4890F8060420700020D849A1F8F9
:100B30000604207870BD0020FCE770B50246002056
:100B40000AE0145CD64B1D781B785B1CD44E3370C6
:100B5000D24B5C55431CD8B28842F2DBCD480C30F6
:100B6000008800F0800038B9CA480C30008840F096
:100B70008000C84B0C33188070BD70B5044600254A
:100B8000264601E0681C85B216F8011B0029F9D140
:100B9000E9B22046FFF7D1FF70BD10B586B004461C
:100BA000C048C06940F48020BE49C86108468069D9
:100BB00040F0080088610815ADF8140003208DF896
:100BC000160018208DF8170005A9B74801F03AFB68
:100BD0004FF40060ADF8140048208DF8170005A907
:100BE000B14801F02FFB27208DF8100002208DF86E
:100BF00011008DF8120001208DF8130004A801F0F7
:100C0000CAF9AA4801F03EFE00940020ADF80400A5
:100C1000ADF80600ADF80800ADF80C000C20ADF8FA
:100C20000A006946A14801F070FE002240F22771D7
:100C30009E4801F002FF012240F225519B4801F03D
:100C4000FCFE012240F22441984801F0F6FE012109
:100C5000964801F0E6FE4FF60F7094490880012097
:100C60008B4981F808080020A1F80A0890A002F03A
:100C700045F906B010BD10B58C48008800F0200082
:100C8000A0B199480088B0F5806F03DB8748001D4C
:100C9000008810BD8548001D0088C1B292480288B6
:100CA0000088401C904B1880904881547F480088F1
:100CB00000F01000D8B100207549A1F80A084FF4DF
:100CC00080628A498A4801F0E1FF874800887049BC
:100CD000A1F80A080020844908804FF48061834805
:100CE00001F0EDFF714800887048001D00886F48D2
:100CF000008800F08000F0B16C480C30008800F0F3
:100D00008000C0B17B4801780078401C794A10709F
:100D10007948405C6549091D08801046007877498C
:100D20000978884207D161480C30008820F08000A3
:100D30005E490C31088000BFABE770B505460C4634
:100D40005348B0F80A08002810DD5148B0F80A28C6
:100D50006749284601F09AFF4D4890F80A0820702C
:100D600000204B49A1F80A08207870BD0020FCE75C
:100D700070B5024600200AE0145C604B1D781B78B9
:100D80005B1C5E4E33705C4B5C55431CD8B2884292
:100D9000F2DB46480C30008800F0800038B9434848
:100DA0000C30008840F08000404B0C33188070BD40
:100DB00070B504460025264601E0681C85B216F889
:100DC000011B0029F9D1E9B22046FFF7D1FF70BD20
:100DD00010B586B004463348C06940F4002031495C
:100DE000C8610846806940F0100088610815ADF8B8
:100DF000140003208DF8160018208DF8170005A99F
:100E00003F4801F01FFA4FF40060ADF8140048208D
:100E10008DF8170005A93A4801F014FA34208DF82E
:100E2000100002208DF811008DF8120001208DF8BD
:100E3000130004A801F0AFF8324801F023FD00943C
:100E40000020ADF80400ADF80600ADF80800ADF8DC
:100E50000C000C20ADF80A0069462A4801F055FD47
:100E6000002240F22771274801F0E7FD012240F2FD
:100E70002551244801F0E1FD012240F2244121489E
:100E800042E000007A1D00206C04002014000020C5
:100E90006400002000440040020000207A15002079
:100EA0000300002000100240000C014000480040F8
:100EB0000D555341525433B3F5CABCBBAFC5E4D64C
:100EC000C3202020202020BDD3CAD5D6D0B6CFA1A4
:100ED000A2BFD5CFD0D6D0B6CF2C20B7A2CBCDD6FF
:100EE000D0B6CF0D00000000160000207A210020AF
:100EF00070080020040000207A1600200500002061
:100F000000100140004C004001F097FD0121EC4829
:100F100001F087FD4FF60F70E94908800120E9498B
:100F200081F80C0C0020A1F80E0CE7A001F0E6FF00
:100F300006B010BD10B5E248008800F02000A0B156
:100F4000EF480088B0F5806F03DBDD48001D0088A6
:100F500010BDDB48001D0088C1B2E9480288008846
:100F6000401CE74B1880E7488154D548008800F0C2
:100F70001000D8B10020D349A1F80E0C4FF48062C4
:100F8000E049E14801F082FEDD480088CD49A1F842
:100F90000E0C0020DA4908804FF48061D94801F036
:100FA0008EFEC7480088C648001D0088C4480088D7
:100FB00000F08000F0B1C2480C30008800F08000E2
:100FC000C0B1D24801780078401CD04A1070D04897
:100FD000405CBB49091D088010460078CD4909785E
:100FE000884207D1B6480C30008820F08000B44910
:100FF0000C31088000BFABE770B505460C46B14820
:10100000B0F80E0C002810DDAE48B0F80E2CBE492A
:10101000284601F03BFEAB4890F80E0C20700020F3
:10102000A849A1F80E0C207870BD0020FCE770B52F
:10103000024600200AE0145CB64B1D781B785B1C4E
:10104000B44E3370B24B5C55431CD8B28842F2DBCD
:101050009B480C30008800F0800038B998480C306C
:10106000008840F08000964B0C33188070BD70B53E
:1010700004460025264601E0681C85B216F8011BCF
:101080000029F9D1E9B22046FFF7D1FF70BD10B5B4
:1010900086B00446A048C06940F480109E49C861EB
:1010A0000846806940F0300088618814ADF814006B
:1010B00003208DF8160018208DF8170005A9974811
:1010C00001F0C0F80420ADF8140048208DF8170096
:1010D00005A9934801F0B6F835208DF810000220DC
:1010E0008DF811008DF8120001208DF8130004A86E
:1010F00000F051FF8B4801F0C5FB00940020ADF8D3
:101100000400ADF80600ADF808000C20ADF80A00A8
:101110000020ADF80C006946824801F0F6FB002281
:1011200040F227717F4801F088FC012240F22551EE
:101130007C4801F082FC012240F22441794801F010
:101140007CFC0121774801F06CFC4FF60F7075496B
:1011500008800121744801740021418273A001F0CC
:10116000CDFE06B010BD10B56E48008800F020001E
:1011700090B17C480088B0F5806F02DB69488088B8
:1011800010BD68488088C1B2764802880088401C3B
:10119000744B1880744881546248008800F0100035
:1011A000C0B10021604841824FF480626E49143022
:1011B00001F06CFD6B4801885B4841820020694961
:1011C00008804FF48061684801F079FD5548008837
:1011D000544880885348008800F08000D0B15148BE
:1011E000808900F08000A8B1604801780078401C38
:1011F0005E4A10705E48405C4A498880104600781C
:101200005C490978884205D14648808920F08000F1
:101210004449888100BFB3E770B505460C46424893
:10122000408A00280EDD4048428A00F11401284619
:1012300001F02CFD3C48807C207000213A4841821E
:10124000207870BD0020FCE770B5024600200AE05F
:10125000145C484B1D781B785B1C464E3370444B26
:101260005C55431CD8B28842F2DB2E48808900F0DE
:10127000800028B92B48808940F08000294B988154
:1012800070BD70B504460025264601E0681C85B295
:1012900016F8011B0029F9D1E9B22046FFF7D4FF67
:1012A00070BD00BF704700BF334A128802F0400291
:1012B000002AF9D0C2B2304B1B1D1A8070470000C3
:1012C000004C0040640000200D554152543420B3BE
:1012D000F5CABCBBAFC5E4D6C3202020202020BD6A
:1012E000D3CAD5D6D0B6CFA1A2BFD5CFD0D6D0B68F
:1012F000CF2C20B7A2CBCDD6D0B6CF0D00000000AA
:10130000180000207A250020740C00200600002020
:101310007A17002007000020001002400010014052
:101320000014014000500040641000200D5541524F
:10133000543520B3F5CABCBBAFC5E4D6C3202020CA
:10134000202020BDD3CAD5D6D0B6CFA1A2BFD5CF3D
:10135000D0D6D0B6CF2C20B7A2CBCDD6D0B6CF0D1D
:10136000000000001A0000207A2900200800002058
:101370007A180020090000200038014041F664116D
:101380004843002100E0491C8142FCD3704710B55E
:101390009C48D0F808049C49884210D19B4840885A
:1013A00068B19A48408897494880084642889749DA
:1013B000091D001D01F06AFC0020944948809148F5
:1013C000D0F808049249884212D19048B0F8060437
:1013D00070B18E48B0F806048A49488008464288B1
:1013E0008C49001D01F052FC00208849A1F8060438
:1013F0008448D0F808048849884212D18348B0F85C
:101400000A0870B18148B0F80A087E494880084649
:1014100042888249001D01F039FC00207B49A1F877
:101420000A087848D0F808047D49884212D17748E4
:10143000B0F80E0C70B17548B0F80E0C71494880C8
:10144000084642887749001D01F020FC00206F49C2
:10145000A1F80E0C6B48D0F808047349884210D1EB
:101460007248408A68B17148408A66494880084697
:1014700042886E491431001D01F008FC00216B48C0
:1014800041826048408810BD10B504465D48D0F8E0
:1014900008045D49884202D12046FFF78CF959487B
:1014A000D0F808045A49884202D12046FFF765FB6C
:1014B0005448D0F808045849884202D12046FFF722
:1014C00077FC5048D0F808045549884202D120469C
:1014D000FFF7CDFD4B48D0F808045349884202D1AC
:1014E0002046FFF7CEFE10BD10B54648D0F80804E0
:1014F0004549884202D10020444948804148D0F8FB
:1015000008044349884203D100204049A1F8060459
:101510003C48D0F808044049884203D100203B49A8
:10152000A1F80A083748D0F808043D49884203D199
:1015300000203649A1F80E0C3248D0F808043A4988
:10154000884202D100213948418200202D4948803B
:101550004FF480612B48001D01F0B1FB10BD2DE957
:10156000F04105460E4614460027FFF7BDFF28460A
:10157000FFF78AFF15E0FFF70AFF40B13146214827
:10158000001D01F0A7FB10B10120BDE8F081012092
:10159000FFF7F4FE781C80B20746A04201D9002074
:1015A000F3E7E8E770B504460D46002015490870DA
:1015B0000846C0F80844C0F804541348844202D1D5
:1015C0002846FEF7F1FF1248844202D12846FFF771
:1015D00058F91148844202D12846FFF7DEFA104834
:1015E000844202D12846FFF7F3FB0F48844202D120
:1015F0002846FFF74CFD0120024908700846007894
:1016000070BD00007C2D00200038014064000020E7
:10161000004400406C040020004800407008002096
:10162000004C0040740C002000500040641000206A
:1016300010B5FE48FE49086000F051FCFC48006807
:101640004FF47A71B0FBF1F4601E4FF0E021486175
:101650000020886108610846006940F004000861C4
:101660000846006940F0020008610846006940F041
:1016700001000861EFA001F041FC10BDF648D0E97F
:1016800000305A1C40F10000F349C1E900207047C6
:10169000F14903C970472DE9F04700BFFFF7F8FF94
:1016A00004464FF0E02040694FF0E0218969401A7C
:1016B0004FF47A7148434FF0E0214969B0FBF1F9EA
:1016C000484601F0A3FB0746204601F09FFB8146F8
:1016D000E24901F069FB8046394601F00DFB064600
:1016E00001F099FB0546FFF7D3FF60400843D5D1D1
:1016F0002846BDE8F08730B50246FFF7C9FFD84B52
:1017000003C300BFFFF7C4FFD54BD3E90053044622
:1017100008461946631B60EB01009B1A70F100003C
:10172000F0D330BD70B50446FFF7B5FF002605467F
:1017300000BFFFF7B0FF0021421B61EB0601121B47
:1017400071F10001F5D370BD10B5C6480068C649F7
:101750000860FFF7A0FFC3490860C348006828B1CC
:1017600008460068C0490968401A10BD0020FCE71F
:1017700010B5FFF7E9FF044654B9BCA001F0BEFB69
:10178000C1480078401CC0490870FFF7DDFF10BD5C
:10179000BD4801780078401CBB4B18702246BBA0A6
:1017A00001F0ACFBFFF7D0FF00BFF0E72DE9F041FF
:1017B000144600250026BD4A904205D1BC4A9269D4
:1017C00042F00402BA4FBA61BA4A904205D1B84A0F
:1017D000926942F00802B64FBA61B74A904205D109
:1017E000B34A926942F01002B14FBA61B34A9042D3
:1017F00005D1AF4A926942F02002AD4FBA61B04ABA
:10180000904205D1AA4A926942F04002A84FBA61BB
:1018100003F0030303B90323182C1FD007DC6CB1BA
:10182000042C0DD0102C14D0142C1AD10EE01C2C2A
:1018300011D0282C06D0482C13D105E0002512E049
:10184000042510E008250EE008250CE043F004050F
:1018500009E01D4607E043F00C0504E043F00805ED
:1018600001E0002500BF00BF002218E0012707FAB1
:1018700002F601EA06078FB107684FEA82084FF0C7
:101880000F0C0CFA08FC27EA0C07076007684FEA00
:10189000820C05FA0CFC47EA0C070760521C082A68
:1018A000E4D300221BE002F108074FF0010C0CFA10
:1018B00007F601EA06078FB147684FEA82084FF042
:1018C0000F0C0CFA08FC27EA0C07476047684FEA40
:1018D000820C05FA0CFC47EA0C074760521C082AE8
:1018E000E1D3482C02D102690A430261282C03D1BA
:1018F000026942EA01420261BDE8F08170B50B461F
:101900007049097829B97049704A116001216D4AFE
:1019100011706F49095C21F0F0026D490A541907F2
:101920000A0E6B490A54C41700EBD4646411A40076
:1019300004F1E024D4F800410246C51700EBD56558
:101940006D11A0EB45160125B5402C430146C51786
:1019500000EBD5656D11AD0005F1E025C5F800413E
:1019600070BD2DE9F04103461446002600204F4A81
:10197000934200D100BF4F4A934200D101264E4A04
:10198000934200D102264D4A934200D103264C4A8D
:10199000934200D104264F4A934200D105264E4A75
:1019A000934200D10626002207E0012797408F428C
:1019B00001D1104603E0571CFAB2102AF5DB00BF34
:1019C0000246C71700EB9777BF10A0EB8707BF064B
:1019D0003D0E374A926942F00102354FBA61C7178E
:1019E00000EB97774FEAA70C3C4F57F82C704FF05D
:1019F0000F0C0CFA05FC27EA0C0702464FEAE07CC4
:101A000000EB9C7C4FEAAC08DFF8D0C04CF82870A3
:101A1000C71700EB97774FEAA70C304F57F82C7099
:101A200006FA05FC47EA0C075AE00000A25D4F00E9
:101A30004C0000205379735469636BCAB1D6D3C587
:101A4000E4D6C320202020202020316D73D6D0B6CC
:101A5000CF31B4CE0D0000002000002000007A44F9
:101A6000280000203400002030000020A1BED4CB8C
:101A7000D0D0CAB1B3A42DB2E2CAD4D4ADB5E3B7C5
:101A8000C5D6C3A1BF0D000038000020A1BED4CB35
:101A9000D0D0CAB1B3A42DBCE0B2ECB5E32D25641F
:101AA0003A253975207573A1BF0D0000000801406B
:101AB00000100240000C01400010014000140140E1
:101AC00000180140390000200003FA050CED00E089
:101AD00000E400E0001C014000200140080001403B
:101AE0004FEAE07C00EB9C7C4FEAAC08DFF8A0C238
:101AF0004CF82870A74A12680A43A64F3A6004F0CF
:101B0000010232B1A34A0C3212680A43A14F0C37CA
:101B10003A6004F0020232B19E4A083212680A4367
:101B20009C4F08373A60BDE8F0819B48806940F0DF
:101B300001009949886196480838406820F0E060C3
:101B40009349083948600846406840F00070486092
:101B5000704710B500F0C3F99048006810BD904878
:101B600090490860704730BF704772B6704762B6E0
:101B7000704700B58B48001D006840F0040089499B
:101B8000091D08608448C06940F080508249C861DE
:101B90008548406840F48070834948600846006882
:101BA00040F0040008600846006840F00200086049
:101BB000FFF7D9FF00BD7849496821F07061764A86
:101BC00051601146496800F00F0241EA0261724A11
:101BD00051607047014600BF7448C06800F00100C2
:101BE00018B1081EA1F10101F6D109B90120704711
:101BF0000020FCE730B503466D480488B3F1006F60
:101C000001D2012030BD4FF0006000EB84209842EB
:101C100001D20220F6E703E018780870491C5B1C2B
:101C2000101EA2F10105AAB2F6D100BFEAE72DE924
:101C3000F84F8046894616465D48B0F800A0A8F1E6
:101C4000006B4FEADB25CBF30A0000900098C0F54B
:101C50000067B8F1006F02D20120BDE8F88F4FF0A5
:101C6000006000EB8A20404501D20120F5E7514891
:101C70004E49486050484860BE4200DC37467DE02F
:101C80004E48FFF7A7FF08B10220E6E74FF00061DA
:101C900001EBC5200A144A49FFF7ACFF4748FFF79C
:101CA00099FF08B10220D8E74048006940F00200DF
:101CB0003E4908614FF0006000EBC52048610846CE
:101CC000006940F0400008613C48FFF783FF08B11D
:101CD0000220C2E73548006941F6FD7108403349EA
:101CE0000861002007E019F8002000990144344BF6
:101CF0005A54411C88B2B842F5DB00242AE02F4830
:101D0000FFF768FF08B10220A7E72848006940F004
:101D10000100264908612A4810F81400012101EB4E
:101D20004401274A515C40EA01204FF0006101EB79
:101D3000C52121F814002148FFF74CFF08B102200B
:101D40008BE71A48006941F6FE710840174908619F
:101D5000601C84B2B4F5806FD1DBB74200D10EE0D5
:101D6000B9446D1C00200090F01B86B2B6F5006FE0
:101D700002DD4FF4006000E03046074680E700BF18
:101D80000A48006940F0800008490861002064E7C3
:101D90000800014000040140001002404C000020F7
:101DA0000400FA050CED00E0007000400020024045
:101DB000E0F7FF1F23016745AB89EFCD88888800D6
:101DC000CA3100200648804706480047FEE7FEE784
:101DD000FEE7FEE7FEE7FEE7FEE7FEE7FEE7FEE7DB
:101DE000E91D0008310100080CB56048006840F0AA
:101DF00001005E490860084640685D4908405B494B
:101E000048600846406820F4FE0048604FF41F0018
:101E100088600020019000900846006840F48030FF
:101E2000086000BF5148006800F40030009001983D
:101E3000401C0190009818B90198B0F5A06FF1D13D
:101E40004A48006800F40030002843D04948006840
:101E500040F01000474908600846006820F0030081
:101E600008600846006840F0020008603F4840688B
:101E70003E4948600846406848600846406840F46B
:101E8000806048600846406820F47C10486008463E
:101E9000406840F4E81048600846006840F08070F0
:101EA000086000BF3148006800F000700028F9D0D9
:101EB0002E48406820F003002C49486008464068DE
:101EC00040F00200486000BF2848406800F00C0065
:101ED0000828F9D14FF00060274908600CBD10B503
:101EE000002100200022214B5B6803F00C0121B18E
:101EF000042906D0082928D107E0204B204C236074
:101F000027E01E4B1E4C236023E0184B5B6803F454
:101F10007010164B5B6803F48032022303EB904091
:101F200022B9184B4343164C23600DE00F4B5B68FE
:101F300003F4003323B1134B4343114C236003E0FC
:101F40000E4B43430E4C236003E00C4B0C4C2360C0
:101F500000BF00BF054B5B68C3F303130A4CE15C91
:101F6000074B1B68CB40064C236010BD001002409D
:101F70000000FFF80020024008ED00E000127A00A7
:101F80004C00002000093D003C0000203149014385
:101F9000314A1160704770B5002100230F22C478C8
:101FA00004B32D4C246804F4E064C4F5E064210A11
:101FB000C1F10403CA40447804FA03F18478144060
:101FC00021430901254C0678A155047804F01F052A
:101FD0000124AC4005786D11AD0005F1E025C5F890
:101FE000004109E0047804F01F050124AC401C4DB9
:101FF0000678761145F8264070BD1A4A0A40024319
:10200000154B1B1F1A60704739B1134A121D126815
:102010000243114B1B1D1A6006E00F4A121D126885
:1020200082430D4B1B1D1A607047042808D14FF0E6
:10203000E021096941F004014FF0E022116107E05D
:102040004FF0E021096921F004014FF0E022116115
:10205000704700000000FA050CED00E000E400E02D
:1020600080E100E080FFFF1F002044490860091D57
:102070000860091D0860091D086041483F49143186
:102080000860704700213D498279002A3AD00A460B
:10209000126803689A430B461A600A1D12680368A7
:1020A0009A430B1D1A60027911440A6803681A43A7
:1020B0000A60324A0832126803689A432F4B083389
:1020C0001A601A1D126803689A432C4B0C331A606D
:1020D0004279102A0ED11A1F126803681A43274B3F
:1020E00008331A601A1D126803681A43234B0C3315
:1020F0001A600DE02149427911440A6803681A43C5
:102100000A6005E0027911440A6803689A430A608C
:1021100070470021016001710C2141710021817122
:1021200070471649103109680143144A1032116092
:10213000704701460020114A143212680A400AB161
:10214000012000E0002070470C49143108607047FE
:10215000014600200022094B1B6803EA0102074BDD
:1021600014331B680B4013B10AB1012000E00020BA
:1021700070470249143108607047000000040140B4
:10218000FFFF0F0010B50446CC48844208D101215E
:10219000042000F02DFB0021042000F029FB46E084
:1021A000C748844208D10121082000F021FB00210A
:1021B000082000F01DFB3AE0C248844208D101210A
:1021C000102000F015FB0021102000F011FB2EE084
:1021D000BD48844208D10121202000F009FB0021E4
:1021E000202000F005FB22E0B848844208D10121FC
:1021F000402000F0FDFA0021402000F0F9FA16E03E
:10220000B348844208D10121802000F0F1FA002176
:10221000802000F0EDFA0AE0AE48844207D10121A7
:10222000801500F0E5FA0021A01500F0E1FA10BDDC
:1022300010B50121084600F0DBFA0021012000F072
:10224000D7FA10BD2DE9F0410246002500260020F6
:1022500000230024002791F803C00CF00F0591F82B
:1022600003C00CF0100CBCF1000F03D091F802C0B9
:102270004CEA050591F800C0BCF1000F31D014689C
:1022800000202BE04FF0010C0CFA00F3B1F800C075
:102290000CEA03069E4220D183004FF00F0C0CFA8B
:1022A00003F7BC4305FA03FC4CEA040491F803C0AD
:1022B000BCF1280F06D14FF0010C0CFA00FCC2F85B
:1022C00014C00AE091F803C0BCF1480F05D14FF0EB
:1022D000010C0CFA00FCC2F810C0401C0828D1D335
:1022E0001460B1F800C0BCF1FF0F34DD5468002069
:1022F0002EE000F1080C4FF0010808FA0CF3B1F8D9
:1023000000C00CEA03069E4221D183004FF00F0C5F
:102310000CFA03F7BC4305FA03FC4CEA040491F8F9
:1023200003C0BCF1280F05D100F1080C08FA0CF825
:10233000C2F8148091F803C0BCF1480F07D100F136
:10234000080C4FF0010808FA0CF8C2F81080401C85
:102350000828CED35460BDE8F0814FF6FF710180AC
:10236000022181700421C1707047024600209368E9
:102370000B400BB1012000E0002070470146886847
:1023800080B2704702460020D3680B400BB1012099
:1023900000E0002070470146C86880B270470161C4
:1023A0007047416170470AB1016100E041617047C7
:1023B000C16070474FF480320A438261816182615B
:1023C00082698269704702460020434B18684FF6C5
:1023D0008073184040EA021008433F4B1860704772
:1023E0003E49C8617047F0B50A4600230024002129
:1023F000002500F00046B6F1004F02D1364EF169DB
:1024000001E0354E7168C0F3034583B200F4401615
:10241000B6F5401F08D121F070612F4E766826F086
:1024200070662D4F7E6012E000F48016B6F5801FB6
:1024300006D1032606FA05F4A14341F0706106E0D7
:10244000460D360103FA06F6B14341F0706122B140
:10245000460D360103FA06F6314300F00046B6F1A8
:10246000004F02D11C4EF16101E01B4E7160F0BDC6
:1024700030B500228B071C0F0F2303FA04F2164B12
:1024800008338C1053F824309343134C08348D10C8
:1024900044F8253023468C1053F824308C07240F41
:1024A00000FA04F423430C4C08348D1044F8253012
:1024B00030BD0A49DC310860704700000008014067
:1024C000000C0140001001400014014000180140C0
:1024D000001C01400020014000000140000020429B
:1024E000DF48006840F00100DD49086008464068A8
:1024F000DC490840DA49486008460068DA49084083
:10250000D74908600846006820F480200860084623
:10251000406820F4FE0048604FF41F008860704758
:10252000CF49096821F48031CD4A1160114609680C
:1025300021F480211160B0F5803F03D0B0F5802FE9
:102540000ED106E0C649096841F48031C44A1160E1
:1025500007E0C349096841F4A021C14A116000E0C5
:1025600000BF00BF704710B50146002200230020C5
:102570004A11012A02D1BA4C236806E0022A02D18C
:10258000B74C236A01E0B64C636A01F01F020124D4
:1025900094401C400CB1012000E0002010BD38B573
:1025A000002000900024002500BF3120FFF7DBFF52
:1025B00005460098401C00900098B0F5A06F01D02F
:1025C000002DF2D03120FFF7CEFF08B1012400E04A
:1025D0000024204638BD01460020A14A106820F0A2
:1025E000F80040EAC10010607047A04908607047D9
:1025F000024600209A4B586820F47C1042EA0103FE
:102600001843974B586070479849086670470146D1
:102610000020934A506820F0030008435060704740
:102620008F48406800F00C007047014600208C4A3B
:10263000506820F0F00008435060704701460020C9
:10264000874A506820F4E0600843506070470146B4
:102650000020834A506820F4605040EAC100506076
:10266000704729B17E4A527A02437D4B5A7204E088
:102670007B4A527A82437A4B5A7270477B49D831EF
:102680000860704701460020754A506820F44040B9
:102690000843506070470021714A20321170704A1F
:1026A00082F82010012802D004280AD104E0012178
:1026B0006B4A2032117005E00521694A2032117001
:1026C00000E000BF00BF7047694908607047644977
:1026D000096A0143624A11627047654944390860DA
:1026E000704730B500210022002400235C4D6D6846
:1026F00005F00C0121B1042905D0082923D105E0FA
:102700005C4D056022E05B4D05601FE0544D6D6837
:1027100005F47012524D6D6805F48034022505EB06
:1027200092421CB9544D554305600BE04C4D6D6809
:1027300005F400351DB1504D5543056002E04D4D87
:102740005543056002E04B4D056000BF00BF444D9E
:102750006D6805F0F0010909484D6B5C0568DD40C6
:1027600045603F4D6D6805F4E061090A434D6B5CBF
:102770004568DD4085603A4D6D6805F46051C90AD1
:102780003E4D6B5C4568DD40C560354D6D6805F4B8
:102790004041890B3A4D6B5CC568B5FBF3F50561AB
:1027A00030BD29B12E4A526902432D4B5A6104E0D3
:1027B0002B4A526982432A4B5A61704729B1284AF1
:1027C00092690243264B9A6104E0254A926982434A
:1027D000234B9A61704729B1214AD2690243204BA9
:1027E000DA6104E01E4AD26982431D4BDA61704708
:1027F00029B11B4AD2680243194BDA6004E0184A37
:10280000D2688243164BDA60704729B1144A1269C4
:102810000243134B1A6104E0114A12698243104BC0
:102820001A61704712494039086070470F49C864FF
:1028300070470B49C87170470948406A40F0807082
:1028400007494862704701460020054A92680A40DD
:102850000AB1012000E000207047014988727047EA
:10286000001002400000FFF8FFFFF6FE00004242A9
:102870008004424200127A0000093D00500000200E
:102880006000002010B50446FB48844209D10121B4
:102890008803FFF7ADFF00214FF48040FFF7A8FF4A
:1028A00032E0F648844209D101214804FFF7ADFF28
:1028B00000214FF40030FFF7A8FF25E0F0488442E4
:1028C00009D101218804FFF7A0FF00214FF48020E7
:1028D000FFF79BFF18E0EB48844209D10121C804AF
:1028E000FFF793FF00214FF40020FFF78EFF0BE06E
:1028F000E548844208D101210805FFF786FF002141
:102900004FF48010FFF781FF10BD2DE9F04786B02E
:1029100005460E460024A24600BFA1460027B08906
:1029200000B100BF2F462C8A4CF6FF700440F0889F
:1029300004432C82AC894EF6F3100440B0883189F0
:102940000843718908430443AC81AC8A4FF6FF40C9
:102950000440B0890443AC8201A8FFF7C2FEC64818
:10296000874202D1DDF810A001E0DDF80CA0A889B3
:1029700000F4004040B10AEBCA0000EB0A103168D5
:102980004900B0FBF1F807E00AEBCA0000EB0A10BF
:1029900031688900B0FBF1F86420B8FBF0F0040165
:1029A0002009642101FB1089A88900F4004040B18E
:1029B000322000EBC900B0FBF1F000F00700044347
:1029C00008E0322000EB09106421B0FBF1F000F0C8
:1029D0000F0004432C8106B0BDE8F0874FF4165178
:1029E000016000218180C18001810C214181002191
:1029F0008181704710B502460020108A4FF2FF0314
:102A000018400B884C8823438C882343CC8823436D
:102A10001843108210BD0021018041808180C18057
:102A2000704721B1828942F40052828104E0828998
:102A30004DF6FF731A4082817047F0B503460024BB
:102A400000260025002040F66A17B94200D100BFD9
:102A50001846C1F3421401F01F06012707FA06F5D4
:102A6000012C01D10C3004E0022C01D1103000E027
:102A700014301AB107682F43076002E00768AF43BC
:102A80000760F0BD1AB1838A0B43838202E0838A18
:102A90008B4383827047028A4FF6F0731A4002829A
:102AA000028A0A430282704782894FF2FF731A40FA
:102AB000828182890A438281704721B1828942F0F2
:102AC0000202828104E082894FF6FD731A408281FE
:102AD0007047028A4FF6DF731A400282028A0A4365
:102AE0000282704721B1028A42F48042028204E0ED
:102AF000028A4BF6FF731A4002827047C1F3080244
:102B00008280704701468888C0F308007047818939
:102B100041F0010181817047028BD2B20283028BA6
:102B200042EA012202837047028B02F47F42028351
:102B3000028B0A430283704721B1828A42F020024D
:102B4000828204E0828A4FF6DF731A4082827047E5
:102B500021B1828A42F01002828204E0828A4FF61A
:102B6000EF731A408282704721B1828A42F00802D4
:102B7000828204E0828A4FF6F7731A40828270479D
:102B800021B1828942F40042828103E08289C2F34A
:102B90000E028281704721B1828A42F400628282F1
:102BA00004E0828A4FF2FF731A4082827047828A61
:102BB0004FF6FB731A408282828A0A4382827047F0
:102BC00021B1828A42F00202828204E0828A4FF6B8
:102BD000FD731A408282704702460020B1F5007FE3
:102BE00000D100BF13880B400BB1012000E0002092
:102BF000704701F40072B2F5007F00D100BFCA43F4
:102C00000280704770B50246002400230025002092
:102C100040F66A16B14200D100BFC1F3421501F07F
:102C20001F03012606FA03F3012D02D196893340D2
:102C300006E0022D02D1168A334001E0968A334025
:102C40000C12012606FA04F41688344013B10CB1B4
:102C5000012000E0002070BD10B50022002340F6E6
:102C60006A14A14200D100BF0A1201249440A3B209
:102C7000DC43048010BD00000038014000440040E7
:102C800000480040004C00400050004040EA010372
:102C90009B0703D009E008C9121F08C0042AFAD212
:102CA00003E011F8013B00F8013B521EF9D27047D6
:102CB000D2B201E000F8012B491EFBD2704700227E
:102CC000F6E710B513460A4604461946FFF7F0FF2B
:102CD000204610BD30B505462A460B4612F8010BBA
:102CE00013F8014B08B1A042F8D01CB1002802D063
:102CF0006D1CF1E7284630BDF0B480EA0102D40F24
:102D00004200B2EB410F02D20246084611464A0089
:102D100042D0C30DDDB2C1F3C752AD1A202D35DA52
:102D2000C1F3160141F4000204B15242C5F120067C
:102D300002FA06F12A411044B3EBD05F23D0C4B1AC
:102D4000012DA0EBC35009DCF0BC4FF0004202EAB9
:102D5000C352DBB200F5000000F090B8400000F173
:102D6000807000EBC350A0F1807040EAD170490040
:102D700009E0490841EAC071A0EBC35000F500002A
:102D8000400800EBC350F0BC00F06FB86142012274
:102D900002EB4101001BF6E7F0BC704781F00041F7
:102DA000AAE780F00040A7E780EA010210B502F030
:102DB0000043400022D04A001FD0010E01EB1261F7
:102DC000C0F35600C2F3560240F4000042F4000281
:102DD000A0FB022000047F39140400D0401C50EAFC
:102DE000124001D44000491EC2B20C0604EBD010C0
:102DF000401C4008802A02D003E0002010BD20F0D3
:102E00000100002900DA0020184310BD962300229B
:102E1000114600F033B820F00040C10DC0F3160099
:102E200040F400007F2901DA00207047962903DC76
:102E3000C1F19601C840704796398840704730B557
:102E40000B46014600202022012409E021FA02F568
:102E50009D4205D303FA02F5491B04FA02F5284402
:102E6000151EA2F10102F1DC30BD0029A8BF704798
:102E7000401C490008BF20F00100704710B4B0FAB0
:102E800080FC00FA0CF050EA010404BF10BC70474B
:102E900049B1CCF1200421FA04F411FA0CF118BF65
:102EA000012121430843A3EB0C01CB1D4FEA006134
:102EB0004FEA102042BF002010BC704700EBC35007
:102EC00010440029A4BF10BC7047401C490008BF33
:102ED00020F0010010BC7047064C074D06E0E0688A
:102EE00040F0010394E8070098471034AC42F6D351
:102EF000FDF722F980320008A03200080FB4054B1C
:102F000010B503A9044A029800F018F810BC5DF847
:102F100014FB0000A71200080C00002002E008C803
:102F2000121F08C1002AFAD170477047002001E043
:102F300001C1121F002AFBD1704700002DE9FF4F8D
:102F40008BB088460546002606E025280BD0DDE933
:102F50000D1290476D1C761C28780028F5D10FB013
:102F60003046BDE8F08F0024A146A2460122AE49BA
:102F700000E0044315F8013F203B02FA03F0084249
:102F8000F7D128782A2810D06FF02F022878A0F1E6
:102F90003001092915D809EB890102EB410144F000
:102FA000020400EB01096D1CF0E758F8041B5FEA0E
:102FB000010903D544F40054C9F1000944F00204A6
:102FC0006D1C28782E2817D115F8010F44F0040441
:102FD0002A280ED06FF02F022878A0F1300109299D
:102FE0000AD80AEB8A0102EB410100EB010A6D1CD1
:102FF000F2E758F804AB6D1C28786C280FD006DC7B
:103000004C2817D068280DD06A2814D104E0742801
:1030100010D07A280FD10DE044F400140AE044F4F3
:10302000801401E044F440146978814202D104F52F
:1030300080146D1C6D1C2878692865D006DC00287A
:103040008DD0632827D0642806D15DE06E2808D093
:1030500073282AD0752877D0DDE90D129047761CA9
:10306000E0E0C4F30250022809D003280DD0D8F8BC
:10307000001004280DD00E6008F10408D2E0D8F842
:103080000010F217C1E90062F6E7D8F800100E80D0
:10309000F2E70E70F0E718F8041B8DF8001000201E
:1030A0008DF80100EB46012003E058F804BB4FF017
:1030B000FF3061074FF0000701D40AE07F1C57453D
:1030C0000DDA8742FADB1BF807100029F6D106E07B
:1030D0007F1C8742FCDB1BF807100029F8D1DDE9D3
:1030E0000D23A9EB07008146214600F0B1F83044DA
:1030F000C61904E0DDE90D121BF8010B90477F1E95
:10310000F8D22146484688E058F8040BC4F302512F
:103110004FF00A0B032900D100B2042900D140B2BC
:10312000002802DA40422D2102E0210505D52B219D
:103130008DF82410012104E006E0E10710D02021E1
:10314000F6E708AF089113E058F8040BC4F30251F6
:103150004FF00A0B032900D180B2042900D1C0B27C
:103160000021EEE75946FFF76AFE303107F8011DEE
:103170000028F7D1ADEB070000F1200B600702D566
:1031800024F4803401E04FF0010ADA4502DDAAEBB5
:103190000B0000E00020824600EB0B010898014480
:1031A000A9EB01000A90E00306D4DDE90D232146D6
:1031B0000A9800F04DF806444FF0000908E009A90C
:1031C00011F80900DDE90D12904709F10109761C9B
:1031D00008998945F3DBE0030CD5DDE90D23214691
:1031E0000A9800F035F8064404E0DDE90D123020BD
:1031F0009047761CBAF10001AAF1010AF5DC05E05E
:10320000DDE90D1217F8010B9047761CBBF10001A8
:10321000ABF1010BF4DC0A982146DDE90D2300F047
:1032200005F806446D1C97E6092801002DE9F041D8
:10323000044600251E461746880404D405E0394696
:103240002020B0476D1C641EF9D52846BDE8F081EA
:103250002DE9F041044600251E469046C80301D5DD
:10326000302700E02027880404D505E04146384691
:10327000B0476D1C641EF9D52846BDE8F0810000FA
:10328000A032000800000020640000001C2F00088D
:1032900004330008640000206C3D00002C2F00085F
:1032A000000000000000000000000000000000001E
:1032B000000000000000000000000000000000000E
:1032C00000000000000000000000000000000000FE
:1032D00000000000000000000000000000000000EE
:1032E000000000000102030406070809A25D4F0068
:1032F000000000000102030401020304060708099C
:0433000002040608B5
:0400000508000131BD
:00000001FF
