:020000040800F2
:100000001804002071030008B5010008B7010008BA
:10001000BB010008BF010008C30100080000000088
:10002000000000000000000000000000C701000800
:10003000C901000800000000CB0100088903000886
:100040008B0300088B0300088B0300088B03000858
:100050008B0300088B0300088B0300088B03000848
:100060008B0300088B0300088B0300088B03000838
:100070008B0300088B0300088B0300088B03000828
:100080008B0300088B0300088B0300088B03000818
:100090008B0300088B0300088B0300088B03000808
:1000A0008B0300088B0300088B0300088B030008F8
:1000B0008B0300088B0300088B0300088B030008E8
:1000C0008B0300088B0300088B0300088B030008D8
:1000D0008B0300088B0300088B0300088B030008C8
:1000E0008B0300088B0300088B0300088B030008B8
:1000F0008B0300088B0300088B0300088B030008A8
:100100008B0300088B0300088B0300088B03000897
:100110008B0300088B0300088B0300088B03000887
:100120008B0300088B0300088B0300088B03000877
:10013000DFF80CD000F02EF9004800474501000818
:10014000180400201848806940F0100016498861A2
:100150001648006820F470001449086008460068DA
:1001600040F4801008600846C06820F02000C86095
:100170000D48806940F008000B4988610C48006810
:1001800020F470600A4908600846006840F48070F6
:10019000086007480C30006820F0040004490C3166
:1001A000086000BFFEE700000010024000100140A0
:1001B000000C0140704700BFFEE700BFFEE700BF34
:1001C000FEE700BFFEE77047704770470CB5604818
:1001D000006840F001005E490860084640685D49DB
:1001E00008405B4948600846406820F4FE004860CB
:1001F0004FF41F00886000200190009008460068BE
:1002000040F48030086000BF5148006800F40030BE
:1002100000900198401C0190009818B90198B0F521
:10022000A06FF1D14A48006800F40030002843D0A4
:100230004948006840F010004749086008460068D7
:1002400020F0030008600846006840F002000860E3
:100250003F4840683E494860084640684860084654
:10026000406840F4806048600846406820F47C1094
:1002700048600846406840F4E81048600846006856
:1002800040F08070086000BF3148006800F00070E6
:100290000028F9D02E48406820F003002C4948601F
:1002A0000846406840F00200486000BF28484068A7
:1002B00000F00C000828F9D14FF0006027490860D1
:1002C0000CBD10B5002100200022214B5B6803F01B
:1002D0000C0121B1042906D0082928D107E0204BC0
:1002E000204C236027E01E4B1E4C236023E0184B5C
:1002F0005B6803F47010164B5B6803F480320223D2
:1003000003EB904022B9184B4343164C23600DE099
:100310000F4B5B6803F4003323B1134B4343114C81
:10032000236003E00E4B43430E4C236003E00C4B71
:100330000C4C236000BF00BF054B5B68C3F3031385
:100340000A4CE15C074B1B68CB40064C236010BD98
:10035000001002400000FFF80020024008ED00E01D
:1003600000127A001000002000093D00000000206B
:100370000648804706480047FEE7FEE7FEE7FEE73F
:10038000FEE7FEE7FEE7FEE7FEE7FEE7CD01000839
:1003900031010008064C074D06E0E06840F001031B
:1003A00094E8070098471034AC42F6D3FFF7C4FE38
:1003B000D8030008F803000802E008C8121F08C1AB
:1003C000002AFAD170477047002001E001C1121FD6
:1003D000002AFBD170470000F8030008000000204D
:1003E00014000000B80300080C04000814000020EA
:1003F00004040000C8030008000000000000000022
:0C0400000102030406070809A25D4F007A
:0400000508000131BD
:00000001FF
