:020000040800F2
:10000000A832002049010008151000082B0E000836
:1000100011100008F5060008F11A000800000000A1
:10002000000000000000000000000000F5110008C2
:10003000430B0008000000009D100008F9110008A3
:100040006301000863010008630100086301000800
:100050006301000863010008450B0008990B0008C4
:100060006301000863010008ED0B0008630100084C
:1000700063010008630100086301000863010008D0
:1000800063010008630100086301000863010008C0
:10009000A91A000863010008630100086301000851
:1000A00063010008630100086301000863010008A0
:1000B0006301000863010008630100086301000890
:1000C0006301000863010008630100086301000880
:1000D00063010008CD14000809170008ED17000897
:1000E0006301000863010008630100086301000860
:1000F0006301000863010008630100086301000850
:10010000630100086301000863010008630100083F
:1001100019130008FD1300086301000863010008BB
:10012000630100086301000863010008630100081F
:10013000DFF810D000F03EFA00480047DD23000849
:10014000AFF30080A83200200648804706480047E9
:10015000FEE7FEE7FEE7FEE7FEE7FEE7FEE7FEE777
:10016000FEE7FEE7111200083101000840EA010332
:100170009B0703D009E008C9121F08C0042AFAD25D
:1001800003E011F8013B00F8013B521EF9D2704721
:10019000D2B201E000F8012B491EFBD270470022C9
:1001A000F6E710B513460A4604461946FFF7F0FF76
:1001B000204610BD30B50B46014600202022012408
:1001C00009E021FA02F59D4205D303FA02F5491B25
:1001D00004FA02F52844151EA2F10102F1DC30BD3B
:1001E0002DE9F05F0546002092469B46884606466C
:1001F000814640241BE0284641464746224600F0FF
:10020000FAF953465A46C01A914110D3114618467E
:10021000224600F0E1F92D1A67EB01084F4622460D
:100220000120002100F0D8F917EB00094E41201EF3
:10023000A4F10104DFDC484631462A464346BDE8C6
:10024000F09F2DE9FE4F804681EA0300C00F0C4667
:10025000009021F0004123F00045B8EB0200A941D5
:1002600005D24046214690461C460B46024623F0E6
:100270000040104347D0270DC7F30A00C3F30A51CB
:100280000290401A019040286BDAC3F3130040F447
:10029000801B0098924620B10023D2EB030A63EB47
:1002A0000B0B01985946C0F14002504600F094F9FA
:1002B00006460D4650465946019A00F0ACF910EB3F
:1002C00008006141002487EA115284EAE7731A4367
:1002D00040D0009A62B3019A012A4FEA075215DC16
:1002E000001B61EB02014FF0004202EA0752CDE928
:1002F0000042001C41F5801132462B4600F0ACF95B
:1003000003B0BDE8F08F40462146F9E7001B61EBE2
:100310000201001C41F5801300185B412018A2F572
:10032000001747EB030140EAD570B6196D4111E0A3
:100330006D084FEA360645EAC0754FEA0752001BC2
:1003400061EB0201001C41F5801149084FEA3000C1
:100350000019514132462B4603B0BDE8F04F00F082
:100360006CB90098012240000023D0EB020263EB3D
:10037000E073009821464FEAE074B8EB000061EBAF
:100380000401E9E783F000435BE781F0004158E7AF
:100390002DE9FE4F81EA030404F0004421F00041FE
:1003A00000944FF0000B23F0004350EA01045ED0AC
:1003B00052EA03045BD0C3F30A54C1F30A552C4438
:1003C000A4F2F3340194A0FB0254C1F3130141F4ED
:1003D0008011C3F3130343F4801301FB024400FBB9
:1003E000034E840A970A44EA815447EA8357A4FBE0
:1003F000076802958D0A05FB07854FEA932C04FBDD
:100400000C542705029D4FEA065847EA1637B5EB0C
:1004100008056EEB070C870E920E47EA811742EA39
:100420008312A7FB0201B6EB0B0164EB00042B0D5A
:1004300043EA0C335E1844EB1C50DA465146E7FBA6
:100440000201C5F313044FEA0B3343EA14534FEA96
:100450000432019C43EA0603A4F10C040294009CBC
:10046000CDE900B400F0F8F803B0BDE8F08F00204B
:100470000146F9E72DE9F04D81EA030404F0004B51
:1004800021F0004514464FF0000A23F0004150EAE5
:10049000050220D054EA01021DD0C5F30A570246D6
:1004A000C5F31303C1F31300C1F30A5640F48015DA
:1004B00043F48013A7EB0608101BD64608F2FD385C
:1004C00073EB050002D308F1010801E092185B41CB
:1004D000B8F1000F03DA00200146BDE8F08D0020DE
:1004E0004FF48011064684460EE0171B73EB050798
:1004F00005D3121B63EB050306434CEA010C4908C4
:100500004FEA300092185B4150EA0107EDD152EA00
:10051000030012D082EA040083EA0501084305D0F3
:10052000101BAB4106D20122002306E000224FF04F
:10053000004302E06FF0010253101AEB06004CEB8F
:10054000085110EB0A0041EB0B01BDE8F04D00F043
:1005500074B8C1F30A52C1F3130140F2FF3341F4FE
:1005600080119A4202DA00200146704740F233437C
:100570009A42A2F2334202DC524200F03CB800F050
:100580002BB8000030B5041E71F1000404DB4FF0FD
:100590000044404264EB0101141E73F1000405DBCA
:1005A0001C464FF00043524263EB0403994208BFDC
:1005B000904230BD064C074D06E0E06840F0010374
:1005C00094E8070098471034AC42F6D3FFF7B4FD27
:1005D00098240008B8240008202A04DB203A00FAF6
:1005E00002F1002070479140C2F1200320FA03F38A
:1005F000194390407047202A04DB203A21FA02F088
:100600000021704721FA02F3D040C2F1200291404C
:10061000084319467047202A06DBCB17203A41FAD7
:1006200002F043EAE07306E041FA02F3D040C2F17F
:100630002002914008431946704710B5141E73F10B
:10064000000408DA401C41F1000192185B411A4392
:1006500001D120F0010010BD2DE9F04D92469B46DE
:1006600011B1B1FA81F202E0B0FA80F22032904684
:10067000FFF7B2FF04460F4640EA0A0041EA0B01C9
:1006800053465A46084313D0114653EA010019D085
:10069000C8F140025046FFF7AEFF05460E465046F1
:1006A00059464246FFF798FF084305D0012004E071
:1006B00020463946BDE8F08D0020054346EAE07645
:1006C0002C4337430A986305E40AA0EB0800002294
:1006D000FD0A44EA47540A3002D500200146E9E702
:1006E000010510196941DDE9084500196941BDE8B6
:1006F000F04DA2E700BFFEE700B589B00121480632
:1007000000F0CEFC0121042000F0EAFC01210846A3
:1007100000F0E6FC4FF48050ADF8200018208DF872
:10072000230003208DF8220008A9334800F0F2FAD4
:100730004FF40060ADF8200048208DF8230003201E
:100740008DF8220008A92C4800F0E4FA01208DF869
:100750001B008DF81C0000208DF8160001208DF87C
:100760001D0000208DF81E008DF81A008DF81F0066
:100770000C20ADF8140000208DF8170003208DF830
:10078000180000208DF8190005A91C4800F0D7F8C2
:1007900000208DF80E008DF80F0001208DF810005C
:1007A0000020ADF8040049F2A410ADF806000020C6
:1007B000ADF80800ADF80A00ADF80C0001208DF886
:1007C000110001A800F02EF8012202210B4800F0D0
:1007D000ADF814208DF8000001208DF801008DF88F
:1007E00002008DF80300684600F016FC04A001F03A
:1007F00081F909B000BD000000080140006400401C
:1008000043414E20CDA8D0C5C5E4D6C3202020202A
:10081000202020202020C5E4D6C3CDEAB3C90D0A8C
:100820000000000010B50021837A012202FA03F1D2
:100830003D4A126842F001023B4B1A603A4A1C32B0
:1008400012688A43384B1C331A60027BCAB9364A95
:100850000C3212688A43344B0C331A604288C388C6
:1008600042EA0343304A4032847A42F83430028804
:10087000838842EA03432C4A4032847A02EBC40262
:100880005360027B012A19D1274A0C3212680A43AD
:10089000254B0C331A604288038842EA0343224AFC
:1008A0004032847A42F83430C288838842EA034373
:1008B0001D4A4032847A02EBC4025360C27A3AB9CC
:1008C000194A121D12688A43174B1B1D1A6006E055
:1008D000154A121D12680A43134B1B1D1A60028928
:1008E00032B9114A143212688A430F4B14331A601A
:1008F0000289012A06D10C4A143212680A430A4BB3
:1009000014331A60427B012A06D1074A1C3212684E
:100910000A43054B1C331A60034A126822F0010295
:10092000014B1A6010BD0000006600401AB1436917
:100930000B43436102E043698B434361704730B529
:10094000024600200023146824F002041460146896
:1009500044F00104146000E05B1C546804F00104DE
:100960001CB94FF6FF74A342F6D1546804F0010499
:100970000CB900206CE08C79012C04D1146844F08F
:100980008004146003E0146824F080041460CC79BF
:10099000012C04D1146844F04004146003E014688E
:1009A00024F0400414600C7A012C04D1146844F043
:1009B0002004146003E0146824F0200414604C7ACE
:1009C000012C04D1146844F01004146003E014688E
:1009D00024F0100414608C7A012C04D1146844F0C3
:1009E0000804146003E0146824F008041460CC7A4E
:1009F000012C04D1146844F00404146003E014686A
:100A000024F0040414608C78A407CD7844EA0564CB
:100A10000D7944EA05444D7944EA05540D886D1E6C
:100A20002C43D461146824F001041460002300E016
:100A30005B1C546804F001041CB14FF6FF74A34220
:100A4000F6D1546804F001040CB1002000E001204C
:100A500030BD10B500F5D87303EB01131B6803F02C
:100A600004031372137A53B900F5D87303EB01131F
:100A70001B6840F2FF7404EA5353136009E000F569
:100A8000D87303EB01131B686FF0604404EAD303CF
:100A9000536000F5D87303EB01131B6803F00203E6
:100AA000537200F5D87303EB01135B6803F00F0377
:100AB000937200F5D87303EB01135B681B0AD374C0
:100AC00000F5D87303EB01139B68D37200F5D8735C
:100AD00003EB01139B681C0A147300F5D87303EB36
:100AE00001139B681C0C547300F5D87303EB0113BE
:100AF0009B681B0E937300F5D87303EB0113DB683F
:100B0000D37300F5D87303EB0113DB681C0A14746C
:100B100000F5D87303EB0113DB681C0C547400F56B
:100B2000D87303EB0113DB681B0E937421B9C36800
:100B300043F02003C36003E0036943F02003036133
:100B400010BD704710B50A48006800F0010070B190
:100B50000748006840F001000549086005A000F062
:100B6000C9FF0C48006880F004000A49086010BD05
:100B700014040140B5DA203120B8F6B0B4BCFCB1A1
:100B8000BBB0B4CFC22C20C0B6B5C6B7B4D7AA0D7F
:100B9000000000000C0C014010B50A48006800F08D
:100BA000020070B10748006840F002000549086083
:100BB00005A000F09FFF0C48006880F004000A497F
:100BC000086010BD14040140B5DA203220B8F6B038
:100BD000B4BCFCB1BBB0B4CFC22C20C0B6B5C6B754
:100BE000B4D7AA0D000000000C0C014010B50A4853
:100BF000006800F0100070B10748006840F0100075
:100C00000549086005A000F075FF0C48006880F0F9
:100C100004000A49086010BD14040140B5DA20330D
:100C200020B8F6B0B4BCFCB1BBB0B4CFC22C20C06D
:100C3000B6B5C6B7B4D7AA0D000000000C0C014031
:100C4000002123498279002A3AD00A4612680368B3
:100C50009A430B461A600A1D126803689A430B1DDB
:100C60001A60027911440A6803681A430A60184A34
:100C70000832126803689A43154B08331A601A1D2C
:100C8000126803689A43124B0C331A604279102A97
:100C90000ED11A1F126803681A430D4B08331A60ED
:100CA0001A1D126803681A43094B0C331A600DE0D1
:100CB0000749427911440A6803681A430A6005E04B
:100CC000027911440A6803689A430A607047000079
:100CD0000004014030B500228B071C0F0F2303FADC
:100CE00004F20B4B8C1053F824309343084C8D10B6
:100CF00044F8253023468C1053F824308C07240FF9
:100D000000FA04F42343024C8D1044F8253030BD22
:100D1000080001402DE9F041024600250026002090
:100D200000230024002791F803C00CF00F0591F870
:100D300003C00CF0100CBCF1000F03D091F802C0FE
:100D40004CEA050591F800C0BCF1000F31D01468E1
:100D500000202BE04FF0010C0CFA00F3B1F800C0BA
:100D60000CEA03069E4220D183004FF00F0C0CFAD0
:100D700003F7BC4305FA03FC4CEA040491F803C0F2
:100D8000BCF1280F06D14FF0010C0CFA00FCC2F8A0
:100D900014C00AE091F803C0BCF1480F05D14FF030
:100DA000010C0CFA00FCC2F810C0401C0828D1D37A
:100DB0001460B1F800C0BCF1FF0F34DD54680020AE
:100DC0002EE000F1080C4FF0010808FA0CF3B1F81E
:100DD00000C00CEA03069E4221D183004FF00F0CA5
:100DE0000CFA03F7BC4305FA03FC4CEA040491F83F
:100DF00003C0BCF1280F05D100F1080C08FA0CF86B
:100E0000C2F8148091F803C0BCF1480F07D100F17B
:100E1000080C4FF0010808FA0CF8C2F81080401CCA
:100E20000828CED35460BDE8F08100BFFEE7000083
:100E30001FB50121084600F053F94A48806940F087
:100E4000DC00484988610120ADF80C0028208DF8AD
:100E50000F0001208DF80E0003A94348FFF75AFF49
:100E600006208DF8080001208DF8090000208DF87B
:100E70000A0001208DF80B0002A800F0CDF8002137
:100E80000846FFF727FF0120009000208DF804009E
:100E900008208DF8050001208DF806006846FFF750
:100EA000CFFE0220ADF80C0048208DF80F00012085
:100EB0008DF80E0003A92C48FFF72CFF07208DF8B2
:100EC000080001208DF8090000208DF80A0001209B
:100ED0008DF80B0002A800F09FF801210020FFF719
:100EE000F9FE0220009000208DF804000C208DF8FF
:100EF000050001208DF806006846FFF7A1FE1020CE
:100F0000ADF80C0048208DF80F0001208DF80E0080
:100F100003A91548FFF7FEFE0A208DF808000120FE
:100F20008DF8090000208DF80A0001208DF80B00D3
:100F300002A800F071F804210020FFF7CBFE10207A
:100F4000009000208DF804000C208DF80500012091
:100F50008DF806006846FFF773FE04A000F0CAFD96
:100F60001FBD00000010024000080140B0B4BCFCEE
:100F700020B3F5CABCBBAF20202020202020202099
:100F80002020C5E4D6C3CDEAB3C90D0008B50121C0
:100F9000102000F0A5F80121082000F0A1F8202081
:100FA000ADF8000010208DF8030003208DF802003A
:100FB00069460D48FFF7AEFE0420ADF80000102092
:100FC0008DF8030003208DF8020069460748FFF7FB
:100FD000A1FE202004490861042004491031086062
:100FE00003A000F087FD08BD00100140000C014087
:100FF0004C454420D6B8CABEB5C6202020202020AB
:10100000202020202020C5E4D6C3CDEAB3C90D009E
:1010100000BFFEE77047000070B5002100230F22DB
:10102000C47804B3154C246804F4E064C4F5E064A7
:10103000210AC1F10403CA40447804FA03F1847818
:101040001440214309010E4C0678A155047804F0A0
:101050001F050124AC4005786D11AD0005F1E025B8
:10106000C5F8004109E0047804F01F050124AC40F4
:10107000044D0678761145F8264070BD0CED00E071
:1010800000E400E080E100E002490143024A11600F
:10109000704700000000FA050CED00E0704700000A
:1010A00029B1064AD2690243044BDA6104E0034ADB
:1010B000D2698243014BDA617047000000100240A0
:1010C00029B1064A12690243044B1A6104E0034A3B
:1010D00012698243014B1A61704700000010024000
:1010E00029B1064A92690243044B9A6104E0034A1B
:1010F00092698243014B9A617047000000100240E0
:1011000029B1064AD2680243044BDA6004E0034A7C
:10111000D2688243014BDA60704700000010024041
:1011200030B500210022002400232D4D6D6805F00C
:101130000C0121B1042905D0082923D105E0294D4E
:10114000056022E0274D05601FE0254D6D6805F420
:101150007012234D6D6805F48034022505EB924230
:101160001CB9214D554305600BE01D4D6D6805F41C
:1011700000351DB11C4D5543056002E0194D554326
:10118000056002E0174D056000BF00BF144D6D689B
:1011900005F0F0010909154D6B5C0568DD404560FF
:1011A0000F4D6D6805F4E061090A104D6B5C4568F0
:1011B000DD4085600A4D6D6805F46051C90A0B4D2C
:1011C0006B5C4568DD40C560054D6D6805F44041C8
:1011D000890B074D6B5CC568B5FBF3F5056130BD48
:1011E0000010024000127A0000093D003A00002081
:1011F0004A000020704700000448D0E900305A1C23
:1012000040F100000149C1E90020704720000020A2
:101210000CB53D48006840F001003B4908600846B5
:1012200040683A490840384948600846406820F418
:10123000FE0048604FF41F0088600020019000907D
:101240000846006840F48030086000BF2E480068FF
:1012500000F4003000900198401C0190009818B9EB
:101260000198B0F5A06FF1D12748006800F4003074
:10127000002843D02648006840F010002449086048
:101280000846006820F0030008600846006840F047
:10129000020008601C4840681B49486008464068D6
:1012A00048600846406840F48060486008464068EE
:1012B00020F47C1048600846406840F4E81048601C
:1012C0000846006840F08070086000BF0E48006863
:1012D00000F000700028F9D00B48406820F00300AF
:1012E000094948600846406840F00200486000BF75
:1012F0000548406800F00C000828F9D14FF0006064
:10130000044908600CBD0000001002400000FFF816
:101310000020024008ED00E010B53048008800F0E1
:101320002000A0B12E480088B0F5806F03DB2B4869
:10133000001D008810BD2948001D0088C1B2284842
:1013400002880088401C264B188026488154234878
:10135000008800F01000D8B100202349A1F80E0C3D
:101360004FF480621F492148FEF700FF1C480088A7
:101370001D49A1F80E0C0020194908804FF4806126
:101380001848FEF70CFF154800881448001D008817
:101390001248008800F08000F0B110480C3000883E
:1013A00000F08000C0B1124801780078401C104A5B
:1013B00010701048405C0949091D088010460078EB
:1013C0000D490978884207D104480C30008820F084
:1013D000800002490C31088000BFABE7004C0040A0
:1013E000180000206626002050000020600C00201D
:1013F00006000020661700200700002010B52C48CA
:10140000008800F0200090B12A480088B0F5806F75
:1014100002DB2748808810BD25488088C1B2254856
:1014200002880088401C234B1880234881542048A0
:10143000008800F01000C0B10021204841824FF424
:1014400080621D491430FEF791FE1A4801881B483E
:1014500041820020174908804FF480611648FEF74A
:101460009EFE13480088124880881148008800F0CA
:101470008000D0B10E48808900F08000A8B11048EB
:1014800001780078401C0E4A10700E48405C0849F4
:101490008880104600780C490978884205D10448B4
:1014A000808920F080000249888100BFB3E70000F6
:1014B000005000401A000020662A00205010002032
:1014C00008000020661800200900002010B53048F0
:1014D000008800F02000A0B12E480088B0F5806F91
:1014E00003DB2B48001D008810BD2948001D008823
:1014F000C1B2284802880088401C264B1880264824
:1015000081542348008800F01000D0B10020234906
:1015100048804FF4806220492048001DFEF726FED7
:101520001C4800881D49488000201A4908804FF453
:1015300080611948FEF733FE154800881448001DE5
:1015400000881348008800F08000F0B110480C308B
:10155000008800F08000C0B1114801780078401C7C
:101560000F4A10700F48405C0949091D0880104659
:1015700000780D490978884207D105480C30008869
:1015800020F0800002490C31088000BFACE7000069
:101590000038014010000020661900205000002093
:1015A00000000020661400200100002010B586B065
:1015B00004463648806940F48040344988610846D2
:1015C000806940F0040088614815ADF814000320DC
:1015D0008DF8160018208DF8170005A92C48FFF784
:1015E00099FB4FF48060ADF8140004208DF81700CB
:1015F00005A92748FFF78EFB25208DF81000022053
:101600008DF811008DF8120001208DF8130004A848
:10161000FFF702FD1F4800F067F900940020ADF8C5
:101620000400ADF80600ADF80800ADF80C000C2081
:10163000ADF80A006946174800F0CAF9002240F2E6
:101640002771144800F09EF9012240F225511148FB
:1016500000F098F9012240F224410E4800F092F97E
:1016600001210C4800F034F94FF60F700949088049
:101670000120094908700020488008A000F03AFACB
:1016800014A000F037FA06B010BD000000100240B0
:101690000008014000380140500000200D0D0D3DB4
:1016A0003D3D3D3D3D3D3D3D3D3D2053544D33325F
:1016B0004631303320BFAAB7A2B0E5B3F5CABCBBF0
:1016C000AFB1A8B8E6203D3D3D3D3D3D3D3D3D3DF2
:1016D0003D0D0000555341525431B3F5CABCBBAF68
:1016E000C5E4D6C3202020202020BDD3CAD5D6D023
:1016F000B6CFA1A2BFD5CFD0D6D0B6CF2C20B7A21F
:10170000CBCDD6D0B6CF0D0010B53048008800F054
:101710002000A0B12E480088B0F5806F03DB2B4875
:10172000001D008810BD2948001D0088C1B228484E
:1017300002880088401C264B188026488154234884
:10174000008800F01000D8B100202349A1F8060459
:101750004FF480621F492148FEF708FD1C480088AD
:101760001D49A1F806040020194908804FF4806142
:101770001848FEF714FD154800881448001D00881D
:101780001248008800F08000F0B110480C3000884A
:1017900000F08000C0B1124801780078401C104A67
:1017A00010701048405C0949091D088010460078F7
:1017B0000D490978884207D104480C30008820F090
:1017C000800002490C31088000BFABE700440040B4
:1017D00014000020661E0020500000205804002045
:1017E00002000020661500200300002010B53048DC
:1017F000008800F02000A0B12E480088B0F5806F6E
:1018000003DB2B48001D008810BD2948001D0088FF
:10181000C1B2284802880088401C264B1880264800
:1018200081542348008800F01000D8B100202349DB
:10183000A1F80A084FF480621F492148FEF796FC80
:101840001C4800881D49A1F80A0800201949088091
:101850004FF480611848FEF7A2FC15480088144830
:10186000001D00881248008800F08000F0B1104888
:101870000C30008800F08000C0B112480178007878
:10188000401C104A10701048405C0949091D08802E
:10189000104600780D490978884207D104480C3079
:1018A000008820F0800002490C31088000BFABE7BF
:1018B0000048004016000020662200205000002052
:1018C0005C080020040000206616002005000020AF
:1018D00021B1828942F40052828104E082894DF66E
:1018E000FF731A408281704710B504462048844235
:1018F00009D101218803FFF703FC00214FF4804048
:10190000FFF7FEFB32E01B48844209D10121480465
:10191000FFF7D6FB00214FF40030FFF7D1FB25E0A5
:101920001548844209D101218804FFF7C9FB002131
:101930004FF48020FFF7C4FB18E01048844209D11F
:101940000121C804FFF7BCFB00214FF40020FFF782
:10195000B7FB0BE00A48844208D101210805FFF7D4
:10196000AFFB00214FF48010FFF7AAFB10BD000071
:10197000003801400044004000480040004C004056
:1019800000500040F0B5034600240026002500204A
:1019900040F66A17B94200D100BF1846C1F342149D
:1019A00001F01F06012707FA06F5012C01D10C30C2
:1019B00004E0022C01D1103000E014301AB10768A5
:1019C0002F43076002E00768AF430760F0BD0000E7
:1019D0002DE9F04786B005460E460024A24600BF1A
:1019E000A1460027B08900B100BF2F462C8A4CF6D3
:1019F000FF700440F08804432C82AC894EF6F3104B
:101A00000440B08831890843718908430443AC819C
:101A1000AC8A4FF6FF400440B0890443AC8201A871
:101A2000FFF77EFB1F48874202D1DDF810A001E0DE
:101A3000DDF80CA0A88900F4004040B10AEBCA0010
:101A400000EB0A1031684900B0FBF1F807E00AEB3F
:101A5000CA0000EB0A1031688900B0FBF1F864207D
:101A6000B8FBF0F004012009642101FB1089A8896A
:101A700000F4004040B1322000EBC900B0FBF1F0AF
:101A800000F00700044308E0322000EB0910642155
:101A9000B0FBF1F000F00F0004432C8106B0BDE86C
:101AA000F08700000038014010B50F4A00210F48B0
:101AB000FEF7CFFF0C48807A0B4981F8320001F124
:101AC00033000021016041600172333890F8322008
:101AD00000F10B013330FEF749FB03480B300021C6
:101AE0000160416010BD0000682E002000640040CD
:101AF00000BFFEE70FB4054B10B503A9044A0298D6
:101B000000F0DAF810BC5DF814FB0000C1230008F7
:101B10000C00002002E008C8121F08C1002AFAD1F8
:101B200070477047002001E001C1121F002AFBD15D
:101B3000704700002DE9FF5F82B00021DDE904302D
:101B4000020DDDF840B0034318D044F61050A2F265
:101B5000FF3242431514119801281FD0A5EB0B004A
:101B6000401C5FEA000A4FF000064E4FDFF8389144
:101B7000B046504615D5CAF1000413E0119801246F
:101B80004AA3012801D16FEA0B010298119AC0E91A
:101B90000031C0E9024206B0BDE8F09FCBF1000081
:101BA000DFE704460021404A491842EB0450CDE9E2
:101BB000001012E0E00707D032463B464046494657
:101BC000FEF7E6FB8046894632463B4610461946FC
:101BD000FEF7DEFB06460F466410002CEAD1DDE975
:101BE0000401DDE90023BAF1000F06DAFEF7D0FBAD
:101BF00042464B46FEF7CCFB05E0FEF73BFC424677
:101C00004B46FEF737FC04460E460022284BFEF7F3
:101C1000B9FC03D84FF0FF30014607E00022254B06
:101C200020463146FEF70DFBFEF793FC102409E039
:101C3000002C0ADB0A220023FEF7D2FA039B303283
:101C40001A55641E50EA0102F2D1641C039AC4F1D1
:101C500011031444119A012A03D0012208430DD123
:101C60000AE0084304D000204FF0110B119072E7F6
:101C7000A3EB0B056D1E0DE05B4504DD4FF000028C
:101C800005F1010504E003DA4FF00002A5F10105BA
:101C9000002AECD002981199C0E90231C0E9004550
:101CA00079E70000000014400000F03F3000000021
:101CB0000000F0430000E03F2DE9FF4F95B09A4649
:101CC000884606460025EEE1252877D100242746E0
:101CD000F94A0121039400E0044316F8013F203B38
:101CE00001FA03F01042F7D130782A2811D06FF0B2
:101CF0002F033078A0F13002092A16D8039A44F055
:101D0000020402EB820203EB42021044761C0390B1
:101D1000EFE758F8042B0392002A03DA504244F408
:101D20000054039044F00204761C30782E2816D11B
:101D300016F8010F44F004042A280DD06FF02F028A
:101D40003078A0F13003092B09D807EB870302EBA9
:101D50004303C718761CF3E758F8047B761C3078E9
:101D60006C280FD006DC4C2817D068280DD06A28C4
:101D700014D104E0742810D07A280FD10DE044F477
:101D800000140AE044F4801401E044F44014727832
:101D9000824202D104F58014761C761C30786628C5
:101DA0000BD013DC582877D009DC002875D04528E3
:101DB000F6D04628F4D047281AD193E118E06328DA
:101DC00035D0642879D0652812D18BE1702873D082
:101DD00008DC6728F1D069286FD06E280DD06F28F5
:101DE00006D1ACE073282CD0752874D0782853D055
:101DF0005246179990476D1C54E1C4F302500228D3
:101E000009D003280DD0D8F8001004280DD00D609B
:101E100008F1040846E1D8F80010EA17C1E90052B9
:101E2000F6E7D8F800100D80F2E70D70F0E718F82B
:101E3000041B8DF8001000208DF80100EB460120F6
:101E400003E058F804BB4FF0FF3061074FF000018A
:101E500002D40DE009F101018946B9420FDA81454A
:101E6000F8DB1BF809100029F4D108E009F10101A1
:101E700089468142FADB1BF809100029F6D1039844
:101E80005346A0EB090721463846179A00F080FA1E
:101E9000284400EB090507E044E008E10DE01BF8E9
:101EA000010B524617999047B9F10109F7D25346F1
:101EB00021463846179AF2E039E00A21C4F302526B
:101EC0004FF0000B0091022A06D058F8040BC117FE
:101ED000032A09D00AE023E008F1070020F00702F6
:101EE000F2E80201904605E000B2C117042A01D1D0
:101EF00040B2C117002906DA0A460021404261EBD0
:101F000002012D2202E0220504D52B228DF80420A7
:101F1000012203E0E20701D02022F7E7914657E0D3
:101F20000A2100E010214FF0000B00910BE010217E
:101F30004FF0000B44F004040827009103E0082050
:101F40004FF0000B0090C4F30252022A05D058F85B
:101F5000040B0021032A08D008E008F1070020F054
:101F60000702F2E80201904603E080B2042A00D1A1
:101F7000C0B24FF0000922072AD53278702A07D064
:101F8000DDF800C08CF0100C5CEA0B0C05D00EE004
:101F900040228DF80420012208E050EA010306D017
:101FA00030238DF804308DF8052002229146009BE5
:101FB00083F0080353EA0B030AD150EA010201D16E
:101FC000620705D530228DF804204FF001097F1EED
:101FD0003278582A04D039A20C920CAA02920BE053
:101FE0003BA2F9E75B46009AFEF7FAF80C9B9B5C74
:101FF000029A521E0292137050EA0102F2D1029824
:1020000004A9081A00F1200B600702D524F48034DB
:1020100000E001275F4502DDA7EB0B0000E0002098
:1020200000EB0B01009003984944401A0390E00331
:1020300006D453462146179A039800F0A9F905449F
:10204000002706E001A85246C05D179990476D1C15
:102050007F1C4F45F6DBE0030CD553462146179A0B
:10206000039800F095F9054404E030205246179992
:1020700090476D1C0099481E00900029F5DC08E08F
:102080000298029952460078491C0291179990478C
:102090006D1CBBF10001ABF1010BF1DC5BE100F069
:1020A00065F90544761C307800287FF40DAE19B030
:1020B0002846BDE8F08F0000092801003031323396
:1020C0003435363738396162636465660000000074
:1020D000303132333435363738394142434445465E
:1020E00000000000600700D4062708F1070020F078
:1020F0000700F0E80223804603F0004C5FEA0C0082
:1021000001D097A009E0200501D596A005E0E007E1
:1021100001D095A001E0AFF24C001390307823F08D
:10212000004365280CD006DC452809D046281DD080
:1021300047287FD13BE0662818D067287AD136E05F
:102140000021112F01DB112000E0781CCDE90001F6
:1021500004A90CA8FFF7EEFCDDE90D010C9A4FF085
:10216000000B07F10109109200914EE04FF0004082
:102170000097CDE9011004A90CA8FFF7DBFCDDE90D
:102180000D020C9B0F994FF0000B9146109300929B
:1021900011B9791C00EB0109B7EB090003D4C0F1B8
:1021A000FF3B07F10109A9EB0700019042E0012F75
:1021B00000DA01270021112F01DD112000E038464F
:1021C000CDE9000104A90CA8FFF7B4FCDDE90D017D
:1021D0000C9A00914FF0000BB946109221070FD4D2
:1021E000009A4A4503DA914601E0A9F10109B9F1E3
:1021F000010F05DD109AA9F10101515C3029F4D0DD
:10220000B84202DA10F1040F03DA0121CDE901101E
:1022100010E0002803DC8344A9EB000102E0411C2C
:10222000494500DD8946A0EB0B00401C01904FF0B2
:1022300000400290200705D40198484502DB4FF08A
:10224000FF30019000208DF84B0002980DF14B07F4
:10225000B0F1004F25D002200C902B200D90029859
:1022600000280CDA404202902D200D9007E00A2150
:102270000298FDF79FFF3031029007F8011D0C997D
:10228000481E0C900029F2DC02980028EFD1791E3C
:102290000D980870307800F0200040F0450007F8F5
:1022A000020D11A8C01BC01D02901398007800B148
:1022B000012000EB0901019801EBE0710298014453
:1022C0000398401A401E0390E00306D4534621466B
:1022D000179A039800F05CF805441398007818B139
:1022E0005246179990476D1CE00323D5534621466B
:1022F000179A039800F04CF805441BE0BBF1000F5F
:1023000007DB0098584504DD1098179910F80B006A
:1023100001E0179930205246904701980BF1010BCC
:10232000401E05F10105019004D12E205246179957
:1023300090476D1CB9F10001A9F10109DEDC05E04F
:1023400017F8010B5246179990476D1C0299481EC9
:1023500002900029F4DC53462146179A03989EE622
:102360002D0000002B000000200000002DE9F041AE
:10237000044600251E461746880404D405E0394665
:102380002020B0476D1C641EF9D52846BDE8F081B9
:102390002DE9F041044600251E469046C80301D5AC
:1023A000302700E02027880404D505E04146384660
:1023B000B0476D1C641EF9D52846BDE8F0810000C9
:1023C00000BF054A128802F04002002AF9D0C2B2CA
:1023D000014B1B1D1A807047003801404FF4A0606C
:1023E000FEF752FE01210846FEF77AFE1F484068BC
:1023F00040F000701D4948604FF4E130FFF7D6F817
:10240000FEF7C4FD1A48006940F020001849086131
:102410001848006840F0040016490860FEF708FDFF
:10242000FEF76AF920E0144890F8320000281BDD1E
:10243000114890F8321011A0FFF75CFB002407E070
:102440000D483330015D11A0FFF754FB601CC4B28E
:10245000094890F83200A042F2DC0EA0FFF74AFBD8
:102460000020054981F83200DDE70000000001404E
:1024700000100140100C0140682E002072785F634C
:10248000616E5F6C656E3A2564000000203078252F
:10249000582000000D0A0000B824000800000020A9
:1024A00050000000141B0008082500085000002000
:1024B00058320000241B000800000000000000004B
:1024C000000000000000000000000000000000000C
:1024D00000000000000000000000000000000000FC
:1024E00000000000000000000000000000000000EC
:1024F00000000000000001020304010203040607BB
:082500000809020406080000AE
:0400000508000131BD
:00000001FF
