:020000040800F2
:10000000C8390020C11E00088D0200088F020008B8
:1000100093020008970200089B02000800000000FD
:100020000000000000000000000000009F02000827
:10003000A102000800000000A302000879170008D0
:10004000DB1E0008DB1E0008DB1E0008DB1E0008AC
:10005000DB1E0008DB1E0008171600084316000808
:10006000DB1E0008DB1E00086F160008DB1E000800
:10007000DB1E0008DB1E0008DB1E0008DB1E00087C
:10008000DB1E0008DB1E0008DB1E0008DB1E00086C
:10009000DB1E0008DB1E0008DB1E0008DB1E00085C
:1000A000DB1E0008DB1E0008DB1E0008DB1E00084C
:1000B000DB1E0008DB1E0008DB1E0008DB1E00083C
:1000C000DB1E0008DB1E0008DB1E0008DB1E00082C
:1000D000DB1E0008CB070008A70A0008CD0D0008AA
:1000E000DB1E0008DB1E0008DB1E0008DB1E00080C
:1000F000DB1E0008DB1E0008DB1E0008DB1E0008FC
:10010000DB1E0008DB1E0008DB1E0008DB1E0008EB
:1001100091100008CB120008DB1E0008DB1E00084F
:10012000DB1E0008DB1E0008DB1E0008DB1E0008CB
:10013000DFF810D003F010FA004800475B01000818
:10014000AFF30080C839002041F664114843002114
:1001500000E0491C8142FCD370471CB54FF4A060FD
:1001600001F092FF4FF4E13000F0C0FA00F08EFA97
:100170003D48006840F480203B4908603B480069E6
:1001800040F40010394908616DE04FF4FA70FFF750
:10019000DBFF3648C06880F020003449C860022187
:1001A000334800F035FA3349088000F02BFA324921
:1001B00008800846008803F05BF881462D480088D7
:1001C00003F056F88246494602F08CFE044603F0DE
:1001D00068F807464FF03332284B02F068FF0546B7
:1001E00003F072F8264908600846006803F059F8E1
:1001F000CDE90001204802881E480188214803F00B
:10020000CDF910211A4800F003FA1A49088000F0CD
:10021000F9F9194908800846008803F029F8814651
:100220001448008803F024F88246494602F05AFE3A
:10023000044603F036F807464FF033320F4B02F016
:1002400036FF054603F040F80D490860084600688F
:1002500003F027F8CDE90001074802880548018826
:10026000094803F09BF990E7100C01400010014091
:100270000008014000000020020000203333F33F5B
:1002800004000020AC3E0008683E0008704700BF34
:10029000FEE700BFFEE700BFFEE700BFFEE77047D6
:1002A0007047704701B50098C0EBC000009000E0B7
:1002B00000BF0098401E00900028F9D108BD10B57D
:1002C000DF48806940F40070DD4988610846C068F5
:1002D00040F40070C8600846C06820F40070C86030
:1002E0000846406820F4404048600846406840F4B2
:1002F000004048600020D349086008460068086054
:100300000846006808600020091D0860084600686B
:1003100008600846006808600846006840F46020ED
:1003200008600846006840F48010086008460068CD
:1003300008600020C349283108600846006808604A
:10034000C148C04908310860C048091D0860BD485F
:10035000001D006840F00100BA49091D0860084608
:10036000006840F00800086000BFB648001D006843
:1003700000F008000028F8D1B248001D006840F0E5
:100380000400B049091D086000BFAE48001D0068A8
:1003900000F004000028F8D13220FFF783FF01208D
:1003A000AB49087010BD38B504460D46A9488442D3
:1003B00005D1A348806940F00400A1498861A6489E
:1003C000844205D19E48806940F008009C498861BC
:1003D000A248844205D19A48806940F010009849AB
:1003E00088619F48844205D19548806940F020008B
:1003F000934988619B48844205D19148806940F0C7
:1004000040008F4988619848844205D18C488069B2
:1004100040F080008A4988619448844205D1884828
:10042000806940F4807086498861A8B2ADF8000008
:1004300000208DF8030003208DF802006946204655
:1004400001F07EFF38BD02468248824203D1012975
:1004500001D1002070477F48824203D1022901D197
:100460000120F7E77B48824203D1042901D1022011
:10047000F0E77848824203D1082901D10320E9E757
:100480007448824203D1102901D10420E2E7714867
:10049000824203D1202901D10520DBE76D48824249
:1004A00003D1402901D10620D4E76A48824203D112
:1004B000802901D10720CDE76748824203D1012975
:1004C00001D10820C6E76448824203D1022901D144
:1004D0000920BFE76148824203D1012901D10A20E6
:1004E000B8E75E48824203D1022901D10B20B1E76F
:1004F0005A48824203D1042901D10C20AAE7574867
:10050000824203D1082901D10D20A3E7534882423A
:1005100003D1102901D10E209CE75048824203D11B
:10052000202901D10F2095E7632093E72DE9F041C1
:1005300004460D4600264648007808B9FFF7BFFE7E
:10054000102C01D0112C07D13E48001D006840F44A
:1005500000003C49091D08603A483030046000271B
:1005600018E03848001D006840F480003549091D36
:10057000086000BF3348001F006800F00200002838
:10058000F8D030484830006806440220FFF78AFE61
:10059000781CC7B2AF42E4DBB6FBF5F080B2BDE831
:1005A000F0812DE9FC5F0020009005211020FFF76D
:1005B000BDFF0190019802F05BFE804602F071FEE3
:1005C00006462B4A2B4B02F072FD044602F07CFEDD
:1005D0000090009802F065FE8046274A274B02F003
:1005E00063FD0646264A274B02F0D3FD044600224F
:1005F000254B02F0B5FC824602F066FE00900098A2
:10060000BDE8FC9F10B505211120FFF78FFF10BD3D
:1006100070B505460E46002431462846FFF713FF05
:100620000446632C02D142F2B82070BD3146284600
:10063000FFF7B9FE0A212046FFF778FFF5E7000033
:100640000010024004240140DBB6FD00DBB66D1B48
:100650000800002000080140000C0140001001408B
:100660000014014000180140001C0140002001401E
:10067000B4D934E70C684A3FE17A14AE47E1F63F5B
:1006800022FDF675E09C713F0000394008B501215C
:10069000102002F011F90121082002F00DF92020AC
:1006A000ADF8000010208DF8030003208DF8020043
:1006B00069460C4801F044FE0420ADF8000010200B
:1006C0008DF8030003208DF802006946064801F00A
:1006D00037FE2020034908610420034910310860D7
:1006E00008BD000000100140000C014010B586B0AC
:1006F0000446FE48806940F48040FC498861084611
:10070000806940F0040088614815ADF814000320AA
:100710008DF8160018208DF8170005A9F44801F08F
:100720000FFE4FF48060ADF8140004208DF8170020
:1007300005A9EF4801F004FE25208DF810000220E5
:100740008DF811008DF8120001208DF8130004A817
:1007500001F09FFCE74802F013F900940020ADF887
:100760000400ADF80600ADF80800ADF80C000C2050
:10077000ADF80A006946DF4802F045F9002240F270
:100780002771DC4802F0D7F9012240F22551D948FF
:1007900002F0D1F9012240F22441D64802F0CBF90F
:1007A0000121D44802F0BBF94FF60F70D1490880FF
:1007B0000120D149087000204880D0A002F0EEFE50
:1007C000DEA002F0EBFE06B010BD10B5C9480088EF
:1007D00000F02000A0B1E6480088B0F5806F03DB90
:1007E000C448001D008810BDC248001D0088C1B269
:1007F000DF4802880088401CDD4B1880DD488154AA
:10080000BC48008800F01000D0B10020BA494880F0
:100810004FF48062D749B848001D02F0B5FAD448B9
:100820000088B54948800020D14908804FF4806194
:10083000D04802F0C2FAAF480088AE48001D0088D8
:10084000AC48008800F08000F0B1AA480C30008865
:1008500000F08000C0B1C84801780078401CC64A4A
:100860001070C648405CA349091D088010460078F6
:10087000C3490978884207D19E480C30008820F08F
:1008800080009C490C31088000BFACE770B505467C
:100890000C469948408898B197484288011D2846DF
:1008A00002F072FA4FF480619348001D02F085FA5D
:1008B00091488078207000208F494880012070BDC9
:1008C0000020FCE770B5024600200AE0145CAC4B47
:1008D0001D781B785B1CAA4E3370A84B5C55431CDB
:1008E000D8B28842F2DB83480C30008800F08000E8
:1008F00038B980480C30008840F080007D4B0C33C4
:10090000188070BD70B504460025264601E0681CBD
:1009100085B216F8011B0029F9D1681CC1B2204626
:10092000FFF7D0FF70BD10B50021024600E0491C62
:1009300012F8014B002CFAD100BF924B9B6C002B9C
:10094000FBD1914B1B78002B35D101238E4C2370AA
:10095000684B14331B8843F08003664C14342380A7
:10096000624B5B6943F00103604C63610023854C7B
:1009700063642346996418655E4B1B1DE36423463C
:100980005B6C43F01003636423465B6C6364234633
:100990005B6C636423465B6C43F0800363642346B3
:1009A0005B6C636423465B6C636423465B6C6364CB
:1009B00023465B6C6364734B5B6C23F00103714CE7
:1009C00063642346996418655B6C43F001036364B8
:1009D00010BD10B586B004464448C06940F40030EC
:1009E0004249C8610846806940F0040088610420DB
:1009F000ADF8140003208DF8160018208DF81700AC
:100A000005A93B4801F09CFC0820ADF81400042027
:100A10008DF8170005A9364801F092FC26208DF8C4
:100A2000100002208DF811008DF8120001208DF8C1
:100A3000130004A801F02DFB00940020ADF8040081
:100A4000ADF80600ADF80800ADF80C000C20ADF8CC
:100A50000A0069464D4801F0D6FF002240F2277196
:100A60004A4802F068F8012240F22551474802F056
:100A700062F8012240F22441444802F05CF801216E
:100A8000424802F04CF84FF60F70404908800120B0
:100A9000194981F804040020A1F806043CA002F0E2
:100AA0007DFD06B010BD10B53848008800F020006C
:100AB000A0B144480088B0F5806F03DB3348001DC7
:100AC000008810BD3148001D0088C1B23D48028831
:100AD0000088401C3B4B18803B4881542B480088C1
:100AE00000F0100000B171E08CE000000010024046
:100AF00000080140003801406C0000200D0D0D3D44
:100B00003D3D3D3D3D3D3D3D3D3D20C4A7C5AEBFC6
:100B1000AAB7A2B0E52053544D33324631303320CA
:100B2000CDE2C9E8B3F5CABCB1A8B8E6203D3D3D69
:100B30003D3D3D3D3D3D3D3D0D0000005553415285
:100B40005431B3F5CABCBBAFC5E4D6C320202020C6
:100B50002020BDD3CAD5D6D0B6CFA1A2BFD5CFD085
:100B6000D6D0B6CF2C20B7A2CBCDD6D0B6CF0D00E5
:100B70001C000020821900200C000020821400209C
:100B80000D000020000002401E0000200044004034
:100B9000555341525432B3F5CABCBBAFC5E4D6C3BA
:100BA000202020202020BDD3CAD5D6D0B6CFA1A2E8
:100BB000BFD5CFD0D6D0B6CF2C20B7A2CBCDD6D0F4
:100BC000B6CF0D0020000020821D00200020FE492D
:100BD000A1F806044FF48062FC49FD4802F0D4F805
:100BE000FC480088F849A1F806040020F94908806B
:100BF0004FF48061F54802F0E0F8F7480088F648C5
:100C0000001D0088F448008800F08000F0B1F24830
:100C10000C30008800F08000C0B1F0480178007806
:100C2000401CEE4A1070EE48405CEB49091D0880FC
:100C300010460078EB490978884207D1E6480C3025
:100C4000008820F08000E4490C31088000BF38E7BC
:100C500070B505460C46DC48B0F80604A8B1DA4881
:100C6000B0F80624DA49284602F08EF84FF4806185
:100C7000D74802F0A2F8D44890F80604207000206B
:100C8000D149A1F80604012070BD0020FCE770B531
:100C9000024600200AE0145CD24B1D781B785B1CD6
:100CA000D04E3370CE4B5C55431CD8B28842F2DB39
:100CB000C9480C30008800F0800038B9C6480C30B4
:100CC000008840F08000C44B0C33188070BD70B5B4
:100CD00004460025264601E0681C85B216F8011B73
:100CE0000029F9D1681CC1B22046FFF7D0FF70BDC2
:100CF00010B586B00446BC48C06940F48020BA49AB
:100D0000C8610846806940F0080088610815ADF8A0
:100D1000140003208DF8160018208DF8170005A97F
:100D2000B24801F00DFB4FF40060ADF81400042050
:100D30008DF8170005A9AD4801F002FB27208DF8BA
:100D4000100002208DF811008DF8120001208DF89E
:100D5000130004A801F09DF9A54801F011FE0094CC
:100D60000020ADF80400ADF80600ADF80800ADF8BD
:100D70000C000C20ADF80A0069469D4801F043FEC6
:100D8000002240F227719A4801F0D5FE012240F27C
:100D90002551974801F0CFFE012240F224419448AA
:100DA00001F0C9FE0121924801F0B9FE4FF60F7023
:100DB0008F4908800120844981F808080020A1F8A3
:100DC0000A088CA002F0EAFB06B010BD10B58848F6
:100DD000008800F02000A0B193480088B0F5806F33
:100DE00003DB8348001D008810BD8148001D00887A
:100DF000C1B28D4802880088401C8B4B18808B48FC
:100E000081547B48008800F01000D8B100206E4962
:100E1000A1F80A084FF480628449854801F0B4FFC4
:100E2000814800886849A1F80A0800207E490880A6
:100E30004FF480617D4801F0C0FF6D4800886C4828
:100E4000001D00886A48008800F08000F0B1684802
:100E50000C30008800F08000C0B17648017800783E
:100E6000401C744A10707448405C6149091D088038
:100E70001046007871490978884207D15C480C30E7
:100E8000008820F080005A490C31088000BFABE791
:100E900070B505460C464C48B0F80A08A8B14A4857
:100EA000B0F80A286249284601F06EFF4FF48061CD
:100EB0005F4801F082FF444890F80A082070002043
:100EC0004149A1F80A08012070BD0020FCE770B577
:100ED000024600200AE0145C584B1D781B785B1C0E
:100EE000564E3370544B5C55431CD8B28842F2DBEB
:100EF0003F480C30008800F0800038B93C480C3086
:100F0000008840F080003A4B0C33188070BD70B5FB
:100F100004460025264601E0681C85B216F8011B30
:100F20000029F9D1681CC1B22046FFF7D0FF70BD7F
:100F300010B586B004462C48C06940F400202A4908
:100F4000C8610846806940F0100088610815ADF856
:100F5000140003208DF8160018208DF8170005A93D
:100F6000374801F0EDF94FF40060ADF814000420AB
:100F70008DF8170005A9324801F0E2F9314801F077
:100F8000FFFC00940020ADF80400ADF80600ADF8B9
:100F90000800ADF80C000C20ADF80A00694629489D
:100FA00001F031FD002240F22771264801F0C3FD17
:100FB000012240F22551234801F0BDFD012240F2FB
:100FC0002441204840E000006C000020821D0020E9
:100FD0007404002020000020004400400E00002087
:100FE000821500200F00002000100240000C01407C
:100FF00000480040555341525433B3F5CABCBBAF0F
:10100000C5E4D6C3202020202020BDD3CAD5D6D009
:10101000B6CFA1A2BFD5CFD0D6D0B6CF2C20B7A205
:10102000CBCDD6D0B6CF0D002200002082210020EB
:1010300078080020100000208216002011000020F7
:1010400000100140004C004001F075FD34208DF887
:10105000100002208DF811008DF8120001208DF88B
:10106000130004A801F015F80121F14801F057FD23
:101070004FF60F70EE4908800120EE4981F80C0C04
:101080000020A1F80E0CECA002F088FA06B010BD0A
:1010900010B5E748008800F02000A0B1F3480088B0
:1010A000B0F5806F03DBE248001D008810BDE0480A
:1010B000001D0088C1B2ED4802880088401CEB4B3F
:1010C0001880EB488154DA48008800F01000D8B14D
:1010D0000020D849A1F80E0C4FF48062E449E5489D
:1010E00001F052FEE1480088D249A1F80E0C002020
:1010F000DE4908804FF48061DD4801F05EFECC4897
:101100000088CB48001D0088C948008800F0800096
:10111000F0B1C7480C30008800F08000C0B1D6485C
:1011200001780078401CD44A1070D448405CC04913
:10113000091D088010460078D1490978884207D1F6
:10114000BB480C30008820F08000B9490C31088081
:1011500000BFABE770B505460C46B648B0F80E0CBC
:10116000A8B1B448B0F80E2CC249284601F00CFED4
:101170004FF48061BF4801F020FEAE4890F80E0C9D
:1011800020700020AB49A1F80E0C012070BD00209A
:10119000FCE770B5024600200AE0145CB84B1D78ED
:1011A0001B785B1CB64E3370B44B5C55431CD8B2F5
:1011B0008842F2DB9E480C30008800F0800038B98D
:1011C0009B480C30008840F08000994B0C3318800D
:1011D00070BD70B504460025264601E0681C85B246
:1011E00016F8011B0029F9D1681CC1B22046FFF78F
:1011F000D0FF70BD10B586B00446A248C06940F467
:101200008010A049C8610846806940F030008861BC
:101210008814ADF8140003208DF8160018208DF8FE
:10122000170005A9984801F08BF80420ADF81400C8
:101230008DF8170005A9954801F082F8944801F04F
:101240009FFB00940020ADF80400ADF80600ADF857
:1012500008000C20ADF80A000020ADF80C0069462B
:101260008B4801F0D0FB002240F22771884801F042
:1012700062FC012240F22551854801F05CFC01220C
:1012800040F22441824801F056FC35208DF81000D0
:1012900002208DF811008DF8120001208DF8130046
:1012A00004A800F0F6FE0121794801F038FC4FF661
:1012B0000F7077490880012176480174002141822E
:1012C00075A002F06BF906B010BD10B5704800882B
:1012D00000F0200090B17D480088B0F5806F02DBFF
:1012E0006B48808810BD6A488088C1B27748028800
:1012F0000088401C754B18807548815464480088EC
:1013000000F01000C0B10021624841824FF48062B9
:101310006F49143001F038FD6C4801885D48418206
:1013200000206A4908804FF48061694801F045FD5A
:1013300057480088564880885548008800F080004B
:10134000D0B15348808900F08000A8B1614801788D
:101350000078401C5F4A10705F48405C4C498880B0
:10136000104600785D490978884205D1484880894F
:1013700020F080004649888100BFB3E770B505467C
:101380000C464448408AA0B14248428A00F1140108
:10139000284601F0F9FC4FF480613E48143001F01A
:1013A0000CFD3C48807C207000213A48418201209D
:1013B00070BD0020FCE770B5024600200AE0145C16
:1013C000464B1D781B785B1C444E3370424B5C557A
:1013D000431CD8B28842F2DB2D48808900F080009F
:1013E00028B92B48808940F08000294B988170BD36
:1013F00070B504460025264601E0681C85B216F843
:10140000011B0029F9D1681CC1B22046FFF7D3FFA8
:1014100070BD00BF704700BF314A128802F0400221
:10142000002AF9D0C2B22E4B1B1D1A807047000053
:10143000004C00406C000020554152543420B3F55C
:10144000CABCBBAFC5E4D6C3202020202020BDD31A
:10145000CAD5D6D0B6CFA1A2BFD5CFD0D6D0B6CF21
:101460002C20B7A2CBCDD6D0B6CF0D0024000020C3
:10147000822500207C0C0020120000208217002012
:101480001300002000100240001001400014014031
:10149000005000406C100020554152543520B3F5E7
:1014A000CABCBBAFC5E4D6C3202020202020BDD3BA
:1014B000CAD5D6D0B6CFA1A2BFD5CFD0D6D0B6CFC1
:1014C0002C20B7A2CBCDD6D0B6CF0D002600002061
:1014D000822900201400002082180020150000201E
:1014E000003801401FB50121084601F0E5F96B48BD
:1014F000806940F0DC00694988610120ADF80C008A
:1015000028208DF80F0001208DF80E0003A96448F3
:1015100000F016FF06208DF8080001208DF8090064
:1015200000208DF80A0001208DF80B0002A800F0C1
:10153000B0FD0021084601F019F8012000900020BC
:101540008DF8040008208DF8050001208DF80600B4
:10155000684600F015FE0220ADF80C0048208DF81A
:101560000F0001208DF80E0003A94D4800F0E8FEA1
:1015700007208DF8080001208DF8090000208DF863
:101580000A0001208DF80B0002A800F082FD012165
:10159000002000F0EBFF0220009000208DF80400F6
:1015A0000C208DF8050001208DF80600684600F03B
:1015B000E7FD1020ADF80C0048208DF80F00012049
:1015C0008DF80E0003A9364800F0BAFE0A208DF807
:1015D000080001208DF8090000208DF80A00012084
:1015E0008DF80B0002A800F054FD0421002000F04B
:1015F000BDFF1020009000208DF804000C208DF815
:10160000050001208DF80600684600F0B9FD25A010
:1016100001F0C4FF1FBD10B52A48006800F00100AA
:1016200070B12848006840F001002649086026A0F3
:1016300001F0B4FF2C48006880F004002A490860DB
:1016400010BD10B51F48006800F0020070B11D48C1
:10165000006840F002001B49086024A001F09EFFD2
:101660002148006880F004001F49086010BD10B5D3
:101670001448006800F0100070B11248006840F093
:1016800010001049086021A001F088FF164800688A
:1016900080F004001449086010BD000000100240F2
:1016A00000080140B0B4BCFC20B3F5CABCBBAF20FD
:1016B00020202020202020202020C5E4D6C3CDEAF1
:1016C000B3C90D0014040140B5DA203120B8F6B0DA
:1016D000B4BCFCB1BBB0B4CFC22C20C0B6B5C6B749
:1016E000B4D7AA0D000000000C0C0140B5DA20327E
:1016F00020B8F6B0B4BCFCB1BBB0B4CFC22C20C093
:10170000B6B5C6B7B4D7AA0D00000000B5DA2033CD
:1017100020B8F6B0B4BCFCB1BBB0B4CFC22C20C072
:10172000B6B5C6B7B4D7AA0D0000000010B5FE4884
:10173000FE49086000F051FCFC4800684FF47A71E3
:10174000B0FBF1F4601E4FF0E02148610020886199
:1017500008610846006940F0040008610846006915
:1017600040F0020008610846006940F0010008618D
:10177000EFA001F013FF10BDF648D0E900305A1C6D
:1017800040F10000F349C1E900207047F14903C965
:1017900070472DE9F04700BFFFF7F8FF04464FF010
:1017A000E02040694FF0E0218969401A4FF47A71D6
:1017B00048434FF0E0214969B0FBF1F9484601F098
:1017C00057FD0746204601F053FD8146E24901F0EE
:1017D00057FB8046394601F0FBFA064601F04DFD05
:1017E0000546FFF7D3FF60400843D5D12846BDE842
:1017F000F08730B50246FFF7C9FFD84B03C300BFDF
:10180000FFF7C4FFD54BD3E90053044608461946F9
:10181000631B60EB01009B1A70F10000F0D330BD38
:1018200070B50446FFF7B5FF0026054600BFFFF779
:10183000B0FF0021421B61EB0601121B71F1000198
:10184000F5D370BD10B5C6480068C6490860FFF7FB
:10185000A0FFC3490860C348006828B10846006873
:10186000C0490968401A10BD0020FCE710B5FFF719
:10187000E9FF044654B9BCA001F090FEC1480078CD
:10188000401CC0490870FFF7DDFF10BDBD4801785E
:101890000078401CBB4B18702246BBA001F07EFEB6
:1018A000FFF7D0FF00BFF0E72DE9F0411446002517
:1018B0000026BD4A904205D1BC4A926942F004021A
:1018C000BA4FBA61BA4A904205D1B84A926942F019
:1018D0000802B64FBA61B74A904205D1B34A92693D
:1018E00042F01002B14FBA61B34A904205D1AF4AFB
:1018F000926942F02002AD4FBA61B04A904205D1E0
:10190000AA4A926942F04002A84FBA6103F0030369
:1019100003B90323182C1FD007DC6CB1042C0DD0A5
:10192000102C14D0142C1AD10EE01C2C11D0282C01
:1019300006D0482C13D105E0002512E0042510E064
:1019400008250EE008250CE043F0040509E01D46DB
:1019500007E043F00C0504E043F0080501E0002532
:1019600000BF00BF002218E0012707FA02F601EAD3
:1019700006078FB107684FEA82084FF00F0C0CFA88
:1019800008FC27EA0C07076007684FEA820C05FA93
:101990000CFC47EA0C070760521C082AE4D300221B
:1019A0001BE002F108074FF0010C0CFA07F601EA00
:1019B00006078FB147684FEA82084FF00F0C0CFA08
:1019C00008FC27EA0C07476047684FEA820C05FAD3
:1019D0000CFC47EA0C074760521C082AE1D3482C4C
:1019E00002D102690A430261282C03D1026942EA4A
:1019F00001420261BDE8F08170B50B46704909787B
:101A000029B97049704A116001216D4A11706F49FE
:101A1000095C21F0F0026D490A5419070A0E6B495E
:101A20000A54C41700EBD4646411A40004F1E02448
:101A3000D4F800410246C51700EBD5656D11A0EB47
:101A400045160125B5402C430146C51700EBD56569
:101A50006D11AD0005F1E025C5F8004170BD2DE91F
:101A6000F04103461446002600204F4A934200D11D
:101A700000BF4F4A934200D101264E4A934200D103
:101A800002264D4A934200D103264C4A934200D18C
:101A900004264F4A934200D105264E4A934200D174
:101AA0000626002207E0012797408F4201D1104609
:101AB00003E0571CFAB2102AF5DB00BF0246C71735
:101AC00000EB9777BF10A0EB8707BF063D0E374AA4
:101AD000926942F00102354FBA61C71700EB977760
:101AE0004FEAA70C3C4F57F82C704FF00F0C0CFA34
:101AF00005FC27EA0C0702464FEAE07C00EB9C7CE1
:101B00004FEAAC08DFF8D0C04CF82870C71700EBDC
:101B100097774FEAA70C304F57F82C7006FA05FC60
:101B200047EA0C075AE00000A25D4F005400002075
:101B30005379735469636BCAB1D6D3C5E4D6C32055
:101B4000202020202020316D73D6D0B6CF31B4CEE6
:101B50000D0000002800002000007A443000002022
:101B60003C00002038000020A1BED4CBD0D0CAB1A8
:101B7000B3A42DB2E2CAD4D4ADB5E3B7C5D6C3A1E0
:101B8000BF0D000040000020A1BED4CBD0D0CAB110
:101B9000B3A42DBCE0B2ECB5E32D25643A2539752C
:101BA000207573A1BF0D0000000801400010024025
:101BB000000C0140001001400014014000180140D9
:101BC000410000200003FA050CED00E000E400E015
:101BD000001C014000200140080001404FEAE07C69
:101BE00000EB9C7C4FEAAC08DFF8A0C24CF82870F0
:101BF000A74A12680A43A64F3A6004F0010232B1C4
:101C0000A34A0C3212680A43A14F0C373A6004F021
:101C1000020232B19E4A083212680A439C4F0837CA
:101C20003A60BDE8F0819B48806940F00100994925
:101C3000886196480838406820F0E0609349083988
:101C400048600846406840F000704860704710B532
:101C500000F0C3F99048006810BD904890490860B2
:101C6000704730BF704772B6704762B6704700B5B4
:101C70008B48001D006840F004008949091D086078
:101C80008448C06940F080508249C86185484068F6
:101C900040F48070834948600846006840F00400C2
:101CA00008600846006840F002000860FFF7D9FFAE
:101CB00000BD7849496821F07061764A516011464B
:101CC000496800F00F0241EA0261724A51607047B0
:101CD000014600BF7448C06800F0010018B1081E3A
:101CE000A1F10101F6D109B9012070470020FCE7FC
:101CF00030B503466D480488B3F1006F01D201206E
:101D000030BD4FF0006000EB8420984201D20220E9
:101D1000F6E703E018780870491C5B1C101EA2F15E
:101D20000105AAB2F6D100BFEAE72DE9F84F8046D7
:101D3000894616465D48B0F800A0A8F1006B4FEA4E
:101D4000DB25CBF30A0000900098C0F50067B8F1DE
:101D5000006F02D20120BDE8F88F4FF0006000EB69
:101D60008A20404501D20120F5E751484E4948609C
:101D700050484860BE4200DC37467DE04E48FFF7E1
:101D8000A7FF08B10220E6E74FF0006101EBC52094
:101D90000A144A49FFF7ACFF4748FFF799FF08B11B
:101DA0000220D8E74048006940F002003E4908613F
:101DB0004FF0006000EBC52048610846006940F024
:101DC000400008613C48FFF783FF08B10220C2E7EA
:101DD0003548006941F6FD7108403349086100202B
:101DE00007E019F8002000990144344B5A54411C73
:101DF00088B2B842F5DB00242AE02F48FFF768FFDD
:101E000008B10220A7E72848006940F001002649F0
:101E100008612A4810F81400012101EB4401274A07
:101E2000515C40EA01204FF0006101EBC52121F82F
:101E300014002148FFF74CFF08B102208BE71A4835
:101E4000006941F6FE71084017490861601C84B2C0
:101E5000B4F5806FD1DBB74200D10EE0B9446D1C00
:101E600000200090F01B86B2B6F5006F02DD4FF443
:101E7000006000E03046074680E700BF0A4800697E
:101E800040F0800008490861002064E70800014034
:101E90000004014000100240540000200400FA0534
:101EA0000CED00E00070004000200240E0F7FF1F52
:101EB00023016745AB89EFCD88888800C42D0020B9
:101EC0000648804706480047FEE7FEE7FEE7FEE7D4
:101ED000FEE7FEE7FEE7FEE7FEE7FEE7E51E000899
:101EE000310100080CB56048006840F001005E490F
:101EF0000860084640685D4908405B4948600846FC
:101F0000406820F4FE0048604FF41F008860002005
:101F1000019000900846006840F48030086000BFDF
:101F20005148006800F4003000900198401C019076
:101F3000009818B90198B0F5A06FF1D14A4800682F
:101F400000F40030002843D04948006840F01000F9
:101F5000474908600846006820F00300086008460A
:101F6000006840F0020008603F4840683E49486011
:101F70000846406848600846406840F48060486011
:101F80000846406820F47C1048600846406840F4E9
:101F9000E81048600846006840F08070086000BFA4
:101FA0003148006800F000700028F9D02E484068E1
:101FB00020F003002C4948600846406840F00200C9
:101FC000486000BF2848406800F00C000828F9D19C
:101FD0004FF00060274908600CBD10B500210020BB
:101FE0000022214B5B6803F00C0121B1042906D0CB
:101FF000082928D107E0204B204C236027E01E4B06
:102000001E4C236023E0184B5B6803F47010164BE2
:102010005B6803F48032022303EB904022B9184B33
:102020004343164C23600DE00F4B5B6803F4003311
:1020300023B1134B4343114C236003E00E4B434346
:102040000E4C236003E00C4B0C4C236000BF00BF20
:10205000054B5B68C3F303130A4CE15C074B1B6839
:10206000CB40064C236010BD001002400000FFF87A
:102070000020024008ED00E000127A005400002029
:1020800000093D004400002031490143314A1160FC
:10209000704770B5002100230F22C47804B32D4C83
:1020A000246804F4E064C4F5E064210AC1F1040387
:1020B000CA40447804FA03F18478144021430901AA
:1020C000254C0678A155047804F01F050124AC4086
:1020D00005786D11AD0005F1E025C5F8004109E076
:1020E000047804F01F050124AC401C4D06787611DD
:1020F00045F8264070BD1A4A0A400243154B1B1F83
:102100001A60704739B1134A121D12680243114B0D
:102110001B1D1A6006E00F4A121D126882430D4B08
:102120001B1D1A607047042808D14FF0E02109698F
:1021300041F004014FF0E022116107E04FF0E0218F
:10214000096921F004014FF0E0221161704700009D
:102150000000FA050CED00E000E400E080E100E0A2
:1021600080FFFF1F002044490860091D0860091D09
:102170000860091D086041483F49143108607047F4
:1021800000213D498279002A3AD00A461268036844
:102190009A430B461A600A1D126803689A430B1D86
:1021A0001A60027911440A6803681A430A60324AC5
:1021B0000832126803689A432F4B08331A601A1DBD
:1021C000126803689A432C4B0C331A604279102A28
:1021D0000ED11A1F126803681A43274B08331A607E
:1021E0001A1D126803681A43234B0C331A600DE062
:1021F0002149427911440A6803681A430A6005E0DC
:10220000027911440A6803689A430A607047002102
:10221000016001710C2141710021817170471649E3
:10222000103109680143144A1032116070470146A9
:102230000020114A143212680A400AB1012000E05D
:10224000002070470C491431086070470146002097
:102250000022094B1B6803EA0102074B14331B6879
:102260000B4013B10AB1012000E000207047024981
:10227000143108607047000000040140FFFF0F00A8
:1022800010B50446CC48844208D10121042000F056
:102290002DFB0021042000F029FB46E0C7488442C2
:1022A00008D10121082000F021FB0021082000F0C6
:1022B0001DFB3AE0C248844208D10121102000F001
:1022C00015FB0021102000F011FB2EE0BD488442D8
:1022D00008D10121202000F009FB0021202000F07E
:1022E00005FB22E0B848844208D10121402000F0DB
:1022F000FDFA0021402000F0F9FA16E0B3488442CC
:1023000008D10121802000F0F1FA0021802000F0A6
:10231000EDFA0AE0AE48844207D10121801500F0B1
:10232000E5FA0021A01500F0E1FA10BD10B5012179
:10233000084600F0DBFA0021012000F0D7FA10BDBA
:102340002DE9F0410246002500260020002300244C
:10235000002791F803C00CF00F0591F803C00CF0B2
:10236000100CBCF1000F03D091F802C04CEA050537
:1023700091F800C0BCF1000F31D0146800202BE0B0
:102380004FF0010C0CFA00F3B1F800C00CEA0306A0
:102390009E4220D183004FF00F0C0CFA03F7BC4390
:1023A00005FA03FC4CEA040491F803C0BCF1280FC1
:1023B00006D14FF0010C0CFA00FCC2F814C00AE080
:1023C00091F803C0BCF1480F05D14FF0010C0CFA95
:1023D00000FCC2F810C0401C0828D1D31460B1F82A
:1023E00000C0BCF1FF0F34DD546800202EE000F186
:1023F000080C4FF0010808FA0CF3B1F800C00CEA21
:1024000003069E4221D183004FF00F0C0CFA03F714
:10241000BC4305FA03FC4CEA040491F803C0BCF188
:10242000280F05D100F1080C08FA0CF8C2F8148046
:1024300091F803C0BCF1480F07D100F1080C4FF030
:10244000010808FA0CF8C2F81080401C0828CED306
:102450005460BDE8F0814FF6FF7101800221817068
:102460000421C17070470246002093680B400BB1F5
:10247000012000E0002070470146886880B2704764
:1024800002460020D3680B400BB1012000E0002081
:1024900070470146C86880B270470161704741616A
:1024A00070470AB1016100E041617047C160704747
:1024B0004FF480320A43826181618261826982695C
:1024C000704702460020434B18684FF6807318404F
:1024D00040EA021008433F4B186070473E49C8610C
:1024E0007047F0B50A46002300240021002500F0C3
:1024F0000046B6F1004F02D1364EF16901E0354E8B
:102500007168C0F3034583B200F44016B6F5401F6E
:1025100008D121F070612F4E766826F070662D4F3D
:102520007E6012E000F48016B6F5801F06D1032607
:1025300006FA05F4A14341F0706106E0460D36014C
:1025400003FA06F6B14341F0706122B1460D36013F
:1025500003FA06F6314300F00046B6F1004F02D10F
:102560001C4EF16101E01B4E7160F0BD30B50022E0
:102570008B071C0F0F2303FA04F2164B08338C1041
:1025800053F824309343134C08348D1044F825300D
:1025900023468C1053F824308C07240F00FA04F4DF
:1025A00023430C4C08348D1044F8253030BD0A49C3
:1025B000DC3108607047000000080140000C014059
:1025C000001001400014014000180140001C0140AF
:1025D000002001400000014000002042DF48006868
:1025E00040F00100DD49086008464068DC490840C9
:1025F000DA49486008460068DA490840D749086067
:102600000846006820F4802008600846406820F4EE
:10261000FE0048604FF41F0088607047CF4909688A
:1026200021F48031CD4A11601146096821F48021DE
:102630001160B0F5803F03D0B0F5802F0ED106E0D9
:10264000C649096841F48031C44A116007E0C349B2
:10265000096841F4A021C14A116000E000BF00BF39
:10266000704710B501460022002300204A11012ABC
:1026700002D1BA4C236806E0022A02D1B74C236A81
:1026800001E0B64C636A01F01F02012494401C4033
:102690000CB1012000E0002010BD38B500200090F2
:1026A0000024002500BF3120FFF7DBFF054600981E
:1026B000401C00900098B0F5A06F01D0002DF2D022
:1026C0003120FFF7CEFF08B1012400E000242046AE
:1026D00038BD01460020A14A106820F0F80040EA09
:1026E000C10010607047A049086070470246002092
:1026F0009A4B586820F47C1042EA01031843974B28
:102700005860704798490866704701460020934A10
:10271000506820F003000843506070478F484068BD
:1027200000F00C007047014600208C4A506820F0F1
:10273000F00008435060704701460020874A506807
:1027400020F4E06008435060704701460020834A4F
:10275000506820F4605040EAC1005060704729B1D1
:102760007E4A527A02437D4B5A7204E07B4A527A87
:1027700082437A4B5A7270477B49D8310860704760
:1027800001460020754A506820F4404008435060DC
:1027900070470021714A20321170704A82F820106F
:1027A000012802D004280AD104E001216B4A20321A
:1027B000117005E00521694A2032117000E000BF68
:1027C00000BF70476949086070476449096A01435E
:1027D000624A11627047654944390860704730B5F4
:1027E00000210022002400235C4D6D6805F00C01DF
:1027F00021B1042905D0082923D105E05C4D0560ED
:1028000022E05B4D05601FE0544D6D6805F47012C9
:10281000524D6D6805F48034022505EB92421CB9D7
:10282000544D554305600BE04C4D6D6805F4003583
:102830001DB1504D5543056002E04D4D55430560B7
:1028400002E04B4D056000BF00BF444D6D6805F0D0
:10285000F0010909484D6B5C0568DD4045603F4D5E
:102860006D6805F4E061090A434D6B5C4568DD4025
:1028700085603A4D6D6805F46051C90A3E4D6B5C48
:102880004568DD40C560354D6D6805F44041890BF4
:102890003A4D6B5CC568B5FBF3F5056130BD29B1F8
:1028A0002E4A526902432D4B5A6104E02B4A526969
:1028B00082432A4B5A61704729B1284A92690243E0
:1028C000264B9A6104E0254A92698243234B9A6120
:1028D000704729B1214AD2690243204BDA6104E0F2
:1028E0001E4AD26982431D4BDA61704729B11B4AE7
:1028F000D2680243194BDA6004E0184AD268824376
:10290000164BDA60704729B1144A12690243134B1F
:102910001A6104E0114A12698243104B1A61704730
:1029200012494039086070470F49C86470470B4925
:10293000C87170470948406A40F080700749486292
:10294000704701460020054A92680A400AB10120FA
:1029500000E0002070470149887270470010024073
:102960000000FFF8FFFFF6FE0000424280044242F2
:1029700000127A0000093D00580000206800002085
:1029800010B50446FB48844209D101218803FFF7B2
:10299000ADFF00214FF48040FFF7A8FF32E0F6487A
:1029A000844209D101214804FFF7ADFF00214FF413
:1029B0000030FFF7A8FF25E0F048844209D101214B
:1029C0008804FFF7A0FF00214FF48020FFF79BFF52
:1029D00018E0EB48844209D10121C804FFF793FFB6
:1029E00000214FF40020FFF78EFF0BE0E548844202
:1029F00008D101210805FFF786FF00214FF4801060
:102A0000FFF781FF10BD2DE9F04786B005460E4661
:102A10000024A24600BFA1460027B08900B100BF34
:102A20002F462C8A4CF6FF700440F08804432C8219
:102A3000AC894EF6F3100440B0883189084371899F
:102A400008430443AC81AC8A4FF6FF400440B08990
:102A50000443AC8201A8FFF7C2FEC648874202D1F8
:102A6000DDF810A001E0DDF80CA0A88900F400401A
:102A700040B10AEBCA0000EB0A1031684900B0FB14
:102A8000F1F807E00AEBCA0000EB0A103168890090
:102A9000B0FBF1F86420B8FBF0F0040120096421D8
:102AA00001FB1089A88900F4004040B1322000EBFE
:102AB000C900B0FBF1F000F00700044308E0322049
:102AC00000EB09106421B0FBF1F000F00F000443AB
:102AD0002C8106B0BDE8F0874FF41651016000214B
:102AE0008180C18001810C21418100218181704759
:102AF00010B502460020108A4FF2FF0318400B88E1
:102B00004C8823438C882343CC882343184310826A
:102B100010BD0021018041808180C180704721B1BA
:102B2000828942F40052828104E082894DF6FF736B
:102B30001A4082817047F0B5034600240026002524
:102B4000002040F66A17B94200D100BF1846C1F311
:102B5000421401F01F06012707FA06F5012C01D1E6
:102B60000C3004E0022C01D1103000E014301AB116
:102B700007682F43076002E00768AF430760F0BDB6
:102B80001AB1838A0B43838202E0838A8B43838258
:102B90007047028A4FF6F0731A400282028A0A4393
:102BA0000282704782894FF2FF731A4082818289C4
:102BB0000A438281704721B1828942F002028281F8
:102BC00004E082894FF6FD731A4082817047028AC1
:102BD0004FF6DF731A400282028A0A43028270476C
:102BE00021B1028A42F48042028204E0028A4BF65A
:102BF000FF731A4002827047C1F308028280704757
:102C000001468888C0F308007047818941F00101BE
:102C100081817047028BD2B20283028B42EA012289
:102C200002837047028B02F47F420283028B0A43C5
:102C30000283704721B1828A42F02002828204E03E
:102C4000828A4FF6DF731A408282704721B1828AEE
:102C500042F01002828204E0828A4FF6EF731A403B
:102C60008282704721B1828A42F00802828204E0A7
:102C7000828A4FF6F7731A408282704721B18289A7
:102C800042F40042828103E08289C2F30E02828113
:102C9000704721B1828A42F40062828204E0828A13
:102CA0004FF2FF731A4082827047828A4FF6FB739D
:102CB0001A408282828A0A438282704721B1828AC4
:102CC00042F00202828204E0828A4FF6FD731A40CB
:102CD0008282704702460020B1F5007F00D100BF1C
:102CE00013880B400BB1012000E00020704701F475
:102CF0000072B2F5007F00D100BFCA430280704766
:102D000070B50246002400230025002040F66A1614
:102D1000B14200D100BFC1F3421501F01F030126EB
:102D200006FA03F3012D02D19689334006E0022D05
:102D300002D1168A334001E0968A33400C120126F4
:102D400006FA04F41688344013B10CB1012000E0F7
:102D5000002070BD10B50022002340F66A14A14285
:102D600000D100BF0A1201249440A3B2DC430480C6
:102D700010BD000000380140004400400048004001
:102D8000004C00400050004040EA01039B0703D084
:102D900009E008C9121F08C0042AFAD203E011F89A
:102DA000013B00F8013B521EF9D27047D2B201E05C
:102DB00000F8012B491EFBD270470022F6E710B540
:102DC00013460A4604461946FFF7F0FF204610BD99
:102DD000F0B480EA0102D40F4200B2EB410F02D2FC
:102DE0000246084611464A0042D0C30DDDB2C1F387
:102DF000C752AD1A202D35DAC1F3160141F4000295
:102E000004B15242C5F1200602FA06F12A411044EB
:102E1000B3EBD05F23D0C4B1012DA0EBC35009DCCC
:102E2000F0BC4FF0004202EAC352DBB200F50000F2
:102E300000F0D7BA400000F1807000EBC350A0F161
:102E4000807040EAD170490009E0490841EAC07148
:102E5000A0EBC35000F50000400800EBC350F0BCED
:102E600000F0B6BA6142012202EB4101001BF6E715
:102E7000F0BC704781F00041AAE780F00040A7E76E
:102E800080EA010210B502F00043400022D04A005F
:102E90001FD0010E01EB1261C0F35600C2F35602BF
:102EA00040F4000042F40002A0FB022000047F393D
:102EB000140400D0401C50EA124001D44000491EC6
:102EC000C2B20C0604EBD010401C4008802A02D08D
:102ED00003E0002010BD20F00100002900DA0020EE
:102EE000184310BD30B480EA010202F0004530F012
:102EF000004221F0004013D090B1C30DD40DC2F3B5
:102F00001601C0F31600E41A41F4000140F4000277
:102F10007D34914201D3641C00E04900002C02DAA8
:102F200030BC002070474FF400000023914201D3D1
:102F3000891A034340084FEA4101F7D151B1914248
:102F400002D14FF0004105E002D24FF0010101E053
:102F50006FF0010103EBC450284430BC00F038BAD4
:102F60002DE9FE4F804681EA0300C00F0C46009019
:102F700021F0004123F00045B8EB0200A94105D241
:102F80004046214690461C460B46024623F0004030
:102F9000104347D0270DC7F30A00C3F30A5102902C
:102FA000401A019040286BDAC3F3130040F4801BF1
:102FB0000098924620B10023D2EB030A63EB0B0B7F
:102FC00001985946C0F14002504600F0E0F906462B
:102FD0000D4650465946019A00F0E8F910EB0800FA
:102FE0006141002487EA115284EAE7731A4340D012
:102FF000009A62B3019A012A4FEA075215DC001BBE
:1030000061EB02014FF0004202EA0752CDE90042B3
:10301000001C41F5801132462B4600F01FFA03B028
:10302000BDE8F08F40462146F9E7001B61EB020145
:10303000001C41F5801300185B412018A2F5001711
:1030400047EB030140EAD570B6196D4111E06D08F8
:103050004FEA360645EAC0754FEA0752001B61EB9E
:103060000201001C41F5801149084FEA30000019A7
:10307000514132462B4603B0BDE8F04F00F0DFB9B6
:103080000098012240000023D0EB020263EBE073C2
:10309000009821464FEAE074B8EB000061EB0401B0
:1030A000E9E783F000435BE781F0004158E72DE951
:1030B000FE4F81EA030404F0004421F00041009433
:1030C0004FF0000B23F0004350EA01045ED052EAB7
:1030D00003045BD0C3F30A54C1F30A552C44A4F291
:1030E000F3340194A0FB0254C1F3130141F48011A5
:1030F000C3F3130343F4801301FB024400FB034EAC
:10310000840A970A44EA815447EA8357A4FB076874
:1031100002958D0A05FB07854FEA932C04FB0C549E
:103120002705029D4FEA065847EA1637B5EB080512
:103130006EEB070C870E920E47EA811742EA831264
:10314000A7FB0201B6EB0B0164EB00042B0D43EA75
:103150000C335E1844EB1C50DA465146E7FB020183
:10316000C5F313044FEA0B3343EA14534FEA043216
:10317000019C43EA0603A4F10C040294009CCDE9EF
:1031800000B400F06BF903B0BDE8F08F00200146F9
:10319000F9E72DE9F04D81EA030404F0004B21F03A
:1031A000004514464FF0000A23F0004150EA0502A2
:1031B00020D054EA01021DD0C5F30A570246C5F3D8
:1031C0001303C1F31300C1F30A5640F4801543F40E
:1031D0008013A7EB0608101BD64608F2FD3873EBE8
:1031E000050002D308F1010801E092185B41B8F133
:1031F000000F03DA00200146BDE8F08D00204FF4F7
:103200008011064684460EE0171B73EB050705D3B5
:10321000121B63EB050306434CEA010C49084FEA15
:10322000300092185B4150EA0107EDD152EA0300E9
:1032300012D082EA040083EA0501084305D0101B7E
:10324000AB4106D20122002306E000224FF00043EA
:1032500002E06FF0010253101AEB06004CEB08512C
:1032600010EB0A0041EB0B01BDE8F04D00F0E7B8B0
:1032700096230022114600F0B4B820F00040C10DA2
:10328000C0F3160040F400007F2901DA00207047E7
:10329000962903DCC1F19601C840704796398840F1
:1032A000704700F0004230F000400AD0C10D01F537
:1032B0006071C0F3160042EA0151C2084007114391
:1032C000704700200146704701F0004330B421F000
:1032D000004150EA010206D00A0DA2F56072C1F366
:1032E0001301002A02DC30BC00207047440F44EA7E
:1032F000C104C100E01830BC00EBC25000F068B857
:1033000030B50B46014600202022012409E021FAB5
:1033100002F59D4205D303FA02F5491B04FA02F5B2
:103320002844151EA2F10102F1DC30BD2DE9F05F49
:103330000546002092469B46884606468146402424
:103340001BE0284641464746224600F017F95346FF
:103350005A46C01A914110D311461846224600F031
:1033600016F82D1A67EB01084F462246012000216E
:1033700000F00DF817EB00094E41201EA4F10104E6
:10338000DFDC484631462A464346BDE8F09F202A06
:1033900004DB203A00FA02F1002070479140C2F1AC
:1033A000200320FA03F3194390407047202A06DBDC
:1033B000CB17203A41FA02F043EAE07306E041FA03
:1033C00002F3D040C2F120029140084319467047F1
:1033D0000029A8BF7047401C490008BF20F0010029
:1033E000704710B4B0FA80FC00FA0CF050EA010407
:1033F00004BF10BC704749B1CCF1200421FA04F499
:1034000011FA0CF118BF012121430843A3EB0C0171
:10341000CB1D4FEA00614FEA102042BF002010BCD4
:10342000704700EBC35010440029A4BF10BC704784
:10343000401C490008BF20F0010010BC704710B5C7
:10344000141E73F1000408DA401C41F100019218C7
:103450005B411A4301D120F0010010BD2DE9F04D70
:1034600092469B4611B1B1FA81F202E0B0FA80F2C5
:1034700020329046FFF78BFF04460F4640EA0A00D1
:1034800041EA0B0153465A46084313D0114653EA0A
:10349000010019D0C8F14002504600F06FF805460F
:1034A0000E46504659464246FFF771FF084305D085
:1034B000012004E020463946BDE8F08D0020054398
:1034C00046EAE0762C4337430A986305E40AA0EB0A
:1034D00008000022FD0A44EA47540A3002D50020C1
:1034E0000146E9E7010510196941DDE908450019C0
:1034F0006941BDE8F04DA2E7C1F30A52C1F31301DF
:1035000040F2FF3341F480119A4202DA0020014672
:10351000704740F233439A42A2F2334202DC5242F5
:1035200000F02CB8FFF733BF30B5041E71F1000472
:1035300004DB4FF00044404264EB0101141E73F1C0
:10354000000405DB1C464FF00043524263EB0403CA
:10355000994208BF904230BD064C074D06E0E06836
:1035600040F0010394E8070098471034AC42F6D3CA
:10357000FCF7E2FDF03E0008103F0008202A04DBC3
:10358000203A21FA02F00021704721FA02F3D040DC
:10359000C2F1200291400843194670470FB4054B11
:1035A00010B503A9044A029800F0DAF810BC5DF8DF
:1035B00014FB0000171400081800002002E008C8DF
:1035C000121F08C1002AFAD170477047002001E09D
:1035D00001C1121F002AFBD1704700002DE9FF5FD7
:1035E00082B00021DDE90430020DDDF840B0034374
:1035F00018D044F61050A2F2FF324243151411982D
:1036000001281FD0A5EB0B00401C5FEA000A4FF019
:1036100000064E4FDFF83891B046504615D5CAF136
:10362000000413E0119801244AA3012801D16FEA94
:103630000B010298119AC0E90031C0E9024206B0BC
:10364000BDE8F09FCBF10000DFE704460021404ACF
:10365000491842EB0450CDE9001012E0E00707D012
:1036600032463B4640464946FFF721FD80468946A3
:1036700032463B4610461946FFF719FD06460F46EF
:103680006410002CEAD1DDE90401DDE90023BAF180
:10369000000F06DAFFF70BFD42464B46FFF707FD2A
:1036A00005E0FFF776FD42464B46FFF772FD044604
:1036B0000E460022284BFFF737FF03D84FF0FF30AC
:1036C000014607E00022254B20463146FFF748FC23
:1036D000FFF712FF102409E0002C0ADB0A22002366
:1036E000FFF724FE039B30321A55641E50EA010294
:1036F000F2D1641C039AC4F111031444119A012AF3
:1037000003D0012208430DD10AE0084304D0002071
:103710004FF0110B119072E7A3EB0B056D1E0DE03E
:103720005B4504DD4FF0000205F1010504E003DA1A
:103730004FF00002A5F10105002AECD00298119982
:10374000C0E90231C0E9004579E7000000001440FB
:103750000000F03F300000000000F0430000E03FB8
:103760002DE9FF4F95B09A46884606460025EEE1C2
:10377000252877D100242746F94A0121039400E047
:10378000044316F8013F203B01FA03F01042F7D141
:1037900030782A2811D06FF02F033078A0F1300252
:1037A000092A16D8039A44F0020402EB820203EBC2
:1037B00042021044761C0390EFE758F8042B039262
:1037C000002A03DA504244F40054039044F0020407
:1037D000761C30782E2816D116F8010F44F0040418
:1037E0002A280DD06FF02F023078A0F13003092B7A
:1037F00009D807EB870302EB4303C718761CF3E7EE
:1038000058F8047B761C30786C280FD006DC4C28E6
:1038100017D068280DD06A2814D104E0742810D07D
:103820007A280FD10DE044F400140AE044F4801427
:1038300001E044F440147278824202D104F580140D
:10384000761C761C307866280BD013DC582877D08D
:1038500009DC002875D04528F6D04628F4D0472842
:103860001AD193E118E0632835D0642879D065280F
:1038700012D18BE1702873D008DC6728F1D0692859
:103880006FD06E280DD06F2806D1ACE073282CD0F5
:10389000752874D0782853D05246179990476D1CDC
:1038A00054E1C4F30250022809D003280DD0D8F8FF
:1038B000001004280DD00D6008F1040846E1D8F886
:1038C0000010EA17C1E90052F6E7D8F800100D80A1
:1038D000F2E70D70F0E718F8041B8DF800100020D7
:1038E0008DF80100EB46012003E058F804BB4FF0CF
:1038F000FF3061074FF0000102D40DE009F1010132
:103900008946B9420FDA8145F8DB1BF80910002916
:10391000F4D108E009F1010189468142FADB1BF884
:1039200009100029F6D103985346A0EB0907214658
:103930003846179A00F080FA284400EB090507E0A2
:1039400044E008E10DE01BF8010B5246179990473F
:10395000B9F10109F7D2534621463846179AF2E0E9
:1039600039E00A21C4F302524FF0000B0091022A01
:1039700006D058F8040BC117032A09D00AE023E047
:1039800008F1070020F00702F2E80201904605E086
:1039900000B2C117042A01D140B2C117002906DACA
:1039A0000A460021404261EB02012D2202E022057D
:1039B00004D52B228DF80420012203E0E20701D078
:1039C0002022F7E7914657E00A2100E010214FF04E
:1039D000000B00910BE010214FF0000B44F00404A9
:1039E0000827009103E008204FF0000B0090C4F37B
:1039F0000252022A05D058F8040B0021032A08D0ED
:103A000008E008F1070020F00702F2E80201904602
:103A100003E080B2042A00D1C0B24FF000092207AF
:103A20002AD53278702A07D0DDF800C08CF0100C4F
:103A30005CEA0B0C05D00EE040228DF80420012238
:103A400008E050EA010306D030238DF804308DF8E9
:103A5000052002229146009B83F0080353EA0B03E2
:103A60000AD150EA010201D1620705D530228DF852
:103A700004204FF001097F1E3278582A04D039A261
:103A80000C920CAA02920BE03BA2F9E75B46009A6B
:103A9000FFF74CFC0C9B9B5C029A521E0292137027
:103AA00050EA0102F2D1029804A9081A00F1200B91
:103AB000600702D524F4803400E001275F4502DD71
:103AC000A7EB0B0000E0002000EB0B010090039837
:103AD0004944401A0390E00306D453462146179AFE
:103AE000039800F0A9F90544002706E001A8524612
:103AF000C05D179990476D1C7F1C4F45F6DBE003B6
:103B00000CD553462146179A039800F095F90544C1
:103B100004E030205246179990476D1C0099481ECA
:103B200000900029F5DC08E00298029952460078DE
:103B3000491C0291179990476D1CBBF10001ABF134
:103B4000010BF1DC5BE100F065F90544761C30788F
:103B500000287FF40DAE19B02846BDE8F08F0000B4
:103B60000928010030313233343536373839616253
:103B70006364656600000000303132333435363717
:103B8000383941424344454600000000600700D4F4
:103B9000062708F1070020F00700F0E8022380461E
:103BA00003F0004C5FEA0C0001D097A009E020056B
:103BB00001D596A005E0E00701D095A001E0AFF2A5
:103BC0004C001390307823F0004365280CD006DCBD
:103BD000452809D046281DD047287FD13BE06628DC
:103BE00018D067287AD136E00021112F01DB11208F
:103BF00000E0781CCDE9000104A90CA8FFF7EEFC59
:103C0000DDE90D010C9A4FF0000B07F1010910924C
:103C100000914EE04FF000400097CDE9011004A95B
:103C20000CA8FFF7DBFCDDE90D020C9B0F994FF0B0
:103C3000000B91461093009211B9791C00EB010919
:103C4000B7EB090003D4C0F1FF3B07F10109A9EB71
:103C50000700019042E0012F00DA01270021112F17
:103C600001DD112000E03846CDE9000104A90CA8CF
:103C7000FFF7B4FCDDE90D010C9A00914FF0000B49
:103C8000B946109221070FD4009A4A4503DA9146AB
:103C900001E0A9F10109B9F1010F05DD109AA9F1BF
:103CA0000101515C3029F4D0B84202DA10F1040F5E
:103CB00003DA0121CDE9011010E0002803DC834480
:103CC000A9EB000102E0411C494500DD8946A0EB5B
:103CD0000B00401C01904FF000400290200705D4DB
:103CE0000198484502DB4FF0FF30019000208DF82D
:103CF0004B0002980DF14B07B0F1004F25D0022088
:103D00000C902B200D90029800280CDA4042029073
:103D10002D200D9007E00A210298FFF7F1FA3031CB
:103D2000029007F8011D0C99481E0C900029F2DC46
:103D300002980028EFD1791E0D980870307800F0B5
:103D4000200040F0450007F8020D11A8C01BC01D5F
:103D500002901398007800B1012000EB090101984E
:103D600001EBE071029801440398401A401E039051
:103D7000E00306D453462146179A039800F05CF8F6
:103D800005441398007818B15246179990476D1C56
:103D9000E00323D553462146179A039800F04CF8C8
:103DA00005441BE0BBF1000F07DB0098584504DD1C
:103DB0001098179910F80B0001E01799302052461F
:103DC000904701980BF1010B401E05F10105019090
:103DD00004D12E205246179990476D1CB9F100016D
:103DE000A9F10109DEDC05E017F8010B524617992D
:103DF00090476D1C0299481E02900029F4DC53463E
:103E00002146179A03989EE62D0000002B00000023
:103E1000200000002DE9F041044600251E4617460B
:103E2000880404D405E039462020B0476D1C641E88
:103E3000F9D52846BDE8F0812DE9F041044600257A
:103E40001E469046C80301D5302700E0202788048D
:103E500004D505E041463846B0476D1C641EF9D5CF
:103E60002846BDE8F0810000CDA8B5C0D2FDBDC593
:103E7000414443D6B53D25346420202020C4DAB225
:103E8000BFB2CEBFBCB5E7D1B9414443D6B53D259D
:103E9000346420202020D7AABBBBBAF3B5E7D1B940
:103EA000D6B53D25342E3266560D0D00CDA8B5C0D1
:103EB000D2FDBDC5414443D6B53D25346420202004
:103EC00020C4DAB2BFB2CEBFBCB5E7D1B9414443DA
:103ED000D6B53D25346420202020D7AABBBBBAF339
:103EE000B5E7D1B9D6B53D25342E3266560D000062
:103EF000103F0008000000206C000000BC350008E6
:103F00007C3F00086C0000205C390000CC350008C4
:103F100000000000000000000000000000000000A1
:103F20000000000000000000000000000000000091
:103F30000000000000000000000000000000000081
:103F40000000000000000000000000000000000071
:103F50000000000000000000000000000102030457
:103F600006070809A25D4F000000000001020304DB
:0C3F700001020304060708090204060809
:0400000508000131BD
:00000001FF
