:020000040800F2
:10000000C8390020450100081509000887080008C4
:10001000110900086B070008C9170008000000005C
:10002000000000000000000000000000E10E0008D9
:100030006F07000800000000A90D0008E50E000889
:100040005F0100085F0100085F0100085F01000810
:100050005F0100085F0100085F0100085F01000800
:100060005F0100085F0100085F0100085F010008F0
:100070005F0100085F0100085F0100085F010008E0
:100080005F0100085F0100085F0100085F010008D0
:100090005F0100085F0100085F0100085F010008C0
:1000A0005F0100085F0100085F0100085F010008B0
:1000B0005F0100085F0100085F0100085F010008A0
:1000C0005F0100085F0100085F0100085F01000890
:1000D0005F010008E5110008291400080D1500084B
:1000E0005F0100085F0100085F0100085F01000870
:1000F0005F0100085F0100085F0100085F01000860
:100100005F0100085F0100085F0100085F0100084F
:1001100031100008151100085F0100085F01000898
:100120005F0100085F0100085F0100085F0100082F
:10013000DFF80CD000F04EFA0048004741210008DB
:10014000C83900200648804706480047FEE7FEE71A
:10015000FEE7FEE7FEE7FEE7FEE7FEE7FEE7FEE777
:10016000FD0E00083101000840EA01039B0703D09F
:1001700009E008C9121F08C0042AFAD203E011F8E6
:10018000013B00F8013B521EF9D27047D2B201E0A8
:1001900000F8012B491EFBD270470022F6E710B58C
:1001A00013460A4604461946FFF7F0FF204610BDE5
:1001B00000F0004230F000400AD0C10D01F560713E
:1001C000C0F3160042EA0151C208400711437047CC
:1001D00000200146704730B50B4601460020202222
:1001E000012409E021FA02F59D4205D303FA02F544
:1001F000491B04FA02F52844151EA2F10102F1DCA4
:1002000030BD2DE9F05F0546002092469B468846AA
:100210000646814640241BE0284641464746224682
:1002200000F0F9F953465A46C01A914110D31146CD
:100230001846224600F0E0F92D1A67EB01084F46F8
:1002400022460120002100F0D7F917EB00094E41AA
:10025000201EA4F10104DFDC484631462A4643460D
:10026000BDE8F09F2DE9FE4F804681EA0300C00FF4
:100270000C46009021F0004123F00045B8EB02004D
:10028000A94105D24046214690461C460B460246EF
:1002900023F00040104347D0270DC7F30A00C3F3F3
:1002A0000A510290401A019040286BDAC3F3130000
:1002B00040F4801B0098924620B10023D2EB030A41
:1002C00063EB0B0B01985946C0F14002504600F019
:1002D00093F906460D4650465946019A00F0ABF98F
:1002E00010EB08006141002487EA115284EAE773A9
:1002F0001A4340D0009A62B3019A012A4FEA07528A
:1003000015DC001B61EB02014FF0004202EA0752CC
:10031000CDE90042001C41F5801132462B4600F029
:10032000ABF903B0BDE8F08F40462146F9E7001B6A
:1003300061EB0201001C41F5801300185B4120189D
:10034000A2F5001747EB030140EAD570B6196D41DD
:1003500011E06D084FEA360645EAC0754FEA0752CC
:10036000001B61EB0201001C41F5801149084FEAB6
:1003700030000019514132462B4603B0BDE8F04F22
:1003800000F06BB90098012240000023D0EB02027C
:1003900063EBE073009821464FEAE074B8EB00008D
:1003A00061EB0401E9E783F000435BE781F0004182
:1003B00058E72DE9FE4F81EA030404F0004421F0E0
:1003C000004100944FF0000B23F0004350EA010479
:1003D0005ED052EA03045BD0C3F30A54C1F30A555A
:1003E0002C44A4F2F3340194A0FB0254C1F3130192
:1003F00041F48011C3F3130343F4801301FB02445F
:1004000000FB034E840A970A44EA815447EA835763
:10041000A4FB076802958D0A05FB07854FEA932C1C
:1004200004FB0C542705029D4FEA065847EA16378D
:10043000B5EB08056EEB070C870E920E47EA8117A5
:1004400042EA8312A7FB0201B6EB0B0164EB000446
:100450002B0D43EA0C335E1844EB1C50DA46514630
:10046000E7FB0201C5F313044FEA0B3343EA1453CD
:100470004FEA0432019C43EA0603A4F10C040294FF
:10048000009CCDE900B400F0F7F803B0BDE8F08FB0
:1004900000200146F9E72DE9F04D81EA030404F05C
:1004A000004B21F0004514464FF0000A23F00041B4
:1004B00050EA050220D054EA01021DD0C5F30A57C4
:1004C0000246C5F31303C1F31300C1F30A5640F407
:1004D000801543F48013A7EB0608101BD64608F2DC
:1004E000FD3873EB050002D308F1010801E0921812
:1004F0005B41B8F1000F03DA00200146BDE8F08D42
:1005000000204FF48011064684460EE0171B73EB63
:10051000050705D3121B63EB050306434CEA010CE8
:1005200049084FEA300092185B4150EA0107EDD1CB
:1005300052EA030012D082EA040083EA050108436C
:1005400005D0101BAB4106D20122002306E0002299
:100550004FF0004302E06FF0010253101AEB060067
:100560004CEB085110EB0A0041EB0B01BDE8F04DDC
:1005700000F073B8C1F30A52C1F3130140F2FF3324
:1005800041F480119A4202DA00200146704740F29D
:1005900033439A42A2F2334202DC524200F03BB8AB
:1005A00000F02AB830B5041E71F1000404DB4FF0EE
:1005B0000044404264EB0101141E73F1000405DBAA
:1005C0001C464FF00043524263EB0403994208BFBC
:1005D000904230BD064C074D06E0E06840F0010354
:1005E00094E8070098471034AC42F6D3FFF7A4FD17
:1005F0000C2B00082C2B0008202A04DB203A00FAE0
:1006000002F1002070479140C2F1200320FA03F369
:10061000194390407047202A04DB203A21FA02F067
:100620000021704721FA02F3D040C2F1200291402C
:10063000084319467047202A06DBCB17203A41FAB7
:1006400002F043EAE07306E041FA02F3D040C2F15F
:100650002002914008431946704710B5141E73F1EB
:10066000000408DA401C41F1000192185B411A4372
:1006700001D120F0010010BD2DE9F04D92469B46BE
:1006800011B1B1FA81F202E0B0FA80F22032904664
:10069000FFF7B2FF04460F4640EA0A0041EA0B01A9
:1006A00053465A46084313D0114653EA010019D065
:1006B000C8F140025046FFF7AEFF05460E465046D1
:1006C00059464246FFF798FF084305D0012004E051
:1006D00020463946BDE8F08D0020054346EAE07625
:1006E0002C4337430A986305E40AA0EB0800002274
:1006F000FD0A44EA47540A3002D500200146E9E7E2
:10070000010510196941DDE9084500196941BDE895
:10071000F04DA2E770B58C1810F8015B15F00703D7
:1007200001D110F8013B2A1106D110F8012B03E08A
:1007300010F8016B01F8016B5B1EF9D12B0705D492
:100740000023521E0DD401F8013BFAE710F8013BDB
:10075000CB1A921C03E013F8015B01F8015B521EF7
:10076000F9D5A142D8D3002070BD00BFFEE7704785
:100770002DE9F04102460025002600200023002438
:10078000002791F803C00CF00F0591F803C00CF09E
:10079000100CBCF1000F03D091F802C04CEA050523
:1007A00091F800C0BCF1000F31D0146800202BE09C
:1007B0004FF0010C0CFA00F3B1F800C00CEA03068C
:1007C0009E4220D183004FF00F0C0CFA03F7BC437C
:1007D00005FA03FC4CEA040491F803C0BCF1280FAD
:1007E00006D14FF0010C0CFA00FCC2F814C00AE06C
:1007F00091F803C0BCF1480F05D14FF0010C0CFA81
:1008000000FCC2F810C0401C0828D1D31460B1F815
:1008100000C0BCF1FF0F34DD546800202EE000F171
:10082000080C4FF0010808FA0CF3B1F800C00CEA0C
:1008300003069E4221D183004FF00F0C0CFA03F700
:10084000BC4305FA03FC4CEA040491F803C0BCF174
:10085000280F05D100F1080C08FA0CF8C2F8148032
:1008600091F803C0BCF1480F07D100F1080C4FF01C
:10087000010808FA0CF8C2F81080401C0828CED3F2
:100880005460BDE8F08100BFFEE7000008B501211B
:10089000102000F09BFA0121082000F097FA202098
:1008A000ADF8000010208DF8030003208DF8020041
:1008B00069460D48FFF75CFF0420ADF800001020EA
:1008C0008DF8030003208DF8020069460748FFF702
:1008D0004FFF2020044908610420044910310860BA
:1008E00003A000F073FF08BD00100140000C0140A0
:1008F0004C454420D6B8CABEB5C6202020202020B2
:10090000202020202020C5E4D6C3CDEAB3C90D00A5
:1009100000BFFEE77047000070B5002100230F22E2
:10092000C47804B3154C246804F4E064C4F5E064AE
:10093000210AC1F10403CA40447804FA03F184781F
:100940001440214309010E4C0678A155047804F0A7
:100950001F050124AC4005786D11AD0005F1E025BF
:10096000C5F8004109E0047804F01F050124AC40FB
:10097000044D0678761145F8264070BD0CED00E078
:1009800000E400E080E100E002490143024A116016
:10099000704700000000FA050CED00E02DE9F05F63
:1009A00006460F4690461C46DDF828A04FF0000B87
:1009B000E11704EB5171C910A4EBC10131B9204614
:1009C000E11704EB5171C1F3C70506E02046E117BA
:1009D00004EB5171C910491CCDB23D4614E02946C3
:1009E000304600F028F9B1460AE059460BF1010BF8
:1009F0001AF8010001F068FC09F1010000F0FF099C
:100A0000C145F2DB681CC5B2A542E8DBBDE8F09F3A
:100A100070B5002415E004F1B001C8B201F03EFC4D
:100A2000002001F03BFC102001F038FC002504E020
:100A3000002001F049FC681CC5B2802DF8DB601C69
:100A4000C4B2082CE7DB70BD2DE9F041002211464D
:100A5000142000F003F901220021262000F0FEF806
:100A600002220021382000F0F9F8032200214A2058
:100A700000F0F4F8042200215C2000F0EFF80022DE
:100A80000321022000F0EAF802220321142000F0E2
:100A9000E5F8102321A20321262000F009F9002403
:100AA0002046FFF785FB064632460B461CA11E4832
:100AB00000F09CFE10231C4A0321362000F0F8F8B9
:100AC000052203215C2000F0C9F801220621022042
:100AD00000F0C4F802220621142000F0BFF8102311
:100AE0000EA20621262000F0E3F800252846FFF795
:100AF0005FFB064632460B4609A10B4800F076FE26
:100B00001023094A0621362000F0D2F8102307A24C
:100B100006215C2000F0CCF8BDE8F0813A0000002E
:100B200025322E31660000009008002025000000CC
:100B300008B50121082000F049F90121082000F042
:100B400045F94FF48070ADF8000010208DF80300D7
:100B500003208DF8020069463048FFF709FE4FF484
:100B60000070ADF8000010208DF8030003208DF810
:100B7000020069462948FFF7FBFD01F067FBC8202A
:100B800001F0C6FAAE2001F089FB002001F086FBDF
:100B9000102001F083FB402001F080FBB02001F029
:100BA0007DFB812001F07AFBFF2001F077FBA12083
:100BB00001F074FBA62001F071FBA82001F06EFB90
:100BC0003F2001F06BFBC82001F068FBD32001F04F
:100BD00065FB002001F062FBD52001F05FFB802067
:100BE00001F05CFBD82001F059FB052001F056FB19
:100BF000D92001F053FBF12001F050FBDA2001F085
:100C00004DFB122001F04AFBDB2001F047FB3020B6
:100C100001F044FB00F004F808BD0000000C0140A6
:100C200010B58D2001F03AFB142001F037FBAF2006
:100C300001F034FB10BD70B504460D4605F1B0015E
:100C4000C8B201F02BFB102141EA141001F026FB81
:100C500004F00F0001F022FB70BD00002DE9F0410F
:100C600080460E46174600247D0131464046FFF778
:100C7000E2FF00BF06E00D49485D01F025FB6D1C59
:100C8000601CC4B2102CF6DB701CC1B24046FFF7EA
:100C9000D2FF002406E00549485D01F015FB6D1CFC
:100CA000601CC4B2102CF6DBBDE8F081800300208C
:100CB0002DE9F04704460F4615469A464FF00008C6
:100CC0000026BAF1100F3ED138E04046411C01F039
:100CD000FF08285C2038C6B239462046FFF7ABFF34
:100CE0004FF0000909E009EB06112D4A505C01F0B4
:100CF000EBFA09F1010000F0FF09B9F1080FF2DB8E
:100D0000781CC1B22046FFF796FF4FF000090AE0B9
:100D100009EB06110831224A505C01F0D5FA09F1BD
:100D2000010000F0FF09B9F1080FF1DB04F1080040
:100D3000C4B2782C02DD0024B81CC7B215F8080034
:100D40000028C2D12AE025E04046411C01F0FF08FE
:100D5000285C2038C6B239462046FFF76CFF4FF0BA
:100D600000090CE006EB46010E4A02EB410111F8C6
:100D7000090001F0A9FA09F1010000F0FF09B9F139
:100D8000060FEFDB04F10800C4B2782C02DD00246A
:100D9000781CC7B215F808000028D5D1BDE8F08747
:100DA0001C250008F42200087047000029B1064AFB
:100DB00012690243044B1A6104E0034A1269824338
:100DC000014B1A61704700000010024029B1064A29
:100DD00092690243044B9A6104E0034A9269824398
:100DE000014B9A61704700000010024029B1064A89
:100DF000D2680243044BDA6004E0034AD2688243BB
:100E0000014BDA60704700000010024030B500214D
:100E10000022002400232D4D6D6805F00C0121B146
:100E2000042905D0082923D105E0294D056022E0D9
:100E3000274D05601FE0254D6D6805F47012234DA8
:100E40006D6805F48034022505EB92421CB9214DF2
:100E5000554305600BE01D4D6D6805F400351DB16F
:100E60001C4D5543056002E0194D5543056002E0F5
:100E7000174D056000BF00BF144D6D6805F0F0010F
:100E80000909154D6B5C0568DD4045600F4D6D68C7
:100E900005F4E061090A104D6B5C4568DD40856032
:100EA0000A4D6D6805F46051C90A0B4D6B5C4568CD
:100EB000DD40C560054D6D6805F44041890B074D67
:100EC0006B5CC568B5FBF3F5056130BD00100240F1
:100ED00000127A0000093D007A0800208A080020EC
:100EE000704700000448D0E900305A1C40F100006F
:100EF0000149C1E900207047600800200CB53D4859
:100F0000006840F001003B490860084640683A49E3
:100F10000840384948600846406820F4FE004860B0
:100F20004FF41F0088600020019000900846006880
:100F300040F48030086000BF2E48006800F40030A4
:100F400000900198401C0190009818B90198B0F5E4
:100F5000A06FF1D12748006800F40030002843D08A
:100F60002648006840F010002449086008460068E0
:100F700020F0030008600846006840F002000860A6
:100F80001C4840681B49486008464068486008465D
:100F9000406840F4806048600846406820F47C1057
:100FA00048600846406840F4E81048600846006819
:100FB00040F08070086000BF0E48006800F00070CC
:100FC0000028F9D00B48406820F003000949486028
:100FD0000846406840F00200486000BF054840688D
:100FE00000F00C000828F9D14FF0006004490860B7
:100FF0000CBD0000001002400000FFF8002002407D
:1010000008ED00E00848806940F001000649886169
:101010000648406820F0E06004494860084640689F
:1010200040F000704860704700100240000001402E
:1010300010B53048008800F02000A0B12E4800888C
:10104000B0F5806F03DB2B48001D008810BD2948D8
:10105000001D0088C1B2284802880088401C264B29
:101060001880264881542348008800F01000D8B129
:1010700000202349A1F80E0C4FF480621F4921483B
:10108000FFF772F81C4800881D49A1F80E0C0020DB
:10109000194908804FF480611848FFF77EF8154819
:1010A00000881448001D00881248008800F0800065
:1010B000F0B110480C30008800F08000C0B1124838
:1010C00001780078401C104A10701048405C0949B3
:1010D000091D0880104600780D490978884207D11B
:1010E00004480C30008820F0800002490C31088050
:1010F00000BFABE7004C004058080020C42D002082
:10110000AE080020BE14002046080020C41F0020A6
:101110004708002010B52C48008800F0200090B14E
:101120002A480088B0F5806F02DB2748808810BD10
:1011300025488088C1B2254802880088401C234B7E
:101140001880234881542048008800F01000C0B166
:101150000021204841824FF480621D491430FFF77E
:1011600003F81A4801881B4841820020174908806B
:101170004FF480611648FFF710F8134800881248B2
:1011800080881148008800F08000D0B10E48808926
:1011900000F08000A8B1104801780078401C0E4A89
:1011A00010700E48405C08498880104600780C4951
:1011B0000978884205D10448808920F080000249DE
:1011C000888100BFB3E70000005000405A080020AB
:1011D000C4310020AE18002048080020C4200020A0
:1011E0004908002010B53048008800F02000A0B168
:1011F0002E480088B0F5806F03DB2B48001D008867
:1012000010BD2948001D0088C1B228480288008806
:10121000401C264B1880264881542348008800F043
:101220001000D0B10020234948804FF4806220494B
:101230002048001DFEF798FF1C4800881D49488083
:1012400000201A4908804FF480611948FEF7A5FF75
:10125000154800881448001D00881348008800F0D5
:101260008000F0B110480C30008800F08000C0B160
:10127000114801780078401C0F4A10700F48405CFC
:101280000949091D0880104600780D4909788842EF
:1012900007D105480C30008820F0800002490C314D
:1012A000088000BFACE70000003801405008002073
:1012B000C4210020AE08002040080020C41C0020EB
:1012C0004108002010B586B004463648806940F4D5
:1012D0008040344988610846806940F00400886194
:1012E0004815ADF8140003208DF8160018208DF86D
:1012F000170005A92C48FFF73BFA4FF48060ADF8C2
:10130000140048208DF8170005A92748FFF730FA88
:1013100025208DF8100002208DF811008DF81200A4
:1013200001208DF8130004A8FFF7F6FA1F4800F01B
:101330006BF900940020ADF80400ADF80600ADF89C
:101340000800ADF80C000C20ADF80A0069461748FB
:1013500000F0CEF9002240F22771144800F0A2F903
:10136000012240F22551114800F09CF9012240F27F
:1013700024410E4800F096F901210C4800F038F99C
:101380004FF60F70094908800120094908700020B4
:10139000488008A000F01AFA16A000F017FA06B06C
:1013A00010BD00000010024000080140003801405C
:1013B000AE0800200D0D0D3D3D3D3D3D3D3D3D3D0B
:1013C0003D3D20C4A7C5AEBFAAB7A2B0E520535487
:1013D0004D33324631303320CDE2C9E8B3F5CABCD3
:1013E000B1A8B8E6203D3D3D3D3D3D3D3D3D3D3D47
:1013F0000D000000555341525431B3F5CABCBBAF88
:10140000C5E4D6C3202020202020BDD3CAD5D6D005
:10141000B6CFA1A2BFD5CFD0D6D0B6CF2C20B7A201
:10142000CBCDD6D0B6CF0D0010B53048008800F037
:101430002000A0B12E480088B0F5806F03DB2B4858
:10144000001D008810BD2948001D0088C1B2284831
:1014500002880088401C264B188026488154234867
:10146000008800F01000D8B100202349A1F806043C
:101470004FF480621F492148FEF776FE1C48008821
:101480001D49A1F806040020194908804FF4806125
:101490001848FEF782FE154800881448001D008891
:1014A0001248008800F08000F0B110480C3000882D
:1014B00000F08000C0B1124801780078401C104A4A
:1014C00010701048405C0949091D088010460078DA
:1014D0000D490978884207D104480C30008820F073
:1014E000800002490C31088000BFABE70044004097
:1014F00054080020C4250020AE080020B60C0020AF
:1015000042080020C41D00204308002010B53048C8
:10151000008800F02000A0B12E480088B0F5806F50
:1015200003DB2B48001D008810BD2948001D0088E2
:10153000C1B2284802880088401C264B18802648E3
:1015400081542348008800F01000D8B100202349BE
:10155000A1F80A084FF480621F492148FEF704FEF3
:101560001C4800881D49A1F80A0800201949088074
:101570004FF480611848FEF710FE154800881448A3
:10158000001D00881248008800F08000F0B110486B
:101590000C30008800F08000C0B11248017800785B
:1015A000401C104A10701048405C0949091D088011
:1015B000104600780D490978884207D104480C305C
:1015C000008820F0800002490C31088000BFABE7A2
:1015D0000048004056080020C4290020AE08002022
:1015E000BA10002044080020C41E00204508002036
:1015F00021B1828942F40052828104E082894DF651
:10160000FF731A408281704710B504462048844217
:1016100009D101218803FFF7E9FB00214FF4804045
:10162000FFF7E4FB32E01B48844209D10121480462
:10163000FFF7BCFB00214FF40030FFF7B7FB25E0BC
:101640001548844209D101218804FFF7AFFB00212E
:101650004FF48020FFF7AAFB18E01048844209D11C
:101660000121C804FFF7A2FB00214FF40020FFF77F
:101670009DFB0BE00A48844208D101210805FFF7D1
:1016800095FB00214FF48010FFF790FB10BD000088
:10169000003801400044004000480040004C004039
:1016A00000500040F0B5034600240026002500202D
:1016B00040F66A17B94200D100BF1846C1F3421480
:1016C00001F01F06012707FA06F5012C01D10C30A5
:1016D00004E0022C01D1103000E014301AB1076888
:1016E0002F43076002E00768AF430760F0BD0000CA
:1016F0002DE9F04786B005460E460024A24600BFFD
:10170000A1460027B08900B100BF2F462C8A4CF6B5
:10171000FF700440F08804432C82AC894EF6F3102D
:101720000440B08831890843718908430443AC817F
:10173000AC8A4FF6FF400440B0890443AC8201A854
:10174000FFF764FB1F48874202D1DDF810A001E0DB
:10175000DDF80CA0A88900F4004040B10AEBCA00F3
:1017600000EB0A1031684900B0FBF1F807E00AEB22
:10177000CA0000EB0A1031688900B0FBF1F8642060
:10178000B8FBF0F004012009642101FB1089A8894D
:1017900000F4004040B1322000EBC900B0FBF1F092
:1017A00000F00700044308E0322000EB0910642138
:1017B000B0FBF1F000F00F0004432C8106B0BDE84F
:1017C000F08700000038014000BFFEE70FB4054B72
:1017D00010B503A9044A029800F0EEF810BC5DF8B9
:1017E00014FB0000252100084C0800200FB4084B12
:1017F00010B504A902AA039800F0DEF8044602A975
:10180000002000F070FC204610BC5DF814FB0000C6
:10181000E720000802E008C8121F08C1002AFAD118
:1018200070477047002001E001C1121F002AFBD160
:10183000704700002DE9FF5F82B00021DDE9043030
:10184000020DDDF840B0034318D044F61050A2F268
:10185000FF3242431514119801281FD0A5EB0B004D
:10186000401C5FEA000A4FF000064E4FDFF8389147
:10187000B046504615D5CAF1000413E01198012472
:101880004AA3012801D16FEA0B010298119AC0E91D
:101890000031C0E9024206B0BDE8F09FCBF1000084
:1018A000DFE704460021404A491842EB0450CDE9E5
:1018B000001012E0E00707D032463B46404649465A
:1018C000FEF777FD8046894632463B46104619466C
:1018D000FEF76FFD06460F466410002CEAD1DDE9E5
:1018E0000401DDE90023BAF1000F06DAFEF761FD1D
:1018F00042464B46FEF75DFD05E0FEF7CCFD424655
:101900004B46FEF7C8FD04460E460022284BFEF764
:1019100049FE03D84FF0FF30014607E00022254B77
:1019200020463146FEF79EFCFEF724FE102409E017
:10193000002C0ADB0A220023FEF763FC039B3032F3
:101940001A55641E50EA0102F2D1641C039AC4F1D4
:1019500011031444119A012A03D0012208430DD126
:101960000AE0084304D000204FF0110B119072E7F9
:10197000A3EB0B056D1E0DE05B4504DD4FF000028F
:1019800005F1010504E003DA4FF00002A5F10105BD
:10199000002AECD002981199C0E90231C0E9004553
:1019A00079E70000000014400000F03F3000000024
:1019B0000000F0430000E03F2DE9FF4F95B09B464B
:1019C0008946064600250FE2252877D100242746C0
:1019D000F84A0121059400E0044316F8013F203B3A
:1019E00001FA03F01042F7D130782A2811D06FF0B5
:1019F0002F033078A0F13002092A16D8059A44F056
:101A0000020402EB820203EB42021044761C0590B2
:101A1000EFE759F8042B0592002A03DA504244F408
:101A20000054059044F00204761C30782E2816D11C
:101A300016F8010F44F004042A280DD06FF02F028D
:101A40003078A0F13003092B09D807EB870302EBAC
:101A50004303C718761CF3E759F8047B761C3078EB
:101A60006C280FD006DC4C2817D068280DD06A28C7
:101A700014D104E0742810D07A280FD10DE044F47A
:101A800000140AE044F4801401E044F44014727835
:101A9000824202D104F58014761C761C30786628C8
:101AA0000BD013DC582877D009DC002875D04528E6
:101AB000F6D04628F4D047281AD19DE118E06328D3
:101AC00035D0642879D0652812D195E1702873D07B
:101AD00008DC6728F1D069286FD06E280DD06F28F8
:101AE00006D1B5E073282CD0752875D0782874D02D
:101AF0005A46179990476D1C75E1C4F302500228AD
:101B000009D003280DD0D9F8001004280DD00D609D
:101B100009F1040967E1D9F80010EA17C1E9005298
:101B2000F6E7D9F800100D80F2E70D70F0E719F82C
:101B3000041B8DF8001000208DF80100EA460120FA
:101B400003E059F804AB4FF0FF3061074FF000019C
:101B500002D40DE008F101018846B9420FDA804550
:101B6000F8DB1AF808100029F4D108E008F10101A7
:101B700088468142FADB1AF808100029F6D1059848
:101B80005B46A0EB080721463846179A00F094FA06
:101B9000284400EB080507E04DE029E10DE01AF8C4
:101BA000010B5A4617999047B8F10108F7D25B46E6
:101BB00021463846179A13E142E00A220092C4F304
:101BC00002524FF0000A022A08D059F804CB032A27
:101BD0004FEAEC710AD00DE029E02AE009F1070193
:101BE00021F00702F2E802C1914609E00FFA8CFCED
:101BF0004FEAEC71042A03D14FFA8CFC4FEAEC71E6
:101C0000002907DA0A460021DCF1000C61EB020131
:101C10002D2202E0220504D52B228DF8042001227A
:101C200003E0E20701D02022F7E7904659E00A21BD
:101C300002E010220DE010214FF0000A00910BE0AD
:101C400010224FF0000A44F004040827009203E039
:101C500008224FF0000A0092C4F30252022A05D073
:101C600059F804CB0021032A08D009E009F1070143
:101C700021F00702F2E802C1914605E01FFA8CFC50
:101C8000042A01D10CF0FF0C4FF00008220728D5E0
:101C9000702806D0009B83F0100353EA0A0305D096
:101CA0000EE040228DF80420012208E05CEA0102E7
:101CB00006D030228DF804208DF8050002229046CF
:101CC000009B83F0080353EA0A030AD15CEA01028D
:101CD00001D1620705D530228DF804204FF00108AC
:101CE0007F1E582804D034A003900EA802900DE067
:101CF00036A0F9E753466046009AFEF782FA84461A
:101D00000398825C0298401E029002705CEA010017
:101D1000F0D1029806A9081A00F1200A600702D53E
:101D200024F4803400E00127574502DDA7EB0A00C8
:101D300000E0002000EB0A01009005984144401AA1
:101D40000590E00306D45B462146179A059800F0FB
:101D5000B3F90544002706E001A85A46C05D17996B
:101D600090476D1C7F1C4745F6DBE0030CD55B46B6
:101D70002146179A059800F09FF9054404E03020A9
:101D80005A46179990476D1C0099481E00900029EB
:101D9000F5DC08E0029802995A460078491C029145
:101DA000179990476D1CBAF10001AAF1010AF1DC04
:101DB00065E100000928010030313233343536370F
:101DC0003839616263646566000000003031323387
:101DD0003435363738394142434445460000000027
:101DE00000F058F90544761C307800287FF4ECADFB
:101DF00019B02846BDE8F08F620700D4062709F124
:101E0000070222F0070CFCE80223E14603F0004839
:101E10005FEA080C02D00FF2702C0DE05FEA045C60
:101E200002D50FF2682C07E05FEAC47C02D00FF203
:101E3000602C01E0AFF2700C4FF0FF3823F000434C
:101E4000CDF850C065280CD006DC452809D04628BE
:101E50001DD047283DD13DE0662818D067287ED1A7
:101E600038E00021112F01DB112000E0781CCDE9C2
:101E7000000106A90EA8FFF7DDFCDDE90F010E9AAF
:101E800003910021009207F1010A04914DE04FF007
:101E900000400097CDE9011006A90EA8FFF7CAFC83
:101EA000DDE90F0203920E9B11990022DDF80CA0D0
:101EB0000093049211B9791C00EB010AB7EB0A00F8
:101EC00004D4C0F1FF3007F1010A0490AAEB070027
:101ED000019044E0012F00DA01270021112F01DDDC
:101EE000112000E03846CDE9000106A90EA8FFF751
:101EF000A1FCDDE90F010E9A0391002104910092EB
:101F0000BA4621070CD40399514500DA8A46BAF142
:101F1000010F05DD009AAAF10101515C302908D0BA
:101F2000B84202DA10F1040F06DA0121CDE90110FE
:101F300015E0AAF10101E9E7002805DC0499014454
:101F40000491AAEB000102E0411C514500DD8A46E4
:101F50000499401A401C01904FF000400290200765
:101F600004D40198504501DBCDF8048000208DF8A1
:101F70004F0002980DF14F07B0F1004F25D02B20F4
:101F80000E9002984FF0020800280CDA40420290AE
:101F90002D200E9007E00A210298FEF71CF930313F
:101FA000029007F8011DB8F10001A8F10108F2DC68
:101FB00002980028EFD1791E0E980870307800F052
:101FC000200040F0450007F8020D12A8C01B00F1E8
:101FD00007081498007800B1012000EB0A0101986D
:101FE00001EBE07105984144401A401E0590E00362
:101FF00006D45B462146179A059800F05DF8054423
:102000001498007818B15A46179990476D1CE00350
:1020100024D55B462146179A059800F04DF80544F3
:102020001CE00498002807DBDDE90301884203DD9A
:102030000098405C179901E0179930205A46904764
:10204000049805F10105401C04900198401E019080
:1020500004D12E205A46179990476D1CBAF1000101
:10206000AAF1010ADDDC05E017F8010B5A461799C1
:1020700090476D1CB8F10001A8F10108F4DC5B4643
:102080002146179A0598ABE62D0000002B000000B2
:10209000200000002DE9F041044600251E461746A9
:1020A000880404D405E039462020B0476D1C641E26
:1020B000F9D52846BDE8F0812DE9F0410446002518
:1020C0001E469046C80301D5302700E0202788042B
:1020D00004D505E041463846B0476D1C641EF9D56D
:1020E0002846BDE8F0810A68531C0B6010707047E9
:1020F000002001E0411CC8B20328FBDB704742F618
:10210000D9614843002100E0491C8142FCD370475B
:1021100042F6D9614843002100E0491C8142FCD3CA
:102120007047000000BF054A128802F04002002AF2
:10213000F9D0C2B2014B1B1D1A8070470038014014
:1021400008B54FF4A060FEF71FFCFEF75BFF4FF4ED
:10215000E130FFF7B7F8FEF799FB1348006840F449
:102160008020114908601148006940F400100F49AF
:102170000861FEF7DDFCFEF74BFCFEF765FC11E0A5
:102180004FF4FA70FFF7BBFF0848C06880F02000EA
:102190000649C860064808238022002100900846AE
:1021A000FEF7FCFBECE70000100C014000100140C2
:1021B0004004002070B50446002523E04FF48070F1
:1021C00012490860FFF794FF04F0800028B14FF433
:1021D00000700E49091F086003E04FF400700B49BE
:1021E00008606006040EFFF783FF4FF48070074914
:1021F000091F0860FFF77CFF4FF4807003490860F7
:10220000681CC5B2082DD9DB70BD0000140C01405C
:1022100010B54FF480700C4908604000091F086039
:10222000FFF766FF4FF480700749091F0860400000
:10223000091D0860FFF75CFF4FF4807002490860D9
:10224000FFF756FF10BD0000140C014010B54FF40D
:1022500080700849086040000860FFF749FF4FF4AC
:1022600080700449091F086040000860FFF740FFC4
:1022700010BD0000140C014010B54FF480700649E9
:102280000860FFF735FF4FF480700349091D0860AF
:10229000FFF72EFF10BD0000100C014010B50446E2
:1022A000FFF7B6FF7820FFF785FFFFF7E5FF002077
:1022B000FFF780FFFFF7E0FF2046FFF77BFFFFF708
:1022C000DBFFFFF7C3FF10BD10B50446FFF7A0FF0B
:1022D0007820FFF76FFFFFF7CFFF4020FFF76AFF7F
:1022E000FFF7CAFF2046FFF765FFFFF7C5FFFFF7BF
:1022F000ADFF10BD0000000000000000002F000036
:1023000000000700070000147F147F1400242A7FB8
:102310002A12006264081323003649552250000037
:102320000503000000001C224100000041221C00A7
:102330000014083E08140008083E0808000000A029
:102340006000000808080808000060600000002025
:1023500010080402003E5149453E0000427F400003
:10236000004261514946002141454B310018141289
:102370007F10002745454539003C4A494930000156
:102380007109050300364949493600064949291EA5
:102390000000363600000000563600000008142207
:1023A0004100001414141414000041221408000207
:1023B0000151090600324959513E007C1211127C2C
:1023C000007F49494936003E41414122007F414159
:1023D000221C007F49494941007F09090901003E4B
:1023E0004149497A007F0808087F0000417F410089
:1023F000002040413F01007F08142241007F4040FF
:102400004040007F020C027F007F0408107F003EE6
:102410004141413E007F09090906003E4151215ECC
:10242000007F091929460046494949310001017FC9
:102430000101003F4040403F001F2040201F003F5F
:102440004038403F00631408146300070870080711
:1024500000615149454300007F41410000552A5524
:102460002A55000041417F0000040201020400409F
:1024700040404040000001020400002054545478C1
:10248000007F4844443800384444442000384444E1
:10249000487F00385454541800087E09010200187F
:1024A000A4A4A47C007F080404780000447D4000BC
:1024B000004080847D00007F102844000000417FA0
:1024C0004000007C04180478007C0804047800387C
:1024D0004444443800FC242424180018242418FC04
:1024E000007C0804040800485454542000043F446D
:1024F0004020003C4040207C001C2040201C003C30
:102500004030403C004428102844001CA0A0A07C7F
:10251000004464544C4414141414141400000000B7
:10252000000000000000000000000000000000F8B3
:1025300000000000000000333000000000100C0616
:10254000100C0600000000000000000040C07840B1
:10255000C0784000043F04043F040400007088FC7D
:1025600008300000001820FF211E0000F008F000D5
:10257000E018000000211C031E211E0000F0088846
:10258000700000001E2123241927211010160E00B0
:10259000000000000000000000000000000000E05B
:1025A0001804020000000007182040000002041870
:1025B000E00000000040201807000000404080F0CC
:1025C000804040000202010F01020200000000F002
:1025D000000000000101011F0101010000000000D6
:1025E0000000000080B0700000000000000000004B
:1025F00000000000000101010101010100000000D4
:10260000000000000030300000000000000000006A
:1026100080601804006018060100000000E0100847
:102620000810E000000F102020100F00001010F81C
:10263000000000000020203F20200000007008085B
:1026400008887000003028242221300000300888DB
:10265000884830000018202020110E000000C02003
:1026600010F8000000070424243F240000F8088824
:10267000880808000019212020110E0000E01088B1
:1026800088180000000F112020110E0000380808E3
:10269000C83808000000003F0000000000708808F3
:1026A00008887000001C222121221C0000E0100874
:1026B0000810E0000000312222110F00000000C0CD
:1026C000C00000000000003030000000000000806A
:1026D000000000000000806000000000000080405A
:1026E0002010080000010204081020004040404073
:1026F00040404000040404040404040000081020C6
:10270000408000000020100804020100007048080A
:102710000808F0000000003036010000C030C82872
:10272000E810E0000718272423140B000000C0382D
:10273000E0000000203C23020227382008F88888A7
:1027400088700000203F202020110E00C0300808B3
:1027500008083800071820202010080008F808088A
:102760000810E000203F202020100F0008F8888883
:10277000E8081000203F20202320180008F888884F
:10278000E8081000203F200003000000C0300808C7
:102790000838000007182020221E020008F8080050
:1027A0000008F808203F210101213F20000808F817
:1027B000080800000020203F20200000000008083A
:1027C000F8080800C08080807F00000008F888C0FA
:1027D00028180800203F20012638200008F80800AB
:1027E00000000000203F20202020300008F8F800E2
:1027F000F8F80800203F003F003F200008F830C0F4
:102800000008F808203F200007183F00E0100808E3
:102810000810E0000F10202020100F0008F8080812
:102820000808F000203F210101010000E010080825
:102830000810E0000F18242438504F0008F888884A
:1028400088887000203F2000030C3020007088082A
:10285000080838000038202121221C00180808F838
:10286000080818000000203F2000000008F80800B9
:102870000008F808001F202020201F00087888008A
:1028800000C83808000007380E010000F80800F8FA
:102890000008F800033C0700073C030008186880A4
:1028A0008068180820302C03032C30200838C8001A
:1028B000C83808000000203F200000001008080869
:1028C000C83808002038262120201800000000FE0B
:1028D000020202000000007F40404000000C30C0B7
:1028E00000000000000000010638C00000020202E3
:1028F000FE000000004040407F0000000000040295
:1029000002020400000000000000000000000000BF
:1029100000000000808080808080808000020204AF
:1029200000000000000000000000000000008080A7
:10293000808000000019242222223F2008F8008015
:1029400080000000003F112020110E0000000080D8
:1029500080800000000E1120202011000000008067
:102960008088F800000E112020103F200000808099
:1029700080800000001F222222221300008080F0AD
:10298000888888180020203F2020000000008080D8
:1029900080808000006B94949493600008F800801D
:1029A00080800000203F210000203F200080989878
:1029B000000000000020203F2020000000000080D8
:1029C0009898000000C08080807F000008F8000018
:1029D00080808000203F24022D302000000808F86D
:1029E000000000000020203F202000008080808028
:1029F00080808000203F20003F20003F80800080BA
:102A000080800000203F210000203F2000008080C7
:102A100080800000001F202020201F008080008078
:102A20008000000080FFA12020110E000000008027
:102A300080808000000E112020A0FF808080800018
:102A40008080800020203F21200001000000808045
:102A5000808080000033242424241900008080E03A
:102A6000808000000000001F202000008080000007
:102A700000808000001F202020103F2080808000E8
:102A80000080808000010E300806010080800080F8
:102A9000008080800F300C030C300F00008080001D
:102AA000808080000020312E0E3120008080800048
:102AB0000080808080818E701806010000808080F8
:102AC000808080000021302C222130000000000096
:102AD000807C020200000000003F40400000000037
:102AE000FF00000000000000FF0000000002027C68
:102AF000800000000040403F00000000000601018F
:102B00000202040400000000000000002C2B00085A
:102B10000000002090080000140700082C2E000878
:102B2000900800203831000024180008211BF01004
:102B3000012AFF050215F01B0F04012AFF050213ED
:102B40000F18094040405F55555575041A5F0C0930
:102B50001121080C11200F094989790909090F2051
:102B60001F112FFE02424ACA4A0304134202FE000A
:102B70000E14FF40504C4340404F50505C40FF1BF0
:102B8000F888012AFF050215F81B1F08012A7F207B
:102B90000B109F80E23B808201000916E2A2928A1C
:102BA00086828080041840807F172424A4FEA322FC
:102BB0001B22CCAA011415080601FF2B01040105F4
:102BC00011FF0202025808101010FF109008C302F3
:102BD0001108080F100444827F01808040432C10AC
:102BE000284681A018094040484848C8784F060543
:102BF00015484840400009150312122222528A0645
:102C00003C106080BA19040B11C030FB1E404043D9
:102C1000407F061C7F424106094FC02941080B1125
:102C200010D030FF30D0121C10101F3D08040201DC
:102C30009E0D1101020408211116FE222222FE0718
:102C400012FE828292A29E100880601F0242827F42
:102C50000F11FF402F102C438011000B1490884C53
:102C600057A42454548C84180801018042221A0766
:102C7000441D423E01018AF9E1000D14E4242CB404
:102C8000252624B42C24E404180AFF02011E121283
:102C9000121E41860911E01C60028CC42A92012A8E
:102CA000FE4F1809047E01407E42427E024C427E65
:102CB0004020491F7920300C4448507F40407F50CD
:102CC0004844401EFC242424FC8129081204280FB7
:102CD00040308F80844C55252525554C8080F03020
:102CE0000C041464040CB40202423302101040417C
:102CF0002111090503FF03050911214140180B208B
:102D00001008FC57545455FE540119C01010444487
:102D10002427150D05FF050D152525454428090611
:102D20000909E6F80C04020153041E2E071F302087
:102D3000400133201016060AFE0AC612E012F062A5
:102D4000F84EFE7DBBC7EF012CC7BB7DB4013B3005
:102D50000D080CFEFE0C082060FEFE60208F7848F7
:102D6000FE82BABA0309135EAA0101017E6CFEFF5E
:102D70000301CBFFFF0F39BBECC0C0C0271918F906
:102D80002701392975990B6CFFFF0C01491A0C2298
:102D9000E1E1E12701396C0F1F1801FB1F0F0F093B
:102DA0002E270136168C4222120C26FC020202FC4F
:102DB0003304FE16205844FE402A10015912491EC1
:102DC0004912A92A0123300A24A42E24E4242EA483
:102DD00024C00AF84A4C48F8484C4AF82A010139FC
:102DE00007490D5915991F9918091412712BC02004
:102DF000A1AB20C00A11300A120A07027F02070A9B
:102E0000121E0B0A0A0A7F0402560B980A1F204062
:102E1000404050205F800A013E2D0102030404203F
:0C2E20000906070809020406080000006B
:0400000508000131BD
:00000001FF
