:020000040800F2
:10000000802300204901000889030008210300081B
:100010008503000805020008210E0008000000000A
:10002000000000000000000000000000490500087A
:100030000902000800000000110400084D05000836
:100040006301000863010008630100086301000800
:1000500063010008630100086301000863010008F0
:1000600063010008630100086301000863010008E0
:1000700063010008630100086301000863010008D0
:1000800063010008630100086301000863010008C0
:1000900063010008630100086301000863010008B0
:1000A00063010008630100086301000863010008A0
:1000B0006301000863010008630100086301000890
:1000C0006301000863010008630100086301000880
:1000D0006301000835080008710A00085D0B00087C
:1000E0006301000863010008630100086301000860
:1000F0006301000863010008630100086301000850
:10010000630100086301000863010008630100083F
:100110006D06000859070008630100086301000824
:10012000630100086301000863010008630100081F
:10013000DFF810D000F054F800480047111500080F
:10014000AFF3008080230020064880470648004720
:10015000FEE7FEE7FEE7FEE7FEE7FEE7FEE7FEE777
:10016000FEE7FEE7650500083101000840EA0103EB
:100170009B0703D009E008C9121F08C0042AFAD25D
:1001800003E011F8013B00F8013B521EF9D2704721
:10019000D2B201E000F8012B491EFBD270470022C9
:1001A000F6E710B513460A4604461946FFF7F0FF76
:1001B000204610BD30B50B46014600202022012408
:1001C00009E021FA02F59D4205D303FA02F5491B25
:1001D00004FA02F52844151EA2F10102F1DC30BD3B
:1001E000064C074D06E0E06840F0010394E8070084
:1001F00098471034AC42F6D3FFF79EFF7019000801
:100200009019000800BFFEE770472DE9F041024653
:1002100000250026002000230024002791F803C0B9
:100220000CF00F0591F803C00CF0100CBCF1000F9E
:1002300003D091F802C04CEA050591F800C0BCF16A
:10024000000F31D0146800202BE04FF0010C0CFAA5
:1002500000F3B1F800C00CEA03069E4220D18300EF
:100260004FF00F0C0CFA03F7BC4305FA03FC4CEA01
:10027000040491F803C0BCF1280F06D14FF0010C23
:100280000CFA00FCC2F814C00AE091F803C0BCF1FB
:10029000480F05D14FF0010C0CFA00FCC2F810C059
:1002A000401C0828D1D31460B1F800C0BCF1FF0F86
:1002B00034DD546800202EE000F1080C4FF00108F6
:1002C00008FA0CF3B1F800C00CEA03069E4221D1F3
:1002D00083004FF00F0C0CFA03F7BC4305FA03FC44
:1002E0004CEA040491F803C0BCF1280F05D100F1D9
:1002F000080C08FA0CF8C2F8148091F803C0BCF19D
:10030000480F07D100F1080C4FF0010808FA0CF86B
:10031000C2F81080401C0828CED35460BDE8F0819C
:1003200000BFFEE708B50121102000F083F801218D
:10033000082000F07FF82020ADF8000010208DF894
:10034000030003208DF8020069460C48FFF75DFFAB
:100350000420ADF8000010208DF8030003208DF874
:10036000020069460648FFF750FF20200349086154
:10037000042003491031086008BD0000001001404E
:10038000000C014000BFFEE77047000070B500217F
:1003900000230F22C47804B3154C246804F4E064ED
:1003A000C4F5E064210AC1F10403CA40447804FAA8
:1003B00003F184781440214309010E4C0678A155BD
:1003C000047804F01F050124AC4005786D11AD00E0
:1003D00005F1E025C5F8004109E0047804F01F05A7
:1003E0000124AC40044D0678761145F8264070BDD6
:1003F0000CED00E000E400E080E100E00249014390
:10040000024A1160704700000000FA050CED00E0A0
:100410007047000029B1064A12690243044B1A6171
:1004200004E0034A12698243014B1A6170470000DD
:100430000010024029B1064A92690243044B9A61B6
:1004400004E0034A92698243014B9A6170470000BD
:100450000010024029B1064AD2680243044BDA6018
:1004600004E0034AD2688243014BDA60704700001F
:100470000010024030B500210022002400232D4D41
:100480006D6805F00C0121B1042905D0082923D19C
:1004900005E0294D056022E0274D05601FE0254D50
:1004A0006D6805F47012234D6D6805F480340225E3
:1004B00005EB92421CB9214D554305600BE01D4DE3
:1004C0006D6805F400351DB11C4D5543056002E013
:1004D000194D5543056002E0174D056000BF00BF90
:1004E000144D6D6805F0F0010909154D6B5C056848
:1004F000DD4045600F4D6D6805F4E061090A104D5F
:100500006B5C4568DD4085600A4D6D6805F460519F
:10051000C90A0B4D6B5C4568DD40C560054D6D68D3
:1005200005F44041890B074D6B5CC568B5FBF3F5DD
:10053000056130BD0010024000127A0000093D0044
:100540003A0000204A000020704700000448D0E92B
:1005500000305A1C40F100000149C1E900207047F9
:10056000200000200CB53D48006840F001003B49E8
:100570000860084640683A490840384948600846DB
:10058000406820F4FE0048604FF41F00886000209F
:10059000019000900846006840F48030086000BF79
:1005A0002E48006800F4003000900198401C019033
:1005B000009818B90198B0F5A06FF1D127480068EC
:1005C00000F40030002843D02648006840F01000B6
:1005D000244908600846006820F0030008600846C7
:1005E000006840F0020008601C4840681B494860F1
:1005F0000846406848600846406840F480604860AB
:100600000846406820F47C1048600846406840F482
:10061000E81048600846006840F08070086000BF3D
:100620000E48006800F000700028F9D00B484068C0
:1006300020F00300094948600846406840F0020085
:10064000486000BF0548406800F00C000828F9D158
:100650004FF00060044908600CBD0000001002402B
:100660000000FFF80020024008ED00E010B532481D
:10067000008800F02000C0B130480088FF2804DC6A
:100680002F4890F80D03012803D12B48001D008846
:1006900010BD2948001D0088C1B228480288008882
:1006A000401C264B1880274881542348008800F0BE
:1006B0001000D0B14FF4807222492348FFF756FD55
:1006C00001201F4981F80D031C480088A1F80E0382
:1006D00000201A4908804FF480711A48FFF75FFD27
:1006E000154800881448001D00881348008800F051
:1006F0008000F0B110480C30008800F08000C0B1DC
:10070000124801780078401C104A10701048405C74
:100710000949091D0880104600780E490978884269
:1007200007D105480C30008820F0800002490C31C8
:10073000088000BFACE70000004C0040180000201B
:1007400050000020660D00206003002006000020FD
:10075000660800200700002010B52E48008800F031
:100760002000B0B12C480088FF2804DC2B4890F80A
:100770001104012802D12748808810BD25488088AF
:10078000C1B2254802880088401C234B18802448A9
:1007900081542048008800F01000C8B14FF48072E6
:1007A0001F492048FFF7E2FC01201C4981F8110491
:1007B00019480088A1F812040020174908804FF456
:1007C00080711748FFF7EBFC1248008811488088B9
:1007D0001048008800F08000D0B10E48808900F0F9
:1007E0008000A8B1104801780078401C0E4A1070B3
:1007F0000E48405C07498880104600780C4909780B
:10080000884205D10348808920F080000149888111
:1008100000BFB2E7005000401A0000205000002046
:10082000660E0020640400200800002066090020F5
:100830000900002010B53148008800F02000B8B150
:100840002F480088FF2803DC2E484078012803D178
:100850002A48001D008810BD2848001D0088C1B22C
:10086000274802880088401C254B18802648815460
:100870002248008800F01000C8B14FF4807222496D
:100880002048001DFFF772FC01201E4948701C48DB
:100890000088488000201A4908804FF480711A4867
:1008A000FFF77DFC154800881448001D0088134898
:1008B000008800F08000F0B110480C30008800F093
:1008C0008000C0B1114801780078401C0F4A1070B8
:1008D0000F48405C0949091D0880104600780D4901
:1008E0000978884207D105480C30008820F0800044
:1008F00002490C31088000BFADE70000003801401C
:100900001000002050000020660A00200000002097
:10091000660500200100002010B586B0044633486B
:10092000806940F48040314988610846806940F020
:10093000040088614815ADF8140003208DF81600F6
:1009400018208DF8170005A92948FFF75EFC4FF421
:100950008060ADF8140004208DF8170005A9244824
:10096000FFF753FC25208DF8100002208DF81100B0
:100970008DF8120001208DF8130004A8FFF706FD82
:100980001C4800F06DF900940020ADF80400ADF8AB
:100990000600ADF80800ADF80C000C20ADF80A0018
:1009A0006946144800F0D0F9002240F2277111483E
:1009B00000F0A4F9012240F225510E4800F09EF902
:1009C000012240F224410B4800F098F90121094826
:1009D00000F03AF901200849087008A000F01EFB59
:1009E00016A000F01BFB06B010BD00000010024076
:1009F0000008014000380140500000200D0D0D3D61
:100A00003D3D3D3D3D3D3D3D3D3D20C4A7C5AEBFC7
:100A1000AAB7A2B0E52053544D33324631303320CB
:100A2000CDE2C9E8B3F5CABCB1A8B8E6203D3D3D6A
:100A30003D3D3D3D3D3D3D3D0D0000005553415286
:100A40005431B3F5CABCBBAFC5E4D6C320202020C7
:100A50002020BDD3CAD5D6D0B6CFA1A2BFD5CFD086
:100A6000D6D0B6CF2C20B7A2CBCDD6D0B6CF0D00E6
:100A700010B53248008800F02000C0B1304800882E
:100A8000FF2804DC2F4890F80501012803D12B48EA
:100A9000001D008810BD2948001D0088C1B22848EB
:100AA00002880088401C264B188027488154234820
:100AB000008800F01000D0B14FF480722249234822
:100AC000FFF754FB01201F4981F805011C480088ED
:100AD000A1F8060100201A4908804FF480711A48D5
:100AE000FFF75DFB154800881448001D0088134877
:100AF000008800F08000F0B110480C30008800F051
:100B00008000C0B1124801780078401C104A107073
:100B10001048405C0949091D0880104600780E49BC
:100B20000978884207D105480C30008820F0800001
:100B300002490C31088000BFACE7000000440040CF
:100B40001400002050000020660B002058010020F7
:100B500002000020660600200300002010B5324885
:100B6000008800F02000C0B130480088FF2804DC75
:100B70002F4890F80902012803D12B48001D008856
:100B800010BD2948001D0088C1B22848028800888D
:100B9000401C264B1880274881542348008800F0C9
:100BA0001000D0B14FF4807222492348FFF7DEFADB
:100BB00001201F4981F809021C480088A1F80A0297
:100BC00000201A4908804FF480711A48FFF7E7FAAD
:100BD000154800881448001D00881348008800F05C
:100BE0008000F0B110480C30008800F08000C0B1E7
:100BF000124801780078401C104A10701048405C80
:100C00000949091D0880104600780E490978884274
:100C100007D105480C30008820F0800002490C31D3
:100C2000088000BFACE7000000480040160000202C
:100C300050000020660C00205C0200200400002010
:100C4000660700200500002021B1828942F400528D
:100C5000828104E082894DF6FF731A4082817047D9
:100C600010B504462048844209D101218803FFF7CA
:100C7000F1FB00214FF48040FFF7ECFB32E01B4812
:100C8000844209D101214804FFF7C4FB00214FF43D
:100C90000030FFF7BFFB25E01548844209D1012150
:100CA0008804FFF7B7FB00214FF48020FFF7B2FB69
:100CB00018E01048844209D10121C804FFF7AAFBBB
:100CC00000214FF40020FFF7A5FB0BE00A48844207
:100CD00008D101210805FFF79DFB00214FF480108A
:100CE000FFF798FB10BD00000038014000440040B1
:100CF00000480040004C004000500040F0B5034662
:100D0000002400260025002040F66A17B94200D1D1
:100D100000BF1846C1F3421401F01F06012707FA6D
:100D200006F5012C01D10C3004E0022C01D1103069
:100D300000E014301AB107682F43076002E007682B
:100D4000AF430760F0BD00002DE9F04786B00546CF
:100D50000E460024A24600BFA1460027B08900B17C
:100D600000BF2F462C8A4CF6FF700440F0880443E5
:100D70002C82AC894EF6F3100440B08831890843C8
:100D8000718908430443AC81AC8A4FF6FF400440AC
:100D9000B0890443AC8201A8FFF76CFB1F4887426F
:100DA00002D1DDF810A001E0DDF80CA0A88900F464
:100DB000004040B10AEBCA0000EB0A10316849005C
:100DC000B0FBF1F807E00AEBCA0000EB0A1031684B
:100DD0008900B0FBF1F86420B8FBF0F004012009B1
:100DE000642101FB1089A88900F4004040B1322041
:100DF00000EBC900B0FBF1F000F00700044308E08D
:100E0000322000EB09106421B0FBF1F000F00F007C
:100E100004432C8106B0BDE8F08700000038014093
:100E200000BFFEE708B500201A490870012048708D
:100E30001948806940F480501749886101211020C9
:100E4000FFF7F8FA01210420FFF7F4FA4FF40050FD
:100E5000ADF8000010208DF8030003208DF802008B
:100E600069460E48FFF7D1F94FF400500B4908616D
:100E7000E020ADF8000018208DF80300694608480E
:100E8000FFF7C3F900F0F4FC00F0B4FB00F0A0FAA7
:100E900008BD0000660F0020001002400010014055
:100EA000000801402DE9F04104460E46174614485B
:100EB000007808B9BDE8F08100F0DAFC4FF000508E
:100EC00010490861032000F0ABFCC4F3074000F0B8
:100ED000A7FCC4F3072000F0A3FCE0B200F0A0FCE4
:100EE000002504E0FF2000F09BFC70556D1CBD4206
:100EF000F8D34FF400500349086100BFDAE700005F
:100F0000660F0020001001402DE9F0470746884693
:100F100014462748007808B9BDE8F0873819B0F5BD
:100F2000200F07D922484078012803D121A000F0E2
:100F300075F8F1E73E0BC7F30B09C9F58055DFF8EB
:100F4000A8A000F095FCAC4200DC25462BE0300365
:100F50004FF480525146FFF7A5FF304600F0A0FA4B
:100F6000002007E018F8001009EB00020AF8021050
:100F7000411C88B2A842F5DB30034FF48052514641
:100F800000F0B2FCA54200D10EE0A844761C4FF060
:100F90000009601B84B2B4F5805F02DD4FF480501D
:100FA00000E020460546D2E700BF00BFB4E70000DE
:100FB000660F0020D2AAD0B4C8EBB5C4CAFDBEDD0E
:100FC000D4DAD7D6BFE2CAFDBEDDB4E6B4A2C7F814
:100FD000C4DAA3ACD2D1CCF8B9FDB1BEB4CEB2D98B
:100FE000D7F721210D0000007E0F002010B54FF033
:100FF000005009490861052000F012FC00BFFF20E5
:1010000000F00EFC00F001000028F8D14FF4005071
:101010000149086110BD0000001001400FB4054BEC
:1010200010B503A9044A029800F02CF810BC5DF832
:1010300014FB0000F51400080C0000200FB4084B4E
:1010400010B504A902AA039800F01CF8044602A9EE
:10105000002000F0B8F9204610BC5DF814FB000039
:10106000C713000802E008C8121F08C1002AFAD1FD
:1010700070477047002001E001C1121F002AFBD118
:10108000704700002DE9FF4F8BB0884605460026CB
:1010900006E025280BD0DDE90D1290476D1C761C6B
:1010A00028780028F5D10FB03046BDE8F08F002435
:1010B000A146A2460122AE4900E0044315F8013FD3
:1010C000203B02FA03F00842F7D128782A2810D0F2
:1010D0006FF02F022878A0F13001092915D809EB0B
:1010E000890102EB410144F0020400EB01096D1C8F
:1010F000F0E758F8041B5FEA010903D544F40054F3
:10110000C9F1000944F002046D1C28782E2817D17B
:1011100015F8010F44F004042A280ED06FF02F02B6
:101120002878A0F1300109290AD80AEB8A0102EBDC
:10113000410100EB010A6D1CF2E758F804AB6D1C8D
:1011400028786C280FD006DC4C2817D068280DD0E2
:101150006A2814D104E0742810D07A280FD10DE049
:1011600044F400140AE044F4801401E044F4401410
:101170006978814202D104F580146D1C6D1C2878B9
:10118000692865D006DC00288DD0632827D0642824
:1011900006D15DE06E2808D073282AD0752877D054
:1011A000DDE90D129047761CE0E0C4F302500228FE
:1011B00009D003280DD0D8F8001004280DD00E60F7
:1011C00008F10408D2E0D8F80010F217C1E9006273
:1011D000F6E7D8F800100E80F2E70E70F0E718F886
:1011E000041B8DF8001000208DF80100EB46012053
:1011F00003E058F804BB4FF0FF3061074FF00007E1
:1012000001D40AE07F1C57450DDA8742FADB1BF850
:1012100007100029F6D106E07F1C8742FCDB1BF893
:1012200007100029F8D1DDE90D23A9EB070081465D
:10123000214600F0B1F83044C61904E0DDE90D1292
:101240001BF8010B90477F1EF8D22146484688E0E4
:1012500058F8040BC4F302514FF00A0B032900D1D4
:1012600000B2042900D140B2002802DA40422D2108
:1012700002E0210505D52B218DF82410012104E081
:1012800006E0E10710D02021F6E708AF089113E04F
:1012900058F8040BC4F302514FF00A0B032900D194
:1012A00080B2042900D1C0B20021EEE75946FEF712
:1012B00081FF303107F8011D0028F7D1ADEB0700A1
:1012C00000F1200B600702D524F4803401E04FF0D8
:1012D000010ADA4502DDAAEB0B0000E0002082469D
:1012E00000EB0B0108980144A9EB01000A90E00310
:1012F00006D4DDE90D2321460A9800F04DF8064496
:101300004FF0000908E009A911F80900DDE90D1204
:10131000904709F10109761C08998945F3DBE00340
:101320000CD5DDE90D2321460A9800F035F8064476
:1013300004E0DDE90D1230209047761CBAF100017F
:10134000AAF1010AF5DC05E0DDE90D1217F8010B41
:101350009047761CBBF10001ABF1010BF4DC0A985D
:101360002146DDE90D2300F005F806446D1C97E6E3
:10137000092801002DE9F041044600251E461746C4
:10138000880404D405E039462020B0476D1C641E53
:10139000F9D52846BDE8F0812DE9F0410446002545
:1013A0001E469046C80301D5302700E02027880458
:1013B00004D505E041463846B0476D1C641EF9D59A
:1013C0002846BDE8F0810A68531C0B601070704716
:1013D00038B51748007800B938BD16A0FFF71EFED3
:1013E00000240020009000250BE005F520000122DC
:1013F0006946FFF757FD9DF800002044C4B213482A
:10140000054413488542F0D3922C01D1012000E01D
:1014100000200749487008464078012803D10DA0F4
:10142000FFF7FCFD02E00EA0FFF7F8FD00BFD3E7D9
:10143000660F002047424BD7D6BFE220B2E2CAD4A3
:101440002E2E2E20202020202020000040420F00A1
:1014500000845D00D7D6BFE2BFC9D3C30D00000032
:1014600020B4EDCEF3A3ACD7D6BFE2B2BBBFC9D395
:10147000C3210D0001B50098C0EBC000009000E052
:1014800000BF0098401E00900028F9D108BD41F629
:1014900064114843002100E0491C8142FCD370479D
:1014A00010B504461148007800B910BD240300F0BF
:1014B0000BFAFFF79BFD4FF000500D49086120200B
:1014C00000F0AEF9C4F3074000F0AAF9C4F3072016
:1014D00000F0A6F9E0B200F0A3F94FF4005004497F
:1014E0000861FFF783FD00BFDFE70000660F002003
:1014F0000010014000BF054A128802F04002002A95
:10150000F9D0C2B2014B1B1D1A8070470038014050
:101510008EB04FF4A060FEF771FF4FF4E130FFF79B
:10152000FBF9FEF7FFFE1B48006940F40010194963
:1015300008611948006840F4802017490860FFF7E7
:1015400071FC16A0FFF76AFD18221AA108A8FEF781
:101550000DFE142208A94FF48070FFF7D5FC08A9EE
:101560001AA0FFF75BFD142269464FF48070FFF765
:1015700099FC08A91AA0FFF751FD09E04FF4FA7091
:10158000FFF785FF0348C06880F020000149C8606C
:10159000F4E7000000100140100C01400D0A573222
:1015A0003551313238B6C1D0B4CAB5D1E9A3BA0D7C
:1015B0000D000000546573742C20BDF1CCECCCEC14
:1015C000C6F8BADCBAC3A3A100000000D0B4C8EBCF
:1015D000B5C4CAFDBEDD3A2025730D0A0D0A000010
:1015E000B6C1C8A1B5C4CAFDBEDD3A2025730D0A37
:1015F0000D0A0000F8B500254FF00050524908616F
:10160000902000F00DF9002000F00AF9002000F011
:1016100007F9002000F004F9FF2000F001F90502AD
:10162000FF2000F0FDF805434FF4005046490861E3
:10163000012046490870A5F56F401438052827D2C7
:10164000DFE800F0030A11181F0041A242A13F4841
:10165000801CFFF7F3FC29E040A23FA13B48801C1F
:10166000FFF7ECFC22E03FA23BA13848801CFFF7CB
:10167000E5FC1BE03DA238A13448801CFFF7DEFCEE
:1016800014E03CA234A13148801CFFF7D7FC0DE0E8
:101690003AA231A12D48801CFFF7D0FC00202B4935
:1016A000087029463AA0FFF7B9FC00BF00BF2748E1
:1016B0000078012840D10026002000900027002457
:1016C000042269463046FFF7EDFB9DF801009DF8C6
:1016D000001040EA01279DF803009DF8021040EA3F
:1016E0000124B7F56E4F07D0012400208DF80200C9
:1016F00001208DF803000CE0601C84B220128DF8EC
:101700000200E0B28DF8030000208DF802008DF891
:101710000300EE208DF8000000208DF80100042267
:1017200069463046FFF7F0FB0848C4822246811C18
:101730001EA0FFF773FC05E027A0FFF76FFC33A0A6
:10174000FFF76CFCF8BD000000100140660F0020A0
:10175000573235513136000025730000573235516C
:10176000333200005732355136340000573235518C
:10177000313238005732355132353600466C61739C
:1017800068C9E8B1B8CAA7B0DC2021212100000057
:10179000B6C1C8A1B5BDB5C4B4EDCEF3D0CDBAC500
:1017A000CAFDBEDDA3BA25640D0A0000466C617354
:1017B00068B4E6B4A220BCECB2E22E2E2E2020208B
:1017C0002020D0CDBAC53A2573202CB5DA2564B4D3
:1017D000CECAB9D3C30D0000CAFDBEDDB4E6B4A2C3
:1017E000BCECB2E2A3BA2020202020202020D0CDC3
:1017F000BAC5B6C1C8A1B4EDCEF3A3ACC9E8B1B8BF
:10180000B2BBBFC9D3C3210D00000000B3A2CAD42C
:10181000B8B4CEBBD0BEC6AC2E2E2E2E2E2E0D00B2
:101820000246002106E0481C81B2B1F57A7F01DD55
:10183000002070470D48008900F002000028F2D017
:101840000A488281002106E0481C81B2B1F57A7F06
:1018500001DD0020EDE70548008900F001000028C7
:10186000F2D002488089C0B2E3E7000000300140B6
:1018700010B50120134908800846008840F0020096
:1018800008800846008840F0040008800846008868
:1018900008800846008808800846008840F40070E8
:1018A00008800846008840F4807008800846008858
:1018B00008800846008840F0400008801420FFF7A8
:1018C000D9FD10BD0030014010B54FF00050054962
:1018D00008610620FFF7A4FF4FF40050014908619A
:1018E00010BD0000001001402DE9F04704460E46EF
:1018F00091461D48007808B9BDE8F0874FF480751F
:101900004FF000082AE0FFF7DFFFFFF76FFB4FF013
:101910000050164908610220FFF782FFC4F3074018
:10192000FFF77EFFC4F30720FFF77AFFE0B2FFF76F
:1019300077FF002704E0F05DFFF772FF781C87B2A5
:10194000AF42F8DB4FF4005008490861FFF74EFB47
:101950002E442C4408F1010000F0FF08B8F1100FEC
:10196000D1DB00BFC8E70000660F00200010014077
:1019700090190008000000205000000064100008CA
:10198000E019000850000020302300007410000807
:101990000000000000000000000000000000000047
:1019A0000000000000000000000000000000000037
:1019B0000000000000000000000000000000000027
:1019C0000000000000000000000000000000010214
:1019D00003040102030406070809020406080000C4
:0400000508000131BD
:00000001FF
