:020000040800F2
:10000000C83900204501000815130008B91100087F
:100010001113000853070008ED2C00080000000031
:100020000000000000000000000000005D18000853
:10003000910E0008000000004D1500087520000812
:100040005F0100085F0100085F0100085F01000810
:100050005F0100085F0100085F0100085F01000800
:100060005F0100085F0100085F0100085F010008F0
:100070005F0100085F0100085F0100085F010008E0
:100080005F0100085F0100085F0100085F010008D0
:10009000C92B00085F0100085F0100085F0100082C
:1000A0005F0100085F0100085F0100085F010008B0
:1000B0005F0100085F0100085F0100085F010008A0
:1000C0005F0100085F0100085F0100085F01000890
:1000D0005F010008492300088525000869260008FB
:1000E0005F0100085F010008392900085F0100086E
:1000F0005F0100085F0100085F0100085F01000860
:100100005F0100085F0100085F0100085F0100084F
:1001100095210008792200085F0100085F010008AE
:100120005F0100085F0100085F0100085F0100082F
:10013000DFF80CD000F042FA004800470939000807
:10014000C83900200648804706480047FEE7FEE71A
:10015000FEE7FEE7FEE7FEE7FEE7FEE7FEE7FEE777
:100160008D2000083101000840EA01039B0703D0FD
:1001700009E008C9121F08C0042AFAD203E011F8E6
:10018000013B00F8013B521EF9D27047D2B201E0A8
:1001900000F8012B491EFBD270470022F6E710B58C
:1001A00013460A4604461946FFF7F0FF204610BDE5
:1001B000421C10F8011B0029FBD1801A704730B592
:1001C0000B46014600202022012409E021FA02F515
:1001D0009D4205D303FA02F5491B04FA02F52844AF
:1001E000151EA2F10102F1DC30BD2DE9F05F0546DC
:1001F000002092469B4688460646814640241BE0E6
:10020000284641464746224600F0F9F953465A46E9
:10021000C01A914110D311461846224600F0E0F969
:100220002D1A67EB01084F4622460120002100F0FD
:10023000D7F917EB00094E41201EA4F10104DFDCC1
:10024000484631462A464346BDE8F09F2DE9FE4F19
:10025000804681EA0300C00F0C46009021F0004167
:1002600023F00045B8EB0200A94105D240462146E3
:1002700090461C460B46024623F00040104347D0F0
:10028000270DC7F30A00C3F30A510290401A0190E8
:1002900040286BDAC3F3130040F4801B00989246A9
:1002A00020B10023D2EB030A63EB0B0B01985946F4
:1002B000C0F14002504600F093F906460D46504604
:1002C0005946019A00F0ABF910EB08006141002497
:1002D00087EA115284EAE7731A4340D0009A62B366
:1002E000019A012A4FEA075215DC001B61EB02015B
:1002F0004FF0004202EA0752CDE90042001C41F5EE
:10030000801132462B4600F0ABF903B0BDE8F08F08
:1003100040462146F9E7001B61EB0201001C41F554
:10032000801300185B412018A2F5001747EB03016A
:1003300040EAD570B6196D4111E06D084FEA3606F6
:1003400045EAC0754FEA0752001B61EB0201001C31
:1003500041F5801149084FEA3000001951413246F9
:100360002B4603B0BDE8F04F00F06BB900980122B6
:1003700040000023D0EB020263EBE07300982146BB
:100380004FEAE074B8EB000061EB0401E9E783F0A9
:1003900000435BE781F0004158E72DE9FE4F81EA19
:1003A000030404F0004421F0004100944FF0000BDE
:1003B00023F0004350EA01045ED052EA03045BD00C
:1003C000C3F30A54C1F30A552C44A4F2F334019444
:1003D000A0FB0254C1F3130141F48011C3F31303D2
:1003E00043F4801301FB024400FB034E840A970A86
:1003F00044EA815447EA8357A4FB076802958D0AB3
:1004000005FB07854FEA932C04FB0C542705029D3E
:100410004FEA065847EA1637B5EB08056EEB070CAE
:10042000870E920E47EA811742EA8312A7FB020168
:10043000B6EB0B0164EB00042B0D43EA0C335E18A2
:1004400044EB1C50DA465146E7FB0201C5F31304A6
:100450004FEA0B3343EA14534FEA0432019C43EA58
:100460000603A4F10C040294009CCDE900B400F052
:10047000F7F803B0BDE8F08F00200146F9E72DE959
:10048000F04D81EA030404F0004B21F000451446CE
:100490004FF0000A23F0004150EA050220D054EA50
:1004A00001021DD0C5F30A570246C5F31303C1F379
:1004B0001300C1F30A5640F4801543F48013A7EBF0
:1004C0000608101BD64608F2FD3873EB050002D370
:1004D00008F1010801E092185B41B8F1000F03DA5E
:1004E00000200146BDE8F08D00204FF48011064643
:1004F00084460EE0171B73EB050705D3121B63EB55
:10050000050306434CEA010C49084FEA30009218F3
:100510005B4150EA0107EDD152EA030012D082EAB2
:10052000040083EA0501084305D0101BAB4106D245
:100530000122002306E000224FF0004302E06FF0AA
:10054000010253101AEB06004CEB085110EB0A00A5
:1005500041EB0B01BDE8F04D00F073B8C1F30A5256
:10056000C1F3130140F2FF3341F480119A4202DAE1
:1005700000200146704740F233439A42A2F23342D0
:1005800002DC524200F03BB800F02AB830B5041E3D
:1005900071F1000404DB4FF00044404264EB0101C0
:1005A000141E73F1000405DB1C464FF00043524259
:1005B00063EB0403994208BF904230BD064C074DDF
:1005C00006E0E06840F0010394E807009847103423
:1005D000AC42F6D3FFF7B0FDF03A0008103B00083C
:1005E000202A04DB203A00FA02F1002070479140F3
:1005F000C2F1200320FA03F3194390407047202AE8
:1006000004DB203A21FA02F00021704721FA02F3BC
:10061000D040C2F120029140084319467047202A79
:1006200006DBCB17203A41FA02F043EAE07306E01A
:1006300041FA02F3D040C2F120029140084319462A
:10064000704710B5141E73F1000408DA401C41F124
:10065000000192185B411A4301D120F0010010BD46
:100660002DE9F04D92469B4611B1B1FA81F202E0BC
:10067000B0FA80F220329046FFF7B2FF04460F46F0
:1006800040EA0A0041EA0B0153465A46084313D098
:10069000114653EA010019D0C8F140025046FFF755
:1006A000AEFF05460E46504659464246FFF798FFB4
:1006B000084305D0012004E020463946BDE8F08D0E
:1006C0000020054346EAE0762C4337430A98630549
:1006D000E40AA0EB08000022FD0A44EA47540A306D
:1006E00002D500200146E9E7010510196941DDE95D
:1006F000084500196941BDE8F04DA2E770B58C18B6
:1007000010F8015B15F0070301D110F8013B2A1125
:1007100006D110F8012B03E010F8016B01F8016B12
:100720005B1EF9D12B0705D40023521E0DD401F80E
:10073000013BFAE710F8013BCB1A921C03E013F8D7
:10074000015B01F8015B521EF9D5A142D8D300200C
:1007500070BD00BFFEE70146CAB20B1243EA022099
:100760007047000008B50020009022E197480088FB
:1007700000F00F00964908700846007800287CD1E8
:1007800094480068944908800846008800F03000CA
:10079000924908809048008800F440508E490880B3
:1007A0008C4909684BF6BF7201EA020080F40050E0
:1007B00080F0200040F4004141F08001854A116042
:1007C0008248008800F0100090BB1046006848F690
:1007D0000F7108401146086000F0F0FC7D4909687F
:1007E0004BF6BF7201EA02007B49098801F480518F
:1007F00009B180F480507849098801F4005109B1A9
:1008000080F400507549098801F0100109B180F0A9
:1008100010007249098801F0200109B180F0200020
:1008200081B241F4004141F080016A4A116008BD83
:10083000FFE76848006880B20090BDF8000000F44F
:100840000060B0B363480068C0F30E0048F68F71D3
:1008500008406049086001F019F95E4909684BF6E3
:10086000BF7201EA02005C49098801F4805109B1B4
:1008700080F480505849098800E056E001F40051A6
:1008800009B180F400505549098801F0100109B1FF
:1008900080F010005149098801F0200109B180F071
:1008A000200081B241F4004141F08001494A1160C9
:1008B000BDE7FFE7BDF8000000F40040002878D055
:1008C00044480068C0F30E0048F68F710840414963
:1008D000086000F0FFFD3F4909684BF6BF7201EA6E
:1008E00002003D49098801F4805109B180F480502B
:1008F0003949098801F4005109B180F400503749A1
:10090000098801F0100109B180F01000334909880D
:1009100001F0200109B180F0200081B241F40041D2
:1009200041F080012B4A116081E7294800782C4969
:1009300001EB8000D0F8000C80B20090BDF8000000
:1009400000F40040C0B12248007801EB8000D0F8EC
:10095000000CC0F30E0048F68F7108401C4909785E
:100960001F4A02EB8101C1F8000C19490978491EA0
:100970001C4A52F821008047BDF8000000F08000BA
:10098000B8B113480078164901EB8000D0F8000C8C
:1009900048F60F7108400E490978114A02EB8101AF
:1009A000C1F8000C0A490978491E0F4A52F8210083
:1009B000804708484430006880B20449088000F449
:1009C000004000287FF4D2AE00BF30E76C0000206A
:1009D00054010020005C0040680100206A010020F2
:1009E0000050004094000020780000200B4A02EBE9
:1009F0008001D1F8001C01F4804171B102EB80014B
:100A0000D1F8001C48F68F7211404CF2800211435D
:100A1000024B03EB8002C2F8001C704700500040FC
:100A20000B4A02EB8001D1F8001C01F0400171B1CA
:100A300002EB8001D1F8001C48F68F72114048F299
:100A4000C0021143024B03EB8002C2F8001C704746
:100A500000500040084A02EB8001D1F8001C48F623
:100A60008F62114048F280021143034B03EB800276
:100A7000C2F8001C70470000005000402DE9F0470C
:100A80002848006800F110052E8826480068077A7B
:100A9000D6B9042F18D12448007801280FD100219D
:100AA0002248006880B2801C214A42F81010302091
:100AB0002049088000BF00201B49087003E0072779
:100AC00010201C49088027E0AC88A64201D80420E9
:100AD00000E002200746B44200D93446A0B2A9681B
:100AE00088478046002000F03DFB8146A2B249467F
:100AF000404602F0FDF8A1B2002000F063FF288814
:100B0000001B2880688820446880302009490880BC
:100B100000020949088000BF024909680F72BDE858
:100B2000F08700005801002052010020505C004076
:100B3000006000406A010020680100202DE9F041BA
:100B40002848006800F110042688A068C0B1BEB132
:100B5000A588B54200D93546A8B2A168884707469E
:100B60002088401B2080608828446080002000F09E
:100B7000D7FA8046AAB24146384600F0D3FC00BFFF
:100B8000208850B14FF44050174908800021084692
:100B900000F018FF3020154908802088A18888427D
:100BA00004DB03200F490968087218E02088002838
:100BB00004DD05200B490968087210E0208870B92F
:100BC000062008490968087200210948006880B2B7
:100BD000801C084A42F81010302004490880BDE803
:100BE000F081000058010020680100206A01002007
:100BF000505C0040006000402DE9F84F9B480068C1
:100C000045780027BA46062D1BD198480068007821
:100C100000F07F00002813D19449096888780128E2
:100C200003D193490968CF690AE0022803D19049AA
:100C300009680F6A04E0032802D18D4909684F6AE8
:100C400094E0002D64D189480068408800285FD175
:100C500086480068C08802285AD184480068007914
:100C6000002855D181480068007800F07F0028B93D
:100C70007E480068808808B97E4F77E07B4800682E
:100C8000007800F07F00012810D178490968487980
:100C9000774909688A6900219047002866D173481E
:100CA0000068807A002861D0724F5FE06F4800686A
:100CB000007800F07F00022858D16C480068407925
:100CC00000F00F0669480068407900F07009674835
:100CD0000068407900F0800038B1674901EB860078
:100CE000D0F8000C00F0300806E0634901EB860004
:100CF000D0F8000C00F4405860480078B04235D974
:100D0000B9F1000F32D1B8F1000F2FD0594F2DE0BB
:100D1000082D07D155480068007800F07F0028BBF7
:100D2000574F23E00A2D21D150480068007800F089
:100D30007F0001281AD14D480068807AB0B14B4835
:100D40000068408890B949480068007970B9474800
:100D50000068C088012809D1444909684879444994
:100D600009688A690021904700B9464F57B13F484A
:100D70000068A0F812A03D48006887610020B847CD
:100D800000240FE0394A12685078394A1268116914
:100D900088470446032C05D10920344909680872A4
:100DA000BDE8F88F31480068008A4FF6FF7188422D
:100DB00004D109202D4909680872F1E7022C03D0FB
:100DC0002A480068008A20B9082028490968087262
:100DD000E6E726480068007800F08000E0B323488A
:100DE0000068C088009021480068008A0099884205
:100DF00004D91E4900980968088223E01B4800684E
:100E0000008A1A490968C98888421BDA17480068AD
:100E1000008A1749096891F82C10884203DA0020EB
:100E2000194908700EE011480068008A10490968E5
:100E300091F82C1090FBF1F201FB120010B9012087
:100E4000114908700A48006890F82C10074800689B
:100E50008182FFF713FE07E0FFE7032003490968DB
:100E6000087200030949088000BF99E75801002073
:100E70005C0100202D1D000800500040BC00002037
:100E8000B11C0008011D000852010020680100206B
:100E90007047000070B52248B0F804042049B1F84A
:100EA0000214884200D170BD1D48B0F804041C49EA
:100EB000B1F80214884208DA1948B0F80204184957
:100EC000B1F80414401A84B205E01548B0F80404DF
:100ED000C0F5806084B2402C00DD40241048B0F89A
:100EE0000454B0F8040420440D49A1F80404084651
:100EF000B0F80404B0F5806F02DB0020A1F8040410
:100F00000749491C48192246C02101F0F1FE21463B
:100F1000012000F057FD012000F082FD00BFC2E774
:100F2000822F002010B54FF480710A48FFF735F981
:100F30000849032001F088FE0749A1F806040320B0
:100F400000F016FD00210448B0F806240148815441
:100F500010BD00008A330020822F00200149086064
:100F60007047000014040140002123498279002ABF
:100F70003AD00A46126803689A430B461A600A1D63
:100F8000126803689A430B1D1A60027911440A68BB
:100F900003681A430A60184A0832126803689A43C1
:100FA000154B08331A601A1D126803689A43124BD6
:100FB0000C331A604279102A0ED11A1F1268036886
:100FC0001A430D4B08331A601A1D126803681A433E
:100FD000094B0C331A600DE00749427911440A6845
:100FE00003681A430A6005E0027911440A6803683D
:100FF0009A430A6070470000000401400320014941
:1010000008607047440100202DE9F04102460025A8
:101010000026002000230024002791F803C00CF0D4
:101020000F0591F803C00CF0100CBCF1000F03D0B9
:1010300091F802C04CEA050591F800C0BCF1000F20
:1010400031D0146800202BE04FF0010C0CFA00F3B3
:10105000B1F800C00CEA03069E4220D183004FF095
:101060000F0C0CFA03F7BC4305FA03FC4CEA04042A
:1010700091F803C0BCF1280F06D14FF0010C0CFA17
:1010800000FCC2F814C00AE091F803C0BCF1480F9C
:1010900005D14FF0010C0CFA00FCC2F810C0401C46
:1010A0000828D1D31460B1F800C0BCF1FF0F34DDC3
:1010B000546800202EE000F1080C4FF0010808FAF7
:1010C0000CF3B1F800C00CEA03069E4221D1830064
:1010D0004FF00F0C0CFA03F7BC4305FA03FC4CEA83
:1010E000040491F803C0BCF1280F05D100F1080CED
:1010F00008FA0CF8C2F8148091F803C0BCF1480F4C
:1011000007D100F1080C4FF0010808FA0CF8C2F8FA
:101110001080401C0828CED35460BDE8F081000048
:1011200001460548006880B200EBC100001D034A7B
:1011300032F8100080B27047505C00400060004000
:1011400001460648006880B200EBC100801D044AD9
:1011500032F81000C0F3090070470000505C0040F6
:101160000060004001460548006880B200EBC10005
:10117000034A32F8100080B270470000505C004013
:101180000060004070B50A480468001D0568001D35
:101190000668344454B108220649204600F046F857
:1011A000042204491031284600F040F870BD0000C8
:1011B000E8F7FF1F5000002000BFFEE710B51848F9
:1011C0000068047A022C01D0042C05D1FFF756FCEC
:1011D00013480068047A1CE0062C19D110480068F6
:1011E000407805280ED10E480068007800F07F0096
:1011F00040B90B490968C87800F03AFB0949096809
:10120000086A80470849096888688047082400E020
:101210000824034909680C7200F09AF910BD000017
:1012200058010020640100205C01002030B50B460D
:10123000002100BF16E00A24B4EB107F05D930244A
:1012400004EB107403F8114005E0412404EB107422
:101250000A3C03F81140000100254C00641C1D5598
:101260004C1CE1B29142E6DB30BD00000548817ABA
:1012700019B10521044A116002E00121024A1160FE
:1012800070470000AC3500204401002008B5012162
:10129000102000F0C1F90121082000F0BDF9202044
:1012A000ADF8000010208DF8030003208DF8020037
:1012B00069460D48FFF7A8FE0420ADF80000102095
:1012C0008DF8030003208DF8020069460748FFF7F8
:1012D0009BFE202004490861042004491031086065
:1012E00003A001F061FE08BD00100140000C0140A8
:1012F0004C454420D6B8CABEB5C6202020202020A8
:10130000202020202020C5E4D6C3CDEAB3C90D009B
:1013100000BFFEE77047704770B5002100230F2221
:10132000C47804B3154C246804F4E064C4F5E064A4
:10133000210AC1F10403CA40447804FA03F1847815
:101340001440214309010E4C0678A155047804F09D
:101350001F050124AC4005786D11AD0005F1E025B5
:10136000C5F8004109E0047804F01F050124AC40F1
:10137000044D0678761145F8264070BD0CED00E06E
:1013800000E400E080E100E002490143024A11600C
:10139000704700000000FA050CED00E070B5022671
:1013A00047480068447846480068007800F07F00AD
:1013B000002844D1092C03D100F038FD06465FE037
:1013C000052C14D13E480068C0787F280BDC3C48CF
:1013D0000068807838B93A480068808818B9384879
:1013E0000068807A08B1082565E0002648E0032CF3
:1013F0000ED133480068C078012807D13048006812
:10140000808818B900F036FD064639E0022637E03C
:10141000012C35D12A480068C07801280DD1284810
:101420000068808848B926480068407A00F02000AB
:1014300018B100F087FB064622E0022620E0204893
:101440000068007800F07F00012805D10B2C17D12F
:1014500000F08CFD064613E019480068007800F0A3
:101460007F0002280BD1012C03D100F06BFB064654
:1014700006E0032C04D100F011FD064600E0022630
:101480004EB1E0B20F4A1268516988470646032EF2
:1014900001D109250FE00EB108250CE00625002139
:1014A0000948006880B2801C084A42F810103020B9
:1014B0000749088000BF024909680D7270BD00002D
:1014C000580100205C010020505C0040006000409A
:1014D0006A01002010B511480068047A022C01D07E
:1014E000042C01D1082412E0032C01D0052C05D1D5
:1014F000FFF724FB09480068047A08E0072C05D1AF
:1015000007490968C8688047082400E0082403499F
:1015100009680C7200F01CF810BD00005801002092
:101520005C010020F0B5561C7510074E06EB410417
:101530002B4605E034F8047B20F8017B401C5B1E41
:10154000002BF7D1F0BD00000060004070470000A4
:1015500010B50D4890F82C10002000F0C3F90B488E
:101560000068007A082805D1400209490880102047
:101570000849088005480068007A092801D101203F
:1015800010BD0020FCE70000C00000205801002032
:10159000680100206A01002010B5012001F0D2F995
:1015A00001240B48046000200A490880084600888E
:1015B000074908600020091D08604FF4E050054904
:1015C00008800846008802490860002010BD00001D
:1015D000405C00406201002029B1064AD269024302
:1015E000044BDA6104E0034AD2698243014BDA61B9
:1015F000704700000010024029B1064A12690243F8
:10160000044B1A6104E0034A12698243014B1A61D8
:10161000704700000010024029B1064A9269024357
:10162000044B9A6104E0034A92698243014B9A6138
:10163000704700000010024029B1064AD2680243F8
:10164000044BDA6004E0034AD2688243014BDA605B
:10165000704700000010024030B500210022002435
:1016600000232D4D6D6805F00C0121B1042905D032
:10167000082923D105E0294D056022E0274D0560AA
:101680001FE0254D6D6805F47012234D6D6805F45B
:101690008034022505EB92421CB9214D554305606B
:1016A0000BE01D4D6D6805F400351DB11C4D554313
:1016B000056002E0194D5543056002E0174D0560D5
:1016C00000BF00BF144D6D6805F0F0010909154D0C
:1016D0006B5C0568DD4045600F4D6D6805F4E061A9
:1016E000090A104D6B5C4568DD4085600A4D6D68E8
:1016F00005F46051C90A0B4D6B5C4568DD40C5605F
:10170000054D6D6805F44041890B074D6B5CC5685C
:10171000B5FBF3F5056130BD0010024000127A0000
:1017200000093D003A0000204A00002001490860FD
:1017300070470000D800424270B50546072D01D021
:101740002E4805702D48007808284ED2DFE800F0BA
:1017500004111A202B384E4F2948006828B900F090
:1017600053F806202549087002E005202349087037
:1017700041E000F049F80420204908700120204988
:10178000086038E002201D4948700320087032E0EC
:101790001A484078401E194948700846407808B9F0
:1017A0000420087027E01748006884B244F0100451
:1017B000144804600520114908700A2048701AE096
:1017C0000E484078401E0D4948700846407858B988
:1017D0000C48006884B224F010040A480460062013
:1017E000087000200649086005E000BF00BF062021
:1017F0000249087000BF00BF70BD00004901002011
:101800004C010020405C004010B50748006884B2DD
:1018100024F0040404480460FFF728FD4FF43F401F
:101820000149086010BD0000405C004010B5094847
:10183000006805280CD1084801680068401C064A69
:101840001060052904D1002011460860FFF722FB33
:1018500010BD000044010020680000207047000017
:101860004FF6F8710140014A11607047505C00402A
:1018700030B501460F4B1A78002014E003060E4CD9
:1018800004EB9353D3F8003C48F68F74234048F29E
:1018900080042343C4B223430406074D05EB94544C
:1018A000C4F8003C401C9042E8D341F08003034C54
:1018B000236030BDBC000020005000404C5C004064
:1018C00010B54A105300054A126892B202EBC002EA
:1018D000121D034C44F8123010BD0000505C004053
:1018E0000060004010B502460F48006880B200EB6F
:1018F000C200801D0D4C04EB40033E290BDD481156
:1019000001F01F040CB9441EA0B24FF4004444EA95
:1019100080241C6007E0481001F001040CB1441C55
:10192000A0B284021C6010BD505C0040006000400A
:1019300030B50E4C04EB8003D3F8003C4BF68F74AB
:1019400003EA040201F480530BB182F4805201F4E3
:1019500000530BB182F4005242F4004343F0800381
:10196000024D05EB8004C4F8003C30BD005000403F
:1019700010B50B4B03EB8002D2F8002C4BF68F73A3
:1019800002EA030181F4805181F4005141F40042E4
:1019900042F08002024C04EB8003C3F8002C10BD1F
:1019A0000050004010B54A105200044B1B689BB217
:1019B00003EBC003024C44F8132010BD505C004000
:1019C00000600040044A126892B202EBC002921C0E
:1019D000024B43F812107047505C0040006000401A
:1019E00030B50E4C04EB8003D3F8003C48F6BF74CE
:1019F00003EA040201F010030BB182F0100201F0BF
:101A000020030BB182F0200242F4004343F0800334
:101A1000024D05EB8004C4F8003C30BD005000408E
:101A200010B50B4B03EB8002D2F8002C48F6BF73C5
:101A300002EA030181F0100181F0200141F400422B
:101A400042F08002024C04EB8003C3F8002C10BD6E
:101A50000050004010B5074B03EB8002D2F8002C79
:101A600048F68F131A400A43024C04EB8003C3F874
:101A7000002C10BD0050004010B50020FFF756FEAE
:101A80000121C805FFF7A8FD10BD000038B50124ED
:101A90002948006880B2001D284931F8100080B242
:101AA00001EB4000009026480068007A092832D0F7
:101AB000009800782249096808700098401C00903E
:101AC000009800781E49096848700098401C0090F2
:101AD000009800EB44000090009931F8020B00914F
:101AE000FEF739FE164909684880009800EB44006B
:101AF0000090009931F8020B0091FEF72CFE10497E
:101B000009688880009800EB4400009000980088E5
:101B10000B490968C880012009490968087208480A
:101B20000068C08810B9FFF739FC01E0FFF764F8DE
:101B3000FFF70EFD38BD0000505C00400060004023
:101B4000580100202DE9F04754480068007800F063
:101B50007F08B8F1000F0AD150480068407A00F0C1
:101B6000DF004E49096848720020BDE8F087B8F1EF
:101B7000020F7CD149480068408818B9474800687E
:101B8000007908B10220F0E7DFF8149143480068BB
:101B9000477927F080052C4640480068407900F0DE
:101BA000800038B13F4901EB8400D0F8000C00F010
:101BB000300606E03B4901EB8400D0F8000C00F44D
:101BC000405699F80000A84204D91EB13348006875
:101BD000807A08B90220C8E707F0800080B1314957
:101BE00001EB8400D0F8000C00F0300010284BD13D
:101BF000E0B2FEF715FFE0B23021FFF7F1FE43E05F
:101C0000284901EB8400D0F8000C00F44050B0F5F6
:101C1000805F39D1E4B9244A92F82C10E0B2FFF782
:101C200061FE204A02EB8401D1F8001C4BF68F7252
:101C300001EA020080F4805080F4005040F400413A
:101C400041F08001174B03EB8402C2F8001C1BE03B
:101C5000E0B2FEF7CBFE134A02EB8401D1F8001C80
:101C60004BF68F7201EA020080F4805000E011E030
:101C700080F4005040F4004141F08001094B03EB37
:101C80008402C2F8001C00BF0849096848698047FF
:101C900000206AE700BF022067E70000580100202B
:101CA000BC00002000500040C00000206401002063
:101CB00010B504462CB901200649096808820020A5
:101CC00010BD0549096808688047024800680A3065
:101CD000F6E70000580100206401002010B502461C
:101CE00006480068438A32B98888C01A034C2468C1
:101CF0002082002010BD08681844FBE7580100202E
:101D000010B504462CB90120064909680882002054
:101D100010BD0549096888688047024800680C3092
:101D2000F6E70000580100206401002010B50446C9
:101D30002CB90220394909680882002010BD002012
:101D40003749088035480068007800F07F0018BBEC
:101D500032490968487A00F0200131B130490978E8
:101D600041F002012E4A117005E02D49097801F079
:101D7000FD012B4A117000F0400131B1284909786A
:101D800041F00101264A117005E02549097801F06A
:101D9000FE01234A11703AE020480068007800F004
:101DA0007F00012801D11E48C8E71C480068007860
:101DB00000F07F00022828D1184A1268517901F0FA
:101DC0000F0001F080027AB1164B03EB8002D2F8CB
:101DD000002C02F03002102A16D1114A127842F07B
:101DE00001020F4B1A700FE00E4B03EB8002D2F88A
:101DF000002C02F44052B2F5805F05D1084A1278F7
:101E000042F00102064B1A7001E0002096E70649F5
:101E1000096808698047024890E7000058010020DF
:101E200050010020005000406401002010B50E4811
:101E30000068C0780D494978884213DC0A48006878
:101E4000807878B908480068808858B906480068E2
:101E5000C07805490968887205490968486880475B
:101E6000002010BD0220FCE758010020BC0000202B
:101E70006401002010B507480068407A40F0200057
:101E800004490968487204490968C8698047002004
:101E900010BD000058010020640100202DE9F04130
:101EA0002E480068467926F080073C462B4800689B
:101EB000407900F0800038B1294901EB8400D0F866
:101EC000000C00F0300506E0254901EB8400D0F855
:101ED000000C00F4405523480078A04208D91F4860
:101EE0000068408820B91DB11C480068807A10B98C
:101EF0000220BDE8F08106F08000A0B1184A02EB94
:101F00008401D1F8001C48F6BF7201EA020080F09B
:101F1000100040F4004141F08001114B03EB8402BA
:101F2000C2F8001C14E00E4A02EB8401D1F8001C38
:101F30004BF68F7201EA020080F4805040F40041B9
:101F400041F08001064B03EB8402C2F8001C00BF85
:101F500005490968886980470020CAE758010020C0
:101F600000500040BC0000206401002010B5174B59
:101F70001B68D978154B1B685879154B1B689A69F3
:101F80009047044611480068807AE8B13CB90F4890
:101F90000068007918B90D480068807808B10220FF
:101FA00010BD8CB90B490968C868804707480068AC
:101FB000407906490968C87204480068C078034936
:101FC000096808730020EBE70220E9E758010020C8
:101FD0005C0100206401002038B50025002000903D
:101FE0002148006884B200BF09E0204901EB850068
:101FF000D0F8000C80B21E4941F825006D1C082D58
:10200000F3D344F480641848046044F0010404608D
:1020100024F00104046000BF1348001D006800F4B0
:1020200080600028F8D04FF6FF300F49091D086086
:10203000002509E00E4850F8250080B20B4A02EB5B
:102040008501C1F8000C6D1C082DF3D344F0080481
:1020500005480460006884B244F004040248046047
:10206000FEF7CCFF38BD0000405C0040005000404F
:102070008C3500200448D0E900305A1C40F10000A3
:102080000149C1E900207047200000200CB53D48FF
:10209000006840F001003B490860084640683A4942
:1020A0000840384948600846406820F4FE0048600F
:1020B0004FF41F00886000200190009008460068DF
:1020C00040F48030086000BF2E48006800F4003003
:1020D00000900198401C0190009818B90198B0F543
:1020E000A06FF1D12748006800F40030002843D0E9
:1020F0002648006840F0100024490860084600683F
:1021000020F0030008600846006840F00200086004
:102110001C4840681B4948600846406848600846BB
:10212000406840F4806048600846406820F47C10B5
:1021300048600846406840F4E81048600846006877
:1021400040F08070086000BF0E48006800F000702A
:102150000028F9D00B48406820F003000949486086
:102160000846406840F00200486000BF05484068EB
:1021700000F00C000828F9D14FF000600449086015
:102180000CBD0000001002400000FFF800200240DB
:1021900008ED00E010B53048008800F02000A0B144
:1021A0002E480088B0F5806F03DB2B48001D0088A7
:1021B00010BD2948001D0088C1B228480288008847
:1021C000401C264B1880264881542348008800F084
:1021D0001000D8B100202349A1F80E0C4FF4806202
:1021E0001F492148FDF7C0FF1C4800881D49A1F880
:1021F0000E0C0020194908804FF480611848FDF743
:10220000CCFF154800881448001D0088124800883B
:1022100000F08000F0B110480C30008800F0800021
:10222000C0B1124801780078401C104A1070104864
:10223000405C0949091D0880104600780D4909785D
:10224000884207D104480C30008820F08000024901
:102250000C31088000BFABE7004C004018000020A4
:10226000822700206C0100207C0D00200600002049
:10227000821800200700002010B52C48008800F0CC
:10228000200090B12A480088B0F5806F02DB274813
:10229000808810BD25488088C1B225480288008802
:1022A000401C234B1880234881542048008800F0AC
:1022B0001000C0B10021204841824FF480621D49C6
:1022C0001430FDF751FF1A4801881B484182002055
:1022D000174908804FF480611648FDF75EFF1348E8
:1022E0000088124880881148008800F08000D0B132
:1022F0000E48808900F08000A8B11048017800786D
:10230000401C0E4A10700E48405C084988801046F8
:1023100000780C490978884205D10448808920F06A
:1023200080000249888100BFB3E7000000500040F0
:102330001A000020822B00206C11002008000020D1
:10234000821900200900002010B53048008800F0F4
:102350002000A0B12E480088B0F5806F03DB2B4829
:10236000001D008810BD2948001D0088C1B2284802
:1023700002880088401C264B188026488154234838
:10238000008800F01000D0B10020234948804FF4AD
:10239000806220492048001DFDF7E6FE1C480088A9
:1023A0001D49488000201A4908804FF4806119486F
:1023B000FDF7F3FE154800881448001D00881348F7
:1023C000008800F08000F0B110480C30008800F068
:1023D0008000C0B1114801780078401C0F4A10708D
:1023E0000F48405C0949091D0880104600780D49D6
:1023F0000978884207D105480C30008820F0800019
:1024000002490C31088000BFACE7000000380140F1
:1024100010000020821A00206C0100200000002023
:10242000821500200100002010B586B00446364811
:10243000806940F48040344988610846806940F0F2
:10244000040088614815ADF8140003208DF81600CB
:1024500018208DF8170005A92C48FEF7D5FD4FF47C
:102460008060ADF8140004208DF8170005A92748F6
:10247000FEF7CAFD25208DF8100002208DF811000E
:102480008DF8120001208DF8130004A8FEF744FF18
:102490001F4800F071F900940020ADF80400ADF879
:1024A0000600ADF80800ADF80C000C20ADF80A00ED
:1024B0006946174800F0D4F9002240F22771144809
:1024C00000F0A8F9012240F22551114800F0A2F9CC
:1024D000012240F224410E4800F09CF901210C48F1
:1024E00000F034F94FF60F700949088001200949BE
:1024F00008700020488008A000F056FD14A000F0ED
:1025000053FD06B010BD000000100240000801405D
:10251000003801406C0100200D0D0D3D3D3D3D3D5D
:102520003D3D3D3D3D3D2053544D333246313033EA
:1025300020BFAAB7A2B0E5B3F5CABCBBAFB1A8B87B
:10254000E6203D3D3D3D3D3D3D3D3D3D3D0D0000D9
:10255000555341525431B3F5CABCBBAFC5E4D6C3E1
:10256000202020202020BDD3CAD5D6D0B6CFA1A20E
:10257000BFD5CFD0D6D0B6CF2C20B7A2CBCDD6D01A
:10258000B6CF0D0010B53048008800F02000A0B193
:102590002E480088B0F5806F03DB2B48001D0088B3
:1025A00010BD2948001D0088C1B228480288008853
:1025B000401C264B1880264881542348008800F090
:1025C0001000D8B100202349A1F806044FF480621E
:1025D0001F492148FDF7C8FD1C4800881D49A1F886
:1025E00006040020194908804FF480611848FDF75F
:1025F000D4FD154800881448001D00881248008842
:1026000000F08000F0B110480C30008800F080002D
:10261000C0B1124801780078401C104A1070104870
:10262000405C0949091D0880104600780D49097869
:10263000884207D104480C30008820F0800002490D
:102640000C31088000BFABE70044004014000020BC
:10265000821F00206C010020740500200200002071
:10266000821600200300002010B53048008800F0DA
:102670002000A0B12E480088B0F5806F03DB2B4806
:10268000001D008810BD2948001D0088C1B22848DF
:1026900002880088401C264B188026488154234815
:1026A000008800F01000D8B100202349A1F80A08E2
:1026B0004FF480621F492148FDF756FD1C480088F1
:1026C0001D49A1F80A080020194908804FF48061CB
:1026D0001848FDF762FD154800881448001D008861
:1026E0001248008800F08000F0B110480C300088DB
:1026F00000F08000C0B1124801780078401C104AF8
:1027000010701048405C0949091D08801046007887
:102710000D490978884207D104480C30008820F020
:10272000800002490C31088000BFABE70048004040
:1027300016000020822300206C0100207809002070
:1027400004000020821700200500002021B18289AA
:1027500042F40052828104E082894DF6FF731A40F0
:102760008281704700200349A1F80404A1F8020403
:1027700001207047822F002010B504462048844273
:1027800009D101218803FEF757FF00214FF4804053
:10279000FEF752FF32E01B48844209D10121480470
:1027A000FEF72AFF00214FF40030FEF725FF25E059
:1027B0001548844209D101218804FEF71DFF00213C
:1027C0004FF48020FEF718FF18E01048844209D12A
:1027D0000121C804FEF710FF00214FF40020FEF78E
:1027E0000BFF0BE00A48844208D101210805FEF7DF
:1027F00003FF00214FF48010FEF7FEFE10BD000025
:10280000003801400044004000480040004C0040B7
:1028100000500040F0B503460024002600250020AB
:1028200040F66A17B94200D100BF1846C1F34214FE
:1028300001F01F06012707FA06F5012C01D10C3023
:1028400004E0022C01D1103000E014301AB1076806
:102850002F43076002E00768AF430760F0BD000048
:102860002DE9F04786B005460E460024A24600BF7B
:10287000A1460027B08900B100BF2F462C8A4CF634
:10288000FF700440F08804432C82AC894EF6F310AC
:102890000440B08831890843718908430443AC81FE
:1028A000AC8A4FF6FF400440B0890443AC8201A8D3
:1028B000FEF7D2FE1F48874202D1DDF810A001E0EA
:1028C000DDF80CA0A88900F4004040B10AEBCA0072
:1028D00000EB0A1031684900B0FBF1F807E00AEBA1
:1028E000CA0000EB0A1031688900B0FBF1F86420DF
:1028F000B8FBF0F004012009642101FB1089A889CC
:1029000000F4004040B1322000EBC900B0FBF1F010
:1029100000F00700044308E0322000EB09106421B6
:10292000B0FBF1F000F00F0004432C8106B0BDE8CD
:10293000F08700000038014010B54FF48020FEF70A
:102940000DFB10BD704710B5002000F041F9642068
:1029500000F0C3FF012000F03BF9FFF78DF800F015
:1029600021F800F001F810BD10B5084808490860CA
:1029700002200968087207480749086007480849A3
:102980000860054909680868804710BDAC3500201B
:1029900058010020C00000205C010020F000002051
:1029A000640100200EB54FF48020FEF7D7FA4FF4F3
:1029B0008020009008208DF8050001208DF8060089
:1029C0006846FEF7D1FA14208DF8080001208DF832
:1029D000090000208DF80A0001208DF80B0002A8E4
:1029E000FEF79AFC2A208DF8080000208DF80900D7
:1029F00002A8FEF791FC0EBD10B588B0002469480E
:102A00000068694908800846008800F4007067493A
:102A10000988084050B14FF6FF5062490860644889
:102A20000078401C62490870FEF700FF5E4800888D
:102A300000F400405D490988084008B1FDF792FEA6
:102A40005948008800F4806058490988084030B12E
:102A50004FF6FF305349086056494868804752484E
:102A6000008800F4005051490988084018B14DF61B
:102A7000FF704C4908604C48008800F480504B4976
:102A80000988084030B14EF6FF70464908600020C2
:102A9000FEF752FE4448008800F40060434909886C
:102AA000084060B14448007810B1FFF795FA02E0A1
:102AB0000220FEF741FE4FF2FF703A4908603A48A3
:102AC000008800F48070394909880840002866D0E1
:102AD0004FF6FF6033490860081D006800F40040AD
:102AE000002856D035480068401C34490860084624
:102AF0000068032850D92B48001F006800F0080028
:102B0000002849D12748001F006880B22C4908607E
:102B1000002408E02B4901EB8400D0F8000C80B2BF
:102B20004DF82400641C082CF4D32548006840F0BC
:102B30000100234908600846006880B21949091F4E
:102B400008601F48006820F001001D490860084621
:102B5000006880B21349091F086000BF114800686F
:102B600000F480600028F9D04FF6FF300D4908606E
:102B7000002408E05DF8240080B2124A02EB8401D0
:102B8000C1F8000C641C082CF4D300200B49086029
:102B900002E00020094908600720FEF7CDFD08B0DB
:102BA00010BD0000445C00406C0000206201002069
:102BB0006E000020C00000204801002070000020AE
:102BC000740000200050004010B5FFF715FF10BD45
:102BD00010B5044601210420FEF71EFD3CB10F484C
:102BE000006880B220F002000C49086015E00B4834
:102BF000006880B240F00200084908600848006898
:102C000020F47F20064908600846006840F44C30F4
:102C10000860881402491031086010BD405C004013
:102C2000040801400020064908604FF43F40054970
:102C30000880084600880249091F08600020704784
:102C4000445C0040620100202DE9F04104460E463C
:102C5000002504F07F00FEF773FA054604F07F00BC
:102C6000FEF75EFA07462A4639463046FEF75AFC1A
:102C70002846BDE8F081000030B50246002017E08C
:102C8000145C0D4BB3F802545B1C5C555B1EB3F82F
:102C900002345B1C084CA4F802342346B3F8023417
:102CA000B3F5806F02D10023A4F80234431C98B21C
:102CB0008842E5DB30BD0000822F00200FB438B51C
:102CC00005A800900848009A049900F07DF90020BA
:102CD00000900548FDF76CFA84B221460248FFF7E0
:102CE000CBFF38BC5DF814FB8A34002000BFFEE740
:102CF000F0B5144604F1010C4FEA6C07DFF824C06C
:102D00000CEB41033D460AE00678401C90F800C0F9
:102D100046EA0C2223F8022B9B1C401C6D1E002D42
:102D2000F2D1F0BD0060004070B504460025212CB2
:102D300008D112480068007800F07F0021280ED1E9
:102D40000F4D0CE0202C0AD10C480068007800F0F0
:102D50007F00212800D10B4D20200B4908700DB9B0
:102D6000022070BD054800688561002103480068A5
:102D700041820020A8470020F3E70000580100200E
:102D8000B52D0008452F0008B000002010B50446FE
:102D900002492046FEF7A2FF10BD00001C010020E2
:102DA00010B5044602492046FEF798FF10BD00000A
:102DB00014010020014629B90820034A1268108234
:102DC000002070470148FCE758010020B4000020B3
:102DD00070B5054606480068C478042C01DD002063
:102DE00070BD044800EBC4012846FEF777FFF7E703
:102DF00058010020240100200246002901DD0220A4
:102E00007047012A01DD0220FAE70020F8E7000000
:102E1000014608480068007800F07F00212807D1AB
:102E2000022901D100207047222901D10020FAE7B0
:102E30000220F8E75801002010B500203449096845
:102E400088723448C0793249096848720020304994
:102E50000968C872FEF704FD4FF400710020FEF708
:102E6000F9FD10210020FEF7BBFD40210020FEF7F8
:102E700027FD80210020FEF795FD0020FDF7EAFDEB
:102E8000254890F82C100020FEF72CFD0020FEF7BE
:102E90006FFD00210120FEF7DDFDC0210120FEF7BE
:102EA00081FD20210120FEF79BFD00210120FEF77E
:102EB0003FFD4FF4C0610220FEF7CCFD4FF480715E
:102EC0000220FEF76FFD00210220FEF731FD2021D8
:102ED0000220FEF785FD00210320FEF7BBFD4FF425
:102EE00088710320FEF7ECFC40210320FEF7FAFC7A
:102EF0004FF440510320FEF71BFD00210320FEF795
:102F00006FFD0020FEF7B4FC01200449086010BDED
:102F1000580100204E3A0008C00000204401002063
:102F20000348817A11B10521024A116070470000FF
:102F3000AC3500204401002004200149086070479E
:102F400044010020014629B90820034A1268108272
:102F5000002070470148FCE758010020B400002021
:102F600010B505480078202804D1FFF7FBFB0020AE
:102F70000149087010BD0000B0000020704700003B
:102F800010B5FEF7FFF80020054909688872FEF7C2
:102F900003FBFFF747FE00200249086010BD000058
:102FA00058010020440100200FB4054B10B503A9BF
:102FB000044A029800F0ECF810BC5DF814FB000025
:102FC000ED3800080C00002037B514460846064BC3
:102FD0006A46214600F0DCF804466946002000F00D
:102FE0006EFC20463EBD0000BF38000802E008C865
:102FF000121F08C1002AFAD170477047002001E073
:1030000001C1121F002AFBD1704700002DE9FF5FAC
:1030100082B00021DDE90430020DDDF840B0034349
:1030200018D044F61050A2F2FF3242431514119802
:1030300001281FD0A5EB0B00401C5FEA000A4FF0EF
:1030400000064E4FDFF83891B046504615D5CAF10C
:10305000000413E0119801244AA3012801D16FEA6A
:103060000B010298119AC0E90031C0E9024206B092
:10307000BDE8F09FCBF10000DFE704460021404AA5
:10308000491842EB0450CDE9001012E0E00707D0E8
:1030900032463B4640464946FDF77FF98046894621
:1030A00032463B4610461946FDF777F906460F466D
:1030B0006410002CEAD1DDE90401DDE90023BAF156
:1030C000000F06DAFDF769F942464B46FDF765F950
:1030D00005E0FDF7D4F942464B46FDF7D0F904462A
:1030E0000E460022284BFDF751FA03D84FF0FF306F
:1030F000014607E00022254B20463146FDF7A6F8A1
:10310000FDF72CFA102409E0002C0ADB0A22002328
:10311000FDF76BF8039B30321A55641E50EA01022A
:10312000F2D1641C039AC4F111031444119A012AC8
:1031300003D0012208430DD10AE0084304D0002047
:103140004FF0110B119072E7A3EB0B056D1E0DE014
:103150005B4504DD4FF0000205F1010504E003DAF0
:103160004FF00002A5F10105002AECD00298119958
:10317000C0E90231C0E9004579E7000000001440D1
:103180000000F03F300000000000F0430000E03F8E
:103190002DE9FF4F95B09B468946064600250FE274
:1031A000252877D100242746F84A0121059400E01C
:1031B000044316F8013F203B01FA03F01042F7D117
:1031C00030782A2811D06FF02F033078A0F1300228
:1031D000092A16D8059A44F0020402EB820203EB96
:1031E00042021044761C0590EFE759F8042B059233
:1031F000002A03DA504244F40054059044F00204DB
:10320000761C30782E2816D116F8010F44F00404ED
:103210002A280DD06FF02F023078A0F13003092B4F
:1032200009D807EB870302EB4303C718761CF3E7C3
:1032300059F8047B761C30786C280FD006DC4C28BB
:1032400017D068280DD06A2814D104E0742810D053
:103250007A280FD10DE044F400140AE044F48014FD
:1032600001E044F440147278824202D104F58014E3
:10327000761C761C307866280BD013DC582877D063
:1032800009DC002875D04528F6D04628F4D0472818
:103290001AD19DE118E0632835D0642879D06528DB
:1032A00012D195E1702873D008DC6728F1D0692825
:1032B0006FD06E280DD06F2806D1B5E073282CD0C2
:1032C000752875D0782874D05A46179990476D1C88
:1032D00075E1C4F30250022809D003280DD0D9F8B3
:1032E000001004280DD00D6009F1040967E1D9F838
:1032F0000010EA17C1E90052F6E7D9F800100D8076
:10330000F2E70D70F0E719F8041B8DF800100020AB
:103310008DF80100EA46012003E059F804AB4FF0B4
:10332000FF3061074FF0000102D40DE008F1010108
:103330008846B9420FDA8045F8DB1AF808100029F0
:10334000F4D108E008F1010188468142FADB1AF85D
:1033500008100029F6D105985B46A0EB0807214626
:103360003846179A00F094FA284400EB080507E065
:103370004DE029E10DE01AF8010B5A4617999047E4
:10338000B8F10108F7D25B4621463846179A13E197
:1033900042E00A220092C4F302524FF0000A022ACD
:1033A00008D059F804CB032A4FEAEC710AD00DE09B
:1033B00029E02AE009F1070121F00702F2E802C141
:1033C000914609E00FFA8CFC4FEAEC71042A03D114
:1033D0004FFA8CFC4FEAEC71002907DA0A4600210B
:1033E000DCF1000C61EB02012D2202E0220504D584
:1033F0002B228DF80420012203E0E20701D02022D5
:10340000F7E7904659E00A2102E010220DE0102172
:103410004FF0000A00910BE010224FF0000A44F038
:1034200004040827009203E008224FF0000A0092EB
:10343000C4F30252022A05D059F804CB0021032A12
:1034400008D009E009F1070121F00702F2E802C102
:10345000914605E01FFA8CFC042A01D10CF0FF0C08
:103460004FF00008220728D5702806D0009B83F073
:10347000100353EA0A0305D00EE040228DF8042021
:10348000012208E05CEA010206D030228DF8042017
:103490008DF8050002229046009B83F0080353EA52
:1034A0000A030AD15CEA010201D1620705D5302284
:1034B0008DF804204FF001087F1E582804D034A056
:1034C00003900EA802900DE036A0F9E7534660463F
:1034D000009AFCF78AFE84460398825C0298401E9C
:1034E000029002705CEA0100F0D1029806A9081A65
:1034F00000F1200A600702D524F4803400E001279F
:10350000574502DDA7EB0A0000E0002000EB0A01AE
:10351000009005984144401A0590E00306D45B46AC
:103520002146179A059800F0B3F90544002706E0F4
:1035300001A85A46C05D179990476D1C7F1C4745EE
:10354000F6DBE0030CD55B462146179A059800F0A0
:103550009FF9054404E030205A46179990476D1CA6
:103560000099481E00900029F5DC08E002980299B5
:103570005A460078491C0291179990476D1CBAF180
:103580000001AAF1010AF1DC65E10000092801004F
:1035900030313233343536373839616263646566C9
:1035A000000000003031323334353637383941428B
:1035B000434445460000000000F058F90544761CDD
:1035C000307800287FF4ECAD19B02846BDE8F08FC4
:1035D000620700D4062709F1070222F0070CFCE875
:1035E0000223E14603F000485FEA080C02D00FF224
:1035F000702C0DE05FEA045C02D50FF2682C07E046
:103600005FEAC47C02D00FF2602C01E0AFF2700CD4
:103610004FF0FF3823F00043CDF850C065280CD0A0
:1036200006DC452809D046281DD047283DD13DE07D
:10363000662818D067287ED138E00021112F01DBE1
:10364000112000E0781CCDE9000106A90EA8FFF7C3
:10365000DDFCDDE90F010E9A03910021009207F1D4
:10366000010A04914DE04FF000400097CDE90110B0
:1036700006A90EA8FFF7CAFCDDE90F0203920E9B14
:1036800011990022DDF80CA00093049211B9791C65
:1036900000EB010AB7EB0A0004D4C0F1FF3007F1D8
:1036A000010A0490AAEB0700019044E0012F00DA20
:1036B00001270021112F01DD112000E03846CDE95E
:1036C000000106A90EA8FFF7A1FCDDE90F010E9A83
:1036D0000391002104910092BA4621070CD403996A
:1036E000514500DA8A46BAF1010F05DD009AAAF1C8
:1036F0000101515C302908D0B84202DA10F1040F00
:1037000006DA0121CDE9011015E0AAF10101E9E78E
:10371000002805DC049901440491AAEB000102E0B1
:10372000411C514500DD8A460499401A401C019015
:103730004FF000400290200704D40198504501DB6F
:10374000CDF8048000208DF84F0002980DF14F074E
:10375000B0F1004F25D02B200E9002984FF00208B8
:1037600000280CDA404202902D200E9007E00A213A
:103770000298FCF724FD3031029007F8011DB8F1E2
:103780000001A8F10108F2DC02980028EFD1791EAF
:103790000E980870307800F0200040F0450007F8DF
:1037A000020D12A8C01B00F107081498007800B1A0
:1037B000012000EB0A01019801EBE07105984144FA
:1037C000401A401E0590E00306D45B462146179A36
:1037D000059800F05DF805441498007818B15A4631
:1037E000179990476D1CE00324D55B462146179A34
:1037F000059800F04DF805441CE00498002807DB0C
:10380000DDE90301884203DD0098405C179901E07F
:10381000179930205A469047049805F10105401C3D
:1038200004900198401E019004D12E205A46179909
:1038300090476D1CBAF10001AAF1010ADDDC05E038
:1038400017F8010B5A46179990476D1CB8F1000103
:10385000A8F10108F4DC5B462146179A0598ABE60F
:103860002D0000002B000000200000002DE9F04199
:10387000044600251E461746880404D405E0394650
:103880002020B0476D1C641EF9D52846BDE8F081A4
:103890002DE9F041044600251E469046C80301D597
:1038A000302700E02027880404D505E0414638464B
:1038B000B0476D1C641EF9D52846BDE8F0810A6842
:1038C000531C0B601070704700EB8001C802002190
:1038D00000E0491C8142FCD3704742F61401484382
:1038E000002100E0491C8142FCD3704700BF054A1B
:1038F000128802F04002002AF9D0C2B2014B1B1D0F
:103900001A807047003801404FF4A060FDF73CFD7D
:1039100001210846FDF780FE2C48406840F0007009
:103920002A4948604FF4E130FEF77EFDFDF7AEFC1A
:103930002748006940F020002549086125480068B3
:1039400040F0040023490860FEF7FDFF3CE0C8207A
:10395000FFF7BAFF1E48C06880F020001C49C8600D
:103960001D4800781D49096888421AD01B48006824
:103970001949087008460078052809D118A0FFF7F2
:1039800013FB1448006840F480201249086008E0E6
:1039900019A0FFF709FB0F48006840F004000D492B
:1039A00008600D48B0F8060400280DDD0A48B0F89C
:1039B000061417A0FFF782F91A491BA0FFF77EF93A
:1039C00000200549A1F80604C1E7000000000140FD
:1039D00000100140100C0140822F00204401002003
:1039E000555342D0E9C4E2B4AEBFDAA3BAC1ACBD0C
:1039F000D3B3C9B9A60D0A00555342D0E9C4E2B405
:103A0000AEBFDAA3BAC1ACBDD3CAA7B0DC0D0A0001
:103A1000555342CAD5B5BD3A2025644279746573C1
:103A20000D0A00008A330020555342CAD5B5BDCADD
:103A3000FDBEDD3C3C3C3A25730D0D001201000239
:103A40000200004083044057000201020301090202
:103A50004300020100C0320904000001020201001B
:103A6000052400100105240100010424020205249C
:103A7000060001070582030800FF09040100020A8D
:103A80000000000705030240000007058102400016
:103A900000040309042603530054004D0069006329
:103AA0000072006F0065006C0065006300740072B6
:103AB000006F006E0069006300730032035300540E
:103AC000004D00330032002000560069007200747F
:103AD00000750061006C00200043004F004D002085
:103AE0000050006F007200740020002000000000F1
:103AF000103B0008000000206C010000FC060008DC
:103B0000983B00086C0100205C380000FC2F000886
:103B1000013E2D0102030404100C060708090204EB
:103B200006081A03531254124D1233021F32139512
:103B30000E0C1C081713040B10250F145133C2016F
:103B400012081A040713812F1408392E1B08610864
:103B50001A7D0413292D1B0811101AF9081AA10443
:103B60001A8D041AD10441324029441A2128091619
:103B7000741A391C133C3A3308121A4E0832431A8D
:103B800091082A04B4190832261ABB0829E0224EEB
:083B900073201A2992012000A4
:0400000508000131BD
:00000001FF
