:020000040800F2
:1000000030360020450100088D0F0008A30D0008C0
:10001000890F000825020008C52000080000000024
:100020000000000000000000000000004D1100086A
:1000300029020008000000001510000851110008F6
:100040005F0100085F0100085F0100085F01000810
:100050005F0100085F010008BD0A0008110B0008DD
:100060005F0100085F010008650B00085F010008E0
:100070005F0100085F0100085F0100085F010008E0
:100080005F0100085F0100085F0100085F010008D0
:100090005F0100085F0100085F0100085F010008C0
:1000A0005F0100085F0100085F0100085F010008B0
:1000B0005F0100085F0100085F0100085F010008A0
:1000C0005F0100085F0100085F0100085F01000890
:1000D0005F01000869170008151A00087D1C000858
:1000E0005F0100085F0100085F0100085F01000870
:1000F0005F0100085F0100085F0100085F01000860
:100100005F0100085F0100085F0100085F0100084F
:100110009D1200080D1500085F0100085F0100082E
:100120005F0100085F0100085F0100085F0100082F
:10013000DFF80CD000F064F800480047BD24000848
:10014000303600200648804706480047FEE7FEE7B5
:10015000FEE7FEE7FEE7FEE7FEE7FEE7FEE7FEE777
:10016000691100083101000840EA01039B0703D030
:1001700009E008C9121F08C0042AFAD203E011F8E6
:10018000013B00F8013B521EF9D27047D2B201E0A8
:1001900000F8012B491EFBD270470022F6E710B58C
:1001A00013460A4604461946FFF7F0FF204610BDE5
:1001B00030B505462A460B4612F8010B13F8014BE1
:1001C00008B1A042F8D01CB1002802D06D1CF1E7A4
:1001D000284630BD30B50B460146002020220124C0
:1001E00009E021FA02F59D4205D303FA02F5491B05
:1001F00004FA02F52844151EA2F10102F1DC30BD1B
:10020000064C074D06E0E06840F0010394E8070063
:1002100098471034AC42F6D3FFF78EFF0027000852
:100220002027000800BFFEE7704700002DE9F041DD
:1002300005460E461446002700F0B0F8284600F0A8
:100240009FFB14E000F016F838B131460848FFF77C
:10025000AFFF10B10120BDE8F081012002F00EF9DE
:10026000781C80B20746A04201D90020F3E7E9E7F5
:100270006C2D002010B53E48D0F8C0043D4988429E
:1002800010D13D48408868B13B4840883849488093
:10029000084642883849091D001DFFF765FF002008
:1002A000354948803248D0F8C0043449884212D1D8
:1002B0003148B0F8060470B12F48B0F806042C4954
:1002C0004880084642882E49001DFFF74DFF002058
:1002D0002949A1F806042648D0F8C00429498842D3
:1002E00012D12548B0F80A0870B12348B0F80A08BE
:1002F0001F494880084642882349001DFFF734FF04
:1003000000201D49A1F80A081948D0F8C0041F4967
:10031000884212D11848B0F80E0C70B11648B0F8E7
:100320000E0C13494880084642881949001DFFF702
:100330001BFF00201049A1F80E0C0D48D0F8C00496
:100340001449884210D11448408A68B11248408A42
:1003500007494880084642880F491431001DFFF7BD
:1003600003FF00210C4841820148408810BD000075
:10037000682D00200038014050000020004400405B
:1003800058040020004800405C080020004C004059
:10039000600C0020005000405010002010B51D4897
:1003A000D0F8C0041C49884202D100201B49488073
:1003B0001848D0F8C0041A49884203D100201749D0
:1003C000A1F806041348D0F8C0041649884203D1A6
:1003D00000201249A1F80A080E48D0F8C0041249BA
:1003E000884203D100200D49A1F80E0C0948D0F82D
:1003F000C0040E49884202D100210D4841820020EC
:10040000044948804FF496610248001DFFF7C5FE7D
:1004100010BD0000682D0020003801405000002071
:100420000044004000480040004C004000500040A4
:100430005010002010B5012440F6B8320BA10CA0DA
:10044000FFF7F4FE044040F6B8320DA10DA0FFF70F
:10045000EDFE0440FFF7A2FF1CB10EA001F034FE38
:1004600002E012A001F030FE204610BD4F4B00000C
:1004700041542B4349504D4F44453D310D0A000036
:100480003E00000041542B43495053454E440D0A51
:1004900000000000B4F2BFAACDB8C3F7B4ABCAE401
:1004A0003A2020B3C9B9A60D0A000000B4F2BFAAD1
:1004B000CDB8C3F7B4ABCAE43A2020CAA7B0DC0D6C
:1004C0000A00000010B542F2107217A117A0FFF742
:1004D000ADFE002823D019A11B48FFF769FE18B113
:1004E000FFF75CFF022010BD18A11748FFF760FE60
:1004F00018B1FFF753FF0320F5E717A11248FFF7E4
:1005000057FE18B1FFF74AFF0420ECE715A10E488B
:10051000FFF74EFE18B1FFF741FF0520E3E7FFF7B5
:100520003DFF0020DFE700004F4B000041542B430C
:1005300049505354415455530D0A000053544154EB
:1005400055533A32000000006C2D002053544154A2
:1005500055533A33000000005354415455533A3434
:10056000000000005354415455533A350000000038
:1005700070B504460D4624A001F0A6FD4FF4967018
:1005800001F07CFF2948844202D1284601F05CF941
:100590002748844202D1284601F0AEFA2548844219
:1005A00002D1284601F0DCFB2348844202D12846D0
:1005B00000F0E6FE2148844202D1284601F00EF800
:1005C00000201F4908700846C0F8C044C0F8BC5459
:1005D00040F2DC521BA11CA0FFF728FE18B101203D
:1005E0001749087002E00020154908701448007887
:1005F00018B117A001F068FD02E01BA001F064FD36
:100600000F48007870BD00000D0A4553503832364F
:100610003620BFAACABCC5E4D6C3BCB0B2E2CAD4B5
:100620002E2E2E2E2E2E0D0A000000000038014026
:100630000044004000480040004C00400050004092
:10064000682D00204F4B000041540D0A00000000AF
:10065000C4A3BFE9C1ACBDD3B2E2CAD43A2020B32F
:10066000C9B9A60D0A000000C4A3BFE9C1ACBDD33F
:10067000B2E2CAD43A2020CAA7B0DC0D0A000000BA
:1006800070B590B005460E46002440F6B8323EA143
:100690003FA0FFF7CBFD18B141A001F015FD02E02E
:1006A00045A001F011FD40F6B83249A149A0FFF77D
:1006B000BDFD18B14BA001F007FD02E04FA001F015
:1006C00003FD40F6B83230A152A0FFF7AFFD18B1DC
:1006D00053A001F0F9FC02E057A001F0F5FC40F650
:1006E000B8323BA15AA0FFF7A1FD18B15CA001F000
:1006F000EBFC02E060A001F0E7FC3246294664A072
:1007000001F0E2FC33462A4667A101A801F0ECFCA7
:100710006BA001F0D9FC44F620626DA101A8FFF79F
:1007200085FD18B16CA001F0CFFC02E06CA001F0D7
:10073000CBFC6DA001F0C8FCFFF7C4FE04462CB949
:100740006DA001F0C1FC002010B070BD022C04D1DE
:1007500070A001F0B9FC0120F6E7032C04D172A0CF
:1007600001F0B2FC0020EFE7042C04D177A001F0E7
:10077000ABFC0020E8E7052C04D17BA001F0A4FC31
:100780000020E1E70020DFE7726561647900000086
:1007900041542B524553544F52450D0A000000005E
:1007A000BBD6B8B4B3F6B3A7C9E8D6C33A2020B3D2
:1007B000C9B9A60D0A000000BBD6B8B4B3F6B3A7FA
:1007C000C9E8D6C33A20CAA7B0DC0D0A0000000071
:1007D0004F4B000041542B43574D4F44453D310D85
:1007E0000A000000C5E4D6C320535441C4A3CABDC7
:1007F0003A2020B3C9B9A60D0A000000C5E4D6C34B
:1008000020535441C4A3CABD3A20CAA7B0DC0D0A84
:100810000000000041542B5253540D0A0000000008
:10082000D6D8C6F420455350383236363A2020B355
:10083000C9B9A60D0A000000D6D8C6F42045535009
:10084000383236363A20CAA7B0DC0D0A0000000064
:1008500041542B4349504D55583D300D0A0000007E
:10086000B5A5C1ACBDD3C4A3CABD20203A2020B3D6
:10087000C9B9A60D0A000000B5A5C1ACBDD3C4A37B
:10088000CABD20203A20CAA7B0DC0D0A0000000033
:10089000D7BCB1B8C1ACBDD353534944A3BA20258A
:1008A000732C2025730D0A0041542B43574A4150A5
:1008B0003D222573222C222573220D0A0000000000
:1008C000BFAACABCC1ACBDD34150202E2E2E2000E1
:1008D0004F4B0D0A00000000B3C9B9A60D0A000075
:1008E000CAA7B0DC0D0A0000BBF1C8A1C1ACBDD3E2
:1008F000D7B4CCACA3BA000020CAA7B0DCA3ACD458
:10090000ADD2F2A3BABBF1C8A1CAA7B0DCA3A10DB6
:100910000A00000020B3C9B9A6A3ACD2D1BBF1B57F
:10092000C349500D0A00000020CAA7B0DCA3ACD414
:10093000ADD2F2A3BAD2D1C1ACBDD3A3ACB5ABCECC
:10094000B4BBF1B5C34950A3A10D0A0020CAA7B09A
:10095000DCA3ACD4ADD2F2A3BACAA7C8A5C1ACBDC2
:10096000D3A3A10D0A00000020CAA7B0DCA3ACD419
:10097000ADD2F2A3BAC3BBD3D0C1ACBDD30D0A0074
:1009800010B504461648D0F8C0041649884202D172
:10099000204601F02FF81248D0F8C00412498842CE
:1009A00002D1204601F05AF90D48D0F8C0040F4991
:1009B000884202D1204601F089FA0948D0F8C004E3
:1009C0000B49884202D1204600F090FD0448D0F83F
:1009D000C0040849884202D1204600F0B5FE10BD8F
:1009E000682D0020003801400044004000480040CD
:1009F000004C00400050004070B59AB004460D46CF
:100A0000002610A001F060FB2B46224611A101A890
:100A100001F06AFB44F6206215A101A8FFF706FC6D
:100A200008B1012600E000261EB113A001F04CFB26
:100A300002E013A001F048FBFFF7B0FC30461AB00B
:100A400070BD0000BDA8C1A2544350CDA8D0C52E92
:100A50002E2E200041542B43495053544152543DB3
:100A600022544350222C222573222C25640D0A0087
:100A70004F4B0D0A00000000B3C9B9A60D0A0000D3
:100A8000CAA7B0DC2C20C7EBBCECB2E9415050A3A4
:100A9000BA4950B5D8D6B7A1A2B6CBBFDABAC5A16C
:100AA000A2CAC7B7F1D2D1B6CFBFAABEC9B5C4C119
:100AB000ACBDD3D7B4CCAC0D0A00000010B50A48C9
:100AC000006800F0010070B10748006840F00100C4
:100AD0000549086005A001F0F7FA0C48006880F0AD
:100AE00004000A49086010BD14040140B5DA203141
:100AF00020B8F6B0B4BCFCB1BBB0B4CFC22C20C09F
:100B0000B6B5C6B7B4D7AA0D000000000C0C014062
:100B100010B50A48006800F0020070B1074800688C
:100B200040F002000549086005A001F0CDFA0C482C
:100B3000006880F004000A49086010BD14040140F8
:100B4000B5DA203220B8F6B0B4BCFCB1BBB0B4CF3B
:100B5000C22C20C0B6B5C6B7B4D7AA0D000000009D
:100B60000C0C014010B50A48006800F0100070B18C
:100B70000748006840F010000549086005A001F032
:100B8000A3FA0C48006880F004000A49086010BD10
:100B900014040140B5DA203320B8F6B0B4BCFCB17F
:100BA000BBB0B4CFC22C20C0B6B5C6B7B4D7AA0D5F
:100BB000000000000C0C0140002123498279002A2A
:100BC0003AD00A46126803689A430B461A600A1D17
:100BD000126803689A430B1D1A60027911440A686F
:100BE00003681A430A60184A0832126803689A4375
:100BF000154B08331A601A1D126803689A43124B8A
:100C00000C331A604279102A0ED11A1F1268036839
:100C10001A430D4B08331A601A1D126803681A43F1
:100C2000094B0C331A600DE00749427911440A68F8
:100C300003681A430A6005E0027911440A680368F0
:100C40009A430A60704700000004014030B500225A
:100C50008B071C0F0F2303FA04F20B4B8C1053F875
:100C600024309343084C8D1044F8253023468C10D3
:100C700053F824308C07240F00FA04F42343024C69
:100C80008D1044F8253030BD080001402DE9F041B9
:100C9000024600250026002000230024002791F8AA
:100CA00003C00CF00F0591F803C00CF0100CBCF160
:100CB000000F03D091F802C04CEA050591F800C07E
:100CC000BCF1000F31D0146800202BE04FF0010C74
:100CD0000CFA00F3B1F800C00CEA03069E4220D1E2
:100CE00083004FF00F0C0CFA03F7BC4305FA03FC2A
:100CF0004CEA040491F803C0BCF1280F06D14FF070
:100D0000010C0CFA00FCC2F814C00AE091F803C010
:100D1000BCF1480F05D14FF0010C0CFA00FCC2F8F1
:100D200010C0401C0828D1D31460B1F800C0BCF139
:100D3000FF0F34DD546800202EE000F1080C4FF066
:100D4000010808FA0CF3B1F800C00CEA03069E4251
:100D500021D183004FF00F0C0CFA03F7BC4305FAC6
:100D600003FC4CEA040491F803C0BCF1280F05D140
:100D700000F1080C08FA0CF8C2F8148091F803C0CE
:100D8000BCF1480F07D100F1080C4FF0010808FA38
:100D90000CF8C2F81080401C0828CED35460BDE87F
:100DA000F08100BFFEE700001FB50121084600F0FA
:100DB00043F94A48806940F0DC00484988610120D5
:100DC000ADF80C0028208DF80F0001208DF80E00E2
:100DD00003A94348FFF75AFF06208DF808000120B9
:100DE0008DF8090000208DF80A0001208DF80B0015
:100DF00002A800F0CDF800210846FFF727FF0120E8
:100E0000009000208DF8040008208DF805000120D6
:100E10008DF806006846FFF7CFFE0220ADF80C0003
:100E200048208DF80F0001208DF80E0003A92C48F2
:100E3000FFF72CFF07208DF8080001208DF809002E
:100E400000208DF80A0001208DF80B0002A800F0A8
:100E50009FF801210020FFF7F9FE022000900020FA
:100E60008DF804000C208DF8050001208DF8060097
:100E70006846FFF7A1FE1020ADF80C0048208DF861
:100E80000F0001208DF80E0003A91548FFF7FEFEA4
:100E90000A208DF8080001208DF8090000208DF847
:100EA0000A0001208DF80B0002A800F071F804215F
:100EB0000020FFF7CBFE1020009000208DF80400EA
:100EC0000C208DF8050001208DF806006846FFF71C
:100ED00073FE04A001F0F8F81FBD000000100240EE
:100EE00000080140B0B4BCFC20B3F5CABCBBAF20C5
:100EF00020202020202020202020C5E4D6C3CDEAB9
:100F0000B3C90D0008B50121102000F095F80121AA
:100F1000082000F091F82020ADF8000010208DF896
:100F2000030003208DF8020069460D48FFF7AEFE6E
:100F30000420ADF8000010208DF8030003208DF888
:100F4000020069460748FFF7A1FE20200449086116
:100F5000042004491031086003A001F0B5F808BD71
:100F600000100140000C01404C454420D6B8CABED8
:100F7000B5C6202020202020202020202020C5E4CD
:100F8000D6C3CDEAB3C90D0000BFFEE7704700002D
:100F900070B5002100230F22C47804B3154C2468D7
:100FA00004F4E064C4F5E064210AC1F10403CA401A
:100FB000447804FA03F184781440214309010E4C6B
:100FC0000678A155047804F01F050124AC4005788B
:100FD0006D11AD0005F1E025C5F8004109E0047888
:100FE00004F01F050124AC40044D0678761145F845
:100FF000264070BD0CED00E000E400E080E100E080
:1010000002490143024A1160704700000000FA05DE
:101010000CED00E07047000029B1064A1269024356
:10102000044B1A6104E0034A12698243014B1A61BE
:10103000704700000010024029B1064A926902433D
:10104000044B9A6104E0034A92698243014B9A611E
:10105000704700000010024029B1064AD2680243DE
:10106000044BDA6004E0034AD2688243014BDA6041
:10107000704700000010024030B50021002200241B
:1010800000232D4D6D6805F00C0121B1042905D018
:10109000082923D105E0294D056022E0274D056090
:1010A0001FE0254D6D6805F47012234D6D6805F441
:1010B0008034022505EB92421CB9214D5543056051
:1010C0000BE01D4D6D6805F400351DB11C4D5543F9
:1010D000056002E0194D5543056002E0174D0560BB
:1010E00000BF00BF144D6D6805F0F0010909154DF2
:1010F0006B5C0568DD4045600F4D6D6805F4E0618F
:10110000090A104D6B5C4568DD4085600A4D6D68CD
:1011100005F46051C90A0B4D6B5C4568DD40C56044
:10112000054D6D6805F44041890B074D6B5CC56842
:10113000B5FBF3F5056130BD0010024000127A00E6
:1011400000093D003A0000204A00002070470000DE
:101150000448D0E900305A1C40F100000149C1E9BF
:1011600000207047200000200CB53D48006840F08A
:1011700001003B490860084640683A490840384940
:1011800048600846406820F4FE0048604FF41F00A5
:1011900088600020019000900846006840F480308C
:1011A000086000BF2E48006800F4003000900198ED
:1011B000401C0190009818B90198B0F5A06FF1D1CA
:1011C0002748006800F40030002843D02648006813
:1011D00040F01000244908600846006820F0030031
:1011E00008600846006840F0020008601C4840683B
:1011F0001B4948600846406848600846406840F41B
:10120000806048600846406820F47C1048600846CA
:10121000406840F4E81048600846006840F080707C
:10122000086000BF0E48006800F000700028F9D088
:101230000B48406820F003000949486008464068B0
:1012400040F00200486000BF0548406800F00C0014
:101250000828F9D14FF00060044908600CBD000077
:10126000001002400000FFF80020024008ED00E0FE
:101270000848806940F001000649886106484068D6
:1012800020F0E060044948600846406840F0007083
:1012900048607047001002400000014010B530481F
:1012A000008800F02000A0B12E480088B0F5806FC3
:1012B00003DB2B48001D008810BD2948001D008855
:1012C000C1B2284802880088401C264B1880264856
:1012D00081542348008800F01000D8B10020234931
:1012E000A1F80E0C4FF480621F492148FEF73CFF25
:1012F0001C4800881D49A1F80E0C002019490880DF
:101300004FF480611848FEF748FF154800881448DC
:10131000001D00881248008800F08000F0B11048DD
:101320000C30008800F08000C0B1124801780078CD
:10133000401C104A10701048405C0949091D088083
:10134000104600780D490978884207D104480C30CE
:10135000008820F0800002490C31088000BFABE714
:10136000004C00401800002066250020500000209E
:10137000600C0020060000206617002007000020F7
:1013800010B586B004463548C06940F400203349A2
:10139000C8610846806940F0100088610815ADF802
:1013A000140003208DF8160018208DF8170005A9E9
:1013B0002B48FFF76BFC4FF40060ADF81400482099
:1013C0008DF8170005A92648FFF760FC34208DF83A
:1013D000100002208DF811008DF8120001208DF808
:1013E000130004A8FFF7D4FD1E4800F08BFD009405
:1013F0000020ADF80400ADF80600ADF80800ADF827
:101400000C000C20ADF80A006946164800F0EEFD0D
:10141000002240F22771134800F0C2FD012240F281
:101420002551104800F0BCFD012240F224410D4836
:1014300000F0B6FD01210B4800F058FD4FF60F708B
:10144000084908800120084981F80C0C0020A1F807
:101450000E0C06A000F038FE06B010BD00100240D1
:1014600000100140004C0040500000200D5541523A
:10147000543420B3F5CABCBBAFC5E4D6C32020208A
:10148000202020BDD3CAD5D6D0B6CFA1A2BFD5CFFC
:10149000D0D6D0B6CF2C20B7A2CBCDD6D0B6CF0DDC
:1014A0000000000070B5024600200AE0145C0C4BFE
:1014B0001D781B785B1C0A4E33700A4B5C55431C2D
:1014C000D8B28842F2DB0848008800F0800028B9D2
:1014D0000548008840F08000034B188070BD000074
:1014E00007000020661700200C4C004070B5044631
:1014F0000025264601E0681C85B216F8011B00296C
:10150000F9D1E9B22046FFF7CDFF70BD10B52C48E8
:10151000008800F0200090B12A480088B0F5806F64
:1015200002DB2748808810BD25488088C1B2254845
:1015300002880088401C234B18802348815420488F
:10154000008800F01000C0B10021204841824FF413
:1015500080621D491430FEF707FE1A4801881B48B7
:1015600041820020174908804FF480611648FEF739
:1015700014FE13480088124880881148008800F043
:101580008000D0B10E48808900F08000A8B11048DA
:1015900001780078401C0E4A10700E48405C0849E3
:1015A0008880104600780C490978884205D10448A3
:1015B000808920F080000249888100BFB3E70000E5
:1015C000005000401A000020662900205010002022
:1015D00008000020661800200900002010B586B021
:1015E00004463448C06940F480103249C861084656
:1015F000806940F0300088618814ADF81400032041
:101600008DF8160018208DF8170005A92A48FFF755
:101610003DFB0420ADF8140048208DF8170005A903
:101620002648FFF733FB35208DF8100002208DF897
:1016300011008DF8120001208DF8130004A8FFF7A7
:10164000A7FC1F4800F05EFC00940020ADF80400E9
:10165000ADF80600ADF808000C20ADF80A00002037
:10166000ADF80C006946164800F0C0FC002240F2BC
:101670002771134800F094FC012240F225511048D4
:1016800000F08EFC012240F224410D4800F088FC5D
:1016900001210B4800F02AFC4FF60F700849088022
:1016A0000121084801740021418207A000F00CFDCF
:1016B00006B010BD001002400010014000140140AF
:1016C00000500040501000200D554152543520B3B9
:1016D000F5CABCBBAFC5E4D6C3202020202020BD66
:1016E000D3CAD5D6D0B6CFA1A2BFD5CFD0D6D0B68B
:1016F000CF2C20B7A2CBCDD6D0B6CF0D00000000A6
:1017000070B5024600200AE0145C0C4B1D781B7873
:101710005B1C0A4E33700A4B5C55431CD8B288429E
:10172000F2DB0848808900F0800028B905488089EC
:1017300040F08000034B988170BD0000090000203C
:10174000661800200050004070B50446002526466B
:1017500001E0681C85B216F8011B0029F9D1E9B235
:101760002046FFF7CDFF70BD10B53048008800F06F
:101770002000A0B12E480088B0F5806F03DB2B4815
:10178000001D008810BD2948001D0088C1B22848EE
:1017900002880088401C264B188026488154234824
:1017A000008800F01000D0B10020234948804FF499
:1017B000806220492048001DFEF7D6FC1C480088A6
:1017C0001D49488000201A4908804FF4806119485B
:1017D000FEF7E3FC154800881448001D00881348F4
:1017E000008800F08000F0B110480C30008800F054
:1017F0008000C0B1114801780078401C0F4A107079
:101800000F48405C0949091D0880104600780D49C1
:101810000978884207D105480C30008820F0800004
:1018200002490C31088000BFACE7000000380140DD
:101830001000002066190020500000200000002049
:10184000661400200100002010B586B0044636481A
:10185000806940F48040344988610846806940F0DE
:10186000040088614815ADF8140003208DF81600B7
:1018700018208DF8170005A92C48FFF707FA4FF438
:101880008060ADF8140048208DF8170005A927489E
:10189000FFF7FCF925208DF8100002208DF81100CB
:1018A0008DF8120001208DF8130004A8FFF770FBDB
:1018B0001F4800F027FB00940020ADF80400ADF8AD
:1018C0000600ADF80800ADF80C000C20ADF80A00D9
:1018D0006946174800F08AFB002240F2277114483D
:1018E00000F05EFB012240F22551114800F058FB48
:1018F000012240F224410E4800F052FB01210C4825
:1019000000F0F4FA4FF60F700949088001200949E8
:1019100008700020488008A000F0D6FB16A000F058
:10192000D3FB06B010BD00000010024000080140CB
:1019300000380140500000200D0D0D3D3D3D3D3D66
:101940003D3D3D3D3D3D20C4A7C5AEBFAAB7A2B0B9
:10195000E52053544D33324631303320CDE2C9E8CF
:10196000B3F5CABCB1A8B8E6203D3D3D3D3D3D3D87
:101970003D3D3D3D0D000000555341525431B3F5FE
:10198000CABCBBAFC5E4D6C3202020202020BDD3D5
:10199000CAD5D6D0B6CFA1A2BFD5CFD0D6D0B6CFDC
:1019A0002C20B7A2CBCDD6D0B6CF0D0070B5024655
:1019B00000200AE0145C0C4B1D781B785B1C0A4E5F
:1019C00033700A4B5C55431CD8B28842F2DB08489E
:1019D000008800F0800028B90548008840F08000A9
:1019E000034B188070BD0000010000206614002029
:1019F0000C38014070B504460025264601E0681CFD
:101A000085B216F8011B0029F9D1E9B22046FFF78B
:101A1000CDFF70BD10B53048008800F02000A0B1A7
:101A20002E480088B0F5806F03DB2B48001D00882E
:101A300010BD2948001D0088C1B2284802880088CE
:101A4000401C264B1880264881542348008800F00B
:101A50001000D8B100202349A1F806044FF4806299
:101A60001F492148FEF780FB1C4800881D49A1F84A
:101A700006040020194908804FF480611848FEF7D9
:101A80008CFB154800881448001D00881248008807
:101A900000F08000F0B110480C30008800F08000A9
:101AA000C0B1124801780078401C104A10701048EC
:101AB000405C0949091D0880104600780D490978E5
:101AC000884207D104480C30008820F08000024989
:101AD0000C31088000BFABE7004400401400002038
:101AE000661D002050000020580400200200002045
:101AF000661500200300002010B586B00446334868
:101B0000C06940F400303149C8610846806940F03E
:101B1000040088610420ADF8140003208DF816003D
:101B200018208DF8170005A92948FFF7AFF80820FD
:101B3000ADF8140048208DF8170005A92448FFF7D8
:101B4000A5F826208DF8100002208DF811008DF8E0
:101B5000120001208DF8130004A8FFF719FA009471
:101B60000020ADF80400ADF80600ADF80800ADF8AF
:101B70000C000C20ADF80A006946164800F036FA51
:101B8000002240F22771134800F00AFA012240F2C5
:101B90002551104800F004FA012240F224410D487A
:101BA00000F0FEF901210B4800F0A0F94FF60F708C
:101BB000084908800120084981F804040020A1F8A0
:101BC000060406A000F080FA06B010BD0010024026
:101BD0000008014000440040500000200D555341D2
:101BE000525432B3F5CABCBBAFC5E4D6C3202020E3
:101BF000202020BDD3CAD5D6D0B6CFA1A2BFD5CF85
:101C0000D0D6D0B6CF2C20B7A2CBCDD6D0B6CF0D64
:101C10000000000070B5024600200AE0145C0C4B86
:101C20001D781B785B1C0A4E33700A4B5C55431CB5
:101C3000D8B28842F2DB0848008800F0800028B95A
:101C40000548008840F08000034B188070BD0000FC
:101C500003000020661500200C44004070B50446C7
:101C60000025264601E0681C85B216F8011B0029F4
:101C7000F9D1E9B22046FFF7CDFF70BD10B530486D
:101C8000008800F02000A0B12E480088B0F5806FD9
:101C900003DB2B48001D008810BD2948001D00886B
:101CA000C1B2284802880088401C264B188026486C
:101CB00081542348008800F01000D8B10020234947
:101CC000A1F80A084FF480621F492148FEF74CFA38
:101CD0001C4800881D49A1F80A08002019490880FD
:101CE0004FF480611848FEF758FA154800881448E8
:101CF000001D00881248008800F08000F0B11048F4
:101D00000C30008800F08000C0B1124801780078E3
:101D1000401C104A10701048405C0949091D088099
:101D2000104600780D490978884207D104480C30E4
:101D3000008820F0800002490C31088000BFABE72A
:101D400000480040160000206621002050000020BE
:101D50005C0800200400002066160020050000201A
:101D600010B586B004463548C06940F48020334938
:101D7000C8610846806940F0080088610815ADF820
:101D8000140003208DF8160018208DF8170005A9FF
:101D90002B48FEF77BFF4FF40060ADF8140048209D
:101DA0008DF8170005A92648FEF770FF27208DF84B
:101DB000100002208DF811008DF8120001208DF81E
:101DC000130004A8FFF7E4F81E4800F09BF8009405
:101DD0000020ADF80400ADF80600ADF80800ADF83D
:101DE0000C000C20ADF80A006946164800F0FEF819
:101DF000002240F22771134800F0D2F8012240F28D
:101E00002551104800F0CCF8012240F224410D4841
:101E100000F0C6F801210B4800F068F84FF60F708B
:101E2000084908800120084981F808080020A1F825
:101E30000A0806A000F048F906B010BD00100240E4
:101E4000000C014000480040500000200D55534157
:101E5000525433B3F5CABCBBAFC5E4D6C32020206F
:101E6000202020BDD3CAD5D6D0B6CFA1A2BFD5CF12
:101E7000D0D6D0B6CF2C20B7A2CBCDD6D0B6CF0DF2
:101E80000000000070B5024600200AE0145C0C4B14
:101E90001D781B785B1C0A4E33700A4B5C55431C43
:101EA000D8B28842F2DB0848008800F0800028B9E8
:101EB0000548008840F08000034B188070BD00008A
:101EC00005000020661600200C48004070B504464E
:101ED0000025264601E0681C85B216F8011B002982
:101EE000F9D1E9B22046FFF7CDFF70BD21B182895B
:101EF00042F40052828104E082894DF6FF731A4059
:101F00008281704710B504462048844209D10121DE
:101F10008803FFF7A1F800214FF48040FFF79CF8F9
:101F200032E01B48844209D101214804FFF774F8CC
:101F300000214FF40030FFF76FF825E01548844288
:101F400009D101218804FFF767F800214FF48020B0
:101F5000FFF762F818E01048844209D10121C80453
:101F6000FFF75AF800214FF40020FFF755F80BE077
:101F70000A48844208D101210805FFF74DF80021E5
:101F80004FF48010FFF748F810BD00000038014002
:101F90000044004000480040004C00400050004019
:101FA000F0B50346002400260025002040F66A17FD
:101FB000B94200D100BF1846C1F3421401F01F0618
:101FC000012707FA06F5012C01D10C3004E0022CA0
:101FD00001D1103000E014301AB107682F430760B8
:101FE00002E00768AF430760F0BD00002DE9F0474D
:101FF00086B005460E460024A24600BFA146002733
:10200000B08900B100BF2F462C8A4CF6FF70044007
:10201000F08804432C82AC894EF6F3100440B0885B
:1020200031890843718908430443AC81AC8A4FF677
:10203000FF400440B0890443AC8201A8FFF71CF8BC
:102040001F48874202D1DDF810A001E0DDF80CA0A6
:10205000A88900F4004040B10AEBCA0000EB0A1066
:1020600031684900B0FBF1F807E00AEBCA0000EB69
:102070000A1031688900B0FBF1F86420B8FBF0F079
:1020800004012009642101FB1089A88900F40040A3
:1020900040B1322000EBC900B0FBF1F000F00700C6
:1020A000044308E0322000EB09106421B0FBF1F09A
:1020B00000F00F0004432C8106B0BDE8F08700005B
:1020C0000038014000BFFEE70FB4054B10B503A96F
:1020D000044A029800F02CF810BC5DF814FB0000D4
:1020E000A12400080C0000200FB4084B10B504A96F
:1020F00002AA039800F01CF8044602A9002000F090
:10210000B8F9204610BC5DF814FB000073240008E9
:1021100002E008C8121F08C1002AFAD170477047B0
:10212000002001E001C1121F002AFBD1704700000E
:102130002DE9FF4F8BB088460546002606E025288E
:102140000BD0DDE90D1290476D1C761C2878002815
:10215000F5D10FB03046BDE8F08F0024A146A2466D
:102160000122AE4900E0044315F8013F203B02FA8A
:1021700003F00842F7D128782A2810D06FF02F02F8
:102180002878A0F13001092915D809EB890102EB63
:10219000410144F0020400EB01096D1CF0E758F81E
:1021A000041B5FEA010903D544F40054C9F1000996
:1021B00044F002046D1C28782E2817D115F8010F61
:1021C00044F004042A280ED06FF02F022878A0F1E2
:1021D000300109290AD80AEB8A0102EB410100EB20
:1021E000010A6D1CF2E758F804AB6D1C28786C28C6
:1021F0000FD006DC4C2817D068280DD06A2814D1DF
:1022000004E0742810D07A280FD10DE044F40014B3
:102210000AE044F4801401E044F4401469788142F7
:1022200002D104F580146D1C6D1C2878692865D0D6
:1022300006DC00288DD0632827D0642806D15DE015
:102240006E2808D073282AD0752877D0DDE90D12C2
:102250009047761CE0E0C4F30250022809D003281E
:102260000DD0D8F8001004280DD00E6008F1040835
:10227000D2E0D8F80010F217C1E90062F6E7D8F80A
:1022800000100E80F2E70E70F0E718F8041B8DF8CE
:10229000001000208DF80100EB46012003E058F803
:1022A00004BB4FF0FF3061074FF0000701D40AE094
:1022B0007F1C57450DDA8742FADB1BF8071000290F
:1022C000F6D106E07F1C8742FCDB1BF807100029D3
:1022D000F8D1DDE90D23A9EB07008146214600F086
:1022E000B1F83044C61904E0DDE90D121BF8010B0A
:1022F00090477F1EF8D22146484688E058F8040BE4
:10230000C4F302514FF00A0B032900D100B2042993
:1023100000D140B2002802DA40422D2102E021051E
:1023200005D52B218DF82410012104E006E0E107FA
:1023300010D02021F6E708AF089113E058F8040BFD
:10234000C4F302514FF00A0B032900D180B20429D3
:1023500000D1C0B20021EEE75946FDF73BFF303116
:1023600007F8011D0028F7D1ADEB070000F1200BA5
:10237000600702D524F4803401E04FF0010ADA4509
:1023800002DDAAEB0B0000E00020824600EB0B010F
:1023900008980144A9EB01000A90E00306D4DDE9A6
:1023A0000D2321460A9800F04DF806444FF000092D
:1023B00008E009A911F80900DDE90D12904709F1BB
:1023C0000109761C08998945F3DBE0030CD5DDE9AA
:1023D0000D2321460A9800F035F8064404E0DDE9B3
:1023E0000D1230209047761CBAF10001AAF1010AC3
:1023F000F5DC05E0DDE90D1217F8010B9047761CBE
:10240000BBF10001ABF1010BF4DC0A982146DDE9D8
:102410000D2300F005F806446D1C97E6092801001D
:102420002DE9F041044600251E461746880404D4D1
:1024300005E039462020B0476D1C641EF9D52846BA
:10244000BDE8F0812DE9F041044600251E46904686
:10245000C80301D5302700E02027880404D505E013
:1024600041463846B0476D1C641EF9D52846BDE884
:10247000F0810A68531C0B601070704741F66411BC
:102480004843002100E0491C8142FCD3704742F6DA
:10249000D9614843002100E0491C8142FCD37047C8
:1024A00000BF054A128802F04002002AF9D0C2B2E9
:1024B000014B1B1D1A807047003801404FF4A0608B
:1024C000FEF79EFDFEF7D4FE4FF4E130FFF7BCF9B6
:1024D000FEF718FD4F48006840F480204D49086021
:1024E0004D48006940F400104B490861FEF75CFC60
:1024F0004FF4FA60FFF7CBFF4FF4E1314748FEF7A6
:1025000037F847A14AA0FEF7BBF840F2D2414BA0F2
:10251000FEF772FAFDF78EFF7AE0C820FFF7B7FFEB
:102520004948408858B14848001DFEF729FA4649F5
:10253000091D46A0FFF7C8FD002043494880FDF76C
:1025400099FE002864D046484188021D45A0FFF747
:10255000BBFD4DA14248001DFDF72AFE28B12E48C3
:10256000006940F400102C4908614AA13C48001D54
:10257000FDF71EFE28B12848006940F020002649DA
:10258000086147A13648001DFDF712FE28B1214819
:10259000006840F480201F49086044A13048001DB5
:1025A000FDF706FE28B11B48006840F004001949F9
:1025B000086042A12A48001DFDF7FAFD58B11648EF
:1025C000006940F40010144908611248006840F4A2
:1025D0008020104908603CA12148001DFDF7E8FD5E
:1025E00058B10D48006940F020000B4908610948C6
:1025F000006840F004000749086036A11848001D33
:10260000FDF7D6FD10B135A0FFF75EFDFDF7C6FE64
:1026100083E70000100C014000100140004C004016
:1026200035353032353836353530323538360000CC
:10263000434D43432D7A6D6C000000003139322E3A
:102640003136382E312E3200500000200D0AB7A24C
:10265000CBCDCAFDBEDD3E3E3EA3BA2573000000D1
:10266000682D00200D0A45535038323636CAD5B58C
:10267000BD20256420D7D6BDDACAFDBEDD3C3C3C7A
:10268000A3BA2573000000004C45445F5245445FE7
:102690004F4E00004C45445F5245445F4F46460054
:1026A0004C45445F424C55455F4F4E004C45445F9E
:1026B000424C55455F4F4646000000004C45445F84
:1026C000414C4C5F4F4E00004C45445F414C4C5FC9
:1026D0004F464600434C4F53454400004553503845
:1026E000323636D3EBC4BFB1EAB5C4CDA8D0C5C12C
:1026F000ACBDD3A3ACD2D1B6CFBFAAA3A10D0A0063
:1027000020270008000000205000000010210008D1
:102710007027000850000020E0350000202100084C
:1027200000000000000000000000000000000000A9
:102730000000000000000000000000000000000099
:102740000000000000000000000000000000000089
:102750000000000000000000000000000000010276
:102760000304010203040607080902040608000026
:0400000508000131BD
:00000001FF
